{
  "_format": "hh-sol-artifact-1",
  "contractName": "Arena",
  "sourceName": "contracts/Arena.sol",
  "abi": [
    {
      "inputs": [],
      "stateMutability": "nonpayable",
      "type": "constructor"
    },
    {
      "anonymous": false,
      "inputs": [],
      "name": "ArenaFinished",
      "type": "event"
    },
    {
      "anonymous": false,
      "inputs": [
        {
          "indexed": false,
          "internalType": "uint256",
          "name": "tokenId",
          "type": "uint256"
        }
      ],
      "name": "ArenaNewChampion",
      "type": "event"
    },
    {
      "anonymous": false,
      "inputs": [
        {
          "indexed": false,
          "internalType": "uint256",
          "name": "bossIndex",
          "type": "uint256"
        }
      ],
      "name": "ArenaStarted",
      "type": "event"
    },
    {
      "anonymous": false,
      "inputs": [
        {
          "indexed": true,
          "internalType": "address",
          "name": "previousOwner",
          "type": "address"
        },
        {
          "indexed": true,
          "internalType": "address",
          "name": "newOwner",
          "type": "address"
        }
      ],
      "name": "OwnershipTransferred",
      "type": "event"
    },
    {
      "inputs": [],
      "name": "ActiveArena",
      "outputs": [
        {
          "internalType": "uint256",
          "name": "bossIndex",
          "type": "uint256"
        },
        {
          "components": [
            {
              "internalType": "string",
              "name": "name",
              "type": "string"
            },
            {
              "internalType": "uint256",
              "name": "health",
              "type": "uint256"
            },
            {
              "internalType": "uint256",
              "name": "maxHealth",
              "type": "uint256"
            },
            {
              "internalType": "uint256",
              "name": "attackPower",
              "type": "uint256"
            },
            {
              "components": [
                {
                  "internalType": "string",
                  "name": "idle",
                  "type": "string"
                },
                {
                  "internalType": "string",
                  "name": "attack",
                  "type": "string"
                },
                {
                  "internalType": "string",
                  "name": "hurt",
                  "type": "string"
                },
                {
                  "internalType": "string",
                  "name": "dying",
                  "type": "string"
                },
                {
                  "internalType": "string",
                  "name": "dead",
                  "type": "string"
                }
              ],
              "internalType": "struct GifStatus",
              "name": "gifUris",
              "type": "tuple"
            }
          ],
          "internalType": "struct Boss",
          "name": "boss",
          "type": "tuple"
        },
        {
          "internalType": "enum ArenaState",
          "name": "state",
          "type": "uint8"
        },
        {
          "internalType": "uint256",
          "name": "lastArenaFinishedOn",
          "type": "uint256"
        }
      ],
      "stateMutability": "view",
      "type": "function"
    },
    {
      "inputs": [],
      "name": "_bossFactory",
      "outputs": [
        {
          "internalType": "contract BossFactory",
          "name": "",
          "type": "address"
        }
      ],
      "stateMutability": "view",
      "type": "function"
    },
    {
      "inputs": [],
      "name": "_roster",
      "outputs": [
        {
          "internalType": "contract Roster",
          "name": "",
          "type": "address"
        }
      ],
      "stateMutability": "view",
      "type": "function"
    },
    {
      "inputs": [],
      "name": "addChampionToArena",
      "outputs": [],
      "stateMutability": "nonpayable",
      "type": "function"
    },
    {
      "inputs": [
        {
          "internalType": "uint256",
          "name": "damage",
          "type": "uint256"
        }
      ],
      "name": "damageBoss",
      "outputs": [],
      "stateMutability": "nonpayable",
      "type": "function"
    },
    {
      "inputs": [],
      "name": "getArena",
      "outputs": [
        {
          "internalType": "uint256[]",
          "name": "",
          "type": "uint256[]"
        },
        {
          "components": [
            {
              "internalType": "string",
              "name": "name",
              "type": "string"
            },
            {
              "internalType": "uint256",
              "name": "health",
              "type": "uint256"
            },
            {
              "internalType": "uint256",
              "name": "maxHealth",
              "type": "uint256"
            },
            {
              "internalType": "uint256",
              "name": "attackPower",
              "type": "uint256"
            },
            {
              "components": [
                {
                  "internalType": "string",
                  "name": "idle",
                  "type": "string"
                },
                {
                  "internalType": "string",
                  "name": "attack",
                  "type": "string"
                },
                {
                  "internalType": "string",
                  "name": "hurt",
                  "type": "string"
                },
                {
                  "internalType": "string",
                  "name": "dying",
                  "type": "string"
                },
                {
                  "internalType": "string",
                  "name": "dead",
                  "type": "string"
                }
              ],
              "internalType": "struct GifStatus",
              "name": "gifUris",
              "type": "tuple"
            }
          ],
          "internalType": "struct Boss",
          "name": "",
          "type": "tuple"
        },
        {
          "internalType": "enum ArenaState",
          "name": "",
          "type": "uint8"
        }
      ],
      "stateMutability": "view",
      "type": "function"
    },
    {
      "inputs": [],
      "name": "owner",
      "outputs": [
        {
          "internalType": "address",
          "name": "",
          "type": "address"
        }
      ],
      "stateMutability": "view",
      "type": "function"
    },
    {
      "inputs": [],
      "name": "renounceOwnership",
      "outputs": [],
      "stateMutability": "nonpayable",
      "type": "function"
    },
    {
      "inputs": [
        {
          "internalType": "address",
          "name": "bossFactoryAddress",
          "type": "address"
        }
      ],
      "name": "setBossFactory",
      "outputs": [],
      "stateMutability": "nonpayable",
      "type": "function"
    },
    {
      "inputs": [
        {
          "internalType": "address",
          "name": "rosterAddress",
          "type": "address"
        }
      ],
      "name": "setRoster",
      "outputs": [],
      "stateMutability": "nonpayable",
      "type": "function"
    },
    {
      "inputs": [
        {
          "internalType": "address",
          "name": "newOwner",
          "type": "address"
        }
      ],
      "name": "transferOwnership",
      "outputs": [],
      "stateMutability": "nonpayable",
      "type": "function"
    }
  ],
  "bytecode": "0x608060405234801561001057600080fd5b5061002161001c610030565b610034565b600f805460ff19169055610084565b3390565b600080546001600160a01b038381166001600160a01b0319831681178455604051919092169283917f8be0079c531659141344cd1fd0a4f28419497f9722a3daafe3b4186f6b6457e09190a35050565b61192a806100936000396000f3fe608060405234801561001057600080fd5b50600436106100c95760003560e01c80638da5cb5b11610081578063ad53b6da1161005b578063ad53b6da14610157578063e0d8d1e91461016e578063f2fde38b14610176576100c9565b80638da5cb5b14610134578063a05b6f3c1461013c578063a4a2943f14610144576100c9565b8063715018a6116100b2578063715018a6146101015780637f6a5048146101095780638ac4eeb31461011c576100c9565b806330f3ab02146100ce5780634f1cc8ae146100e3575b600080fd5b6100e16100dc3660046114cc565b610189565b005b6100eb6101a6565b6040516100f89190611612565b60405180910390f35b6100e16101b5565b6100e16101173660046112cf565b610209565b610124610277565b6040516100f894939291906117c6565b6100eb61063d565b6100e161064c565b6100e16101523660046112cf565b610a8e565b61015f610afc565b6040516100f893929190611626565b6100eb610f1c565b6100e16101843660046112cf565b610f2b565b6007805482919060009061019e908490611846565b909155505050565b6002546001600160a01b031681565b6101bd610f9c565b6001600160a01b03166101ce61063d565b6001600160a01b0316146101fd5760405162461bcd60e51b81526004016101f4906116f4565b60405180910390fd5b6102076000610fa0565b565b610211610f9c565b6001600160a01b031661022261063d565b6001600160a01b0316146102485760405162461bcd60e51b81526004016101f4906116f4565b6002805473ffffffffffffffffffffffffffffffffffffffff19166001600160a01b0392909216919091179055565b6005546040805160a081019091526006805460039291908290829061029b9061188d565b80601f01602080910402602001604051908101604052809291908181526020018280546102c79061188d565b80156103145780601f106102e957610100808354040283529160200191610314565b820191906000526020600020905b8154815290600101906020018083116102f757829003601f168201915b50505050508152602001600182015481526020016002820154815260200160038201548152602001600482016040518060a001604052908160008201805461035b9061188d565b80601f01602080910402602001604051908101604052809291908181526020018280546103879061188d565b80156103d45780601f106103a9576101008083540402835291602001916103d4565b820191906000526020600020905b8154815290600101906020018083116103b757829003601f168201915b505050505081526020016001820180546103ed9061188d565b80601f01602080910402602001604051908101604052809291908181526020018280546104199061188d565b80156104665780601f1061043b57610100808354040283529160200191610466565b820191906000526020600020905b81548152906001019060200180831161044957829003601f168201915b5050505050815260200160028201805461047f9061188d565b80601f01602080910402602001604051908101604052809291908181526020018280546104ab9061188d565b80156104f85780601f106104cd576101008083540402835291602001916104f8565b820191906000526020600020905b8154815290600101906020018083116104db57829003601f168201915b505050505081526020016003820180546105119061188d565b80601f016020809104026020016040519081016040528092919081815260200182805461053d9061188d565b801561058a5780601f1061055f5761010080835404028352916020019161058a565b820191906000526020600020905b81548152906001019060200180831161056d57829003601f168201915b505050505081526020016004820180546105a39061188d565b80601f01602080910402602001604051908101604052809291908181526020018280546105cf9061188d565b801561061c5780601f106105f15761010080835404028352916020019161061c565b820191906000526020600020905b8154815290600101906020018083116105ff57829003601f168201915b50505091909252505050905250600c820154600d90920154909160ff169084565b6000546001600160a01b031690565b6002546040517f8f2a47500000000000000000000000000000000000000000000000000000000081526000916001600160a01b031690638f2a475090610696903390600401611612565b60206040518083038186803b1580156106ae57600080fd5b505afa1580156106c2573d6000803e3d6000fd5b505050506040513d601f19601f820116820180604052508101906106e691906114e4565b6002546040517f301d2c660000000000000000000000000000000000000000000000000000000081529192506001600160a01b03169063301d2c66906107309084906004016117bd565b60006040518083038186803b15801561074857600080fd5b505afa15801561075c573d6000803e3d6000fd5b505050506040513d6000823e601f3d908101601f191682016040526107849190810190611416565b602001516107a45760405162461bcd60e51b81526004016101f490611729565b33600090815260036020526040902054156107d15760405162461bcd60e51b81526004016101f490611786565b6000600f5460ff1660028111156107f857634e487b7160e01b600052602160045260246000fd5b1415610a1157600154604080517f6f5b9f4c00000000000000000000000000000000000000000000000000000000815290516000926001600160a01b031691636f5b9f4c9160048083019286929190829003018186803b15801561085b57600080fd5b505afa15801561086f573d6000803e3d6000fd5b505050506040513d6000823e601f3d908101601f1916820160405261089791908101906112fd565b60055490915060006108aa82600161182e565b9050600183516108ba9190611846565b8111156108c5575060005b60008382815181106108e757634e487b7160e01b600052603260045260246000fd5b602002602001015190506108fe8160000151610ffd565b80518051829160069161091891839160209091019061108a565b506020828101516001830155604083015160028301556060830151600383015560808301518051805191926004850192610955928492019061108a565b50602082810151805161096e926001850192019061108a565b506040820151805161098a91600284019160209091019061108a565b50606082015180516109a691600384019160209091019061108a565b50608082015180516109c291600484019160209091019061108a565b5050600f805460ff1916600117905550506040517fbe09ad21ad3fc23ae505a4badead1958018bfcb0f57d0785de620f4bb265025f9150610a049085906117bd565b60405180910390a1505050505b60048054600181019091557f8a35acfbc15ff81a39ae7d344fd709f28e8600b4aa8c65c6b64bfe7fe36bd19b018190553360009081526003602052604090819020829055517f2e432824193b39d9199593c5ad19c9019ba8b695dd248e8edbe4292c303efaaa90610a839083906117bd565b60405180910390a150565b610a96610f9c565b6001600160a01b0316610aa761063d565b6001600160a01b031614610acd5760405162461bcd60e51b81526004016101f4906116f4565b6001805473ffffffffffffffffffffffffffffffffffffffff19166001600160a01b0392909216919091179055565b6060610b0661110e565b600f54600480546040805160208084028201810190925282815260009460069360ff90911692859190830182828015610b5e57602002820191906000526020600020905b815481526020019060010190808311610b4a575b50505050509250816040518060a0016040529081600082018054610b819061188d565b80601f0160208091040260200160405190810160405280929190818152602001828054610bad9061188d565b8015610bfa5780601f10610bcf57610100808354040283529160200191610bfa565b820191906000526020600020905b815481529060010190602001808311610bdd57829003601f168201915b50505050508152602001600182015481526020016002820154815260200160038201548152602001600482016040518060a0016040529081600082018054610c419061188d565b80601f0160208091040260200160405190810160405280929190818152602001828054610c6d9061188d565b8015610cba5780601f10610c8f57610100808354040283529160200191610cba565b820191906000526020600020905b815481529060010190602001808311610c9d57829003601f168201915b50505050508152602001600182018054610cd39061188d565b80601f0160208091040260200160405190810160405280929190818152602001828054610cff9061188d565b8015610d4c5780601f10610d2157610100808354040283529160200191610d4c565b820191906000526020600020905b815481529060010190602001808311610d2f57829003601f168201915b50505050508152602001600282018054610d659061188d565b80601f0160208091040260200160405190810160405280929190818152602001828054610d919061188d565b8015610dde5780601f10610db357610100808354040283529160200191610dde565b820191906000526020600020905b815481529060010190602001808311610dc157829003601f168201915b50505050508152602001600382018054610df79061188d565b80601f0160208091040260200160405190810160405280929190818152602001828054610e239061188d565b8015610e705780601f10610e4557610100808354040283529160200191610e70565b820191906000526020600020905b815481529060010190602001808311610e5357829003601f168201915b50505050508152602001600482018054610e899061188d565b80601f0160208091040260200160405190810160405280929190818152602001828054610eb59061188d565b8015610f025780601f10610ed757610100808354040283529160200191610f02565b820191906000526020600020905b815481529060010190602001808311610ee557829003601f168201915b505050505081525050815250509150925092509250909192565b6001546001600160a01b031681565b610f33610f9c565b6001600160a01b0316610f4461063d565b6001600160a01b031614610f6a5760405162461bcd60e51b81526004016101f4906116f4565b6001600160a01b038116610f905760405162461bcd60e51b81526004016101f490611697565b610f9981610fa0565b50565b3390565b600080546001600160a01b0383811673ffffffffffffffffffffffffffffffffffffffff19831681178455604051919092169283917f8be0079c531659141344cd1fd0a4f28419497f9722a3daafe3b4186f6b6457e09190a35050565b610f99816040516024016110119190611684565b60408051601f198184030181529190526020810180517bffffffffffffffffffffffffffffffffffffffffffffffffffffffff167f41304fac0000000000000000000000000000000000000000000000000000000017905280516a636f6e736f6c652e6c6f67602083016000808483855afa5050505050565b8280546110969061188d565b90600052602060002090601f0160209004810192826110b857600085556110fe565b82601f106110d157805160ff19168380011785556110fe565b828001600101855582156110fe579182015b828111156110fe5782518255916020019190600101906110e3565b5061110a929150611142565b5090565b6040518060a001604052806060815260200160008152602001600081526020016000815260200161113d611157565b905290565b5b8082111561110a5760008155600101611143565b6040518060a0016040528060608152602001606081526020016060815260200160608152602001606081525090565b600082601f830112611196578081fd5b815167ffffffffffffffff8111156111b0576111b06118de565b6111c3601f8201601f19166020016117fd565b8181528460208386010111156111d7578283fd5b6111e882602083016020870161185d565b949350505050565b600060a08284031215611201578081fd5b61120b60a06117fd565b9050815167ffffffffffffffff8082111561122557600080fd5b61123185838601611186565b8352602084015191508082111561124757600080fd5b61125385838601611186565b6020840152604084015191508082111561126c57600080fd5b61127885838601611186565b6040840152606084015191508082111561129157600080fd5b61129d85838601611186565b606084015260808401519150808211156112b657600080fd5b506112c384828501611186565b60808301525092915050565b6000602082840312156112e0578081fd5b81356001600160a01b03811681146112f6578182fd5b9392505050565b6000602080838503121561130f578182fd5b825167ffffffffffffffff80821115611326578384fd5b818501915085601f830112611339578384fd5b81518181111561134b5761134b6118de565b61135884858302016117fd565b81815284810190848601875b84811015611407578151870160a080601f19838f03011215611384578a8bfd5b61138d816117fd565b8a8301518981111561139d578c8dfd5b6113ab8f8d83870101611186565b8252506040808401518c8301526060808501518284015260809150818501518184015250828401519250898311156113e1578c8dfd5b6113ef8f8d858701016111f0565b90820152865250509287019290870190600101611364565b50909998505050505050505050565b600060208284031215611427578081fd5b815167ffffffffffffffff8082111561143e578283fd5b9083019060c08286031215611451578283fd5b61145b60c06117fd565b825182811115611469578485fd5b61147587828601611186565b8252506020830151602082015260408301516040820152606083015160608201526080830151608082015260a0830151828111156114b1578485fd5b6114bd878286016111f0565b60a08301525095945050505050565b6000602082840312156114dd578081fd5b5035919050565b6000602082840312156114f5578081fd5b5051919050565b6003811061151a57634e487b7160e01b600052602160045260246000fd5b9052565b6000815180845261153681602086016020860161185d565b601f01601f19169290920160200192915050565b6000815160a0845261155f60a085018261151e565b905060208301516020850152604083015160408501526060830151606085015260808301518482036080860152805160a0835261159f60a084018261151e565b9050602082015183820360208501526115b8828261151e565b915050604082015183820360408501526115d2828261151e565b915050606082015183820360608501526115ec828261151e565b915050608082015191508281036080840152611608818361151e565b9695505050505050565b6001600160a01b0391909116815260200190565b606080825284519082018190526000906020906080840190828801845b8281101561165f57815184529284019290840190600101611643565b50505083810382850152611673818761154a565b925050506111e860408301846114fc565b6000602082526112f6602083018461151e565b60208082526026908201527f4f776e61626c653a206e6577206f776e657220697320746865207a65726f206160408201527f6464726573730000000000000000000000000000000000000000000000000000606082015260800190565b6020808252818101527f4f776e61626c653a2063616c6c6572206973206e6f7420746865206f776e6572604082015260600190565b60208082526025908201527f4368616d70696f6e20697320646561642c2063616e6e6f742061646420746f2060408201527f6172656e61000000000000000000000000000000000000000000000000000000606082015260800190565b60208082526019908201527f4368616d70696f6e20616c726561647920696e206172656e6100000000000000604082015260600190565b90815260200190565b6000858252608060208301526117df608083018661154a565b90506117ee60408301856114fc565b82606083015295945050505050565b604051601f8201601f1916810167ffffffffffffffff81118282101715611826576118266118de565b604052919050565b60008219821115611841576118416118c8565b500190565b600082821015611858576118586118c8565b500390565b60005b83811015611878578181015183820152602001611860565b83811115611887576000848401525b50505050565b6002810460018216806118a157607f821691505b602082108114156118c257634e487b7160e01b600052602260045260246000fd5b50919050565b634e487b7160e01b600052601160045260246000fd5b634e487b7160e01b600052604160045260246000fdfea2646970667358221220673bb05b0e343a7d3147723d80ae65138a2705b2beae91529de9f68f2175042b64736f6c63430008010033",
  "linkReferences": {},
  "deployedLinkReferences": {}
}