{
  "_format": "hh-sol-artifact-1",
  "contractName": "Arena",
  "sourceName": "contracts/Arena.sol",
  "abi": [
    {
      "inputs": [],
      "stateMutability": "nonpayable",
      "type": "constructor"
    },
    {
      "anonymous": false,
      "inputs": [],
      "name": "ArenaFinished",
      "type": "event"
    },
    {
      "anonymous": false,
      "inputs": [
        {
          "indexed": false,
          "internalType": "uint256",
          "name": "tokenId",
          "type": "uint256"
        }
      ],
      "name": "ArenaNewChampion",
      "type": "event"
    },
    {
      "anonymous": false,
      "inputs": [
        {
          "indexed": false,
          "internalType": "uint256",
          "name": "bossIndex",
          "type": "uint256"
        }
      ],
      "name": "ArenaStarted",
      "type": "event"
    },
    {
      "anonymous": false,
      "inputs": [
        {
          "indexed": true,
          "internalType": "address",
          "name": "previousOwner",
          "type": "address"
        },
        {
          "indexed": true,
          "internalType": "address",
          "name": "newOwner",
          "type": "address"
        }
      ],
      "name": "OwnershipTransferred",
      "type": "event"
    },
    {
      "inputs": [],
      "name": "ActiveArena",
      "outputs": [
        {
          "internalType": "uint256",
          "name": "bossIndex",
          "type": "uint256"
        },
        {
          "components": [
            {
              "internalType": "string",
              "name": "name",
              "type": "string"
            },
            {
              "internalType": "uint256",
              "name": "health",
              "type": "uint256"
            },
            {
              "internalType": "uint256",
              "name": "maxHealth",
              "type": "uint256"
            },
            {
              "internalType": "uint256",
              "name": "attackPower",
              "type": "uint256"
            },
            {
              "components": [
                {
                  "internalType": "string",
                  "name": "idle",
                  "type": "string"
                },
                {
                  "internalType": "string",
                  "name": "attack",
                  "type": "string"
                },
                {
                  "internalType": "string",
                  "name": "hurt",
                  "type": "string"
                },
                {
                  "internalType": "string",
                  "name": "dying",
                  "type": "string"
                },
                {
                  "internalType": "string",
                  "name": "dead",
                  "type": "string"
                }
              ],
              "internalType": "struct GifStatus",
              "name": "gifUris",
              "type": "tuple"
            }
          ],
          "internalType": "struct Boss",
          "name": "boss",
          "type": "tuple"
        },
        {
          "internalType": "enum ArenaState",
          "name": "state",
          "type": "uint8"
        },
        {
          "internalType": "uint256",
          "name": "lastArenaFinishedOn",
          "type": "uint256"
        }
      ],
      "stateMutability": "view",
      "type": "function"
    },
    {
      "inputs": [],
      "name": "_bossFactory",
      "outputs": [
        {
          "internalType": "contract BossFactory",
          "name": "",
          "type": "address"
        }
      ],
      "stateMutability": "view",
      "type": "function"
    },
    {
      "inputs": [],
      "name": "_roster",
      "outputs": [
        {
          "internalType": "contract Roster",
          "name": "",
          "type": "address"
        }
      ],
      "stateMutability": "view",
      "type": "function"
    },
    {
      "inputs": [],
      "name": "addChampionToArena",
      "outputs": [],
      "stateMutability": "nonpayable",
      "type": "function"
    },
    {
      "inputs": [
        {
          "internalType": "uint256",
          "name": "damage",
          "type": "uint256"
        }
      ],
      "name": "damageBoss",
      "outputs": [],
      "stateMutability": "nonpayable",
      "type": "function"
    },
    {
      "inputs": [],
      "name": "getArena",
      "outputs": [
        {
          "internalType": "uint256[]",
          "name": "",
          "type": "uint256[]"
        },
        {
          "components": [
            {
              "internalType": "string",
              "name": "name",
              "type": "string"
            },
            {
              "internalType": "uint256",
              "name": "health",
              "type": "uint256"
            },
            {
              "internalType": "uint256",
              "name": "maxHealth",
              "type": "uint256"
            },
            {
              "internalType": "uint256",
              "name": "attackPower",
              "type": "uint256"
            },
            {
              "components": [
                {
                  "internalType": "string",
                  "name": "idle",
                  "type": "string"
                },
                {
                  "internalType": "string",
                  "name": "attack",
                  "type": "string"
                },
                {
                  "internalType": "string",
                  "name": "hurt",
                  "type": "string"
                },
                {
                  "internalType": "string",
                  "name": "dying",
                  "type": "string"
                },
                {
                  "internalType": "string",
                  "name": "dead",
                  "type": "string"
                }
              ],
              "internalType": "struct GifStatus",
              "name": "gifUris",
              "type": "tuple"
            }
          ],
          "internalType": "struct Boss",
          "name": "",
          "type": "tuple"
        },
        {
          "internalType": "enum ArenaState",
          "name": "",
          "type": "uint8"
        }
      ],
      "stateMutability": "view",
      "type": "function"
    },
    {
      "inputs": [],
      "name": "owner",
      "outputs": [
        {
          "internalType": "address",
          "name": "",
          "type": "address"
        }
      ],
      "stateMutability": "view",
      "type": "function"
    },
    {
      "inputs": [],
      "name": "renounceOwnership",
      "outputs": [],
      "stateMutability": "nonpayable",
      "type": "function"
    },
    {
      "inputs": [
        {
          "internalType": "address",
          "name": "bossFactoryAddress",
          "type": "address"
        }
      ],
      "name": "setBossFactory",
      "outputs": [],
      "stateMutability": "nonpayable",
      "type": "function"
    },
    {
      "inputs": [
        {
          "internalType": "address",
          "name": "rosterAddress",
          "type": "address"
        }
      ],
      "name": "setRoster",
      "outputs": [],
      "stateMutability": "nonpayable",
      "type": "function"
    },
    {
      "inputs": [
        {
          "internalType": "address",
          "name": "newOwner",
          "type": "address"
        }
      ],
      "name": "transferOwnership",
      "outputs": [],
      "stateMutability": "nonpayable",
      "type": "function"
    }
  ],
  "bytecode": "0x608060405234801561001057600080fd5b5061002161001c610030565b610034565b600f805460ff19169055610084565b3390565b600080546001600160a01b038381166001600160a01b0319831681178455604051919092169283917f8be0079c531659141344cd1fd0a4f28419497f9722a3daafe3b4186f6b6457e09190a35050565b61187e806100936000396000f3fe608060405234801561001057600080fd5b50600436106100c95760003560e01c80638da5cb5b11610081578063ad53b6da1161005b578063ad53b6da14610157578063e0d8d1e91461016e578063f2fde38b14610176576100c9565b80638da5cb5b14610134578063a05b6f3c1461013c578063a4a2943f14610144576100c9565b8063715018a6116100b2578063715018a6146101015780637f6a5048146101095780638ac4eeb31461011c576100c9565b806330f3ab02146100ce5780634f1cc8ae146100e3575b600080fd5b6100e16100dc366004611433565b610189565b005b6100eb6101a6565b6040516100f89190611579565b60405180910390f35b6100e16101b5565b6100e1610117366004611236565b610209565b610124610277565b6040516100f8949392919061171a565b6100eb61063d565b6100e161064c565b6100e1610152366004611236565b610a82565b61015f610af0565b6040516100f89392919061158d565b6100eb610f10565b6100e1610184366004611236565b610f1f565b6007805482919060009061019e90849061179a565b909155505050565b6002546001600160a01b031681565b6101bd610f90565b6001600160a01b03166101ce61063d565b6001600160a01b0316146101fd5760405162461bcd60e51b81526004016101f490611648565b60405180910390fd5b6102076000610f94565b565b610211610f90565b6001600160a01b031661022261063d565b6001600160a01b0316146102485760405162461bcd60e51b81526004016101f490611648565b6002805473ffffffffffffffffffffffffffffffffffffffff19166001600160a01b0392909216919091179055565b6005546040805160a081019091526006805460039291908290829061029b906117e1565b80601f01602080910402602001604051908101604052809291908181526020018280546102c7906117e1565b80156103145780601f106102e957610100808354040283529160200191610314565b820191906000526020600020905b8154815290600101906020018083116102f757829003601f168201915b50505050508152602001600182015481526020016002820154815260200160038201548152602001600482016040518060a001604052908160008201805461035b906117e1565b80601f0160208091040260200160405190810160405280929190818152602001828054610387906117e1565b80156103d45780601f106103a9576101008083540402835291602001916103d4565b820191906000526020600020905b8154815290600101906020018083116103b757829003601f168201915b505050505081526020016001820180546103ed906117e1565b80601f0160208091040260200160405190810160405280929190818152602001828054610419906117e1565b80156104665780601f1061043b57610100808354040283529160200191610466565b820191906000526020600020905b81548152906001019060200180831161044957829003601f168201915b5050505050815260200160028201805461047f906117e1565b80601f01602080910402602001604051908101604052809291908181526020018280546104ab906117e1565b80156104f85780601f106104cd576101008083540402835291602001916104f8565b820191906000526020600020905b8154815290600101906020018083116104db57829003601f168201915b50505050508152602001600382018054610511906117e1565b80601f016020809104026020016040519081016040528092919081815260200182805461053d906117e1565b801561058a5780601f1061055f5761010080835404028352916020019161058a565b820191906000526020600020905b81548152906001019060200180831161056d57829003601f168201915b505050505081526020016004820180546105a3906117e1565b80601f01602080910402602001604051908101604052809291908181526020018280546105cf906117e1565b801561061c5780601f106105f15761010080835404028352916020019161061c565b820191906000526020600020905b8154815290600101906020018083116105ff57829003601f168201915b50505091909252505050905250600c820154600d90920154909160ff169084565b6000546001600160a01b031690565b6002546040517f8f2a47500000000000000000000000000000000000000000000000000000000081526000916001600160a01b031690638f2a475090610696903390600401611579565b60206040518083038186803b1580156106ae57600080fd5b505afa1580156106c2573d6000803e3d6000fd5b505050506040513d601f19601f820116820180604052508101906106e6919061144b565b6002546040517f301d2c660000000000000000000000000000000000000000000000000000000081529192506001600160a01b03169063301d2c6690610730908490600401611711565b60006040518083038186803b15801561074857600080fd5b505afa15801561075c573d6000803e3d6000fd5b505050506040513d6000823e601f3d908101601f19168201604052610784919081019061137d565b602001516107a45760405162461bcd60e51b81526004016101f49061167d565b33600090815260036020526040902054156107d15760405162461bcd60e51b81526004016101f4906116da565b6000600f5460ff1660028111156107f857634e487b7160e01b600052602160045260246000fd5b1415610a0557600154604080517f6f5b9f4c00000000000000000000000000000000000000000000000000000000815290516000926001600160a01b031691636f5b9f4c9160048083019286929190829003018186803b15801561085b57600080fd5b505afa15801561086f573d6000803e3d6000fd5b505050506040513d6000823e601f3d908101601f191682016040526108979190810190611264565b60055490915060006108aa826001611782565b9050600183516108ba919061179a565b8111156108c5575060005b60008382815181106108e757634e487b7160e01b600052603260045260246000fd5b60209081029190910181015180518051919350839260069261090c9284920190610ff1565b5060208281015160018301556040830151600283015560608301516003830155608083015180518051919260048501926109499284920190610ff1565b5060208281015180516109629260018501920190610ff1565b506040820151805161097e916002840191602090910190610ff1565b506060820151805161099a916003840191602090910190610ff1565b50608082015180516109b6916004840191602090910190610ff1565b5050600f805460ff1916600117905550506040517fbe09ad21ad3fc23ae505a4badead1958018bfcb0f57d0785de620f4bb265025f91506109f8908590611711565b60405180910390a1505050505b60048054600181019091557f8a35acfbc15ff81a39ae7d344fd709f28e8600b4aa8c65c6b64bfe7fe36bd19b018190553360009081526003602052604090819020829055517f2e432824193b39d9199593c5ad19c9019ba8b695dd248e8edbe4292c303efaaa90610a77908390611711565b60405180910390a150565b610a8a610f90565b6001600160a01b0316610a9b61063d565b6001600160a01b031614610ac15760405162461bcd60e51b81526004016101f490611648565b6001805473ffffffffffffffffffffffffffffffffffffffff19166001600160a01b0392909216919091179055565b6060610afa611075565b600f54600480546040805160208084028201810190925282815260009460069360ff90911692859190830182828015610b5257602002820191906000526020600020905b815481526020019060010190808311610b3e575b50505050509250816040518060a0016040529081600082018054610b75906117e1565b80601f0160208091040260200160405190810160405280929190818152602001828054610ba1906117e1565b8015610bee5780601f10610bc357610100808354040283529160200191610bee565b820191906000526020600020905b815481529060010190602001808311610bd157829003601f168201915b50505050508152602001600182015481526020016002820154815260200160038201548152602001600482016040518060a0016040529081600082018054610c35906117e1565b80601f0160208091040260200160405190810160405280929190818152602001828054610c61906117e1565b8015610cae5780601f10610c8357610100808354040283529160200191610cae565b820191906000526020600020905b815481529060010190602001808311610c9157829003601f168201915b50505050508152602001600182018054610cc7906117e1565b80601f0160208091040260200160405190810160405280929190818152602001828054610cf3906117e1565b8015610d405780601f10610d1557610100808354040283529160200191610d40565b820191906000526020600020905b815481529060010190602001808311610d2357829003601f168201915b50505050508152602001600282018054610d59906117e1565b80601f0160208091040260200160405190810160405280929190818152602001828054610d85906117e1565b8015610dd25780601f10610da757610100808354040283529160200191610dd2565b820191906000526020600020905b815481529060010190602001808311610db557829003601f168201915b50505050508152602001600382018054610deb906117e1565b80601f0160208091040260200160405190810160405280929190818152602001828054610e17906117e1565b8015610e645780601f10610e3957610100808354040283529160200191610e64565b820191906000526020600020905b815481529060010190602001808311610e4757829003601f168201915b50505050508152602001600482018054610e7d906117e1565b80601f0160208091040260200160405190810160405280929190818152602001828054610ea9906117e1565b8015610ef65780601f10610ecb57610100808354040283529160200191610ef6565b820191906000526020600020905b815481529060010190602001808311610ed957829003601f168201915b505050505081525050815250509150925092509250909192565b6001546001600160a01b031681565b610f27610f90565b6001600160a01b0316610f3861063d565b6001600160a01b031614610f5e5760405162461bcd60e51b81526004016101f490611648565b6001600160a01b038116610f845760405162461bcd60e51b81526004016101f4906115eb565b610f8d81610f94565b50565b3390565b600080546001600160a01b0383811673ffffffffffffffffffffffffffffffffffffffff19831681178455604051919092169283917f8be0079c531659141344cd1fd0a4f28419497f9722a3daafe3b4186f6b6457e09190a35050565b828054610ffd906117e1565b90600052602060002090601f01602090048101928261101f5760008555611065565b82601f1061103857805160ff1916838001178555611065565b82800160010185558215611065579182015b8281111561106557825182559160200191906001019061104a565b506110719291506110a9565b5090565b6040518060a00160405280606081526020016000815260200160008152602001600081526020016110a46110be565b905290565b5b8082111561107157600081556001016110aa565b6040518060a0016040528060608152602001606081526020016060815260200160608152602001606081525090565b600082601f8301126110fd578081fd5b815167ffffffffffffffff81111561111757611117611832565b61112a601f8201601f1916602001611751565b81815284602083860101111561113e578283fd5b61114f8260208301602087016117b1565b949350505050565b600060a08284031215611168578081fd5b61117260a0611751565b9050815167ffffffffffffffff8082111561118c57600080fd5b611198858386016110ed565b835260208401519150808211156111ae57600080fd5b6111ba858386016110ed565b602084015260408401519150808211156111d357600080fd5b6111df858386016110ed565b604084015260608401519150808211156111f857600080fd5b611204858386016110ed565b6060840152608084015191508082111561121d57600080fd5b5061122a848285016110ed565b60808301525092915050565b600060208284031215611247578081fd5b81356001600160a01b038116811461125d578182fd5b9392505050565b60006020808385031215611276578182fd5b825167ffffffffffffffff8082111561128d578384fd5b818501915085601f8301126112a0578384fd5b8151818111156112b2576112b2611832565b6112bf8485830201611751565b81815284810190848601875b8481101561136e578151870160a080601f19838f030112156112eb578a8bfd5b6112f481611751565b8a83015189811115611304578c8dfd5b6113128f8d838701016110ed565b8252506040808401518c830152606080850151828401526080915081850151818401525082840151925089831115611348578c8dfd5b6113568f8d85870101611157565b908201528652505092870192908701906001016112cb565b50909998505050505050505050565b60006020828403121561138e578081fd5b815167ffffffffffffffff808211156113a5578283fd5b9083019060c082860312156113b8578283fd5b6113c260c0611751565b8251828111156113d0578485fd5b6113dc878286016110ed565b8252506020830151602082015260408301516040820152606083015160608201526080830151608082015260a083015182811115611418578485fd5b61142487828601611157565b60a08301525095945050505050565b600060208284031215611444578081fd5b5035919050565b60006020828403121561145c578081fd5b5051919050565b6003811061148157634e487b7160e01b600052602160045260246000fd5b9052565b6000815180845261149d8160208601602086016117b1565b601f01601f19169290920160200192915050565b6000815160a084526114c660a0850182611485565b905060208301516020850152604083015160408501526060830151606085015260808301518482036080860152805160a0835261150660a0840182611485565b90506020820151838203602085015261151f8282611485565b915050604082015183820360408501526115398282611485565b915050606082015183820360608501526115538282611485565b91505060808201519150828103608084015261156f8183611485565b9695505050505050565b6001600160a01b0391909116815260200190565b606080825284519082018190526000906020906080840190828801845b828110156115c6578151845292840192908401906001016115aa565b505050838103828501526115da81876114b1565b9250505061114f6040830184611463565b60208082526026908201527f4f776e61626c653a206e6577206f776e657220697320746865207a65726f206160408201527f6464726573730000000000000000000000000000000000000000000000000000606082015260800190565b6020808252818101527f4f776e61626c653a2063616c6c6572206973206e6f7420746865206f776e6572604082015260600190565b60208082526025908201527f4368616d70696f6e20697320646561642c2063616e6e6f742061646420746f2060408201527f6172656e61000000000000000000000000000000000000000000000000000000606082015260800190565b60208082526019908201527f4368616d70696f6e20616c726561647920696e206172656e6100000000000000604082015260600190565b90815260200190565b60008582526080602083015261173360808301866114b1565b90506117426040830185611463565b82606083015295945050505050565b604051601f8201601f1916810167ffffffffffffffff8111828210171561177a5761177a611832565b604052919050565b600082198211156117955761179561181c565b500190565b6000828210156117ac576117ac61181c565b500390565b60005b838110156117cc5781810151838201526020016117b4565b838111156117db576000848401525b50505050565b6002810460018216806117f557607f821691505b6020821081141561181657634e487b7160e01b600052602260045260246000fd5b50919050565b634e487b7160e01b600052601160045260246000fd5b634e487b7160e01b600052604160045260246000fdfea2646970667358221220ca772af2fe5ebda35be2935b4635b67742840a6d5e0873ba88a5459002e3dba364736f6c63430008010033",
  "linkReferences": {},
  "deployedLinkReferences": {}
}