{
  "_format": "hh-sol-artifact-1",
  "contractName": "Arena",
  "sourceName": "contracts/Arena.sol",
  "abi": [
    {
      "inputs": [],
      "stateMutability": "nonpayable",
      "type": "constructor"
    },
    {
      "anonymous": false,
      "inputs": [
        {
          "indexed": true,
          "internalType": "address",
          "name": "owner",
          "type": "address"
        },
        {
          "indexed": true,
          "internalType": "address",
          "name": "approved",
          "type": "address"
        },
        {
          "indexed": true,
          "internalType": "uint256",
          "name": "tokenId",
          "type": "uint256"
        }
      ],
      "name": "Approval",
      "type": "event"
    },
    {
      "anonymous": false,
      "inputs": [
        {
          "indexed": true,
          "internalType": "address",
          "name": "owner",
          "type": "address"
        },
        {
          "indexed": true,
          "internalType": "address",
          "name": "operator",
          "type": "address"
        },
        {
          "indexed": false,
          "internalType": "bool",
          "name": "approved",
          "type": "bool"
        }
      ],
      "name": "ApprovalForAll",
      "type": "event"
    },
    {
      "anonymous": false,
      "inputs": [],
      "name": "ArenaFinished",
      "type": "event"
    },
    {
      "anonymous": false,
      "inputs": [
        {
          "indexed": false,
          "internalType": "uint256",
          "name": "tokenId",
          "type": "uint256"
        }
      ],
      "name": "ArenaNewChampion",
      "type": "event"
    },
    {
      "anonymous": false,
      "inputs": [
        {
          "indexed": false,
          "internalType": "uint256",
          "name": "bossIndex",
          "type": "uint256"
        }
      ],
      "name": "ArenaStarted",
      "type": "event"
    },
    {
      "anonymous": false,
      "inputs": [
        {
          "indexed": false,
          "internalType": "address",
          "name": "userToNotify",
          "type": "address"
        },
        {
          "indexed": false,
          "internalType": "uint256",
          "name": "tokenId",
          "type": "uint256"
        },
        {
          "indexed": false,
          "internalType": "uint256",
          "name": "championIndex",
          "type": "uint256"
        }
      ],
      "name": "ChampionAddedToRoster",
      "type": "event"
    },
    {
      "anonymous": false,
      "inputs": [
        {
          "indexed": false,
          "internalType": "address",
          "name": "userToNotify",
          "type": "address"
        },
        {
          "indexed": false,
          "internalType": "uint256",
          "name": "tokenId",
          "type": "uint256"
        }
      ],
      "name": "ChampionSelected",
      "type": "event"
    },
    {
      "anonymous": false,
      "inputs": [
        {
          "indexed": true,
          "internalType": "address",
          "name": "previousOwner",
          "type": "address"
        },
        {
          "indexed": true,
          "internalType": "address",
          "name": "newOwner",
          "type": "address"
        }
      ],
      "name": "OwnershipTransferred",
      "type": "event"
    },
    {
      "anonymous": false,
      "inputs": [
        {
          "indexed": true,
          "internalType": "address",
          "name": "from",
          "type": "address"
        },
        {
          "indexed": true,
          "internalType": "address",
          "name": "to",
          "type": "address"
        },
        {
          "indexed": true,
          "internalType": "uint256",
          "name": "tokenId",
          "type": "uint256"
        }
      ],
      "name": "Transfer",
      "type": "event"
    },
    {
      "inputs": [],
      "name": "ActiveArena",
      "outputs": [
        {
          "internalType": "uint256",
          "name": "bossIndex",
          "type": "uint256"
        },
        {
          "internalType": "enum ArenaState",
          "name": "state",
          "type": "uint8"
        },
        {
          "internalType": "uint256",
          "name": "lastArenaFinishedOn",
          "type": "uint256"
        }
      ],
      "stateMutability": "view",
      "type": "function"
    },
    {
      "inputs": [
        {
          "internalType": "uint256",
          "name": "",
          "type": "uint256"
        }
      ],
      "name": "NftHolderChampion",
      "outputs": [
        {
          "internalType": "string",
          "name": "name",
          "type": "string"
        },
        {
          "internalType": "uint256",
          "name": "health",
          "type": "uint256"
        },
        {
          "internalType": "uint256",
          "name": "maxHealth",
          "type": "uint256"
        },
        {
          "internalType": "uint256",
          "name": "attackPower",
          "type": "uint256"
        },
        {
          "internalType": "uint256",
          "name": "healPower",
          "type": "uint256"
        },
        {
          "components": [
            {
              "internalType": "string",
              "name": "idle",
              "type": "string"
            },
            {
              "internalType": "string",
              "name": "attack",
              "type": "string"
            },
            {
              "internalType": "string",
              "name": "hurt",
              "type": "string"
            },
            {
              "internalType": "string",
              "name": "dying",
              "type": "string"
            },
            {
              "internalType": "string",
              "name": "dead",
              "type": "string"
            }
          ],
          "internalType": "struct GifStatus",
          "name": "gifUris",
          "type": "tuple"
        }
      ],
      "stateMutability": "view",
      "type": "function"
    },
    {
      "inputs": [
        {
          "internalType": "address",
          "name": "",
          "type": "address"
        }
      ],
      "name": "SelectedChampion",
      "outputs": [
        {
          "internalType": "uint256",
          "name": "",
          "type": "uint256"
        }
      ],
      "stateMutability": "view",
      "type": "function"
    },
    {
      "inputs": [],
      "name": "_bossFactory",
      "outputs": [
        {
          "internalType": "contract BossFactory",
          "name": "",
          "type": "address"
        }
      ],
      "stateMutability": "view",
      "type": "function"
    },
    {
      "inputs": [],
      "name": "addChampionToArena",
      "outputs": [],
      "stateMutability": "nonpayable",
      "type": "function"
    },
    {
      "inputs": [
        {
          "internalType": "uint256",
          "name": "_championIndex",
          "type": "uint256"
        }
      ],
      "name": "addChampionToRoster",
      "outputs": [],
      "stateMutability": "nonpayable",
      "type": "function"
    },
    {
      "inputs": [
        {
          "internalType": "address",
          "name": "to",
          "type": "address"
        },
        {
          "internalType": "uint256",
          "name": "tokenId",
          "type": "uint256"
        }
      ],
      "name": "approve",
      "outputs": [],
      "stateMutability": "nonpayable",
      "type": "function"
    },
    {
      "inputs": [
        {
          "internalType": "address",
          "name": "owner",
          "type": "address"
        }
      ],
      "name": "balanceOf",
      "outputs": [
        {
          "internalType": "uint256",
          "name": "",
          "type": "uint256"
        }
      ],
      "stateMutability": "view",
      "type": "function"
    },
    {
      "inputs": [
        {
          "internalType": "uint256",
          "name": "tokenId",
          "type": "uint256"
        }
      ],
      "name": "getApproved",
      "outputs": [
        {
          "internalType": "address",
          "name": "",
          "type": "address"
        }
      ],
      "stateMutability": "view",
      "type": "function"
    },
    {
      "inputs": [],
      "name": "getArenaBoss",
      "outputs": [
        {
          "components": [
            {
              "internalType": "string",
              "name": "name",
              "type": "string"
            },
            {
              "internalType": "uint256",
              "name": "health",
              "type": "uint256"
            },
            {
              "internalType": "uint256",
              "name": "maxHealth",
              "type": "uint256"
            },
            {
              "internalType": "uint256",
              "name": "attackPower",
              "type": "uint256"
            },
            {
              "components": [
                {
                  "internalType": "string",
                  "name": "idle",
                  "type": "string"
                },
                {
                  "internalType": "string",
                  "name": "attack",
                  "type": "string"
                },
                {
                  "internalType": "string",
                  "name": "hurt",
                  "type": "string"
                },
                {
                  "internalType": "string",
                  "name": "dying",
                  "type": "string"
                },
                {
                  "internalType": "string",
                  "name": "dead",
                  "type": "string"
                }
              ],
              "internalType": "struct GifStatus",
              "name": "gifUris",
              "type": "tuple"
            }
          ],
          "internalType": "struct Boss",
          "name": "",
          "type": "tuple"
        }
      ],
      "stateMutability": "view",
      "type": "function"
    },
    {
      "inputs": [],
      "name": "getArenaChampionList",
      "outputs": [
        {
          "internalType": "uint256[]",
          "name": "",
          "type": "uint256[]"
        }
      ],
      "stateMutability": "view",
      "type": "function"
    },
    {
      "inputs": [],
      "name": "getArenaState",
      "outputs": [
        {
          "internalType": "enum ArenaState",
          "name": "",
          "type": "uint8"
        }
      ],
      "stateMutability": "view",
      "type": "function"
    },
    {
      "inputs": [
        {
          "internalType": "uint256",
          "name": "recordId",
          "type": "uint256"
        }
      ],
      "name": "getNFTChampion",
      "outputs": [
        {
          "components": [
            {
              "internalType": "string",
              "name": "name",
              "type": "string"
            },
            {
              "internalType": "uint256",
              "name": "health",
              "type": "uint256"
            },
            {
              "internalType": "uint256",
              "name": "maxHealth",
              "type": "uint256"
            },
            {
              "internalType": "uint256",
              "name": "attackPower",
              "type": "uint256"
            },
            {
              "internalType": "uint256",
              "name": "healPower",
              "type": "uint256"
            },
            {
              "components": [
                {
                  "internalType": "string",
                  "name": "idle",
                  "type": "string"
                },
                {
                  "internalType": "string",
                  "name": "attack",
                  "type": "string"
                },
                {
                  "internalType": "string",
                  "name": "hurt",
                  "type": "string"
                },
                {
                  "internalType": "string",
                  "name": "dying",
                  "type": "string"
                },
                {
                  "internalType": "string",
                  "name": "dead",
                  "type": "string"
                }
              ],
              "internalType": "struct GifStatus",
              "name": "gifUris",
              "type": "tuple"
            }
          ],
          "internalType": "struct Champion",
          "name": "",
          "type": "tuple"
        }
      ],
      "stateMutability": "view",
      "type": "function"
    },
    {
      "inputs": [],
      "name": "getSelectedChampion",
      "outputs": [
        {
          "internalType": "uint256",
          "name": "",
          "type": "uint256"
        }
      ],
      "stateMutability": "view",
      "type": "function"
    },
    {
      "inputs": [],
      "name": "getUserRoster",
      "outputs": [
        {
          "internalType": "uint256[]",
          "name": "",
          "type": "uint256[]"
        }
      ],
      "stateMutability": "view",
      "type": "function"
    },
    {
      "inputs": [
        {
          "internalType": "address",
          "name": "owner",
          "type": "address"
        },
        {
          "internalType": "address",
          "name": "operator",
          "type": "address"
        }
      ],
      "name": "isApprovedForAll",
      "outputs": [
        {
          "internalType": "bool",
          "name": "",
          "type": "bool"
        }
      ],
      "stateMutability": "view",
      "type": "function"
    },
    {
      "inputs": [],
      "name": "name",
      "outputs": [
        {
          "internalType": "string",
          "name": "",
          "type": "string"
        }
      ],
      "stateMutability": "view",
      "type": "function"
    },
    {
      "inputs": [],
      "name": "owner",
      "outputs": [
        {
          "internalType": "address",
          "name": "",
          "type": "address"
        }
      ],
      "stateMutability": "view",
      "type": "function"
    },
    {
      "inputs": [
        {
          "internalType": "uint256",
          "name": "tokenId",
          "type": "uint256"
        }
      ],
      "name": "ownerOf",
      "outputs": [
        {
          "internalType": "address",
          "name": "",
          "type": "address"
        }
      ],
      "stateMutability": "view",
      "type": "function"
    },
    {
      "inputs": [],
      "name": "renounceOwnership",
      "outputs": [],
      "stateMutability": "nonpayable",
      "type": "function"
    },
    {
      "inputs": [
        {
          "internalType": "address",
          "name": "from",
          "type": "address"
        },
        {
          "internalType": "address",
          "name": "to",
          "type": "address"
        },
        {
          "internalType": "uint256",
          "name": "tokenId",
          "type": "uint256"
        }
      ],
      "name": "safeTransferFrom",
      "outputs": [],
      "stateMutability": "nonpayable",
      "type": "function"
    },
    {
      "inputs": [
        {
          "internalType": "address",
          "name": "from",
          "type": "address"
        },
        {
          "internalType": "address",
          "name": "to",
          "type": "address"
        },
        {
          "internalType": "uint256",
          "name": "tokenId",
          "type": "uint256"
        },
        {
          "internalType": "bytes",
          "name": "_data",
          "type": "bytes"
        }
      ],
      "name": "safeTransferFrom",
      "outputs": [],
      "stateMutability": "nonpayable",
      "type": "function"
    },
    {
      "inputs": [
        {
          "internalType": "address",
          "name": "operator",
          "type": "address"
        },
        {
          "internalType": "bool",
          "name": "approved",
          "type": "bool"
        }
      ],
      "name": "setApprovalForAll",
      "outputs": [],
      "stateMutability": "nonpayable",
      "type": "function"
    },
    {
      "inputs": [
        {
          "internalType": "address",
          "name": "bossFactoryAddress",
          "type": "address"
        }
      ],
      "name": "setBossFactory",
      "outputs": [],
      "stateMutability": "nonpayable",
      "type": "function"
    },
    {
      "inputs": [
        {
          "internalType": "address",
          "name": "championFactoryAddress",
          "type": "address"
        }
      ],
      "name": "setChampionFactory",
      "outputs": [],
      "stateMutability": "nonpayable",
      "type": "function"
    },
    {
      "inputs": [
        {
          "internalType": "uint256",
          "name": "_rosterIndex",
          "type": "uint256"
        }
      ],
      "name": "setSelectChampion",
      "outputs": [],
      "stateMutability": "nonpayable",
      "type": "function"
    },
    {
      "inputs": [
        {
          "internalType": "bytes4",
          "name": "interfaceId",
          "type": "bytes4"
        }
      ],
      "name": "supportsInterface",
      "outputs": [
        {
          "internalType": "bool",
          "name": "",
          "type": "bool"
        }
      ],
      "stateMutability": "view",
      "type": "function"
    },
    {
      "inputs": [],
      "name": "symbol",
      "outputs": [
        {
          "internalType": "string",
          "name": "",
          "type": "string"
        }
      ],
      "stateMutability": "view",
      "type": "function"
    },
    {
      "inputs": [
        {
          "internalType": "uint256",
          "name": "_tokenId",
          "type": "uint256"
        }
      ],
      "name": "tokenURI",
      "outputs": [
        {
          "internalType": "string",
          "name": "",
          "type": "string"
        }
      ],
      "stateMutability": "view",
      "type": "function"
    },
    {
      "inputs": [
        {
          "internalType": "address",
          "name": "from",
          "type": "address"
        },
        {
          "internalType": "address",
          "name": "to",
          "type": "address"
        },
        {
          "internalType": "uint256",
          "name": "tokenId",
          "type": "uint256"
        }
      ],
      "name": "transferFrom",
      "outputs": [],
      "stateMutability": "nonpayable",
      "type": "function"
    },
    {
      "inputs": [
        {
          "internalType": "address",
          "name": "newOwner",
          "type": "address"
        }
      ],
      "name": "transferOwnership",
      "outputs": [],
      "stateMutability": "nonpayable",
      "type": "function"
    },
    {
      "inputs": [],
      "name": "userHasRoster",
      "outputs": [
        {
          "internalType": "bool",
          "name": "",
          "type": "bool"
        }
      ],
      "stateMutability": "view",
      "type": "function"
    }
  ],
  "bytecode": "0x60806040523480156200001157600080fd5b50604080518082018252601181527026a6a79037b710313637b1b5b1b430b4b760791b60208083019182528351808501909452600384526226a6a160e91b90840152815191929162000066916000916200011f565b5080516200007c9060019060208401906200011f565b5050506200009962000093620000c060201b60201c565b620000c4565b620000b060086200011660201b620019541760201c565b6010805460ff1916905562000202565b3390565b600680546001600160a01b038381166001600160a01b0319831681179093556040519116919082907f8be0079c531659141344cd1fd0a4f28419497f9722a3daafe3b4186f6b6457e090600090a35050565b80546001019055565b8280546200012d90620001c5565b90600052602060002090601f0160209004810192826200015157600085556200019c565b82601f106200016c57805160ff19168380011785556200019c565b828001600101855582156200019c579182015b828111156200019c5782518255916020019190600101906200017f565b50620001aa929150620001ae565b5090565b5b80821115620001aa5760008155600101620001af565b600281046001821680620001da57607f821691505b60208210811415620001fc57634e487b7160e01b600052602260045260246000fd5b50919050565b6137ae80620002126000396000f3fe608060405234801561001057600080fd5b50600436106101f05760003560e01c80638ac4eeb31161010f578063ba56957a116100a2578063e0d8d1e911610071578063e0d8d1e914610419578063e985e9c514610421578063f2fde38b14610434578063f866d86e14610447576101f0565b8063ba56957a146103bb578063c87b56dd146103ce578063cb22f504146103e1578063d6ff4a2e146103f4576101f0565b8063a22cb465116100de578063a22cb4651461037a578063a4a2943f1461038d578063b4010cd7146103a0578063b88d4fde146103a8576101f0565b80638ac4eeb31461034b5780638da5cb5b1461036257806395d89b411461036a578063a05b6f3c14610372576101f0565b80635b4ecf2511610187578063709ccf7011610156578063709ccf701461031357806370a0823114610328578063715018a61461033b5780637a70d6ce14610343576101f0565b80635b4ecf25146102c15780636352211e146102d65780636484db81146102e9578063671bab2e146102fe576101f0565b806323b872dd116101c357806323b872dd146102685780632cce89851461027b578063301d2c661461028e57806342842e0e146102ae576101f0565b806301ffc9a7146101f557806306fdde031461021e578063081812fc14610233578063095ea7b314610253575b600080fd5b6102086102033660046128c9565b61045a565b6040516102159190612e02565b60405180910390f35b6102266104d4565b6040516102159190612e1b565b610246610241366004612901565b610566565b6040516102159190612d34565b610266610261366004612697565b6105b2565b005b610266610276366004612584565b61064a565b610266610289366004612901565b610682565b6102a161029c366004612901565b610731565b604051610215919061349a565b6102666102bc366004612584565b610aff565b6102c9610b1a565b6040516102159190613443565b6102466102e4366004612901565b610bda565b6102f1610c0f565b60405161021591906134fb565b610306610c22565b6040516102159190612e0d565b61031b610c2b565b6040516102159190612dbe565b6102f1610336366004612531565b610c85565b610266610cc9565b61031b610d14565b610353610d73565b60405161021593929190613504565b610246610d85565b610226610d94565b610266610da3565b61026661038836600461265d565b610fcd565b61026661039b366004612531565b610fe3565b610208611044565b6102666103b63660046125bf565b611059565b6102f16103c9366004612531565b611098565b6102266103dc366004612901565b6110aa565b6102666103ef366004612531565b61115e565b610407610402366004612901565b6111bf565b60405161021596959493929190612e53565b61024661155f565b61020861042f366004612552565b61156e565b610266610442366004612531565b61159e565b610266610455366004612901565b61160f565b60006001600160e01b031982167f80ac58cd0000000000000000000000000000000000000000000000000000000014806104bd57506001600160e01b031982167f5b5e139f00000000000000000000000000000000000000000000000000000000145b806104cc57506104cc8261195d565b90505b919050565b6060600080546104e39061363d565b80601f016020809104026020016040519081016040528092919081815260200182805461050f9061363d565b801561055c5780601f106105315761010080835404028352916020019161055c565b820191906000526020600020905b81548152906001019060200180831161053f57829003601f168201915b5050505050905090565b60006105718261198f565b6105965760405162461bcd60e51b815260040161058d90613217565b60405180910390fd5b506000908152600460205260409020546001600160a01b031690565b60006105bd82610bda565b9050806001600160a01b0316836001600160a01b031614156105f15760405162461bcd60e51b815260040161058d90613352565b806001600160a01b03166106036119ac565b6001600160a01b0316148061061f575061061f8161042f6119ac565b61063b5760405162461bcd60e51b815260040161058d906130cb565b61064583836119b0565b505050565b61065b6106556119ac565b82611a1e565b6106775760405162461bcd60e51b815260040161058d906133af565b610645838383611aa3565b600061068c610d14565b90508051600014156106b05760405162461bcd60e51b815260040161058d906132f5565b60008183815181106106d257634e487b7160e01b600052603260045260246000fd5b602090810291909101810151336000818152600a90935260409283902082905591519092507f4ab331c7343bc62c19fcee84870baf1416412ec6d042360a819f31c0245d3bd491610724918490612d84565b60405180910390a1505050565b6107396122c1565b6000828152600b602052604090819020815160c081019092528054829082906107619061363d565b80601f016020809104026020016040519081016040528092919081815260200182805461078d9061363d565b80156107da5780601f106107af576101008083540402835291602001916107da565b820191906000526020600020905b8154815290600101906020018083116107bd57829003601f168201915b5050505050815260200160018201548152602001600282015481526020016003820154815260200160048201548152602001600582016040518060a001604052908160008201805461082b9061363d565b80601f01602080910402602001604051908101604052809291908181526020018280546108579061363d565b80156108a45780601f10610879576101008083540402835291602001916108a4565b820191906000526020600020905b81548152906001019060200180831161088757829003601f168201915b505050505081526020016001820180546108bd9061363d565b80601f01602080910402602001604051908101604052809291908181526020018280546108e99061363d565b80156109365780601f1061090b57610100808354040283529160200191610936565b820191906000526020600020905b81548152906001019060200180831161091957829003601f168201915b5050505050815260200160028201805461094f9061363d565b80601f016020809104026020016040519081016040528092919081815260200182805461097b9061363d565b80156109c85780601f1061099d576101008083540402835291602001916109c8565b820191906000526020600020905b8154815290600101906020018083116109ab57829003601f168201915b505050505081526020016003820180546109e19061363d565b80601f0160208091040260200160405190810160405280929190818152602001828054610a0d9061363d565b8015610a5a5780601f10610a2f57610100808354040283529160200191610a5a565b820191906000526020600020905b815481529060010190602001808311610a3d57829003601f168201915b50505050508152602001600482018054610a739061363d565b80601f0160208091040260200160405190810160405280929190818152602001828054610a9f9061363d565b8015610aec5780601f10610ac157610100808354040283529160200191610aec565b820191906000526020600020905b815481529060010190602001808311610acf57829003601f168201915b5050509190925250505090525092915050565b61064583838360405180602001604052806000815250611059565b610b226122fc565b600c60009054906101000a90046001600160a01b03166001600160a01b0316636f5b9f4c6040518163ffffffff1660e01b815260040160006040518083038186803b158015610b7057600080fd5b505afa158015610b84573d6000803e3d6000fd5b505050506040513d6000823e601f3d908101601f19168201604052610bac91908101906126c0565b600f5481518110610bcd57634e487b7160e01b600052603260045260246000fd5b6020026020010151905090565b6000818152600260205260408120546001600160a01b0316806104cc5760405162461bcd60e51b815260040161058d90613185565b336000908152600a602052604090205490565b60105460ff1690565b6060600d60010180548060200260200160405190810160405280929190818152602001828054801561055c57602002820191906000526020600020905b815481526020019060010190808311610c68575050505050905090565b60006001600160a01b038216610cad5760405162461bcd60e51b815260040161058d90613128565b506001600160a01b031660009081526003602052604090205490565b610cd16119ac565b6001600160a01b0316610ce2610d85565b6001600160a01b031614610d085760405162461bcd60e51b815260040161058d90613263565b610d126000611bd6565b565b3360009081526009602090815260409182902080548351818402810184019094528084526060939283018282801561055c5760200282019190600052602060002090815481526020019060010190808311610c68575050505050905090565b600f5460105460115460ff9091169083565b6006546001600160a01b031690565b6060600180546104e39061363d565b336000908152600a6020908152604080832054808452600b90925290912060010154610de15760405162461bcd60e51b815260040161058d90613298565b336000908152600d602052604090205415610e0e5760405162461bcd60e51b815260040161058d9061340c565b600060105460ff166002811115610e3557634e487b7160e01b600052602160045260246000fd5b1415610f5057600c54604080517f6f5b9f4c00000000000000000000000000000000000000000000000000000000815290516000926001600160a01b031691636f5b9f4c9160048083019286929190829003018186803b158015610e9857600080fd5b505afa158015610eac573d6000803e3d6000fd5b505050506040513d6000823e601f3d908101601f19168201604052610ed491908101906126c0565b600f549091506000610ee78260016135af565b905060018351610ef791906135fa565b811115610f02575060005b600f8190556010805460ff191660011790556040517fbe09ad21ad3fc23ae505a4badead1958018bfcb0f57d0785de620f4bb265025f90610f449084906134fb565b60405180910390a15050505b600e8054600181019091557fbb7b4a454dc3493923482f07822329ed19e8244eff582cc204f8554c3620c3fd01819055336000908152600d602052604090819020829055517f2e432824193b39d9199593c5ad19c9019ba8b695dd248e8edbe4292c303efaaa90610fc29083906134fb565b60405180910390a150565b610fdf610fd86119ac565b8383611c28565b5050565b610feb6119ac565b6001600160a01b0316610ffc610d85565b6001600160a01b0316146110225760405162461bcd60e51b815260040161058d90613263565b600c80546001600160a01b0319166001600160a01b0392909216919091179055565b33600090815260096020526040902054151590565b61106a6110646119ac565b83611a1e565b6110865760405162461bcd60e51b815260040161058d906133af565b61109284848484611ccb565b50505050565b600a6020526000908152604090205481565b6000818152600b602052604081206001810154606092906110ca90611cfe565b905060006110db8360020154611cfe565b905060006110ec8460030154611cfe565b9050600061112d856110fd89611cfe565b60405161111992919060058a0190899089908990602001612b41565b604051602081830303815290604052611e4d565b90506000816040516020016111429190612cef565b60408051808303601f1901815291905298975050505050505050565b6111666119ac565b6001600160a01b0316611177610d85565b6001600160a01b03161461119d5760405162461bcd60e51b815260040161058d90613263565b600780546001600160a01b0319166001600160a01b0392909216919091179055565b600b602052600090815260409020805481906111da9061363d565b80601f01602080910402602001604051908101604052809291908181526020018280546112069061363d565b80156112535780601f1061122857610100808354040283529160200191611253565b820191906000526020600020905b81548152906001019060200180831161123657829003601f168201915b505050505090806001015490806002015490806003015490806004015490806005016040518060a00160405290816000820180546112909061363d565b80601f01602080910402602001604051908101604052809291908181526020018280546112bc9061363d565b80156113095780601f106112de57610100808354040283529160200191611309565b820191906000526020600020905b8154815290600101906020018083116112ec57829003601f168201915b505050505081526020016001820180546113229061363d565b80601f016020809104026020016040519081016040528092919081815260200182805461134e9061363d565b801561139b5780601f106113705761010080835404028352916020019161139b565b820191906000526020600020905b81548152906001019060200180831161137e57829003601f168201915b505050505081526020016002820180546113b49061363d565b80601f01602080910402602001604051908101604052809291908181526020018280546113e09061363d565b801561142d5780601f106114025761010080835404028352916020019161142d565b820191906000526020600020905b81548152906001019060200180831161141057829003601f168201915b505050505081526020016003820180546114469061363d565b80601f01602080910402602001604051908101604052809291908181526020018280546114729061363d565b80156114bf5780601f10611494576101008083540402835291602001916114bf565b820191906000526020600020905b8154815290600101906020018083116114a257829003601f168201915b505050505081526020016004820180546114d89061363d565b80601f01602080910402602001604051908101604052809291908181526020018280546115049061363d565b80156115515780601f1061152657610100808354040283529160200191611551565b820191906000526020600020905b81548152906001019060200180831161153457829003601f168201915b505050505081525050905086565b600c546001600160a01b031681565b6001600160a01b0380831660009081526005602090815260408083209385168352929052205460ff165b92915050565b6115a66119ac565b6001600160a01b03166115b7610d85565b6001600160a01b0316146115dd5760405162461bcd60e51b815260040161058d90613263565b6001600160a01b0381166116035760405162461bcd60e51b815260040161058d90612efa565b61160c81611bd6565b50565b600061161b6008611fb0565b9050611640604051806060016040528060398152602001613740603991398383611fb4565b61164a3382612029565b336000908152600960209081526040808320805460018101825590845291832090910183905560075481517f84e859b300000000000000000000000000000000000000000000000000000000815291516001600160a01b03909116916384e859b39160048083019286929190829003018186803b1580156116ca57600080fd5b505afa1580156116de573d6000803e3d6000fd5b505050506040513d6000823e601f3d908101601f1916820160405261170691908101906127c8565b90506040518060c0016040528082858151811061173357634e487b7160e01b600052603260045260246000fd5b602002602001015160000151815260200182858151811061176457634e487b7160e01b600052603260045260246000fd5b602002602001015160200151815260200182858151811061179557634e487b7160e01b600052603260045260246000fd5b60200260200101516040015181526020018285815181106117c657634e487b7160e01b600052603260045260246000fd5b60200260200101516060015181526020018285815181106117f757634e487b7160e01b600052603260045260246000fd5b602002602001015160800151815260200182858151811061182857634e487b7160e01b600052603260045260246000fd5b60209081029190910181015160a001519091526000848152600b82526040902082518051919261185d9284929091019061232b565b50602082810151600183015560408301516002830155606083015160038301556080830151600483015560a083015180518051919260058501926118a4928492019061232b565b5060208281015180516118bd926001850192019061232b565b50604082015180516118d991600284019160209091019061232b565b50606082015180516118f591600384019160209091019061232b565b506080820151805161191191600484019160209091019061232b565b5050509050506119216008611954565b7fd9d05697e27265a7dde2215564d09b5fef132a05c9693b089ef90388285596ce33838560405161072493929190612d9d565b80546001019055565b6001600160e01b031981167f01ffc9a70000000000000000000000000000000000000000000000000000000014919050565b6000908152600260205260409020546001600160a01b0316151590565b3390565b600081815260046020526040902080546001600160a01b0319166001600160a01b03841690811790915581906119e582610bda565b6001600160a01b03167f8c5be1e5ebec7d5bd14f71427d1e84f3dd0314c0f7b2291e5b200ac8c7c3b92560405160405180910390a45050565b6000611a298261198f565b611a455760405162461bcd60e51b815260040161058d9061307f565b6000611a5083610bda565b9050806001600160a01b0316846001600160a01b03161480611a8b5750836001600160a01b0316611a8084610566565b6001600160a01b0316145b80611a9b5750611a9b818561156e565b949350505050565b826001600160a01b0316611ab682610bda565b6001600160a01b031614611adc5760405162461bcd60e51b815260040161058d90612f57565b6001600160a01b038216611b025760405162461bcd60e51b815260040161058d90612feb565b611b0d838383610645565b611b186000826119b0565b6001600160a01b0383166000908152600360205260408120805460019290611b419084906135fa565b90915550506001600160a01b0382166000908152600360205260408120805460019290611b6f9084906135af565b909155505060008181526002602052604080822080546001600160a01b0319166001600160a01b0386811691821790925591518493918716917fddf252ad1be2c89b69c2b068fc378daa952ba7f163c4a11628f55a4df523b3ef91a4610645838383610645565b600680546001600160a01b038381166001600160a01b0319831681179093556040519116919082907f8be0079c531659141344cd1fd0a4f28419497f9722a3daafe3b4186f6b6457e090600090a35050565b816001600160a01b0316836001600160a01b03161415611c5a5760405162461bcd60e51b815260040161058d90613048565b6001600160a01b0383811660008181526005602090815260408083209487168084529490915290819020805460ff1916851515179055517f17307eab39ab6107e8899845ad3d59bd9653f200f220920489ca2b5937696c3190611cbe908590612e02565b60405180910390a3505050565b611cd6848484611aa3565b611ce284848484612043565b6110925760405162461bcd60e51b815260040161058d90612e9d565b606081611d3f575060408051808201909152600181527f300000000000000000000000000000000000000000000000000000000000000060208201526104cf565b8160005b8115611d695780611d5381613678565b9150611d629050600a836135c7565b9150611d43565b60008167ffffffffffffffff811115611d9257634e487b7160e01b600052604160045260246000fd5b6040519080825280601f01601f191660200182016040528015611dbc576020820181803683370190505b5090505b8415611a9b57611dd16001836135fa565b9150611dde600a86613693565b611de99060306135af565b60f81b818381518110611e0c57634e487b7160e01b600052603260045260246000fd5b60200101907effffffffffffffffffffffffffffffffffffffffffffffffffffffffffffff1916908160001a905350611e46600a866135c7565b9450611dc0565b6060815160001415611e6e57506040805160208101909152600081526104cf565b60006040518060600160405280604081526020016137006040913990506000600384516002611e9d91906135af565b611ea791906135c7565b611eb29060046135db565b67ffffffffffffffff811115611ed857634e487b7160e01b600052604160045260246000fd5b6040519080825280601f01601f191660200182016040528015611f02576020820181803683370190505b509050600182016020820185865187015b80821015611f6e576003820191508151603f8160121c168501518453600184019350603f81600c1c168501518453600184019350603f8160061c168501518453600184019350603f8116850151845350600183019250611f13565b5050600386510660018114611f8a5760028114611f9d57611fa5565b603d6001830353603d6002830353611fa5565b603d60018303535b509195945050505050565b5490565b610645838383604051602401611fcc93929190612e2e565b60408051601f198184030181529190526020810180517bffffffffffffffffffffffffffffffffffffffffffffffffffffffff167f969cdd0300000000000000000000000000000000000000000000000000000000179052612177565b610fdf828260405180602001604052806000815250612198565b6000612057846001600160a01b03166121cb565b1561216c57836001600160a01b031663150b7a026120736119ac565b8786866040518563ffffffff1660e01b81526004016120959493929190612d48565b602060405180830381600087803b1580156120af57600080fd5b505af19250505080156120df575060408051601f3d908101601f191682019092526120dc918101906128e5565b60015b612139573d80801561210d576040519150601f19603f3d011682016040523d82523d6000602084013e612112565b606091505b5080516121315760405162461bcd60e51b815260040161058d90612e9d565b805181602001fd5b6001600160e01b0319167f150b7a0200000000000000000000000000000000000000000000000000000000149050611a9b565b506001949350505050565b80516a636f6e736f6c652e6c6f67602083016000808483855afa5050505050565b6121a283836121da565b6121af6000848484612043565b6106455760405162461bcd60e51b815260040161058d90612e9d565b6001600160a01b03163b151590565b6001600160a01b0382166122005760405162461bcd60e51b815260040161058d906131e2565b6122098161198f565b156122265760405162461bcd60e51b815260040161058d90612fb4565b61223260008383610645565b6001600160a01b038216600090815260036020526040812080546001929061225b9084906135af565b909155505060008181526002602052604080822080546001600160a01b0319166001600160a01b03861690811790915590518392907fddf252ad1be2c89b69c2b068fc378daa952ba7f163c4a11628f55a4df523b3ef908290a4610fdf60008383610645565b6040518060c0016040528060608152602001600081526020016000815260200160008152602001600081526020016122f76123af565b905290565b6040518060a00160405280606081526020016000815260200160008152602001600081526020016122f76123af565b8280546123379061363d565b90600052602060002090601f016020900481019282612359576000855561239f565b82601f1061237257805160ff191683800117855561239f565b8280016001018555821561239f579182015b8281111561239f578251825591602001919060010190612384565b506123ab9291506123de565b5090565b6040518060a0016040528060608152602001606081526020016060815260200160608152602001606081525090565b5b808211156123ab57600081556001016123df565b80356001600160a01b03811681146104cf57600080fd5b600082601f83011261241a578081fd5b815161242d6124288261357b565b613526565b818152846020838601011115612441578283fd5b611a9b826020830160208701613611565b600060a08284031215612463578081fd5b61246d60a0613526565b9050815167ffffffffffffffff8082111561248757600080fd5b6124938583860161240a565b835260208401519150808211156124a957600080fd5b6124b58583860161240a565b602084015260408401519150808211156124ce57600080fd5b6124da8583860161240a565b604084015260608401519150808211156124f357600080fd5b6124ff8583860161240a565b6060840152608084015191508082111561251857600080fd5b506125258482850161240a565b60808301525092915050565b600060208284031215612542578081fd5b61254b826123f3565b9392505050565b60008060408385031215612564578081fd5b61256d836123f3565b915061257b602084016123f3565b90509250929050565b600080600060608486031215612598578081fd5b6125a1846123f3565b92506125af602085016123f3565b9150604084013590509250925092565b600080600080608085870312156125d4578081fd5b6125dd856123f3565b93506125eb602086016123f3565b925060408501359150606085013567ffffffffffffffff81111561260d578182fd5b8501601f8101871361261d578182fd5b803561262b6124288261357b565b81815288602083850101111561263f578384fd5b81602084016020830137908101602001929092525092959194509250565b6000806040838503121561266f578182fd5b612678836123f3565b91506020830135801515811461268c578182fd5b809150509250929050565b600080604083850312156126a9578182fd5b6126b2836123f3565b946020939093013593505050565b600060208083850312156126d2578182fd5b825167ffffffffffffffff808211156126e9578384fd5b818501915085601f8301126126fc578384fd5b815161270a61242882613557565b81815284810190848601875b848110156127b9578151870160a080601f19838f03011215612736578a8bfd5b61273f81613526565b8a8301518981111561274f578c8dfd5b61275d8f8d8387010161240a565b8252506040808401518c830152606080850151828401526080915081850151818401525082840151925089831115612793578c8dfd5b6127a18f8d85870101612452565b90820152865250509287019290870190600101612716565b50909998505050505050505050565b600060208083850312156127da578182fd5b825167ffffffffffffffff808211156127f1578384fd5b818501915085601f830112612804578384fd5b815161281261242882613557565b81815284810190848601875b848110156127b9578151870160c080601f19838f0301121561283e578a8bfd5b61284781613526565b8a83015189811115612857578c8dfd5b6128658f8d8387010161240a565b82525060408301518b82015260608301516040820152608080840151606083015260a08401518183015250818301519150888211156128a2578b8cfd5b6128b08e8c84860101612452565b60a082015286525050928701929087019060010161281e565b6000602082840312156128da578081fd5b813561254b816136e9565b6000602082840312156128f6578081fd5b815161254b816136e9565b600060208284031215612912578081fd5b5035919050565b60008151808452612931816020860160208601613611565b601f01601f19169290920160200192915050565b6003811061296357634e487b7160e01b600052602160045260246000fd5b9052565b60008151612979818560208601613611565b9290920192915050565b80546000906002810460018083168061299d57607f831692505b60208084108214156129bd57634e487b7160e01b86526022600452602486fd5b8180156129d157600181146129e257612a0f565b60ff19861689528489019650612a0f565b6129eb886135a3565b60005b86811015612a075781548b8201529085019083016129ee565b505084890196505b50505050505092915050565b7f2c20226d61785f76616c7565223a0000000000000000000000000000000000008152600e0190565b7f7d205d7d00000000000000000000000000000000000000000000000000000000815260040190565b7f7d2c207b202274726169745f74797065223a202241747461636b2044616d616781527f65222c202276616c7565223a20000000000000000000000000000000000000006020820152602d0190565b6000815160a08452612ad160a0850182612919565b905060208301518482036020860152612aea8282612919565b91505060408301518482036040860152612b048282612919565b91505060608301518482036060860152612b1e8282612919565b91505060808301518482036080860152612b388282612919565b95945050505050565b60007f7b226e616d65223a2022000000000000000000000000000000000000000000008252612b73600a830189612983565b7f202d2d204e465420233a2000000000000000000000000000000000000000000081528751612ba981600b840160208c01613611565b7f222c20226465736372697074696f6e223a20225468697320697320616e204e46600b92909101918201527f542074686174206c6574732070656f706c6520706c617920696e207468652067602b8201527f616d65204d657461766572736520536c6179657221222c2022696d616765223a604b8201527f2022000000000000000000000000000000000000000000000000000000000000606b820152612c53606d820188612983565b90507f222c202261747472696275746573223a205b207b202274726169745f7479706581527f223a20224865616c746820506f696e7473222c202276616c7565223a2000000060208201528551612cb181603d840160208a01613611565b612ce1612cdc612cd6612cd1612ccb603d86880101612a1b565b8a612967565b612a6d565b87612967565b612a44565b9a9950505050505050505050565b60007f646174613a6170706c69636174696f6e2f6a736f6e3b6261736536342c00000082528251612d2781601d850160208701613611565b91909101601d0192915050565b6001600160a01b0391909116815260200190565b60006001600160a01b03808716835280861660208401525083604083015260806060830152612d7a6080830184612919565b9695505050505050565b6001600160a01b03929092168252602082015260400190565b6001600160a01b039390931683526020830191909152604082015260600190565b6020808252825182820181905260009190848201906040850190845b81811015612df657835183529284019291840191600101612dda565b50909695505050505050565b901515815260200190565b602081016115988284612945565b60006020825261254b6020830184612919565b600060608252612e416060830186612919565b60208301949094525060400152919050565b600060c08252612e6660c0830189612919565b87602084015286604084015285606084015284608084015282810360a0840152612e908185612abc565b9998505050505050505050565b60208082526032908201527f4552433732313a207472616e7366657220746f206e6f6e20455243373231526560408201527f63656976657220696d706c656d656e7465720000000000000000000000000000606082015260800190565b60208082526026908201527f4f776e61626c653a206e6577206f776e657220697320746865207a65726f206160408201527f6464726573730000000000000000000000000000000000000000000000000000606082015260800190565b60208082526025908201527f4552433732313a207472616e736665722066726f6d20696e636f72726563742060408201527f6f776e6572000000000000000000000000000000000000000000000000000000606082015260800190565b6020808252601c908201527f4552433732313a20746f6b656e20616c7265616479206d696e74656400000000604082015260600190565b60208082526024908201527f4552433732313a207472616e7366657220746f20746865207a65726f2061646460408201527f7265737300000000000000000000000000000000000000000000000000000000606082015260800190565b60208082526019908201527f4552433732313a20617070726f766520746f2063616c6c657200000000000000604082015260600190565b6020808252602c908201527f4552433732313a206f70657261746f7220717565727920666f72206e6f6e657860408201526b34b9ba32b73a103a37b5b2b760a11b606082015260800190565b60208082526038908201527f4552433732313a20617070726f76652063616c6c6572206973206e6f74206f7760408201527f6e6572206e6f7220617070726f76656420666f7220616c6c0000000000000000606082015260800190565b6020808252602a908201527f4552433732313a2062616c616e636520717565727920666f7220746865207a6560408201527f726f206164647265737300000000000000000000000000000000000000000000606082015260800190565b60208082526029908201527f4552433732313a206f776e657220717565727920666f72206e6f6e657869737460408201527f656e7420746f6b656e0000000000000000000000000000000000000000000000606082015260800190565b6020808252818101527f4552433732313a206d696e7420746f20746865207a65726f2061646472657373604082015260600190565b6020808252602c908201527f4552433732313a20617070726f76656420717565727920666f72206e6f6e657860408201526b34b9ba32b73a103a37b5b2b760a11b606082015260800190565b6020808252818101527f4f776e61626c653a2063616c6c6572206973206e6f7420746865206f776e6572604082015260600190565b60208082526025908201527f4368616d70696f6e20697320646561642c2063616e6e6f742061646420746f2060408201527f6172656e61000000000000000000000000000000000000000000000000000000606082015260800190565b6020808252602d908201527f55736572206d7573742068617665206120726f7374657220746f2073656c656360408201527f742061206368616d70696f6e2e00000000000000000000000000000000000000606082015260800190565b60208082526021908201527f4552433732313a20617070726f76616c20746f2063757272656e74206f776e6560408201527f7200000000000000000000000000000000000000000000000000000000000000606082015260800190565b60208082526031908201527f4552433732313a207472616e736665722063616c6c6572206973206e6f74206f60408201527f776e6572206e6f7220617070726f766564000000000000000000000000000000606082015260800190565b60208082526019908201527f4368616d70696f6e20616c726561647920696e206172656e6100000000000000604082015260600190565b600060208252825160a0602084015261345f60c0840182612919565b90506020840151604084015260408401516060840152606084015160808401526080840151601f198483030160a0850152612b388282612abc565b600060208252825160c060208401526134b660e0840182612919565b9050602084015160408401526040840151606084015260608401516080840152608084015160a084015260a0840151601f198483030160c0850152612b388282612abc565b90815260200190565b838152606081016135186020830185612945565b826040830152949350505050565b604051601f8201601f1916810167ffffffffffffffff8111828210171561354f5761354f6136d3565b604052919050565b600067ffffffffffffffff821115613571576135716136d3565b5060209081020190565b600067ffffffffffffffff821115613595576135956136d3565b50601f01601f191660200190565b60009081526020902090565b600082198211156135c2576135c26136a7565b500190565b6000826135d6576135d66136bd565b500490565b60008160001904831182151516156135f5576135f56136a7565b500290565b60008282101561360c5761360c6136a7565b500390565b60005b8381101561362c578181015183820152602001613614565b838111156110925750506000910152565b60028104600182168061365157607f821691505b6020821081141561367257634e487b7160e01b600052602260045260246000fd5b50919050565b600060001982141561368c5761368c6136a7565b5060010190565b6000826136a2576136a26136bd565b500690565b634e487b7160e01b600052601160045260246000fd5b634e487b7160e01b600052601260045260246000fd5b634e487b7160e01b600052604160045260246000fd5b6001600160e01b03198116811461160c57600080fdfe4142434445464748494a4b4c4d4e4f505152535455565758595a6162636465666768696a6b6c6d6e6f707172737475767778797a303132333435363738392b2f5265676973746572696e67206368616d70696f6e6964202573206f6e2074686520636f6e7472616374207769746820746f6b656e4944202564a2646970667358221220b2c83ad638cfb3161e2ffe72f7d6c78b5a1237bbfe7653a0b741567742fdd8cb64736f6c63430008010033",
  "linkReferences": {},
  "deployedLinkReferences": {}
}