{
  "_format": "hh-sol-artifact-1",
  "contractName": "MMOGame",
  "sourceName": "contracts/MMOGame.sol",
  "abi": [
    {
      "anonymous": false,
      "inputs": [
        {
          "indexed": true,
          "internalType": "address",
          "name": "owner",
          "type": "address"
        },
        {
          "indexed": true,
          "internalType": "address",
          "name": "approved",
          "type": "address"
        },
        {
          "indexed": true,
          "internalType": "uint256",
          "name": "tokenId",
          "type": "uint256"
        }
      ],
      "name": "Approval",
      "type": "event"
    },
    {
      "anonymous": false,
      "inputs": [
        {
          "indexed": true,
          "internalType": "address",
          "name": "owner",
          "type": "address"
        },
        {
          "indexed": true,
          "internalType": "address",
          "name": "operator",
          "type": "address"
        },
        {
          "indexed": false,
          "internalType": "bool",
          "name": "approved",
          "type": "bool"
        }
      ],
      "name": "ApprovalForAll",
      "type": "event"
    },
    {
      "anonymous": false,
      "inputs": [],
      "name": "ArenaFinished",
      "type": "event"
    },
    {
      "anonymous": false,
      "inputs": [
        {
          "indexed": false,
          "internalType": "uint256",
          "name": "tokenId",
          "type": "uint256"
        }
      ],
      "name": "ArenaNewChampion",
      "type": "event"
    },
    {
      "anonymous": false,
      "inputs": [
        {
          "indexed": false,
          "internalType": "uint256",
          "name": "bossIndex",
          "type": "uint256"
        }
      ],
      "name": "ArenaStarted",
      "type": "event"
    },
    {
      "anonymous": false,
      "inputs": [
        {
          "indexed": false,
          "internalType": "uint256",
          "name": "bossHealth",
          "type": "uint256"
        }
      ],
      "name": "AttackComplete",
      "type": "event"
    },
    {
      "anonymous": false,
      "inputs": [
        {
          "indexed": false,
          "internalType": "uint256",
          "name": "tokenId",
          "type": "uint256"
        },
        {
          "indexed": false,
          "internalType": "uint256",
          "name": "championHealth",
          "type": "uint256"
        }
      ],
      "name": "BossAttackComplete",
      "type": "event"
    },
    {
      "anonymous": false,
      "inputs": [
        {
          "indexed": false,
          "internalType": "address",
          "name": "userToNotify",
          "type": "address"
        },
        {
          "indexed": false,
          "internalType": "uint256",
          "name": "tokenId",
          "type": "uint256"
        },
        {
          "indexed": false,
          "internalType": "uint256",
          "name": "championIndex",
          "type": "uint256"
        }
      ],
      "name": "ChampionAddedToRoster",
      "type": "event"
    },
    {
      "anonymous": false,
      "inputs": [
        {
          "indexed": false,
          "internalType": "address",
          "name": "userToNotify",
          "type": "address"
        },
        {
          "indexed": false,
          "internalType": "uint256",
          "name": "tokenId",
          "type": "uint256"
        }
      ],
      "name": "ChampionSelected",
      "type": "event"
    },
    {
      "anonymous": false,
      "inputs": [
        {
          "indexed": false,
          "internalType": "uint256",
          "name": "tokenId",
          "type": "uint256"
        },
        {
          "indexed": false,
          "internalType": "uint256",
          "name": "championHealth",
          "type": "uint256"
        }
      ],
      "name": "HealComplete",
      "type": "event"
    },
    {
      "anonymous": false,
      "inputs": [
        {
          "indexed": true,
          "internalType": "address",
          "name": "previousOwner",
          "type": "address"
        },
        {
          "indexed": true,
          "internalType": "address",
          "name": "newOwner",
          "type": "address"
        }
      ],
      "name": "OwnershipTransferred",
      "type": "event"
    },
    {
      "anonymous": false,
      "inputs": [
        {
          "indexed": true,
          "internalType": "address",
          "name": "from",
          "type": "address"
        },
        {
          "indexed": true,
          "internalType": "address",
          "name": "to",
          "type": "address"
        },
        {
          "indexed": true,
          "internalType": "uint256",
          "name": "tokenId",
          "type": "uint256"
        }
      ],
      "name": "Transfer",
      "type": "event"
    },
    {
      "inputs": [],
      "name": "ActiveArena",
      "outputs": [
        {
          "internalType": "uint256",
          "name": "bossIndex",
          "type": "uint256"
        },
        {
          "internalType": "enum ArenaState",
          "name": "state",
          "type": "uint8"
        },
        {
          "internalType": "uint256",
          "name": "lastArenaFinishedOn",
          "type": "uint256"
        }
      ],
      "stateMutability": "view",
      "type": "function"
    },
    {
      "inputs": [
        {
          "internalType": "uint256",
          "name": "",
          "type": "uint256"
        }
      ],
      "name": "Bosses",
      "outputs": [
        {
          "internalType": "string",
          "name": "name",
          "type": "string"
        },
        {
          "internalType": "uint256",
          "name": "health",
          "type": "uint256"
        },
        {
          "internalType": "uint256",
          "name": "maxHealth",
          "type": "uint256"
        },
        {
          "internalType": "uint256",
          "name": "attackPower",
          "type": "uint256"
        },
        {
          "components": [
            {
              "internalType": "string",
              "name": "idle",
              "type": "string"
            },
            {
              "internalType": "string",
              "name": "attack",
              "type": "string"
            },
            {
              "internalType": "string",
              "name": "hurt",
              "type": "string"
            },
            {
              "internalType": "string",
              "name": "dying",
              "type": "string"
            },
            {
              "internalType": "string",
              "name": "dead",
              "type": "string"
            }
          ],
          "internalType": "struct GifStatus",
          "name": "gifUris",
          "type": "tuple"
        }
      ],
      "stateMutability": "view",
      "type": "function"
    },
    {
      "inputs": [
        {
          "internalType": "uint256",
          "name": "",
          "type": "uint256"
        }
      ],
      "name": "NftHolderChampion",
      "outputs": [
        {
          "internalType": "string",
          "name": "name",
          "type": "string"
        },
        {
          "internalType": "uint256",
          "name": "health",
          "type": "uint256"
        },
        {
          "internalType": "uint256",
          "name": "maxHealth",
          "type": "uint256"
        },
        {
          "internalType": "uint256",
          "name": "attackPower",
          "type": "uint256"
        },
        {
          "internalType": "uint256",
          "name": "healPower",
          "type": "uint256"
        },
        {
          "components": [
            {
              "internalType": "string",
              "name": "idle",
              "type": "string"
            },
            {
              "internalType": "string",
              "name": "attack",
              "type": "string"
            },
            {
              "internalType": "string",
              "name": "hurt",
              "type": "string"
            },
            {
              "internalType": "string",
              "name": "dying",
              "type": "string"
            },
            {
              "internalType": "string",
              "name": "dead",
              "type": "string"
            }
          ],
          "internalType": "struct GifStatus",
          "name": "gifUris",
          "type": "tuple"
        }
      ],
      "stateMutability": "view",
      "type": "function"
    },
    {
      "inputs": [
        {
          "internalType": "address",
          "name": "",
          "type": "address"
        }
      ],
      "name": "SelectedChampion",
      "outputs": [
        {
          "internalType": "uint256",
          "name": "",
          "type": "uint256"
        }
      ],
      "stateMutability": "view",
      "type": "function"
    },
    {
      "inputs": [
        {
          "internalType": "string",
          "name": "name",
          "type": "string"
        },
        {
          "internalType": "uint256",
          "name": "health",
          "type": "uint256"
        },
        {
          "internalType": "uint256",
          "name": "attackPower",
          "type": "uint256"
        },
        {
          "internalType": "string[]",
          "name": "gifUris",
          "type": "string[]"
        }
      ],
      "name": "addBoss",
      "outputs": [],
      "stateMutability": "nonpayable",
      "type": "function"
    },
    {
      "inputs": [
        {
          "internalType": "string",
          "name": "name",
          "type": "string"
        },
        {
          "internalType": "uint256",
          "name": "maxHealth",
          "type": "uint256"
        },
        {
          "internalType": "uint256",
          "name": "attackPower",
          "type": "uint256"
        },
        {
          "internalType": "uint256",
          "name": "healPower",
          "type": "uint256"
        },
        {
          "internalType": "string[]",
          "name": "gifUris",
          "type": "string[]"
        }
      ],
      "name": "addChampion",
      "outputs": [],
      "stateMutability": "nonpayable",
      "type": "function"
    },
    {
      "inputs": [],
      "name": "addChampionToArena",
      "outputs": [],
      "stateMutability": "nonpayable",
      "type": "function"
    },
    {
      "inputs": [
        {
          "internalType": "uint256",
          "name": "_championIndex",
          "type": "uint256"
        }
      ],
      "name": "addChampionToRoster",
      "outputs": [],
      "stateMutability": "nonpayable",
      "type": "function"
    },
    {
      "inputs": [
        {
          "internalType": "address",
          "name": "to",
          "type": "address"
        },
        {
          "internalType": "uint256",
          "name": "tokenId",
          "type": "uint256"
        }
      ],
      "name": "approve",
      "outputs": [],
      "stateMutability": "nonpayable",
      "type": "function"
    },
    {
      "inputs": [],
      "name": "attack",
      "outputs": [],
      "stateMutability": "nonpayable",
      "type": "function"
    },
    {
      "inputs": [
        {
          "internalType": "address",
          "name": "owner",
          "type": "address"
        }
      ],
      "name": "balanceOf",
      "outputs": [
        {
          "internalType": "uint256",
          "name": "",
          "type": "uint256"
        }
      ],
      "stateMutability": "view",
      "type": "function"
    },
    {
      "inputs": [
        {
          "internalType": "uint256",
          "name": "tokenId",
          "type": "uint256"
        }
      ],
      "name": "getApproved",
      "outputs": [
        {
          "internalType": "address",
          "name": "",
          "type": "address"
        }
      ],
      "stateMutability": "view",
      "type": "function"
    },
    {
      "inputs": [],
      "name": "getArenaBoss",
      "outputs": [
        {
          "components": [
            {
              "internalType": "string",
              "name": "name",
              "type": "string"
            },
            {
              "internalType": "uint256",
              "name": "health",
              "type": "uint256"
            },
            {
              "internalType": "uint256",
              "name": "maxHealth",
              "type": "uint256"
            },
            {
              "internalType": "uint256",
              "name": "attackPower",
              "type": "uint256"
            },
            {
              "components": [
                {
                  "internalType": "string",
                  "name": "idle",
                  "type": "string"
                },
                {
                  "internalType": "string",
                  "name": "attack",
                  "type": "string"
                },
                {
                  "internalType": "string",
                  "name": "hurt",
                  "type": "string"
                },
                {
                  "internalType": "string",
                  "name": "dying",
                  "type": "string"
                },
                {
                  "internalType": "string",
                  "name": "dead",
                  "type": "string"
                }
              ],
              "internalType": "struct GifStatus",
              "name": "gifUris",
              "type": "tuple"
            }
          ],
          "internalType": "struct Boss",
          "name": "",
          "type": "tuple"
        }
      ],
      "stateMutability": "view",
      "type": "function"
    },
    {
      "inputs": [],
      "name": "getArenaChampionList",
      "outputs": [
        {
          "internalType": "uint256[]",
          "name": "",
          "type": "uint256[]"
        }
      ],
      "stateMutability": "view",
      "type": "function"
    },
    {
      "inputs": [],
      "name": "getArenaState",
      "outputs": [
        {
          "internalType": "enum ArenaState",
          "name": "",
          "type": "uint8"
        }
      ],
      "stateMutability": "view",
      "type": "function"
    },
    {
      "inputs": [],
      "name": "getBossList",
      "outputs": [
        {
          "components": [
            {
              "internalType": "string",
              "name": "name",
              "type": "string"
            },
            {
              "internalType": "uint256",
              "name": "health",
              "type": "uint256"
            },
            {
              "internalType": "uint256",
              "name": "maxHealth",
              "type": "uint256"
            },
            {
              "internalType": "uint256",
              "name": "attackPower",
              "type": "uint256"
            },
            {
              "components": [
                {
                  "internalType": "string",
                  "name": "idle",
                  "type": "string"
                },
                {
                  "internalType": "string",
                  "name": "attack",
                  "type": "string"
                },
                {
                  "internalType": "string",
                  "name": "hurt",
                  "type": "string"
                },
                {
                  "internalType": "string",
                  "name": "dying",
                  "type": "string"
                },
                {
                  "internalType": "string",
                  "name": "dead",
                  "type": "string"
                }
              ],
              "internalType": "struct GifStatus",
              "name": "gifUris",
              "type": "tuple"
            }
          ],
          "internalType": "struct Boss[]",
          "name": "",
          "type": "tuple[]"
        }
      ],
      "stateMutability": "view",
      "type": "function"
    },
    {
      "inputs": [],
      "name": "getChampionList",
      "outputs": [
        {
          "components": [
            {
              "internalType": "string",
              "name": "name",
              "type": "string"
            },
            {
              "internalType": "uint256",
              "name": "health",
              "type": "uint256"
            },
            {
              "internalType": "uint256",
              "name": "maxHealth",
              "type": "uint256"
            },
            {
              "internalType": "uint256",
              "name": "attackPower",
              "type": "uint256"
            },
            {
              "internalType": "uint256",
              "name": "healPower",
              "type": "uint256"
            },
            {
              "components": [
                {
                  "internalType": "string",
                  "name": "idle",
                  "type": "string"
                },
                {
                  "internalType": "string",
                  "name": "attack",
                  "type": "string"
                },
                {
                  "internalType": "string",
                  "name": "hurt",
                  "type": "string"
                },
                {
                  "internalType": "string",
                  "name": "dying",
                  "type": "string"
                },
                {
                  "internalType": "string",
                  "name": "dead",
                  "type": "string"
                }
              ],
              "internalType": "struct GifStatus",
              "name": "gifUris",
              "type": "tuple"
            }
          ],
          "internalType": "struct Champion[]",
          "name": "",
          "type": "tuple[]"
        }
      ],
      "stateMutability": "view",
      "type": "function"
    },
    {
      "inputs": [
        {
          "internalType": "uint256",
          "name": "recordId",
          "type": "uint256"
        }
      ],
      "name": "getNFTChampion",
      "outputs": [
        {
          "components": [
            {
              "internalType": "string",
              "name": "name",
              "type": "string"
            },
            {
              "internalType": "uint256",
              "name": "health",
              "type": "uint256"
            },
            {
              "internalType": "uint256",
              "name": "maxHealth",
              "type": "uint256"
            },
            {
              "internalType": "uint256",
              "name": "attackPower",
              "type": "uint256"
            },
            {
              "internalType": "uint256",
              "name": "healPower",
              "type": "uint256"
            },
            {
              "components": [
                {
                  "internalType": "string",
                  "name": "idle",
                  "type": "string"
                },
                {
                  "internalType": "string",
                  "name": "attack",
                  "type": "string"
                },
                {
                  "internalType": "string",
                  "name": "hurt",
                  "type": "string"
                },
                {
                  "internalType": "string",
                  "name": "dying",
                  "type": "string"
                },
                {
                  "internalType": "string",
                  "name": "dead",
                  "type": "string"
                }
              ],
              "internalType": "struct GifStatus",
              "name": "gifUris",
              "type": "tuple"
            }
          ],
          "internalType": "struct Champion",
          "name": "",
          "type": "tuple"
        }
      ],
      "stateMutability": "view",
      "type": "function"
    },
    {
      "inputs": [],
      "name": "getSelectedChampion",
      "outputs": [
        {
          "internalType": "uint256",
          "name": "",
          "type": "uint256"
        }
      ],
      "stateMutability": "view",
      "type": "function"
    },
    {
      "inputs": [],
      "name": "getUserRoster",
      "outputs": [
        {
          "internalType": "uint256[]",
          "name": "",
          "type": "uint256[]"
        }
      ],
      "stateMutability": "view",
      "type": "function"
    },
    {
      "inputs": [],
      "name": "heal",
      "outputs": [],
      "stateMutability": "nonpayable",
      "type": "function"
    },
    {
      "inputs": [
        {
          "internalType": "address",
          "name": "owner",
          "type": "address"
        },
        {
          "internalType": "address",
          "name": "operator",
          "type": "address"
        }
      ],
      "name": "isApprovedForAll",
      "outputs": [
        {
          "internalType": "bool",
          "name": "",
          "type": "bool"
        }
      ],
      "stateMutability": "view",
      "type": "function"
    },
    {
      "inputs": [],
      "name": "name",
      "outputs": [
        {
          "internalType": "string",
          "name": "",
          "type": "string"
        }
      ],
      "stateMutability": "view",
      "type": "function"
    },
    {
      "inputs": [],
      "name": "owner",
      "outputs": [
        {
          "internalType": "address",
          "name": "",
          "type": "address"
        }
      ],
      "stateMutability": "view",
      "type": "function"
    },
    {
      "inputs": [
        {
          "internalType": "uint256",
          "name": "tokenId",
          "type": "uint256"
        }
      ],
      "name": "ownerOf",
      "outputs": [
        {
          "internalType": "address",
          "name": "",
          "type": "address"
        }
      ],
      "stateMutability": "view",
      "type": "function"
    },
    {
      "inputs": [],
      "name": "renounceOwnership",
      "outputs": [],
      "stateMutability": "nonpayable",
      "type": "function"
    },
    {
      "inputs": [
        {
          "internalType": "address",
          "name": "from",
          "type": "address"
        },
        {
          "internalType": "address",
          "name": "to",
          "type": "address"
        },
        {
          "internalType": "uint256",
          "name": "tokenId",
          "type": "uint256"
        }
      ],
      "name": "safeTransferFrom",
      "outputs": [],
      "stateMutability": "nonpayable",
      "type": "function"
    },
    {
      "inputs": [
        {
          "internalType": "address",
          "name": "from",
          "type": "address"
        },
        {
          "internalType": "address",
          "name": "to",
          "type": "address"
        },
        {
          "internalType": "uint256",
          "name": "tokenId",
          "type": "uint256"
        },
        {
          "internalType": "bytes",
          "name": "_data",
          "type": "bytes"
        }
      ],
      "name": "safeTransferFrom",
      "outputs": [],
      "stateMutability": "nonpayable",
      "type": "function"
    },
    {
      "inputs": [
        {
          "internalType": "address",
          "name": "operator",
          "type": "address"
        },
        {
          "internalType": "bool",
          "name": "approved",
          "type": "bool"
        }
      ],
      "name": "setApprovalForAll",
      "outputs": [],
      "stateMutability": "nonpayable",
      "type": "function"
    },
    {
      "inputs": [
        {
          "internalType": "uint256",
          "name": "_rosterIndex",
          "type": "uint256"
        }
      ],
      "name": "setSelectChampion",
      "outputs": [
        {
          "internalType": "uint256",
          "name": "",
          "type": "uint256"
        }
      ],
      "stateMutability": "nonpayable",
      "type": "function"
    },
    {
      "inputs": [
        {
          "internalType": "bytes4",
          "name": "interfaceId",
          "type": "bytes4"
        }
      ],
      "name": "supportsInterface",
      "outputs": [
        {
          "internalType": "bool",
          "name": "",
          "type": "bool"
        }
      ],
      "stateMutability": "view",
      "type": "function"
    },
    {
      "inputs": [],
      "name": "symbol",
      "outputs": [
        {
          "internalType": "string",
          "name": "",
          "type": "string"
        }
      ],
      "stateMutability": "view",
      "type": "function"
    },
    {
      "inputs": [
        {
          "internalType": "uint256",
          "name": "_tokenId",
          "type": "uint256"
        }
      ],
      "name": "tokenURI",
      "outputs": [
        {
          "internalType": "string",
          "name": "",
          "type": "string"
        }
      ],
      "stateMutability": "view",
      "type": "function"
    },
    {
      "inputs": [
        {
          "internalType": "address",
          "name": "from",
          "type": "address"
        },
        {
          "internalType": "address",
          "name": "to",
          "type": "address"
        },
        {
          "internalType": "uint256",
          "name": "tokenId",
          "type": "uint256"
        }
      ],
      "name": "transferFrom",
      "outputs": [],
      "stateMutability": "nonpayable",
      "type": "function"
    },
    {
      "inputs": [
        {
          "internalType": "address",
          "name": "newOwner",
          "type": "address"
        }
      ],
      "name": "transferOwnership",
      "outputs": [],
      "stateMutability": "nonpayable",
      "type": "function"
    },
    {
      "inputs": [],
      "name": "userHasRoster",
      "outputs": [
        {
          "internalType": "bool",
          "name": "",
          "type": "bool"
        }
      ],
      "stateMutability": "view",
      "type": "function"
    }
  ],
  "bytecode": "0x60806040523480156200001157600080fd5b50604080518082018252601181527026a6a79037b710313637b1b5b1b430b4b760791b60208083019182528351808501909452600384526226a6a160e91b90840152815191929162000066916000916200011f565b5080516200007c9060019060208401906200011f565b5050506200009962000093620000c060201b60201c565b620000c4565b620000b060096200011660201b6200325a1760201c565b6010805460ff1916905562000202565b3390565b600680546001600160a01b038381166001600160a01b0319831681179093556040519116919082907f8be0079c531659141344cd1fd0a4f28419497f9722a3daafe3b4186f6b6457e090600090a35050565b80546001019055565b8280546200012d90620001c5565b90600052602060002090601f0160209004810192826200015157600085556200019c565b82601f106200016c57805160ff19168380011785556200019c565b828001600101855582156200019c579182015b828111156200019c5782518255916020019190600101906200017f565b50620001aa929150620001ae565b5090565b5b80821115620001aa5760008155600101620001af565b600281046001821680620001da57607f821691505b60208210811415620001fc57634e487b7160e01b600052602260045260246000fd5b50919050565b6150dd80620002126000396000f3fe608060405234801561001057600080fd5b506004361061025c5760003560e01c8063715018a611610145578063a22cb465116100bd578063c87b56dd1161008c578063e985e9c511610071578063e985e9c5146104e3578063f2fde38b146104f6578063f866d86e146105095761025c565b8063c87b56dd146104ab578063d6ff4a2e146104be5761025c565b8063a22cb4651461046a578063b4010cd71461047d578063b88d4fde14610485578063ba56957a146104985761025c565b80638ac4eeb31161011457806395d89b41116100f957806395d89b41146104525780639e5faafc1461045a578063a05b6f3c146104625761025c565b80638ac4eeb3146104335780638da5cb5b1461044a5761025c565b8063715018a6146103fb5780637a3486fd146104035780637a70d6ce1461041657806384e859b31461041e5761025c565b806342842e0e116101d85780636484db81116101a75780636f5b9f4c1161018c5780636f5b9f4c146103be578063709ccf70146103d357806370a08231146103e85761025c565b80636484db81146103a1578063671bab2e146103a95761025c565b806342842e0e1461034257806344a83b81146103555780635b4ecf25146103795780636352211e1461038e5761025c565b8063081812fc1161022f57806323b872dd1161021457806323b872dd146102ef5780632cce898514610302578063301d2c66146103225761025c565b8063081812fc146102bc578063095ea7b3146102dc5761025c565b806301ffc9a7146102615780630434fe0b1461028a578063048925111461029457806306fdde03146102a7575b600080fd5b61027461026f366004613f9c565b61051c565b60405161028191906146f3565b60405180910390f35b610292610596565b005b6102926102a2366004613fd4565b6106c1565b6102af61092b565b604051610281919061470c565b6102cf6102ca3660046140ba565b6109bd565b604051610281919061458b565b6102926102ea366004613f73565b610a00565b6102926102fd366004613e85565b610a98565b6103156103103660046140ba565b610ad0565b6040516102819190614e68565b6103356103303660046140ba565b610b48565b6040516102819190614e55565b610292610350366004613e85565b610f16565b6103686103633660046140ba565b610f31565b604051610281959493929190614744565b6103816112e3565b6040516102819190614e42565b6102cf61039c3660046140ba565b6116cd565b610315611702565b6103b1611715565b60405161028191906146fe565b6103c661171e565b60405161028191906145fc565b6103db611b1b565b60405161028191906146af565b6103156103f6366004613e39565b611b75565b610292611bb9565b61029261041136600461403c565b611c04565b6103db611e81565b610426611ee0565b604051610281919061465c565b61043b6122de565b60405161028193929190614e71565b6102cf6122f0565b6102af6122ff565b61029261230e565b610292612510565b610292610478366004613f39565b61269f565b6102746126b5565b610292610493366004613ec0565b6126ca565b6103156104a6366004613e39565b612703565b6102af6104b93660046140ba565b612715565b6104d16104cc3660046140ba565b6127c9565b60405161028196959493929190614787565b6102746104f1366004613e53565b612b69565b610292610504366004613e39565b612b99565b6102926105173660046140ba565b612c0a565b60006001600160e01b031982167f80ac58cd00000000000000000000000000000000000000000000000000000000148061057f57506001600160e01b031982167f5b5e139f00000000000000000000000000000000000000000000000000000000145b8061058e575061058e82613263565b90505b919050565b336000908152600b6020526040902054806105cc5760405162461bcd60e51b81526004016105c390614b82565b60405180910390fd5b6000818152600c60205260409020600101546105fa5760405162461bcd60e51b81526004016105c390614cbd565b600160105460ff16600281111561062157634e487b7160e01b600052602160045260246000fd5b1461063e5760405162461bcd60e51b81526004016105c39061491f565b336000908152600b6020908152604080832054808452600c909252822060048101546001820180549394929391929091610679908490614ede565b909155505060018101546040517fbe48ddc4757287d79e6453c381ab1b1a1c1d18a4fdcf61bde378de226024f22c916106b491859190614e93565b60405180910390a1505050565b6106c9613295565b6001600160a01b03166106da6122f0565b6001600160a01b0316146107005760405162461bcd60e51b81526004016105c390614c2b565b610708613bfb565b8481526020810184905260408101849052606081018390528151829060009061074157634e487b7160e01b600052603260045260246000fd5b60200260200101518160800151600001819052508160018151811061077657634e487b7160e01b600052603260045260246000fd5b6020026020010151816080015160200181905250816002815181106107ab57634e487b7160e01b600052603260045260246000fd5b6020026020010151816080015160400181905250816003815181106107e057634e487b7160e01b600052603260045260246000fd5b60200260200101518160800151606001819052508160048151811061081557634e487b7160e01b600052603260045260246000fd5b60209081029190910181015160808084015101526007805460018101825560009190915282518051849360099093027fa66cc928b5edb82af9bd49922954155ab7b0942694bea4ce44661d9a8736c6880192610875928492910190613c2f565b5060208281015160018301556040830151600283015560608301516003830155608083015180518051919260048501926108b29284920190613c2f565b5060208281015180516108cb9260018501920190613c2f565b50604082015180516108e7916002840191602090910190613c2f565b5060608201518051610903916003840191602090910190613c2f565b506080820151805161091f916004840191602090910190613c2f565b50505050505050505050565b60606000805461093a90614f6c565b80601f016020809104026020016040519081016040528092919081815260200182805461096690614f6c565b80156109b35780601f10610988576101008083540402835291602001916109b3565b820191906000526020600020905b81548152906001019060200180831161099657829003601f168201915b5050505050905090565b60006109c882613299565b6109e45760405162461bcd60e51b81526004016105c390614bdf565b506000908152600460205260409020546001600160a01b031690565b6000610a0b826116cd565b9050806001600160a01b0316836001600160a01b03161415610a3f5760405162461bcd60e51b81526004016105c390614d51565b806001600160a01b0316610a51613295565b6001600160a01b03161480610a6d5750610a6d816104f1613295565b610a895760405162461bcd60e51b81526004016105c390614a36565b610a9383836132b6565b505050565b610aa9610aa3613295565b82613331565b610ac55760405162461bcd60e51b81526004016105c390614dae565b610a938383836133b6565b600080610adb611e81565b9050805160001415610aff5760405162461bcd60e51b81526004016105c390614cf4565b6000818481518110610b2157634e487b7160e01b600052603260045260246000fd5b602090810291909101810151336000908152600b9092526040909120819055949350505050565b610b50613cb3565b6000828152600c602052604090819020815160c08101909252805482908290610b7890614f6c565b80601f0160208091040260200160405190810160405280929190818152602001828054610ba490614f6c565b8015610bf15780601f10610bc657610100808354040283529160200191610bf1565b820191906000526020600020905b815481529060010190602001808311610bd457829003601f168201915b5050505050815260200160018201548152602001600282015481526020016003820154815260200160048201548152602001600582016040518060a0016040529081600082018054610c4290614f6c565b80601f0160208091040260200160405190810160405280929190818152602001828054610c6e90614f6c565b8015610cbb5780601f10610c9057610100808354040283529160200191610cbb565b820191906000526020600020905b815481529060010190602001808311610c9e57829003601f168201915b50505050508152602001600182018054610cd490614f6c565b80601f0160208091040260200160405190810160405280929190818152602001828054610d0090614f6c565b8015610d4d5780601f10610d2257610100808354040283529160200191610d4d565b820191906000526020600020905b815481529060010190602001808311610d3057829003601f168201915b50505050508152602001600282018054610d6690614f6c565b80601f0160208091040260200160405190810160405280929190818152602001828054610d9290614f6c565b8015610ddf5780601f10610db457610100808354040283529160200191610ddf565b820191906000526020600020905b815481529060010190602001808311610dc257829003601f168201915b50505050508152602001600382018054610df890614f6c565b80601f0160208091040260200160405190810160405280929190818152602001828054610e2490614f6c565b8015610e715780601f10610e4657610100808354040283529160200191610e71565b820191906000526020600020905b815481529060010190602001808311610e5457829003601f168201915b50505050508152602001600482018054610e8a90614f6c565b80601f0160208091040260200160405190810160405280929190818152602001828054610eb690614f6c565b8015610f035780601f10610ed857610100808354040283529160200191610f03565b820191906000526020600020905b815481529060010190602001808311610ee657829003601f168201915b5050509190925250505090525092915050565b610a93838383604051806020016040528060008152506126ca565b60078181548110610f4157600080fd5b9060005260206000209060090201600091509050806000018054610f6490614f6c565b80601f0160208091040260200160405190810160405280929190818152602001828054610f9090614f6c565b8015610fdd5780601f10610fb257610100808354040283529160200191610fdd565b820191906000526020600020905b815481529060010190602001808311610fc057829003601f168201915b505050505090806001015490806002015490806003015490806004016040518060a001604052908160008201805461101490614f6c565b80601f016020809104026020016040519081016040528092919081815260200182805461104090614f6c565b801561108d5780601f106110625761010080835404028352916020019161108d565b820191906000526020600020905b81548152906001019060200180831161107057829003601f168201915b505050505081526020016001820180546110a690614f6c565b80601f01602080910402602001604051908101604052809291908181526020018280546110d290614f6c565b801561111f5780601f106110f45761010080835404028352916020019161111f565b820191906000526020600020905b81548152906001019060200180831161110257829003601f168201915b5050505050815260200160028201805461113890614f6c565b80601f016020809104026020016040519081016040528092919081815260200182805461116490614f6c565b80156111b15780601f10611186576101008083540402835291602001916111b1565b820191906000526020600020905b81548152906001019060200180831161119457829003601f168201915b505050505081526020016003820180546111ca90614f6c565b80601f01602080910402602001604051908101604052809291908181526020018280546111f690614f6c565b80156112435780601f1061121857610100808354040283529160200191611243565b820191906000526020600020905b81548152906001019060200180831161122657829003601f168201915b5050505050815260200160048201805461125c90614f6c565b80601f016020809104026020016040519081016040528092919081815260200182805461128890614f6c565b80156112d55780601f106112aa576101008083540402835291602001916112d5565b820191906000526020600020905b8154815290600101906020018083116112b857829003601f168201915b505050505081525050905085565b6112eb613bfb565b6007600d600201548154811061131157634e487b7160e01b600052603260045260246000fd5b90600052602060002090600902016040518060a001604052908160008201805461133a90614f6c565b80601f016020809104026020016040519081016040528092919081815260200182805461136690614f6c565b80156113b35780601f10611388576101008083540402835291602001916113b3565b820191906000526020600020905b81548152906001019060200180831161139657829003601f168201915b50505050508152602001600182015481526020016002820154815260200160038201548152602001600482016040518060a00160405290816000820180546113fa90614f6c565b80601f016020809104026020016040519081016040528092919081815260200182805461142690614f6c565b80156114735780601f1061144857610100808354040283529160200191611473565b820191906000526020600020905b81548152906001019060200180831161145657829003601f168201915b5050505050815260200160018201805461148c90614f6c565b80601f01602080910402602001604051908101604052809291908181526020018280546114b890614f6c565b80156115055780601f106114da57610100808354040283529160200191611505565b820191906000526020600020905b8154815290600101906020018083116114e857829003601f168201915b5050505050815260200160028201805461151e90614f6c565b80601f016020809104026020016040519081016040528092919081815260200182805461154a90614f6c565b80156115975780601f1061156c57610100808354040283529160200191611597565b820191906000526020600020905b81548152906001019060200180831161157a57829003601f168201915b505050505081526020016003820180546115b090614f6c565b80601f01602080910402602001604051908101604052809291908181526020018280546115dc90614f6c565b80156116295780601f106115fe57610100808354040283529160200191611629565b820191906000526020600020905b81548152906001019060200180831161160c57829003601f168201915b5050505050815260200160048201805461164290614f6c565b80601f016020809104026020016040519081016040528092919081815260200182805461166e90614f6c565b80156116bb5780601f10611690576101008083540402835291602001916116bb565b820191906000526020600020905b81548152906001019060200180831161169e57829003601f168201915b50505050508152505081525050905090565b6000818152600260205260408120546001600160a01b03168061058e5760405162461bcd60e51b81526004016105c390614af0565b336000908152600b602052604090205490565b60105460ff1690565b60606007805480602002602001604051908101604052809291908181526020016000905b82821015611b1257838290600052602060002090600902016040518060a001604052908160008201805461177590614f6c565b80601f01602080910402602001604051908101604052809291908181526020018280546117a190614f6c565b80156117ee5780601f106117c3576101008083540402835291602001916117ee565b820191906000526020600020905b8154815290600101906020018083116117d157829003601f168201915b50505050508152602001600182015481526020016002820154815260200160038201548152602001600482016040518060a001604052908160008201805461183590614f6c565b80601f016020809104026020016040519081016040528092919081815260200182805461186190614f6c565b80156118ae5780601f10611883576101008083540402835291602001916118ae565b820191906000526020600020905b81548152906001019060200180831161189157829003601f168201915b505050505081526020016001820180546118c790614f6c565b80601f01602080910402602001604051908101604052809291908181526020018280546118f390614f6c565b80156119405780601f1061191557610100808354040283529160200191611940565b820191906000526020600020905b81548152906001019060200180831161192357829003601f168201915b5050505050815260200160028201805461195990614f6c565b80601f016020809104026020016040519081016040528092919081815260200182805461198590614f6c565b80156119d25780601f106119a7576101008083540402835291602001916119d2565b820191906000526020600020905b8154815290600101906020018083116119b557829003601f168201915b505050505081526020016003820180546119eb90614f6c565b80601f0160208091040260200160405190810160405280929190818152602001828054611a1790614f6c565b8015611a645780601f10611a3957610100808354040283529160200191611a64565b820191906000526020600020905b815481529060010190602001808311611a4757829003601f168201915b50505050508152602001600482018054611a7d90614f6c565b80601f0160208091040260200160405190810160405280929190818152602001828054611aa990614f6c565b8015611af65780601f10611acb57610100808354040283529160200191611af6565b820191906000526020600020905b815481529060010190602001808311611ad957829003601f168201915b5050505050815250508152505081526020019060010190611742565b50505050905090565b6060600d6001018054806020026020016040519081016040528092919081815260200182805480156109b357602002820191906000526020600020905b815481526020019060010190808311611b58575050505050905090565b60006001600160a01b038216611b9d5760405162461bcd60e51b81526004016105c390614a93565b506001600160a01b031660009081526003602052604090205490565b611bc1613295565b6001600160a01b0316611bd26122f0565b6001600160a01b031614611bf85760405162461bcd60e51b81526004016105c390614c2b565b611c0260006134f6565b565b611c0c613295565b6001600160a01b0316611c1d6122f0565b6001600160a01b031614611c435760405162461bcd60e51b81526004016105c390614c2b565b611c4b613cb3565b8581526020810185905260408101859052606081018490526080810183905281518290600090611c8b57634e487b7160e01b600052603260045260246000fd5b60200260200101518160a001516000018190525081600181518110611cc057634e487b7160e01b600052603260045260246000fd5b60200260200101518160a001516020018190525081600281518110611cf557634e487b7160e01b600052603260045260246000fd5b60200260200101518160a001516040018190525081600381518110611d2a57634e487b7160e01b600052603260045260246000fd5b60200260200101518160a001516060018190525081600481518110611d5f57634e487b7160e01b600052603260045260246000fd5b60209081029190910181015160a08301516080015260088054600181018255600091909152825180518493600a9093027ff3f7a9fe364faab93b216da50a3214154f22a0a2b415b23a84c8169e8b636ee30192611dc0928492910190613c2f565b50602082810151600183015560408301516002830155606083015160038301556080830151600483015560a08301518051805191926005850192611e079284920190613c2f565b506020828101518051611e209260018501920190613c2f565b5060408201518051611e3c916002840191602090910190613c2f565b5060608201518051611e58916003840191602090910190613c2f565b5060808201518051611e74916004840191602090910190613c2f565b5050505050505050505050565b336000908152600a60209081526040918290208054835181840281018401909452808452606093928301828280156109b35760200282019190600052602060002090815481526020019060010190808311611b58575050505050905090565b60606008805480602002602001604051908101604052809291908181526020016000905b82821015611b1257838290600052602060002090600a02016040518060c0016040529081600082018054611f3790614f6c565b80601f0160208091040260200160405190810160405280929190818152602001828054611f6390614f6c565b8015611fb05780601f10611f8557610100808354040283529160200191611fb0565b820191906000526020600020905b815481529060010190602001808311611f9357829003601f168201915b5050505050815260200160018201548152602001600282015481526020016003820154815260200160048201548152602001600582016040518060a001604052908160008201805461200190614f6c565b80601f016020809104026020016040519081016040528092919081815260200182805461202d90614f6c565b801561207a5780601f1061204f5761010080835404028352916020019161207a565b820191906000526020600020905b81548152906001019060200180831161205d57829003601f168201915b5050505050815260200160018201805461209390614f6c565b80601f01602080910402602001604051908101604052809291908181526020018280546120bf90614f6c565b801561210c5780601f106120e15761010080835404028352916020019161210c565b820191906000526020600020905b8154815290600101906020018083116120ef57829003601f168201915b5050505050815260200160028201805461212590614f6c565b80601f016020809104026020016040519081016040528092919081815260200182805461215190614f6c565b801561219e5780601f106121735761010080835404028352916020019161219e565b820191906000526020600020905b81548152906001019060200180831161218157829003601f168201915b505050505081526020016003820180546121b790614f6c565b80601f01602080910402602001604051908101604052809291908181526020018280546121e390614f6c565b80156122305780601f1061220557610100808354040283529160200191612230565b820191906000526020600020905b81548152906001019060200180831161221357829003601f168201915b5050505050815260200160048201805461224990614f6c565b80601f016020809104026020016040519081016040528092919081815260200182805461227590614f6c565b80156122c25780601f10612297576101008083540402835291602001916122c2565b820191906000526020600020905b8154815290600101906020018083116122a557829003601f168201915b5050505050815250508152505081526020019060010190611f04565b600f5460105460115460ff9091169083565b6006546001600160a01b031690565b60606001805461093a90614f6c565b336000908152600b60205260409020548061233b5760405162461bcd60e51b81526004016105c390614b82565b6000818152600c60205260409020600101546123695760405162461bcd60e51b81526004016105c390614cbd565b600160105460ff16600281111561239057634e487b7160e01b600052602160045260246000fd5b146123ad5760405162461bcd60e51b81526004016105c39061491f565b336000908152600b6020908152604080832054808452600c9092528220600f54600780549394929390919081106123f457634e487b7160e01b600052603260045260246000fd5b90600052602060002090600902019050816003015481600101541015612456576000600182018190556010805460ff191660021790556040517f269d9f015d2199a6ad46cb528cb72c6abb82051b8f9600c6c248f70bdb2280079190a161250a565b816003015481600101600082825461246e9190614f29565b909155505060018101546040517f9210d575f4de024306f860b201c73427d7a6b3e78d196ceb78b759e604748b0e916124a691614e68565b60405180910390a180600301548260010160008282546124c69190614f29565b909155505060018201546040517fbd6b16c457760fecc6c1d7b918e9d93314a50c6cb969949a655c76a1475e80b49161250191869190614e93565b60405180910390a15b50505050565b336000908152600b6020908152604080832054808452600c9092529091206001015461254e5760405162461bcd60e51b81526004016105c390614c60565b336000908152600d60205260409020541561257b5760405162461bcd60e51b81526004016105c390614e0b565b600060105460ff1660028111156125a257634e487b7160e01b600052602160045260246000fd5b141561262257600f5460006125b8826001614ede565b6007549091506125ca90600190614f29565b8111156125d5575060005b600f8190556010805460ff191660011790556040517fbe09ad21ad3fc23ae505a4badead1958018bfcb0f57d0785de620f4bb265025f90612617908490614e68565b60405180910390a150505b600e8054600181019091557fbb7b4a454dc3493923482f07822329ed19e8244eff582cc204f8554c3620c3fd01819055336000908152600d602052604090819020829055517f2e432824193b39d9199593c5ad19c9019ba8b695dd248e8edbe4292c303efaaa90612694908390614e68565b60405180910390a150565b6126b16126aa613295565b8383613555565b5050565b336000908152600a6020526040902054151590565b6126db6126d5613295565b83613331565b6126f75760405162461bcd60e51b81526004016105c390614dae565b61250a848484846135f8565b600b6020526000908152604090205481565b6000818152600c602052604081206001810154606092906127359061362b565b90506000612746836002015461362b565b90506000612757846003015461362b565b90506000612798856127688961362b565b60405161278492919060058a0190899089908990602001614398565b60405160208183030381529060405261377a565b90506000816040516020016127ad9190614546565b60408051808303601f1901815291905298975050505050505050565b600c602052600090815260409020805481906127e490614f6c565b80601f016020809104026020016040519081016040528092919081815260200182805461281090614f6c565b801561285d5780601f106128325761010080835404028352916020019161285d565b820191906000526020600020905b81548152906001019060200180831161284057829003601f168201915b505050505090806001015490806002015490806003015490806004015490806005016040518060a001604052908160008201805461289a90614f6c565b80601f01602080910402602001604051908101604052809291908181526020018280546128c690614f6c565b80156129135780601f106128e857610100808354040283529160200191612913565b820191906000526020600020905b8154815290600101906020018083116128f657829003601f168201915b5050505050815260200160018201805461292c90614f6c565b80601f016020809104026020016040519081016040528092919081815260200182805461295890614f6c565b80156129a55780601f1061297a576101008083540402835291602001916129a5565b820191906000526020600020905b81548152906001019060200180831161298857829003601f168201915b505050505081526020016002820180546129be90614f6c565b80601f01602080910402602001604051908101604052809291908181526020018280546129ea90614f6c565b8015612a375780601f10612a0c57610100808354040283529160200191612a37565b820191906000526020600020905b815481529060010190602001808311612a1a57829003601f168201915b50505050508152602001600382018054612a5090614f6c565b80601f0160208091040260200160405190810160405280929190818152602001828054612a7c90614f6c565b8015612ac95780601f10612a9e57610100808354040283529160200191612ac9565b820191906000526020600020905b815481529060010190602001808311612aac57829003601f168201915b50505050508152602001600482018054612ae290614f6c565b80601f0160208091040260200160405190810160405280929190818152602001828054612b0e90614f6c565b8015612b5b5780601f10612b3057610100808354040283529160200191612b5b565b820191906000526020600020905b815481529060010190602001808311612b3e57829003601f168201915b505050505081525050905086565b6001600160a01b0380831660009081526005602090815260408083209385168352929052205460ff165b92915050565b612ba1613295565b6001600160a01b0316612bb26122f0565b6001600160a01b031614612bd85760405162461bcd60e51b81526004016105c390614c2b565b6001600160a01b038116612bfe5760405162461bcd60e51b81526004016105c39061482e565b612c07816134f6565b50565b6000612c1660096138dd565b9050612c3b60405180606001604052806039815260200161506f6039913983836138e1565b612c453382613956565b336000908152600a6020908152604080832080546001810182559084529190922001829055805160c081019091526008805482919085908110612c9857634e487b7160e01b600052603260045260246000fd5b90600052602060002090600a02016000018054612cb490614f6c565b80601f0160208091040260200160405190810160405280929190818152602001828054612ce090614f6c565b8015612d2d5780601f10612d0257610100808354040283529160200191612d2d565b820191906000526020600020905b815481529060010190602001808311612d1057829003601f168201915b5050505050815260200160088481548110612d5857634e487b7160e01b600052603260045260246000fd5b90600052602060002090600a020160010154815260200160088481548110612d9057634e487b7160e01b600052603260045260246000fd5b90600052602060002090600a020160020154815260200160088481548110612dc857634e487b7160e01b600052603260045260246000fd5b90600052602060002090600a020160030154815260200160088481548110612e0057634e487b7160e01b600052603260045260246000fd5b90600052602060002090600a020160040154815260200160088481548110612e3857634e487b7160e01b600052603260045260246000fd5b90600052602060002090600a02016005016040518060a0016040529081600082018054612e6490614f6c565b80601f0160208091040260200160405190810160405280929190818152602001828054612e9090614f6c565b8015612edd5780601f10612eb257610100808354040283529160200191612edd565b820191906000526020600020905b815481529060010190602001808311612ec057829003601f168201915b50505050508152602001600182018054612ef690614f6c565b80601f0160208091040260200160405190810160405280929190818152602001828054612f2290614f6c565b8015612f6f5780601f10612f4457610100808354040283529160200191612f6f565b820191906000526020600020905b815481529060010190602001808311612f5257829003601f168201915b50505050508152602001600282018054612f8890614f6c565b80601f0160208091040260200160405190810160405280929190818152602001828054612fb490614f6c565b80156130015780601f10612fd657610100808354040283529160200191613001565b820191906000526020600020905b815481529060010190602001808311612fe457829003601f168201915b5050505050815260200160038201805461301a90614f6c565b80601f016020809104026020016040519081016040528092919081815260200182805461304690614f6c565b80156130935780601f1061306857610100808354040283529160200191613093565b820191906000526020600020905b81548152906001019060200180831161307657829003601f168201915b505050505081526020016004820180546130ac90614f6c565b80601f01602080910402602001604051908101604052809291908181526020018280546130d890614f6c565b80156131255780601f106130fa57610100808354040283529160200191613125565b820191906000526020600020905b81548152906001019060200180831161310857829003601f168201915b5050509190925250505090526000828152600c6020908152604090912082518051919261315792849290910190613c2f565b50602082810151600183015560408301516002830155606083015160038301556080830151600483015560a0830151805180519192600585019261319e9284920190613c2f565b5060208281015180516131b79260018501920190613c2f565b50604082015180516131d3916002840191602090910190613c2f565b50606082015180516131ef916003840191602090910190613c2f565b506080820151805161320b916004840191602090910190613c2f565b50505090505061321b600961325a565b7fd9d05697e27265a7dde2215564d09b5fef132a05c9693b089ef90388285596ce33828460405161324e939291906145db565b60405180910390a15050565b80546001019055565b6001600160e01b031981167f01ffc9a70000000000000000000000000000000000000000000000000000000014919050565b3390565b6000908152600260205260409020546001600160a01b0316151590565b6000818152600460205260409020805473ffffffffffffffffffffffffffffffffffffffff19166001600160a01b03841690811790915581906132f8826116cd565b6001600160a01b03167f8c5be1e5ebec7d5bd14f71427d1e84f3dd0314c0f7b2291e5b200ac8c7c3b92560405160405180910390a45050565b600061333c82613299565b6133585760405162461bcd60e51b81526004016105c3906149ea565b6000613363836116cd565b9050806001600160a01b0316846001600160a01b0316148061339e5750836001600160a01b0316613393846109bd565b6001600160a01b0316145b806133ae57506133ae8185612b69565b949350505050565b826001600160a01b03166133c9826116cd565b6001600160a01b0316146133ef5760405162461bcd60e51b81526004016105c39061488b565b6001600160a01b0382166134155760405162461bcd60e51b81526004016105c390614956565b613420838383610a93565b61342b6000826132b6565b6001600160a01b0383166000908152600360205260408120805460019290613454908490614f29565b90915550506001600160a01b0382166000908152600360205260408120805460019290613482908490614ede565b9091555050600081815260026020526040808220805473ffffffffffffffffffffffffffffffffffffffff19166001600160a01b0386811691821790925591518493918716917fddf252ad1be2c89b69c2b068fc378daa952ba7f163c4a11628f55a4df523b3ef91a4610a93838383610a93565b600680546001600160a01b0383811673ffffffffffffffffffffffffffffffffffffffff19831681179093556040519116919082907f8be0079c531659141344cd1fd0a4f28419497f9722a3daafe3b4186f6b6457e090600090a35050565b816001600160a01b0316836001600160a01b031614156135875760405162461bcd60e51b81526004016105c3906149b3565b6001600160a01b0383811660008181526005602090815260408083209487168084529490915290819020805460ff1916851515179055517f17307eab39ab6107e8899845ad3d59bd9653f200f220920489ca2b5937696c31906135eb9085906146f3565b60405180910390a3505050565b6136038484846133b6565b61360f84848484613970565b61250a5760405162461bcd60e51b81526004016105c3906147d1565b60608161366c575060408051808201909152600181527f30000000000000000000000000000000000000000000000000000000000000006020820152610591565b8160005b8115613696578061368081614fa7565b915061368f9050600a83614ef6565b9150613670565b60008167ffffffffffffffff8111156136bf57634e487b7160e01b600052604160045260246000fd5b6040519080825280601f01601f1916602001820160405280156136e9576020820181803683370190505b5090505b84156133ae576136fe600183614f29565b915061370b600a86614fc2565b613716906030614ede565b60f81b81838151811061373957634e487b7160e01b600052603260045260246000fd5b60200101907effffffffffffffffffffffffffffffffffffffffffffffffffffffffffffff1916908160001a905350613773600a86614ef6565b94506136ed565b606081516000141561379b5750604080516020810190915260008152610591565b600060405180606001604052806040815260200161502f60409139905060006003845160026137ca9190614ede565b6137d49190614ef6565b6137df906004614f0a565b67ffffffffffffffff81111561380557634e487b7160e01b600052604160045260246000fd5b6040519080825280601f01601f19166020018201604052801561382f576020820181803683370190505b509050600182016020820185865187015b8082101561389b576003820191508151603f8160121c168501518453600184019350603f81600c1c168501518453600184019350603f8160061c168501518453600184019350603f8116850151845350600183019250613840565b50506003865106600181146138b757600281146138ca576138d2565b603d6001830353603d60028303536138d2565b603d60018303535b509195945050505050565b5490565b610a938383836040516024016138f99392919061471f565b60408051601f198184030181529190526020810180517bffffffffffffffffffffffffffffffffffffffffffffffffffffffff167f969cdd0300000000000000000000000000000000000000000000000000000000179052613aa4565b6126b1828260405180602001604052806000815250613ac5565b6000613984846001600160a01b0316613af8565b15613a9957836001600160a01b031663150b7a026139a0613295565b8786866040518563ffffffff1660e01b81526004016139c2949392919061459f565b602060405180830381600087803b1580156139dc57600080fd5b505af1925050508015613a0c575060408051601f3d908101601f19168201909252613a0991810190613fb8565b60015b613a66573d808015613a3a576040519150601f19603f3d011682016040523d82523d6000602084013e613a3f565b606091505b508051613a5e5760405162461bcd60e51b81526004016105c3906147d1565b805181602001fd5b6001600160e01b0319167f150b7a02000000000000000000000000000000000000000000000000000000001490506133ae565b506001949350505050565b80516a636f6e736f6c652e6c6f67602083016000808483855afa5050505050565b613acf8383613b07565b613adc6000848484613970565b610a935760405162461bcd60e51b81526004016105c3906147d1565b6001600160a01b03163b151590565b6001600160a01b038216613b2d5760405162461bcd60e51b81526004016105c390614b4d565b613b3681613299565b15613b535760405162461bcd60e51b81526004016105c3906148e8565b613b5f60008383610a93565b6001600160a01b0382166000908152600360205260408120805460019290613b88908490614ede565b9091555050600081815260026020526040808220805473ffffffffffffffffffffffffffffffffffffffff19166001600160a01b03861690811790915590518392907fddf252ad1be2c89b69c2b068fc378daa952ba7f163c4a11628f55a4df523b3ef908290a46126b160008383610a93565b6040518060a0016040528060608152602001600081526020016000815260200160008152602001613c2a613ce5565b905290565b828054613c3b90614f6c565b90600052602060002090601f016020900481019282613c5d5760008555613ca3565b82601f10613c7657805160ff1916838001178555613ca3565b82800160010185558215613ca3579182015b82811115613ca3578251825591602001919060010190613c88565b50613caf929150613d14565b5090565b6040518060c001604052806060815260200160008152602001600081526020016000815260200160008152602001613c2a5b6040518060a0016040528060608152602001606081526020016060815260200160608152602001606081525090565b5b80821115613caf5760008155600101613d15565b600067ffffffffffffffff831115613d4357613d43615002565b613d56601f8401601f1916602001614ea1565b9050828152838383011115613d6a57600080fd5b828260208301376000602084830101529392505050565b80356001600160a01b038116811461059157600080fd5b600082601f830112613da8578081fd5b8135602067ffffffffffffffff821115613dc457613dc4615002565b613dd18182840201614ea1565b82815281810190858301855b85811015613e0657613df4898684358b0101613e13565b84529284019290840190600101613ddd565b5090979650505050505050565b600082601f830112613e23578081fd5b613e3283833560208501613d29565b9392505050565b600060208284031215613e4a578081fd5b613e3282613d81565b60008060408385031215613e65578081fd5b613e6e83613d81565b9150613e7c60208401613d81565b90509250929050565b600080600060608486031215613e99578081fd5b613ea284613d81565b9250613eb060208501613d81565b9150604084013590509250925092565b60008060008060808587031215613ed5578081fd5b613ede85613d81565b9350613eec60208601613d81565b925060408501359150606085013567ffffffffffffffff811115613f0e578182fd5b8501601f81018713613f1e578182fd5b613f2d87823560208401613d29565b91505092959194509250565b60008060408385031215613f4b578182fd5b613f5483613d81565b915060208301358015158114613f68578182fd5b809150509250929050565b60008060408385031215613f85578182fd5b613f8e83613d81565b946020939093013593505050565b600060208284031215613fad578081fd5b8135613e3281615018565b600060208284031215613fc9578081fd5b8151613e3281615018565b60008060008060808587031215613fe9578384fd5b843567ffffffffffffffff80821115614000578586fd5b61400c88838901613e13565b95506020870135945060408701359350606087013591508082111561402f578283fd5b50613f2d87828801613d98565b600080600080600060a08688031215614053578081fd5b853567ffffffffffffffff8082111561406a578283fd5b61407689838a01613e13565b965060208801359550604088013594506060880135935060808801359150808211156140a0578283fd5b506140ad88828901613d98565b9150509295509295909350565b6000602082840312156140cb578081fd5b5035919050565b600081518084526140ea816020860160208601614f40565b601f01601f19169290920160200192915050565b6003811061411c57634e487b7160e01b600052602160045260246000fd5b9052565b60008151614132818560208601614f40565b9290920192915050565b80546000906002810460018083168061415657607f831692505b602080841082141561417657634e487b7160e01b86526022600452602486fd5b81801561418a576001811461419b576141c8565b60ff198616895284890196506141c8565b6141a488614ed2565b60005b868110156141c05781548b8201529085019083016141a7565b505084890196505b50505050505092915050565b7f2c20226d61785f76616c7565223a0000000000000000000000000000000000008152600e0190565b7f7d205d7d00000000000000000000000000000000000000000000000000000000815260040190565b7f7d2c207b202274726169745f74797065223a202241747461636b2044616d616781527f65222c202276616c7565223a20000000000000000000000000000000000000006020820152602d0190565b6000815160a0845261428a60a08501826140d2565b9050602083015160208501526040830151604085015260608301516060850152608083015184820360808601526142c1828261431c565b95945050505050565b6000815160c084526142df60c08501826140d2565b90506020830151602085015260408301516040850152606083015160608501526080830151608085015260a083015184820360a08601526142c182825b6000815160a0845261433160a08501826140d2565b90506020830151848203602086015261434a82826140d2565b9150506040830151848203604086015261436482826140d2565b9150506060830151848203606086015261437e82826140d2565b915050608083015184820360808601526142c182826140d2565b60007f7b226e616d65223a20220000000000000000000000000000000000000000000082526143ca600a83018961413c565b7f202d2d204e465420233a200000000000000000000000000000000000000000008152875161440081600b840160208c01614f40565b7f222c20226465736372697074696f6e223a20225468697320697320616e204e46600b92909101918201527f542074686174206c6574732070656f706c6520706c617920696e207468652067602b8201527f616d65204d657461766572736520536c6179657221222c2022696d616765223a604b8201527f2022000000000000000000000000000000000000000000000000000000000000606b8201526144aa606d82018861413c565b90507f222c202261747472696275746573223a205b207b202274726169745f7479706581527f223a20224865616c746820506f696e7473222c202276616c7565223a200000006020820152855161450881603d840160208a01614f40565b61453861453361452d614528614522603d868801016141d4565b8a614120565b614226565b87614120565b6141fd565b9a9950505050505050505050565b60007f646174613a6170706c69636174696f6e2f6a736f6e3b6261736536342c0000008252825161457e81601d850160208701614f40565b91909101601d0192915050565b6001600160a01b0391909116815260200190565b60006001600160a01b038087168352808616602084015250836040830152608060608301526145d160808301846140d2565b9695505050505050565b6001600160a01b039390931683526020830191909152604082015260600190565b6000602080830181845280855180835260408601915060408482028701019250838701855b8281101561464f57603f1988860301845261463d858351614275565b94509285019290850190600101614621565b5092979650505050505050565b6000602080830181845280855180835260408601915060408482028701019250838701855b8281101561464f57603f1988860301845261469d8583516142ca565b94509285019290850190600101614681565b6020808252825182820181905260009190848201906040850190845b818110156146e7578351835292840192918401916001016146cb565b50909695505050505050565b901515815260200190565b60208101612b9382846140fe565b600060208252613e3260208301846140d2565b60006060825261473260608301866140d2565b60208301949094525060400152919050565b600060a0825261475760a08301886140d2565b866020840152856040840152846060840152828103608084015261477b818561431c565b98975050505050505050565b600060c0825261479a60c08301896140d2565b87602084015286604084015285606084015284608084015282810360a08401526147c4818561431c565b9998505050505050505050565b60208082526032908201527f4552433732313a207472616e7366657220746f206e6f6e20455243373231526560408201527f63656976657220696d706c656d656e7465720000000000000000000000000000606082015260800190565b60208082526026908201527f4f776e61626c653a206e6577206f776e657220697320746865207a65726f206160408201527f6464726573730000000000000000000000000000000000000000000000000000606082015260800190565b60208082526025908201527f4552433732313a207472616e736665722066726f6d20696e636f72726563742060408201527f6f776e6572000000000000000000000000000000000000000000000000000000606082015260800190565b6020808252601c908201527f4552433732313a20746f6b656e20616c7265616479206d696e74656400000000604082015260600190565b60208082526019908201527f4172656e6120686173206e6f7420737461727465642079657400000000000000604082015260600190565b60208082526024908201527f4552433732313a207472616e7366657220746f20746865207a65726f2061646460408201527f7265737300000000000000000000000000000000000000000000000000000000606082015260800190565b60208082526019908201527f4552433732313a20617070726f766520746f2063616c6c657200000000000000604082015260600190565b6020808252602c908201527f4552433732313a206f70657261746f7220717565727920666f72206e6f6e657860408201526b34b9ba32b73a103a37b5b2b760a11b606082015260800190565b60208082526038908201527f4552433732313a20617070726f76652063616c6c6572206973206e6f74206f7760408201527f6e6572206e6f7220617070726f76656420666f7220616c6c0000000000000000606082015260800190565b6020808252602a908201527f4552433732313a2062616c616e636520717565727920666f7220746865207a6560408201527f726f206164647265737300000000000000000000000000000000000000000000606082015260800190565b60208082526029908201527f4552433732313a206f776e657220717565727920666f72206e6f6e657869737460408201527f656e7420746f6b656e0000000000000000000000000000000000000000000000606082015260800190565b6020808252818101527f4552433732313a206d696e7420746f20746865207a65726f2061646472657373604082015260600190565b60208082526024908201527f5573657220686173206e6f742061206368616d70696f6e20696e20746865206160408201527f72656e6100000000000000000000000000000000000000000000000000000000606082015260800190565b6020808252602c908201527f4552433732313a20617070726f76656420717565727920666f72206e6f6e657860408201526b34b9ba32b73a103a37b5b2b760a11b606082015260800190565b6020808252818101527f4f776e61626c653a2063616c6c6572206973206e6f7420746865206f776e6572604082015260600190565b60208082526025908201527f4368616d70696f6e20697320646561642c2063616e6e6f742061646420746f2060408201527f6172656e61000000000000000000000000000000000000000000000000000000606082015260800190565b6020808252601f908201527f4368616d70696f6e20697320646561642c2063616e6e6f742061747461636b00604082015260600190565b6020808252602d908201527f55736572206d7573742068617665206120726f7374657220746f2073656c656360408201527f742061206368616d70696f6e2e00000000000000000000000000000000000000606082015260800190565b60208082526021908201527f4552433732313a20617070726f76616c20746f2063757272656e74206f776e6560408201527f7200000000000000000000000000000000000000000000000000000000000000606082015260800190565b60208082526031908201527f4552433732313a207472616e736665722063616c6c6572206973206e6f74206f60408201527f776e6572206e6f7220617070726f766564000000000000000000000000000000606082015260800190565b60208082526019908201527f4368616d70696f6e20616c726561647920696e206172656e6100000000000000604082015260600190565b600060208252613e326020830184614275565b600060208252613e3260208301846142ca565b90815260200190565b83815260608101614e8560208301856140fe565b826040830152949350505050565b918252602082015260400190565b604051601f8201601f1916810167ffffffffffffffff81118282101715614eca57614eca615002565b604052919050565b60009081526020902090565b60008219821115614ef157614ef1614fd6565b500190565b600082614f0557614f05614fec565b500490565b6000816000190483118215151615614f2457614f24614fd6565b500290565b600082821015614f3b57614f3b614fd6565b500390565b60005b83811015614f5b578181015183820152602001614f43565b8381111561250a5750506000910152565b600281046001821680614f8057607f821691505b60208210811415614fa157634e487b7160e01b600052602260045260246000fd5b50919050565b6000600019821415614fbb57614fbb614fd6565b5060010190565b600082614fd157614fd1614fec565b500690565b634e487b7160e01b600052601160045260246000fd5b634e487b7160e01b600052601260045260246000fd5b634e487b7160e01b600052604160045260246000fd5b6001600160e01b031981168114612c0757600080fdfe4142434445464748494a4b4c4d4e4f505152535455565758595a6162636465666768696a6b6c6d6e6f707172737475767778797a303132333435363738392b2f5265676973746572696e67206368616d70696f6e6964202573206f6e2074686520636f6e7472616374207769746820746f6b656e4944202564a2646970667358221220888cb266e4fe4446d2f3d14ba11ea155e5dc1428d8f6322d7da62f186c7a002564736f6c63430008010033",
  "linkReferences": {},
  "deployedLinkReferences": {}
}