{
  "_format": "hh-sol-artifact-1",
  "contractName": "MMOGame",
  "sourceName": "contracts/MMOGame.sol",
  "abi": [
    {
      "anonymous": false,
      "inputs": [
        {
          "indexed": true,
          "internalType": "address",
          "name": "owner",
          "type": "address"
        },
        {
          "indexed": true,
          "internalType": "address",
          "name": "approved",
          "type": "address"
        },
        {
          "indexed": true,
          "internalType": "uint256",
          "name": "tokenId",
          "type": "uint256"
        }
      ],
      "name": "Approval",
      "type": "event"
    },
    {
      "anonymous": false,
      "inputs": [
        {
          "indexed": true,
          "internalType": "address",
          "name": "owner",
          "type": "address"
        },
        {
          "indexed": true,
          "internalType": "address",
          "name": "operator",
          "type": "address"
        },
        {
          "indexed": false,
          "internalType": "bool",
          "name": "approved",
          "type": "bool"
        }
      ],
      "name": "ApprovalForAll",
      "type": "event"
    },
    {
      "anonymous": false,
      "inputs": [],
      "name": "ArenaFinished",
      "type": "event"
    },
    {
      "anonymous": false,
      "inputs": [
        {
          "indexed": false,
          "internalType": "uint256",
          "name": "tokenId",
          "type": "uint256"
        }
      ],
      "name": "ArenaNewChampion",
      "type": "event"
    },
    {
      "anonymous": false,
      "inputs": [
        {
          "indexed": false,
          "internalType": "uint256",
          "name": "bossIndex",
          "type": "uint256"
        }
      ],
      "name": "ArenaStarted",
      "type": "event"
    },
    {
      "anonymous": false,
      "inputs": [
        {
          "indexed": false,
          "internalType": "uint256",
          "name": "bossHealth",
          "type": "uint256"
        }
      ],
      "name": "AttackComplete",
      "type": "event"
    },
    {
      "anonymous": false,
      "inputs": [
        {
          "indexed": false,
          "internalType": "uint256",
          "name": "tokenId",
          "type": "uint256"
        },
        {
          "indexed": false,
          "internalType": "uint256",
          "name": "championHealth",
          "type": "uint256"
        }
      ],
      "name": "BossAttackComplete",
      "type": "event"
    },
    {
      "anonymous": false,
      "inputs": [
        {
          "indexed": false,
          "internalType": "address",
          "name": "userToNotify",
          "type": "address"
        },
        {
          "indexed": false,
          "internalType": "uint256",
          "name": "tokenId",
          "type": "uint256"
        },
        {
          "indexed": false,
          "internalType": "uint256",
          "name": "championIndex",
          "type": "uint256"
        }
      ],
      "name": "ChampionAddedToRoster",
      "type": "event"
    },
    {
      "anonymous": false,
      "inputs": [
        {
          "indexed": false,
          "internalType": "address",
          "name": "userToNotify",
          "type": "address"
        },
        {
          "indexed": false,
          "internalType": "uint256",
          "name": "tokenId",
          "type": "uint256"
        }
      ],
      "name": "ChampionSelected",
      "type": "event"
    },
    {
      "anonymous": false,
      "inputs": [
        {
          "indexed": false,
          "internalType": "uint256",
          "name": "tokenId",
          "type": "uint256"
        },
        {
          "indexed": false,
          "internalType": "uint256",
          "name": "championHealth",
          "type": "uint256"
        }
      ],
      "name": "HealComplete",
      "type": "event"
    },
    {
      "anonymous": false,
      "inputs": [
        {
          "indexed": true,
          "internalType": "address",
          "name": "previousOwner",
          "type": "address"
        },
        {
          "indexed": true,
          "internalType": "address",
          "name": "newOwner",
          "type": "address"
        }
      ],
      "name": "OwnershipTransferred",
      "type": "event"
    },
    {
      "anonymous": false,
      "inputs": [
        {
          "indexed": true,
          "internalType": "address",
          "name": "from",
          "type": "address"
        },
        {
          "indexed": true,
          "internalType": "address",
          "name": "to",
          "type": "address"
        },
        {
          "indexed": true,
          "internalType": "uint256",
          "name": "tokenId",
          "type": "uint256"
        }
      ],
      "name": "Transfer",
      "type": "event"
    },
    {
      "inputs": [],
      "name": "ActiveArena",
      "outputs": [
        {
          "internalType": "uint256",
          "name": "bossIndex",
          "type": "uint256"
        },
        {
          "internalType": "enum ArenaState",
          "name": "state",
          "type": "uint8"
        },
        {
          "internalType": "uint256",
          "name": "lastArenaFinishedOn",
          "type": "uint256"
        }
      ],
      "stateMutability": "view",
      "type": "function"
    },
    {
      "inputs": [
        {
          "internalType": "uint256",
          "name": "",
          "type": "uint256"
        }
      ],
      "name": "NftHolderChampion",
      "outputs": [
        {
          "internalType": "string",
          "name": "name",
          "type": "string"
        },
        {
          "internalType": "uint256",
          "name": "health",
          "type": "uint256"
        },
        {
          "internalType": "uint256",
          "name": "maxHealth",
          "type": "uint256"
        },
        {
          "internalType": "uint256",
          "name": "attackPower",
          "type": "uint256"
        },
        {
          "internalType": "uint256",
          "name": "healPower",
          "type": "uint256"
        },
        {
          "components": [
            {
              "internalType": "string",
              "name": "idle",
              "type": "string"
            },
            {
              "internalType": "string",
              "name": "attack",
              "type": "string"
            },
            {
              "internalType": "string",
              "name": "hurt",
              "type": "string"
            },
            {
              "internalType": "string",
              "name": "dying",
              "type": "string"
            },
            {
              "internalType": "string",
              "name": "dead",
              "type": "string"
            }
          ],
          "internalType": "struct GifStatus",
          "name": "gifUris",
          "type": "tuple"
        }
      ],
      "stateMutability": "view",
      "type": "function"
    },
    {
      "inputs": [
        {
          "internalType": "address",
          "name": "",
          "type": "address"
        }
      ],
      "name": "SelectedChampion",
      "outputs": [
        {
          "internalType": "uint256",
          "name": "",
          "type": "uint256"
        }
      ],
      "stateMutability": "view",
      "type": "function"
    },
    {
      "inputs": [],
      "name": "_bossFactory",
      "outputs": [
        {
          "internalType": "contract BossFactory",
          "name": "",
          "type": "address"
        }
      ],
      "stateMutability": "view",
      "type": "function"
    },
    {
      "inputs": [],
      "name": "addChampionToArena",
      "outputs": [],
      "stateMutability": "nonpayable",
      "type": "function"
    },
    {
      "inputs": [
        {
          "internalType": "uint256",
          "name": "_championIndex",
          "type": "uint256"
        }
      ],
      "name": "addChampionToRoster",
      "outputs": [],
      "stateMutability": "nonpayable",
      "type": "function"
    },
    {
      "inputs": [
        {
          "internalType": "address",
          "name": "to",
          "type": "address"
        },
        {
          "internalType": "uint256",
          "name": "tokenId",
          "type": "uint256"
        }
      ],
      "name": "approve",
      "outputs": [],
      "stateMutability": "nonpayable",
      "type": "function"
    },
    {
      "inputs": [],
      "name": "attack",
      "outputs": [],
      "stateMutability": "nonpayable",
      "type": "function"
    },
    {
      "inputs": [
        {
          "internalType": "address",
          "name": "owner",
          "type": "address"
        }
      ],
      "name": "balanceOf",
      "outputs": [
        {
          "internalType": "uint256",
          "name": "",
          "type": "uint256"
        }
      ],
      "stateMutability": "view",
      "type": "function"
    },
    {
      "inputs": [
        {
          "internalType": "uint256",
          "name": "tokenId",
          "type": "uint256"
        }
      ],
      "name": "getApproved",
      "outputs": [
        {
          "internalType": "address",
          "name": "",
          "type": "address"
        }
      ],
      "stateMutability": "view",
      "type": "function"
    },
    {
      "inputs": [],
      "name": "getArenaBoss",
      "outputs": [
        {
          "components": [
            {
              "internalType": "string",
              "name": "name",
              "type": "string"
            },
            {
              "internalType": "uint256",
              "name": "health",
              "type": "uint256"
            },
            {
              "internalType": "uint256",
              "name": "maxHealth",
              "type": "uint256"
            },
            {
              "internalType": "uint256",
              "name": "attackPower",
              "type": "uint256"
            },
            {
              "components": [
                {
                  "internalType": "string",
                  "name": "idle",
                  "type": "string"
                },
                {
                  "internalType": "string",
                  "name": "attack",
                  "type": "string"
                },
                {
                  "internalType": "string",
                  "name": "hurt",
                  "type": "string"
                },
                {
                  "internalType": "string",
                  "name": "dying",
                  "type": "string"
                },
                {
                  "internalType": "string",
                  "name": "dead",
                  "type": "string"
                }
              ],
              "internalType": "struct GifStatus",
              "name": "gifUris",
              "type": "tuple"
            }
          ],
          "internalType": "struct Boss",
          "name": "",
          "type": "tuple"
        }
      ],
      "stateMutability": "view",
      "type": "function"
    },
    {
      "inputs": [],
      "name": "getArenaChampionList",
      "outputs": [
        {
          "internalType": "uint256[]",
          "name": "",
          "type": "uint256[]"
        }
      ],
      "stateMutability": "view",
      "type": "function"
    },
    {
      "inputs": [],
      "name": "getArenaState",
      "outputs": [
        {
          "internalType": "enum ArenaState",
          "name": "",
          "type": "uint8"
        }
      ],
      "stateMutability": "view",
      "type": "function"
    },
    {
      "inputs": [
        {
          "internalType": "uint256",
          "name": "recordId",
          "type": "uint256"
        }
      ],
      "name": "getNFTChampion",
      "outputs": [
        {
          "components": [
            {
              "internalType": "string",
              "name": "name",
              "type": "string"
            },
            {
              "internalType": "uint256",
              "name": "health",
              "type": "uint256"
            },
            {
              "internalType": "uint256",
              "name": "maxHealth",
              "type": "uint256"
            },
            {
              "internalType": "uint256",
              "name": "attackPower",
              "type": "uint256"
            },
            {
              "internalType": "uint256",
              "name": "healPower",
              "type": "uint256"
            },
            {
              "components": [
                {
                  "internalType": "string",
                  "name": "idle",
                  "type": "string"
                },
                {
                  "internalType": "string",
                  "name": "attack",
                  "type": "string"
                },
                {
                  "internalType": "string",
                  "name": "hurt",
                  "type": "string"
                },
                {
                  "internalType": "string",
                  "name": "dying",
                  "type": "string"
                },
                {
                  "internalType": "string",
                  "name": "dead",
                  "type": "string"
                }
              ],
              "internalType": "struct GifStatus",
              "name": "gifUris",
              "type": "tuple"
            }
          ],
          "internalType": "struct Champion",
          "name": "",
          "type": "tuple"
        }
      ],
      "stateMutability": "view",
      "type": "function"
    },
    {
      "inputs": [],
      "name": "getSelectedChampion",
      "outputs": [
        {
          "internalType": "uint256",
          "name": "",
          "type": "uint256"
        }
      ],
      "stateMutability": "view",
      "type": "function"
    },
    {
      "inputs": [],
      "name": "getUserRoster",
      "outputs": [
        {
          "internalType": "uint256[]",
          "name": "",
          "type": "uint256[]"
        }
      ],
      "stateMutability": "view",
      "type": "function"
    },
    {
      "inputs": [],
      "name": "heal",
      "outputs": [],
      "stateMutability": "nonpayable",
      "type": "function"
    },
    {
      "inputs": [
        {
          "internalType": "address",
          "name": "owner",
          "type": "address"
        },
        {
          "internalType": "address",
          "name": "operator",
          "type": "address"
        }
      ],
      "name": "isApprovedForAll",
      "outputs": [
        {
          "internalType": "bool",
          "name": "",
          "type": "bool"
        }
      ],
      "stateMutability": "view",
      "type": "function"
    },
    {
      "inputs": [],
      "name": "name",
      "outputs": [
        {
          "internalType": "string",
          "name": "",
          "type": "string"
        }
      ],
      "stateMutability": "view",
      "type": "function"
    },
    {
      "inputs": [],
      "name": "owner",
      "outputs": [
        {
          "internalType": "address",
          "name": "",
          "type": "address"
        }
      ],
      "stateMutability": "view",
      "type": "function"
    },
    {
      "inputs": [
        {
          "internalType": "uint256",
          "name": "tokenId",
          "type": "uint256"
        }
      ],
      "name": "ownerOf",
      "outputs": [
        {
          "internalType": "address",
          "name": "",
          "type": "address"
        }
      ],
      "stateMutability": "view",
      "type": "function"
    },
    {
      "inputs": [],
      "name": "renounceOwnership",
      "outputs": [],
      "stateMutability": "nonpayable",
      "type": "function"
    },
    {
      "inputs": [
        {
          "internalType": "address",
          "name": "from",
          "type": "address"
        },
        {
          "internalType": "address",
          "name": "to",
          "type": "address"
        },
        {
          "internalType": "uint256",
          "name": "tokenId",
          "type": "uint256"
        }
      ],
      "name": "safeTransferFrom",
      "outputs": [],
      "stateMutability": "nonpayable",
      "type": "function"
    },
    {
      "inputs": [
        {
          "internalType": "address",
          "name": "from",
          "type": "address"
        },
        {
          "internalType": "address",
          "name": "to",
          "type": "address"
        },
        {
          "internalType": "uint256",
          "name": "tokenId",
          "type": "uint256"
        },
        {
          "internalType": "bytes",
          "name": "_data",
          "type": "bytes"
        }
      ],
      "name": "safeTransferFrom",
      "outputs": [],
      "stateMutability": "nonpayable",
      "type": "function"
    },
    {
      "inputs": [
        {
          "internalType": "address",
          "name": "operator",
          "type": "address"
        },
        {
          "internalType": "bool",
          "name": "approved",
          "type": "bool"
        }
      ],
      "name": "setApprovalForAll",
      "outputs": [],
      "stateMutability": "nonpayable",
      "type": "function"
    },
    {
      "inputs": [
        {
          "internalType": "address",
          "name": "bossFactoryAddress",
          "type": "address"
        }
      ],
      "name": "setBossFactory",
      "outputs": [],
      "stateMutability": "nonpayable",
      "type": "function"
    },
    {
      "inputs": [
        {
          "internalType": "address",
          "name": "championFactoryAddress",
          "type": "address"
        }
      ],
      "name": "setChampionFactory",
      "outputs": [],
      "stateMutability": "nonpayable",
      "type": "function"
    },
    {
      "inputs": [
        {
          "internalType": "uint256",
          "name": "_rosterIndex",
          "type": "uint256"
        }
      ],
      "name": "setSelectChampion",
      "outputs": [],
      "stateMutability": "nonpayable",
      "type": "function"
    },
    {
      "inputs": [
        {
          "internalType": "bytes4",
          "name": "interfaceId",
          "type": "bytes4"
        }
      ],
      "name": "supportsInterface",
      "outputs": [
        {
          "internalType": "bool",
          "name": "",
          "type": "bool"
        }
      ],
      "stateMutability": "view",
      "type": "function"
    },
    {
      "inputs": [],
      "name": "symbol",
      "outputs": [
        {
          "internalType": "string",
          "name": "",
          "type": "string"
        }
      ],
      "stateMutability": "view",
      "type": "function"
    },
    {
      "inputs": [
        {
          "internalType": "uint256",
          "name": "_tokenId",
          "type": "uint256"
        }
      ],
      "name": "tokenURI",
      "outputs": [
        {
          "internalType": "string",
          "name": "",
          "type": "string"
        }
      ],
      "stateMutability": "view",
      "type": "function"
    },
    {
      "inputs": [
        {
          "internalType": "address",
          "name": "from",
          "type": "address"
        },
        {
          "internalType": "address",
          "name": "to",
          "type": "address"
        },
        {
          "internalType": "uint256",
          "name": "tokenId",
          "type": "uint256"
        }
      ],
      "name": "transferFrom",
      "outputs": [],
      "stateMutability": "nonpayable",
      "type": "function"
    },
    {
      "inputs": [
        {
          "internalType": "address",
          "name": "newOwner",
          "type": "address"
        }
      ],
      "name": "transferOwnership",
      "outputs": [],
      "stateMutability": "nonpayable",
      "type": "function"
    },
    {
      "inputs": [],
      "name": "userHasRoster",
      "outputs": [
        {
          "internalType": "bool",
          "name": "",
          "type": "bool"
        }
      ],
      "stateMutability": "view",
      "type": "function"
    }
  ],
  "bytecode": "0x60806040523480156200001157600080fd5b50604080518082018252601181527026a6a79037b710313637b1b5b1b430b4b760791b60208083019182528351808501909452600384526226a6a160e91b90840152815191929162000066916000916200011f565b5080516200007c9060019060208401906200011f565b5050506200009962000093620000c060201b60201c565b620000c4565b620000b060086200011660201b62001d131760201c565b6010805460ff1916905562000202565b3390565b600680546001600160a01b038381166001600160a01b0319831681179093556040519116919082907f8be0079c531659141344cd1fd0a4f28419497f9722a3daafe3b4186f6b6457e090600090a35050565b80546001019055565b8280546200012d90620001c5565b90600052602060002090601f0160209004810192826200015157600085556200019c565b82601f106200016c57805160ff19168380011785556200019c565b828001600101855582156200019c579182015b828111156200019c5782518255916020019190600101906200017f565b50620001aa929150620001ae565b5090565b5b80821115620001aa5760008155600101620001af565b600281046001821680620001da57607f821691505b60208210811415620001fc57634e487b7160e01b600052602260045260246000fd5b50919050565b613c4880620002126000396000f3fe608060405234801561001057600080fd5b50600436106102265760003560e01c80638ac4eeb31161012a578063b88d4fde116100bd578063d6ff4a2e1161008c578063e985e9c511610071578063e985e9c514610467578063f2fde38b1461047a578063f866d86e1461048d57610226565b8063d6ff4a2e1461043a578063e0d8d1e91461045f57610226565b8063b88d4fde146103ee578063ba56957a14610401578063c87b56dd14610414578063cb22f5041461042757610226565b8063a05b6f3c116100f9578063a05b6f3c146103b8578063a22cb465146103c0578063a4a2943f146103d3578063b4010cd7146103e657610226565b80638ac4eeb3146103895780638da5cb5b146103a057806395d89b41146103a85780639e5faafc146103b057610226565b806342842e0e116101bd578063671bab2e1161018c57806370a082311161017157806370a0823114610366578063715018a6146103795780637a70d6ce1461038157610226565b8063671bab2e1461033c578063709ccf701461035157610226565b806342842e0e146102ec5780635b4ecf25146102ff5780636352211e146103145780636484db811461032757610226565b8063095ea7b3116101f9578063095ea7b31461029357806323b872dd146102a65780632cce8985146102b9578063301d2c66146102cc57610226565b806301ffc9a71461022b5780630434fe0b1461025457806306fdde031461025e578063081812fc14610273575b600080fd5b61023e610239366004612c8a565b6104a0565b60405161024b91906131c3565b60405180910390f35b61025c61051a565b005b610266610645565b60405161024b91906131dc565b610286610281366004612cc2565b6106d7565b60405161024b91906130f5565b61025c6102a1366004612a56565b61071a565b61025c6102b4366004612943565b6107b2565b61025c6102c7366004612cc2565b6107ea565b6102df6102da366004612cc2565b61088c565b60405161024b9190613926565b61025c6102fa366004612943565b610c5a565b610307610c75565b60405161024b91906138cf565b610286610322366004612cc2565b610d35565b61032f610d6a565b60405161024b9190613987565b610344610d7d565b60405161024b91906131ce565b610359610d86565b60405161024b919061317f565b61032f6103743660046128f0565b610de0565b61025c610e24565b610359610e6f565b610391610ece565b60405161024b93929190613990565b610286610ee0565b610266610eef565b61025c610efe565b61025c61117b565b61025c6103ce366004612a1c565b61138c565b61025c6103e13660046128f0565b6113a2565b61023e611403565b61025c6103fc36600461297e565b611418565b61032f61040f3660046128f0565b611457565b610266610422366004612cc2565b611469565b61025c6104353660046128f0565b61151d565b61044d610448366004612cc2565b61157e565b60405161024b96959493929190613214565b61028661191e565b61023e610475366004612911565b61192d565b61025c6104883660046128f0565b61195d565b61025c61049b366004612cc2565b6119ce565b60006001600160e01b031982167f80ac58cd00000000000000000000000000000000000000000000000000000000148061050357506001600160e01b031982167f5b5e139f00000000000000000000000000000000000000000000000000000000145b80610512575061051282611d1c565b90505b919050565b336000908152600a6020526040902054806105505760405162461bcd60e51b81526004016105479061360f565b60405180910390fd5b6000818152600b602052604090206001015461057e5760405162461bcd60e51b81526004016105479061374a565b600160105460ff1660028111156105a557634e487b7160e01b600052602160045260246000fd5b146105c25760405162461bcd60e51b8152600401610547906133ac565b336000908152600a6020908152604080832054808452600b9092528220600481015460018201805493949293919290916105fd908490613a49565b909155505060018101546040517fbe48ddc4757287d79e6453c381ab1b1a1c1d18a4fdcf61bde378de226024f22c91610638918591906139b2565b60405180910390a1505050565b60606000805461065490613ad7565b80601f016020809104026020016040519081016040528092919081815260200182805461068090613ad7565b80156106cd5780601f106106a2576101008083540402835291602001916106cd565b820191906000526020600020905b8154815290600101906020018083116106b057829003601f168201915b5050505050905090565b60006106e282611d4e565b6106fe5760405162461bcd60e51b81526004016105479061366c565b506000908152600460205260409020546001600160a01b031690565b600061072582610d35565b9050806001600160a01b0316836001600160a01b031614156107595760405162461bcd60e51b8152600401610547906137de565b806001600160a01b031661076b611d6b565b6001600160a01b03161480610787575061078781610475611d6b565b6107a35760405162461bcd60e51b8152600401610547906134c3565b6107ad8383611d6f565b505050565b6107c36107bd611d6b565b82611ddd565b6107df5760405162461bcd60e51b81526004016105479061383b565b6107ad838383611e62565b60006107f4610e6f565b90508051600014156108185760405162461bcd60e51b815260040161054790613781565b600081838151811061083a57634e487b7160e01b600052603260045260246000fd5b602090810291909101810151336000818152600a90935260409283902082905591519092507f4ab331c7343bc62c19fcee84870baf1416412ec6d042360a819f31c0245d3bd491610638918490613145565b610894612680565b6000828152600b602052604090819020815160c081019092528054829082906108bc90613ad7565b80601f01602080910402602001604051908101604052809291908181526020018280546108e890613ad7565b80156109355780601f1061090a57610100808354040283529160200191610935565b820191906000526020600020905b81548152906001019060200180831161091857829003601f168201915b5050505050815260200160018201548152602001600282015481526020016003820154815260200160048201548152602001600582016040518060a001604052908160008201805461098690613ad7565b80601f01602080910402602001604051908101604052809291908181526020018280546109b290613ad7565b80156109ff5780601f106109d4576101008083540402835291602001916109ff565b820191906000526020600020905b8154815290600101906020018083116109e257829003601f168201915b50505050508152602001600182018054610a1890613ad7565b80601f0160208091040260200160405190810160405280929190818152602001828054610a4490613ad7565b8015610a915780601f10610a6657610100808354040283529160200191610a91565b820191906000526020600020905b815481529060010190602001808311610a7457829003601f168201915b50505050508152602001600282018054610aaa90613ad7565b80601f0160208091040260200160405190810160405280929190818152602001828054610ad690613ad7565b8015610b235780601f10610af857610100808354040283529160200191610b23565b820191906000526020600020905b815481529060010190602001808311610b0657829003601f168201915b50505050508152602001600382018054610b3c90613ad7565b80601f0160208091040260200160405190810160405280929190818152602001828054610b6890613ad7565b8015610bb55780601f10610b8a57610100808354040283529160200191610bb5565b820191906000526020600020905b815481529060010190602001808311610b9857829003601f168201915b50505050508152602001600482018054610bce90613ad7565b80601f0160208091040260200160405190810160405280929190818152602001828054610bfa90613ad7565b8015610c475780601f10610c1c57610100808354040283529160200191610c47565b820191906000526020600020905b815481529060010190602001808311610c2a57829003601f168201915b5050509190925250505090525092915050565b6107ad83838360405180602001604052806000815250611418565b610c7d6126bb565b600c60009054906101000a90046001600160a01b03166001600160a01b0316636f5b9f4c6040518163ffffffff1660e01b815260040160006040518083038186803b158015610ccb57600080fd5b505afa158015610cdf573d6000803e3d6000fd5b505050506040513d6000823e601f3d908101601f19168201604052610d079190810190612a7f565b600f5481518110610d2857634e487b7160e01b600052603260045260246000fd5b6020026020010151905090565b6000818152600260205260408120546001600160a01b0316806105125760405162461bcd60e51b81526004016105479061357d565b336000908152600a602052604090205490565b60105460ff1690565b6060600d6001018054806020026020016040519081016040528092919081815260200182805480156106cd57602002820191906000526020600020905b815481526020019060010190808311610dc3575050505050905090565b60006001600160a01b038216610e085760405162461bcd60e51b815260040161054790613520565b506001600160a01b031660009081526003602052604090205490565b610e2c611d6b565b6001600160a01b0316610e3d610ee0565b6001600160a01b031614610e635760405162461bcd60e51b8152600401610547906136b8565b610e6d6000611f95565b565b336000908152600960209081526040918290208054835181840281018401909452808452606093928301828280156106cd5760200282019190600052602060002090815481526020019060010190808311610dc3575050505050905090565b600f5460105460115460ff9091169083565b6006546001600160a01b031690565b60606001805461065490613ad7565b336000908152600a602052604090205480610f2b5760405162461bcd60e51b81526004016105479061360f565b6000818152600b6020526040902060010154610f595760405162461bcd60e51b81526004016105479061374a565b600160105460ff166002811115610f8057634e487b7160e01b600052602160045260246000fd5b14610f9d5760405162461bcd60e51b8152600401610547906133ac565b336000908152600a6020908152604080832054808452600b909252808320600c548251631bd6e7d360e21b815292519394919391926001600160a01b0390911691636f5b9f4c916004808201928692909190829003018186803b15801561100357600080fd5b505afa158015611017573d6000803e3d6000fd5b505050506040513d6000823e601f3d908101601f1916820160405261103f9190810190612a7f565b9050600081600d600201548151811061106857634e487b7160e01b600052603260045260246000fd5b602002602001015190508260030154816020015110156110c4576000602082018190526010805460ff191660021790556040517f269d9f015d2199a6ad46cb528cb72c6abb82051b8f9600c6c248f70bdb2280079190a1611174565b8260030154816020018181516110da9190613a94565b90525060208101516040517f9210d575f4de024306f860b201c73427d7a6b3e78d196ceb78b759e604748b0e9161111091613987565b60405180910390a180606001518360010160008282546111309190613a94565b909155505060018301546040517fbd6b16c457760fecc6c1d7b918e9d93314a50c6cb969949a655c76a1475e80b49161116b918791906139b2565b60405180910390a15b5050505050565b336000908152600a6020908152604080832054808452600b909252909120600101546111b95760405162461bcd60e51b8152600401610547906136ed565b336000908152600d6020526040902054156111e65760405162461bcd60e51b815260040161054790613898565b600060105460ff16600281111561120d57634e487b7160e01b600052602160045260246000fd5b141561130f57600c5460408051631bd6e7d360e21b815290516000926001600160a01b031691636f5b9f4c9160048083019286929190829003018186803b15801561125757600080fd5b505afa15801561126b573d6000803e3d6000fd5b505050506040513d6000823e601f3d908101601f191682016040526112939190810190612a7f565b600f5490915060006112a6826001613a49565b9050600183516112b69190613a94565b8111156112c1575060005b600f8190556010805460ff191660011790556040517fbe09ad21ad3fc23ae505a4badead1958018bfcb0f57d0785de620f4bb265025f90611303908490613987565b60405180910390a15050505b600e8054600181019091557fbb7b4a454dc3493923482f07822329ed19e8244eff582cc204f8554c3620c3fd01819055336000908152600d602052604090819020829055517f2e432824193b39d9199593c5ad19c9019ba8b695dd248e8edbe4292c303efaaa90611381908390613987565b60405180910390a150565b61139e611397611d6b565b8383611fe7565b5050565b6113aa611d6b565b6001600160a01b03166113bb610ee0565b6001600160a01b0316146113e15760405162461bcd60e51b8152600401610547906136b8565b600c80546001600160a01b0319166001600160a01b0392909216919091179055565b33600090815260096020526040902054151590565b611429611423611d6b565b83611ddd565b6114455760405162461bcd60e51b81526004016105479061383b565b6114518484848461208a565b50505050565b600a6020526000908152604090205481565b6000818152600b60205260408120600181015460609290611489906120bd565b9050600061149a83600201546120bd565b905060006114ab84600301546120bd565b905060006114ec856114bc896120bd565b6040516114d892919060058a0190899089908990602001612f02565b60405160208183030381529060405261220c565b905060008160405160200161150191906130b0565b60408051808303601f1901815291905298975050505050505050565b611525611d6b565b6001600160a01b0316611536610ee0565b6001600160a01b03161461155c5760405162461bcd60e51b8152600401610547906136b8565b600780546001600160a01b0319166001600160a01b0392909216919091179055565b600b6020526000908152604090208054819061159990613ad7565b80601f01602080910402602001604051908101604052809291908181526020018280546115c590613ad7565b80156116125780601f106115e757610100808354040283529160200191611612565b820191906000526020600020905b8154815290600101906020018083116115f557829003601f168201915b505050505090806001015490806002015490806003015490806004015490806005016040518060a001604052908160008201805461164f90613ad7565b80601f016020809104026020016040519081016040528092919081815260200182805461167b90613ad7565b80156116c85780601f1061169d576101008083540402835291602001916116c8565b820191906000526020600020905b8154815290600101906020018083116116ab57829003601f168201915b505050505081526020016001820180546116e190613ad7565b80601f016020809104026020016040519081016040528092919081815260200182805461170d90613ad7565b801561175a5780601f1061172f5761010080835404028352916020019161175a565b820191906000526020600020905b81548152906001019060200180831161173d57829003601f168201915b5050505050815260200160028201805461177390613ad7565b80601f016020809104026020016040519081016040528092919081815260200182805461179f90613ad7565b80156117ec5780601f106117c1576101008083540402835291602001916117ec565b820191906000526020600020905b8154815290600101906020018083116117cf57829003601f168201915b5050505050815260200160038201805461180590613ad7565b80601f016020809104026020016040519081016040528092919081815260200182805461183190613ad7565b801561187e5780601f106118535761010080835404028352916020019161187e565b820191906000526020600020905b81548152906001019060200180831161186157829003601f168201915b5050505050815260200160048201805461189790613ad7565b80601f01602080910402602001604051908101604052809291908181526020018280546118c390613ad7565b80156119105780601f106118e557610100808354040283529160200191611910565b820191906000526020600020905b8154815290600101906020018083116118f357829003601f168201915b505050505081525050905086565b600c546001600160a01b031681565b6001600160a01b0380831660009081526005602090815260408083209385168352929052205460ff165b92915050565b611965611d6b565b6001600160a01b0316611976610ee0565b6001600160a01b03161461199c5760405162461bcd60e51b8152600401610547906136b8565b6001600160a01b0381166119c25760405162461bcd60e51b8152600401610547906132bb565b6119cb81611f95565b50565b60006119da600861236f565b90506119ff604051806060016040528060398152602001613bda603991398383612373565b611a0933826123e8565b336000908152600960209081526040808320805460018101825590845291832090910183905560075481517f84e859b300000000000000000000000000000000000000000000000000000000815291516001600160a01b03909116916384e859b39160048083019286929190829003018186803b158015611a8957600080fd5b505afa158015611a9d573d6000803e3d6000fd5b505050506040513d6000823e601f3d908101601f19168201604052611ac59190810190612b87565b90506040518060c00160405280828581518110611af257634e487b7160e01b600052603260045260246000fd5b6020026020010151600001518152602001828581518110611b2357634e487b7160e01b600052603260045260246000fd5b6020026020010151602001518152602001828581518110611b5457634e487b7160e01b600052603260045260246000fd5b6020026020010151604001518152602001828581518110611b8557634e487b7160e01b600052603260045260246000fd5b6020026020010151606001518152602001828581518110611bb657634e487b7160e01b600052603260045260246000fd5b6020026020010151608001518152602001828581518110611be757634e487b7160e01b600052603260045260246000fd5b60209081029190910181015160a001519091526000848152600b825260409020825180519192611c1c928492909101906126ea565b50602082810151600183015560408301516002830155606083015160038301556080830151600483015560a08301518051805191926005850192611c6392849201906126ea565b506020828101518051611c7c92600185019201906126ea565b5060408201518051611c989160028401916020909101906126ea565b5060608201518051611cb49160038401916020909101906126ea565b5060808201518051611cd09160048401916020909101906126ea565b505050905050611ce06008611d13565b7fd9d05697e27265a7dde2215564d09b5fef132a05c9693b089ef90388285596ce3383856040516106389392919061315e565b80546001019055565b6001600160e01b031981167f01ffc9a70000000000000000000000000000000000000000000000000000000014919050565b6000908152600260205260409020546001600160a01b0316151590565b3390565b600081815260046020526040902080546001600160a01b0319166001600160a01b0384169081179091558190611da482610d35565b6001600160a01b03167f8c5be1e5ebec7d5bd14f71427d1e84f3dd0314c0f7b2291e5b200ac8c7c3b92560405160405180910390a45050565b6000611de882611d4e565b611e045760405162461bcd60e51b815260040161054790613477565b6000611e0f83610d35565b9050806001600160a01b0316846001600160a01b03161480611e4a5750836001600160a01b0316611e3f846106d7565b6001600160a01b0316145b80611e5a5750611e5a818561192d565b949350505050565b826001600160a01b0316611e7582610d35565b6001600160a01b031614611e9b5760405162461bcd60e51b815260040161054790613318565b6001600160a01b038216611ec15760405162461bcd60e51b8152600401610547906133e3565b611ecc8383836107ad565b611ed7600082611d6f565b6001600160a01b0383166000908152600360205260408120805460019290611f00908490613a94565b90915550506001600160a01b0382166000908152600360205260408120805460019290611f2e908490613a49565b909155505060008181526002602052604080822080546001600160a01b0319166001600160a01b0386811691821790925591518493918716917fddf252ad1be2c89b69c2b068fc378daa952ba7f163c4a11628f55a4df523b3ef91a46107ad8383836107ad565b600680546001600160a01b038381166001600160a01b0319831681179093556040519116919082907f8be0079c531659141344cd1fd0a4f28419497f9722a3daafe3b4186f6b6457e090600090a35050565b816001600160a01b0316836001600160a01b031614156120195760405162461bcd60e51b815260040161054790613440565b6001600160a01b0383811660008181526005602090815260408083209487168084529490915290819020805460ff1916851515179055517f17307eab39ab6107e8899845ad3d59bd9653f200f220920489ca2b5937696c319061207d9085906131c3565b60405180910390a3505050565b612095848484611e62565b6120a184848484612402565b6114515760405162461bcd60e51b81526004016105479061325e565b6060816120fe575060408051808201909152600181527f30000000000000000000000000000000000000000000000000000000000000006020820152610515565b8160005b8115612128578061211281613b12565b91506121219050600a83613a61565b9150612102565b60008167ffffffffffffffff81111561215157634e487b7160e01b600052604160045260246000fd5b6040519080825280601f01601f19166020018201604052801561217b576020820181803683370190505b5090505b8415611e5a57612190600183613a94565b915061219d600a86613b2d565b6121a8906030613a49565b60f81b8183815181106121cb57634e487b7160e01b600052603260045260246000fd5b60200101907effffffffffffffffffffffffffffffffffffffffffffffffffffffffffffff1916908160001a905350612205600a86613a61565b945061217f565b606081516000141561222d5750604080516020810190915260008152610515565b6000604051806060016040528060408152602001613b9a604091399050600060038451600261225c9190613a49565b6122669190613a61565b612271906004613a75565b67ffffffffffffffff81111561229757634e487b7160e01b600052604160045260246000fd5b6040519080825280601f01601f1916602001820160405280156122c1576020820181803683370190505b509050600182016020820185865187015b8082101561232d576003820191508151603f8160121c168501518453600184019350603f81600c1c168501518453600184019350603f8160061c168501518453600184019350603f81168501518453506001830192506122d2565b5050600386510660018114612349576002811461235c57612364565b603d6001830353603d6002830353612364565b603d60018303535b509195945050505050565b5490565b6107ad83838360405160240161238b939291906131ef565b60408051601f198184030181529190526020810180517bffffffffffffffffffffffffffffffffffffffffffffffffffffffff167f969cdd0300000000000000000000000000000000000000000000000000000000179052612536565b61139e828260405180602001604052806000815250612557565b6000612416846001600160a01b031661258a565b1561252b57836001600160a01b031663150b7a02612432611d6b565b8786866040518563ffffffff1660e01b81526004016124549493929190613109565b602060405180830381600087803b15801561246e57600080fd5b505af192505050801561249e575060408051601f3d908101601f1916820190925261249b91810190612ca6565b60015b6124f8573d8080156124cc576040519150601f19603f3d011682016040523d82523d6000602084013e6124d1565b606091505b5080516124f05760405162461bcd60e51b81526004016105479061325e565b805181602001fd5b6001600160e01b0319167f150b7a0200000000000000000000000000000000000000000000000000000000149050611e5a565b506001949350505050565b80516a636f6e736f6c652e6c6f67602083016000808483855afa5050505050565b6125618383612599565b61256e6000848484612402565b6107ad5760405162461bcd60e51b81526004016105479061325e565b6001600160a01b03163b151590565b6001600160a01b0382166125bf5760405162461bcd60e51b8152600401610547906135da565b6125c881611d4e565b156125e55760405162461bcd60e51b815260040161054790613375565b6125f1600083836107ad565b6001600160a01b038216600090815260036020526040812080546001929061261a908490613a49565b909155505060008181526002602052604080822080546001600160a01b0319166001600160a01b03861690811790915590518392907fddf252ad1be2c89b69c2b068fc378daa952ba7f163c4a11628f55a4df523b3ef908290a461139e600083836107ad565b6040518060c0016040528060608152602001600081526020016000815260200160008152602001600081526020016126b661276e565b905290565b6040518060a00160405280606081526020016000815260200160008152602001600081526020016126b661276e565b8280546126f690613ad7565b90600052602060002090601f016020900481019282612718576000855561275e565b82601f1061273157805160ff191683800117855561275e565b8280016001018555821561275e579182015b8281111561275e578251825591602001919060010190612743565b5061276a92915061279d565b5090565b6040518060a0016040528060608152602001606081526020016060815260200160608152602001606081525090565b5b8082111561276a576000815560010161279e565b80356001600160a01b038116811461051557600080fd5b600082601f8301126127d9578081fd5b81516127ec6127e782613a15565b6139c0565b818152846020838601011115612800578283fd5b611e5a826020830160208701613aab565b600060a08284031215612822578081fd5b61282c60a06139c0565b9050815167ffffffffffffffff8082111561284657600080fd5b612852858386016127c9565b8352602084015191508082111561286857600080fd5b612874858386016127c9565b6020840152604084015191508082111561288d57600080fd5b612899858386016127c9565b604084015260608401519150808211156128b257600080fd5b6128be858386016127c9565b606084015260808401519150808211156128d757600080fd5b506128e4848285016127c9565b60808301525092915050565b600060208284031215612901578081fd5b61290a826127b2565b9392505050565b60008060408385031215612923578081fd5b61292c836127b2565b915061293a602084016127b2565b90509250929050565b600080600060608486031215612957578081fd5b612960846127b2565b925061296e602085016127b2565b9150604084013590509250925092565b60008060008060808587031215612993578081fd5b61299c856127b2565b93506129aa602086016127b2565b925060408501359150606085013567ffffffffffffffff8111156129cc578182fd5b8501601f810187136129dc578182fd5b80356129ea6127e782613a15565b8181528860208385010111156129fe578384fd5b81602084016020830137908101602001929092525092959194509250565b60008060408385031215612a2e578182fd5b612a37836127b2565b915060208301358015158114612a4b578182fd5b809150509250929050565b60008060408385031215612a68578182fd5b612a71836127b2565b946020939093013593505050565b60006020808385031215612a91578182fd5b825167ffffffffffffffff80821115612aa8578384fd5b818501915085601f830112612abb578384fd5b8151612ac96127e7826139f1565b81815284810190848601875b84811015612b78578151870160a080601f19838f03011215612af5578a8bfd5b612afe816139c0565b8a83015189811115612b0e578c8dfd5b612b1c8f8d838701016127c9565b8252506040808401518c830152606080850151828401526080915081850151818401525082840151925089831115612b52578c8dfd5b612b608f8d85870101612811565b90820152865250509287019290870190600101612ad5565b50909998505050505050505050565b60006020808385031215612b99578182fd5b825167ffffffffffffffff80821115612bb0578384fd5b818501915085601f830112612bc3578384fd5b8151612bd16127e7826139f1565b81815284810190848601875b84811015612b78578151870160c080601f19838f03011215612bfd578a8bfd5b612c06816139c0565b8a83015189811115612c16578c8dfd5b612c248f8d838701016127c9565b82525060408301518b82015260608084015160408301526080808501518284015260a0915081850151818401525082840151925089831115612c64578c8dfd5b612c728f8d85870101612811565b90820152865250509287019290870190600101612bdd565b600060208284031215612c9b578081fd5b813561290a81613b83565b600060208284031215612cb7578081fd5b815161290a81613b83565b600060208284031215612cd3578081fd5b5035919050565b60008151808452612cf2816020860160208601613aab565b601f01601f19169290920160200192915050565b60038110612d2457634e487b7160e01b600052602160045260246000fd5b9052565b60008151612d3a818560208601613aab565b9290920192915050565b805460009060028104600180831680612d5e57607f831692505b6020808410821415612d7e57634e487b7160e01b86526022600452602486fd5b818015612d925760018114612da357612dd0565b60ff19861689528489019650612dd0565b612dac88613a3d565b60005b86811015612dc85781548b820152908501908301612daf565b505084890196505b50505050505092915050565b7f2c20226d61785f76616c7565223a0000000000000000000000000000000000008152600e0190565b7f7d205d7d00000000000000000000000000000000000000000000000000000000815260040190565b7f7d2c207b202274726169745f74797065223a202241747461636b2044616d616781527f65222c202276616c7565223a20000000000000000000000000000000000000006020820152602d0190565b6000815160a08452612e9260a0850182612cda565b905060208301518482036020860152612eab8282612cda565b91505060408301518482036040860152612ec58282612cda565b91505060608301518482036060860152612edf8282612cda565b91505060808301518482036080860152612ef98282612cda565b95945050505050565b60007f7b226e616d65223a2022000000000000000000000000000000000000000000008252612f34600a830189612d44565b7f202d2d204e465420233a2000000000000000000000000000000000000000000081528751612f6a81600b840160208c01613aab565b7f222c20226465736372697074696f6e223a20225468697320697320616e204e46600b92909101918201527f542074686174206c6574732070656f706c6520706c617920696e207468652067602b8201527f616d65204d657461766572736520536c6179657221222c2022696d616765223a604b8201527f2022000000000000000000000000000000000000000000000000000000000000606b820152613014606d820188612d44565b90507f222c202261747472696275746573223a205b207b202274726169745f7479706581527f223a20224865616c746820506f696e7473222c202276616c7565223a200000006020820152855161307281603d840160208a01613aab565b6130a261309d61309761309261308c603d86880101612ddc565b8a612d28565b612e2e565b87612d28565b612e05565b9a9950505050505050505050565b60007f646174613a6170706c69636174696f6e2f6a736f6e3b6261736536342c000000825282516130e881601d850160208701613aab565b91909101601d0192915050565b6001600160a01b0391909116815260200190565b60006001600160a01b0380871683528086166020840152508360408301526080606083015261313b6080830184612cda565b9695505050505050565b6001600160a01b03929092168252602082015260400190565b6001600160a01b039390931683526020830191909152604082015260600190565b6020808252825182820181905260009190848201906040850190845b818110156131b75783518352928401929184019160010161319b565b50909695505050505050565b901515815260200190565b602081016119578284612d06565b60006020825261290a6020830184612cda565b6000606082526132026060830186612cda565b60208301949094525060400152919050565b600060c0825261322760c0830189612cda565b87602084015286604084015285606084015284608084015282810360a08401526132518185612e7d565b9998505050505050505050565b60208082526032908201527f4552433732313a207472616e7366657220746f206e6f6e20455243373231526560408201527f63656976657220696d706c656d656e7465720000000000000000000000000000606082015260800190565b60208082526026908201527f4f776e61626c653a206e6577206f776e657220697320746865207a65726f206160408201527f6464726573730000000000000000000000000000000000000000000000000000606082015260800190565b60208082526025908201527f4552433732313a207472616e736665722066726f6d20696e636f72726563742060408201527f6f776e6572000000000000000000000000000000000000000000000000000000606082015260800190565b6020808252601c908201527f4552433732313a20746f6b656e20616c7265616479206d696e74656400000000604082015260600190565b60208082526019908201527f4172656e6120686173206e6f7420737461727465642079657400000000000000604082015260600190565b60208082526024908201527f4552433732313a207472616e7366657220746f20746865207a65726f2061646460408201527f7265737300000000000000000000000000000000000000000000000000000000606082015260800190565b60208082526019908201527f4552433732313a20617070726f766520746f2063616c6c657200000000000000604082015260600190565b6020808252602c908201527f4552433732313a206f70657261746f7220717565727920666f72206e6f6e657860408201526b34b9ba32b73a103a37b5b2b760a11b606082015260800190565b60208082526038908201527f4552433732313a20617070726f76652063616c6c6572206973206e6f74206f7760408201527f6e6572206e6f7220617070726f76656420666f7220616c6c0000000000000000606082015260800190565b6020808252602a908201527f4552433732313a2062616c616e636520717565727920666f7220746865207a6560408201527f726f206164647265737300000000000000000000000000000000000000000000606082015260800190565b60208082526029908201527f4552433732313a206f776e657220717565727920666f72206e6f6e657869737460408201527f656e7420746f6b656e0000000000000000000000000000000000000000000000606082015260800190565b6020808252818101527f4552433732313a206d696e7420746f20746865207a65726f2061646472657373604082015260600190565b60208082526024908201527f5573657220686173206e6f742061206368616d70696f6e20696e20746865206160408201527f72656e6100000000000000000000000000000000000000000000000000000000606082015260800190565b6020808252602c908201527f4552433732313a20617070726f76656420717565727920666f72206e6f6e657860408201526b34b9ba32b73a103a37b5b2b760a11b606082015260800190565b6020808252818101527f4f776e61626c653a2063616c6c6572206973206e6f7420746865206f776e6572604082015260600190565b60208082526025908201527f4368616d70696f6e20697320646561642c2063616e6e6f742061646420746f2060408201527f6172656e61000000000000000000000000000000000000000000000000000000606082015260800190565b6020808252601f908201527f4368616d70696f6e20697320646561642c2063616e6e6f742061747461636b00604082015260600190565b6020808252602d908201527f55736572206d7573742068617665206120726f7374657220746f2073656c656360408201527f742061206368616d70696f6e2e00000000000000000000000000000000000000606082015260800190565b60208082526021908201527f4552433732313a20617070726f76616c20746f2063757272656e74206f776e6560408201527f7200000000000000000000000000000000000000000000000000000000000000606082015260800190565b60208082526031908201527f4552433732313a207472616e736665722063616c6c6572206973206e6f74206f60408201527f776e6572206e6f7220617070726f766564000000000000000000000000000000606082015260800190565b60208082526019908201527f4368616d70696f6e20616c726561647920696e206172656e6100000000000000604082015260600190565b600060208252825160a060208401526138eb60c0840182612cda565b90506020840151604084015260408401516060840152606084015160808401526080840151601f198483030160a0850152612ef98282612e7d565b600060208252825160c0602084015261394260e0840182612cda565b9050602084015160408401526040840151606084015260608401516080840152608084015160a084015260a0840151601f198483030160c0850152612ef98282612e7d565b90815260200190565b838152606081016139a46020830185612d06565b826040830152949350505050565b918252602082015260400190565b604051601f8201601f1916810167ffffffffffffffff811182821017156139e9576139e9613b6d565b604052919050565b600067ffffffffffffffff821115613a0b57613a0b613b6d565b5060209081020190565b600067ffffffffffffffff821115613a2f57613a2f613b6d565b50601f01601f191660200190565b60009081526020902090565b60008219821115613a5c57613a5c613b41565b500190565b600082613a7057613a70613b57565b500490565b6000816000190483118215151615613a8f57613a8f613b41565b500290565b600082821015613aa657613aa6613b41565b500390565b60005b83811015613ac6578181015183820152602001613aae565b838111156114515750506000910152565b600281046001821680613aeb57607f821691505b60208210811415613b0c57634e487b7160e01b600052602260045260246000fd5b50919050565b6000600019821415613b2657613b26613b41565b5060010190565b600082613b3c57613b3c613b57565b500690565b634e487b7160e01b600052601160045260246000fd5b634e487b7160e01b600052601260045260246000fd5b634e487b7160e01b600052604160045260246000fd5b6001600160e01b0319811681146119cb57600080fdfe4142434445464748494a4b4c4d4e4f505152535455565758595a6162636465666768696a6b6c6d6e6f707172737475767778797a303132333435363738392b2f5265676973746572696e67206368616d70696f6e6964202573206f6e2074686520636f6e7472616374207769746820746f6b656e4944202564a2646970667358221220fd22bb72215fdbeabe8f3b977c9f827907fc1b031caf45f790d996417cdda71d64736f6c63430008010033",
  "linkReferences": {},
  "deployedLinkReferences": {}
}