{
  "_format": "hh-sol-artifact-1",
  "contractName": "MMOGame",
  "sourceName": "contracts/MMOGame.sol",
  "abi": [
    {
      "anonymous": false,
      "inputs": [],
      "name": "ArenaFinished",
      "type": "event"
    },
    {
      "anonymous": false,
      "inputs": [
        {
          "indexed": false,
          "internalType": "uint256",
          "name": "tokenId",
          "type": "uint256"
        }
      ],
      "name": "ArenaNewChampion",
      "type": "event"
    },
    {
      "anonymous": false,
      "inputs": [
        {
          "indexed": false,
          "internalType": "uint256",
          "name": "bossIndex",
          "type": "uint256"
        }
      ],
      "name": "ArenaStarted",
      "type": "event"
    },
    {
      "anonymous": false,
      "inputs": [
        {
          "indexed": false,
          "internalType": "uint256",
          "name": "bossHealth",
          "type": "uint256"
        }
      ],
      "name": "AttackComplete",
      "type": "event"
    },
    {
      "anonymous": false,
      "inputs": [
        {
          "indexed": false,
          "internalType": "uint256",
          "name": "tokenId",
          "type": "uint256"
        },
        {
          "indexed": false,
          "internalType": "uint256",
          "name": "championHealth",
          "type": "uint256"
        }
      ],
      "name": "BossAttackComplete",
      "type": "event"
    },
    {
      "anonymous": false,
      "inputs": [
        {
          "indexed": false,
          "internalType": "uint256",
          "name": "tokenId",
          "type": "uint256"
        },
        {
          "indexed": false,
          "internalType": "uint256",
          "name": "championHealth",
          "type": "uint256"
        }
      ],
      "name": "HealComplete",
      "type": "event"
    },
    {
      "anonymous": false,
      "inputs": [
        {
          "indexed": true,
          "internalType": "address",
          "name": "previousOwner",
          "type": "address"
        },
        {
          "indexed": true,
          "internalType": "address",
          "name": "newOwner",
          "type": "address"
        }
      ],
      "name": "OwnershipTransferred",
      "type": "event"
    },
    {
      "inputs": [],
      "name": "ActiveArena",
      "outputs": [
        {
          "internalType": "uint256",
          "name": "bossIndex",
          "type": "uint256"
        },
        {
          "components": [
            {
              "internalType": "string",
              "name": "name",
              "type": "string"
            },
            {
              "internalType": "uint256",
              "name": "health",
              "type": "uint256"
            },
            {
              "internalType": "uint256",
              "name": "maxHealth",
              "type": "uint256"
            },
            {
              "internalType": "uint256",
              "name": "attackPower",
              "type": "uint256"
            },
            {
              "components": [
                {
                  "internalType": "string",
                  "name": "idle",
                  "type": "string"
                },
                {
                  "internalType": "string",
                  "name": "attack",
                  "type": "string"
                },
                {
                  "internalType": "string",
                  "name": "hurt",
                  "type": "string"
                },
                {
                  "internalType": "string",
                  "name": "dying",
                  "type": "string"
                },
                {
                  "internalType": "string",
                  "name": "dead",
                  "type": "string"
                }
              ],
              "internalType": "struct GifStatus",
              "name": "gifUris",
              "type": "tuple"
            }
          ],
          "internalType": "struct Boss",
          "name": "boss",
          "type": "tuple"
        },
        {
          "internalType": "enum ArenaState",
          "name": "state",
          "type": "uint8"
        },
        {
          "internalType": "uint256",
          "name": "lastArenaFinishedOn",
          "type": "uint256"
        }
      ],
      "stateMutability": "view",
      "type": "function"
    },
    {
      "inputs": [],
      "name": "_bossFactory",
      "outputs": [
        {
          "internalType": "contract BossFactory",
          "name": "",
          "type": "address"
        }
      ],
      "stateMutability": "view",
      "type": "function"
    },
    {
      "inputs": [],
      "name": "_roster",
      "outputs": [
        {
          "internalType": "contract Roster",
          "name": "",
          "type": "address"
        }
      ],
      "stateMutability": "view",
      "type": "function"
    },
    {
      "inputs": [],
      "name": "addChampionToArena",
      "outputs": [],
      "stateMutability": "nonpayable",
      "type": "function"
    },
    {
      "inputs": [],
      "name": "attack",
      "outputs": [],
      "stateMutability": "nonpayable",
      "type": "function"
    },
    {
      "inputs": [
        {
          "internalType": "uint256",
          "name": "damage",
          "type": "uint256"
        }
      ],
      "name": "damageBoss",
      "outputs": [],
      "stateMutability": "nonpayable",
      "type": "function"
    },
    {
      "inputs": [],
      "name": "getArena",
      "outputs": [
        {
          "internalType": "uint256[]",
          "name": "",
          "type": "uint256[]"
        },
        {
          "components": [
            {
              "internalType": "string",
              "name": "name",
              "type": "string"
            },
            {
              "internalType": "uint256",
              "name": "health",
              "type": "uint256"
            },
            {
              "internalType": "uint256",
              "name": "maxHealth",
              "type": "uint256"
            },
            {
              "internalType": "uint256",
              "name": "attackPower",
              "type": "uint256"
            },
            {
              "components": [
                {
                  "internalType": "string",
                  "name": "idle",
                  "type": "string"
                },
                {
                  "internalType": "string",
                  "name": "attack",
                  "type": "string"
                },
                {
                  "internalType": "string",
                  "name": "hurt",
                  "type": "string"
                },
                {
                  "internalType": "string",
                  "name": "dying",
                  "type": "string"
                },
                {
                  "internalType": "string",
                  "name": "dead",
                  "type": "string"
                }
              ],
              "internalType": "struct GifStatus",
              "name": "gifUris",
              "type": "tuple"
            }
          ],
          "internalType": "struct Boss",
          "name": "",
          "type": "tuple"
        },
        {
          "internalType": "enum ArenaState",
          "name": "",
          "type": "uint8"
        }
      ],
      "stateMutability": "view",
      "type": "function"
    },
    {
      "inputs": [],
      "name": "heal",
      "outputs": [],
      "stateMutability": "nonpayable",
      "type": "function"
    },
    {
      "inputs": [],
      "name": "owner",
      "outputs": [
        {
          "internalType": "address",
          "name": "",
          "type": "address"
        }
      ],
      "stateMutability": "view",
      "type": "function"
    },
    {
      "inputs": [],
      "name": "renounceOwnership",
      "outputs": [],
      "stateMutability": "nonpayable",
      "type": "function"
    },
    {
      "inputs": [
        {
          "internalType": "address",
          "name": "bossFactoryAddress",
          "type": "address"
        }
      ],
      "name": "setBossFactory",
      "outputs": [],
      "stateMutability": "nonpayable",
      "type": "function"
    },
    {
      "inputs": [
        {
          "internalType": "address",
          "name": "rosterAddress",
          "type": "address"
        }
      ],
      "name": "setRoster",
      "outputs": [],
      "stateMutability": "nonpayable",
      "type": "function"
    },
    {
      "inputs": [
        {
          "internalType": "address",
          "name": "newOwner",
          "type": "address"
        }
      ],
      "name": "transferOwnership",
      "outputs": [],
      "stateMutability": "nonpayable",
      "type": "function"
    }
  ],
  "bytecode": "0x608060405234801561001057600080fd5b5061002161001c610030565b610034565b600f805460ff19169055610084565b3390565b600080546001600160a01b038381166001600160a01b0319831681178455604051919092169283917f8be0079c531659141344cd1fd0a4f28419497f9722a3daafe3b4186f6b6457e09190a35050565b6121bf80620000946000396000f3fe608060405234801561001057600080fd5b50600436106100df5760003560e01c80638da5cb5b1161008c578063a4a2943f11610066578063a4a2943f1461016a578063ad53b6da1461017d578063e0d8d1e914610194578063f2fde38b1461019c576100df565b80638da5cb5b146101525780639e5faafc1461015a578063a05b6f3c14610162576100df565b8063715018a6116100bd578063715018a61461011f5780637f6a5048146101275780638ac4eeb31461013a576100df565b80630434fe0b146100e457806330f3ab02146100ee5780634f1cc8ae14610101575b600080fd5b6100ec6101af565b005b6100ec6100fc366004611c8c565b610506565b610109610523565b6040516101169190611dd2565b60405180910390f35b6100ec610532565b6100ec610135366004611a8f565b61057d565b6101426105eb565b6040516101169493929190612051565b6101096109b1565b6100ec6109c0565b6100ec610e3e565b6100ec610178366004611a8f565b61124e565b6101856112bc565b60405161011693929190611de6565b6101096116dc565b6100ec6101aa366004611a8f565b6116eb565b6002546040516308f2a47560e41b81526000916001600160a01b031690638f2a4750906101e0903390600401611dd2565b60206040518083038186803b1580156101f857600080fd5b505afa15801561020c573d6000803e3d6000fd5b505050506040513d601f19601f820116820180604052508101906102309190611ca4565b90506000811161025b5760405162461bcd60e51b815260040161025290611eeb565b60405180910390fd5b60025460405163180e963360e11b81526001600160a01b039091169063301d2c669061028b908490600401612048565b60006040518083038186803b1580156102a357600080fd5b505afa1580156102b7573d6000803e3d6000fd5b505050506040513d6000823e601f3d908101601f191682016040526102df9190810190611bd6565b602001516102ff5760405162461bcd60e51b815260040161025290611fda565b6001600f5460ff16600281111561032657634e487b7160e01b600052602160045260246000fd5b146103435760405162461bcd60e51b815260040161025290611eb4565b6002546040516308f2a47560e41b81526000916001600160a01b031690638f2a475090610374903390600401611dd2565b60206040518083038186803b15801561038c57600080fd5b505afa1580156103a0573d6000803e3d6000fd5b505050506040513d601f19601f820116820180604052508101906103c49190611ca4565b6002546040517f31d214690000000000000000000000000000000000000000000000000000000081529192506001600160a01b0316906331d214699061040e908490600401612048565b600060405180830381600087803b15801561042857600080fd5b505af115801561043c573d6000803e3d6000fd5b505060025460405163180e963360e11b81527fbe48ddc4757287d79e6453c381ab1b1a1c1d18a4fdcf61bde378de226024f22c93508492506001600160a01b039091169063301d2c6690610494908490600401612048565b60006040518083038186803b1580156104ac57600080fd5b505afa1580156104c0573d6000803e3d6000fd5b505050506040513d6000823e601f3d908101601f191682016040526104e89190810190611bd6565b602001516040516104fa929190612088565b60405180910390a15050565b6007805482919060009061051b9084906120df565b909155505050565b6002546001600160a01b031681565b61053a61175c565b6001600160a01b031661054b6109b1565b6001600160a01b0316146105715760405162461bcd60e51b815260040161025290611f48565b61057b6000611760565b565b61058561175c565b6001600160a01b03166105966109b1565b6001600160a01b0316146105bc5760405162461bcd60e51b815260040161025290611f48565b6002805473ffffffffffffffffffffffffffffffffffffffff19166001600160a01b0392909216919091179055565b6005546040805160a081019091526006805460039291908290829061060f90612122565b80601f016020809104026020016040519081016040528092919081815260200182805461063b90612122565b80156106885780601f1061065d57610100808354040283529160200191610688565b820191906000526020600020905b81548152906001019060200180831161066b57829003601f168201915b50505050508152602001600182015481526020016002820154815260200160038201548152602001600482016040518060a00160405290816000820180546106cf90612122565b80601f01602080910402602001604051908101604052809291908181526020018280546106fb90612122565b80156107485780601f1061071d57610100808354040283529160200191610748565b820191906000526020600020905b81548152906001019060200180831161072b57829003601f168201915b5050505050815260200160018201805461076190612122565b80601f016020809104026020016040519081016040528092919081815260200182805461078d90612122565b80156107da5780601f106107af576101008083540402835291602001916107da565b820191906000526020600020905b8154815290600101906020018083116107bd57829003601f168201915b505050505081526020016002820180546107f390612122565b80601f016020809104026020016040519081016040528092919081815260200182805461081f90612122565b801561086c5780601f106108415761010080835404028352916020019161086c565b820191906000526020600020905b81548152906001019060200180831161084f57829003601f168201915b5050505050815260200160038201805461088590612122565b80601f01602080910402602001604051908101604052809291908181526020018280546108b190612122565b80156108fe5780601f106108d3576101008083540402835291602001916108fe565b820191906000526020600020905b8154815290600101906020018083116108e157829003601f168201915b5050505050815260200160048201805461091790612122565b80601f016020809104026020016040519081016040528092919081815260200182805461094390612122565b80156109905780601f1061096557610100808354040283529160200191610990565b820191906000526020600020905b81548152906001019060200180831161097357829003601f168201915b50505091909252505050905250600c820154600d90920154909160ff169084565b6000546001600160a01b031690565b6002546040516308f2a47560e41b81526000916001600160a01b031690638f2a4750906109f1903390600401611dd2565b60206040518083038186803b158015610a0957600080fd5b505afa158015610a1d573d6000803e3d6000fd5b505050506040513d601f19601f82011682018060405250810190610a419190611ca4565b905060008111610a635760405162461bcd60e51b815260040161025290611eeb565b60025460405163180e963360e11b81526001600160a01b039091169063301d2c6690610a93908490600401612048565b60006040518083038186803b158015610aab57600080fd5b505afa158015610abf573d6000803e3d6000fd5b505050506040513d6000823e601f3d908101601f19168201604052610ae79190810190611bd6565b60200151610b075760405162461bcd60e51b815260040161025290611fda565b6001600f5460ff166002811115610b2e57634e487b7160e01b600052602160045260246000fd5b14610b4b5760405162461bcd60e51b815260040161025290611eb4565b6002546040516308f2a47560e41b81526000916001600160a01b031690638f2a475090610b7c903390600401611dd2565b60206040518083038186803b158015610b9457600080fd5b505afa158015610ba8573d6000803e3d6000fd5b505050506040513d601f19601f82011682018060405250810190610bcc9190611ca4565b60025460405163180e963360e11b81529192506000916001600160a01b039091169063301d2c6690610c02908590600401612048565b60006040518083038186803b158015610c1a57600080fd5b505afa158015610c2e573d6000803e3d6000fd5b505050506040513d6000823e601f3d908101601f19168201604052610c569190810190611bd6565b60608101516007549192506006911015610cac57600060018201819055600f805460ff191660021790556040517f269d9f015d2199a6ad46cb528cb72c6abb82051b8f9600c6c248f70bdb2280079190a1610e38565b610cb98260600151610506565b7f9210d575f4de024306f860b201c73427d7a6b3e78d196ceb78b759e604748b0e8160010154604051610cec9190612048565b60405180910390a160025460038201546040517f8137dcf20000000000000000000000000000000000000000000000000000000081526001600160a01b0390921691638137dcf291610d4391879190600401612088565b600060405180830381600087803b158015610d5d57600080fd5b505af1158015610d71573d6000803e3d6000fd5b505060025460405163180e963360e11b81527fbd6b16c457760fecc6c1d7b918e9d93314a50c6cb969949a655c76a1475e80b493508692506001600160a01b039091169063301d2c6690610dc9908490600401612048565b60006040518083038186803b158015610de157600080fd5b505afa158015610df5573d6000803e3d6000fd5b505050506040513d6000823e601f3d908101601f19168201604052610e1d9190810190611bd6565b60200151604051610e2f929190612088565b60405180910390a15b50505050565b6002546040516308f2a47560e41b81526000916001600160a01b031690638f2a475090610e6f903390600401611dd2565b60206040518083038186803b158015610e8757600080fd5b505afa158015610e9b573d6000803e3d6000fd5b505050506040513d601f19601f82011682018060405250810190610ebf9190611ca4565b60025460405163180e963360e11b81529192506001600160a01b03169063301d2c6690610ef0908490600401612048565b60006040518083038186803b158015610f0857600080fd5b505afa158015610f1c573d6000803e3d6000fd5b505050506040513d6000823e601f3d908101601f19168201604052610f449190810190611bd6565b60200151610f645760405162461bcd60e51b815260040161025290611f7d565b3360009081526003602052604090205415610f915760405162461bcd60e51b815260040161025290612011565b6000600f5460ff166002811115610fb857634e487b7160e01b600052602160045260246000fd5b14156111d157600154604080517f6f5b9f4c00000000000000000000000000000000000000000000000000000000815290516000926001600160a01b031691636f5b9f4c9160048083019286929190829003018186803b15801561101b57600080fd5b505afa15801561102f573d6000803e3d6000fd5b505050506040513d6000823e601f3d908101601f191682016040526110579190810190611abd565b600554909150600061106a8260016120c7565b90506001835161107a91906120df565b811115611085575060005b60008382815181106110a757634e487b7160e01b600052603260045260246000fd5b602002602001015190506110be81600001516117bd565b8051805182916006916110d891839160209091019061184a565b506020828101516001830155604083015160028301556060830151600383015560808301518051805191926004850192611115928492019061184a565b50602082810151805161112e926001850192019061184a565b506040820151805161114a91600284019160209091019061184a565b506060820151805161116691600384019160209091019061184a565b506080820151805161118291600484019160209091019061184a565b5050600f805460ff1916600117905550506040517fbe09ad21ad3fc23ae505a4badead1958018bfcb0f57d0785de620f4bb265025f91506111c4908590612048565b60405180910390a1505050505b60048054600181019091557f8a35acfbc15ff81a39ae7d344fd709f28e8600b4aa8c65c6b64bfe7fe36bd19b018190553360009081526003602052604090819020829055517f2e432824193b39d9199593c5ad19c9019ba8b695dd248e8edbe4292c303efaaa90611243908390612048565b60405180910390a150565b61125661175c565b6001600160a01b03166112676109b1565b6001600160a01b03161461128d5760405162461bcd60e51b815260040161025290611f48565b6001805473ffffffffffffffffffffffffffffffffffffffff19166001600160a01b0392909216919091179055565b60606112c66118ce565b600f54600480546040805160208084028201810190925282815260009460069360ff9091169285919083018282801561131e57602002820191906000526020600020905b81548152602001906001019080831161130a575b50505050509250816040518060a001604052908160008201805461134190612122565b80601f016020809104026020016040519081016040528092919081815260200182805461136d90612122565b80156113ba5780601f1061138f576101008083540402835291602001916113ba565b820191906000526020600020905b81548152906001019060200180831161139d57829003601f168201915b50505050508152602001600182015481526020016002820154815260200160038201548152602001600482016040518060a001604052908160008201805461140190612122565b80601f016020809104026020016040519081016040528092919081815260200182805461142d90612122565b801561147a5780601f1061144f5761010080835404028352916020019161147a565b820191906000526020600020905b81548152906001019060200180831161145d57829003601f168201915b5050505050815260200160018201805461149390612122565b80601f01602080910402602001604051908101604052809291908181526020018280546114bf90612122565b801561150c5780601f106114e15761010080835404028352916020019161150c565b820191906000526020600020905b8154815290600101906020018083116114ef57829003601f168201915b5050505050815260200160028201805461152590612122565b80601f016020809104026020016040519081016040528092919081815260200182805461155190612122565b801561159e5780601f106115735761010080835404028352916020019161159e565b820191906000526020600020905b81548152906001019060200180831161158157829003601f168201915b505050505081526020016003820180546115b790612122565b80601f01602080910402602001604051908101604052809291908181526020018280546115e390612122565b80156116305780601f1061160557610100808354040283529160200191611630565b820191906000526020600020905b81548152906001019060200180831161161357829003601f168201915b5050505050815260200160048201805461164990612122565b80601f016020809104026020016040519081016040528092919081815260200182805461167590612122565b80156116c25780601f10611697576101008083540402835291602001916116c2565b820191906000526020600020905b8154815290600101906020018083116116a557829003601f168201915b505050505081525050815250509150925092509250909192565b6001546001600160a01b031681565b6116f361175c565b6001600160a01b03166117046109b1565b6001600160a01b03161461172a5760405162461bcd60e51b815260040161025290611f48565b6001600160a01b0381166117505760405162461bcd60e51b815260040161025290611e57565b61175981611760565b50565b3390565b600080546001600160a01b0383811673ffffffffffffffffffffffffffffffffffffffff19831681178455604051919092169283917f8be0079c531659141344cd1fd0a4f28419497f9722a3daafe3b4186f6b6457e09190a35050565b611759816040516024016117d19190611e44565b60408051601f198184030181529190526020810180517bffffffffffffffffffffffffffffffffffffffffffffffffffffffff167f41304fac0000000000000000000000000000000000000000000000000000000017905280516a636f6e736f6c652e6c6f67602083016000808483855afa5050505050565b82805461185690612122565b90600052602060002090601f01602090048101928261187857600085556118be565b82601f1061189157805160ff19168380011785556118be565b828001600101855582156118be579182015b828111156118be5782518255916020019190600101906118a3565b506118ca929150611902565b5090565b6040518060a00160405280606081526020016000815260200160008152602001600081526020016118fd611917565b905290565b5b808211156118ca5760008155600101611903565b6040518060a0016040528060608152602001606081526020016060815260200160608152602001606081525090565b600082601f830112611956578081fd5b815167ffffffffffffffff81111561197057611970612173565b611983601f8201601f1916602001612096565b818152846020838601011115611997578283fd5b6119a88260208301602087016120f6565b949350505050565b600060a082840312156119c1578081fd5b6119cb60a0612096565b9050815167ffffffffffffffff808211156119e557600080fd5b6119f185838601611946565b83526020840151915080821115611a0757600080fd5b611a1385838601611946565b60208401526040840151915080821115611a2c57600080fd5b611a3885838601611946565b60408401526060840151915080821115611a5157600080fd5b611a5d85838601611946565b60608401526080840151915080821115611a7657600080fd5b50611a8384828501611946565b60808301525092915050565b600060208284031215611aa0578081fd5b81356001600160a01b0381168114611ab6578182fd5b9392505050565b60006020808385031215611acf578182fd5b825167ffffffffffffffff80821115611ae6578384fd5b818501915085601f830112611af9578384fd5b815181811115611b0b57611b0b612173565b611b188485830201612096565b81815284810190848601875b84811015611bc7578151870160a080601f19838f03011215611b44578a8bfd5b611b4d81612096565b8a83015189811115611b5d578c8dfd5b611b6b8f8d83870101611946565b8252506040808401518c830152606080850151828401526080915081850151818401525082840151925089831115611ba1578c8dfd5b611baf8f8d858701016119b0565b90820152865250509287019290870190600101611b24565b50909998505050505050505050565b600060208284031215611be7578081fd5b815167ffffffffffffffff80821115611bfe578283fd5b9083019060c08286031215611c11578283fd5b611c1b60c0612096565b825182811115611c29578485fd5b611c3587828601611946565b8252506020830151602082015260408301516040820152606083015160608201526080830151608082015260a083015182811115611c71578485fd5b611c7d878286016119b0565b60a08301525095945050505050565b600060208284031215611c9d578081fd5b5035919050565b600060208284031215611cb5578081fd5b5051919050565b60038110611cda57634e487b7160e01b600052602160045260246000fd5b9052565b60008151808452611cf68160208601602086016120f6565b601f01601f19169290920160200192915050565b6000815160a08452611d1f60a0850182611cde565b905060208301516020850152604083015160408501526060830151606085015260808301518482036080860152805160a08352611d5f60a0840182611cde565b905060208201518382036020850152611d788282611cde565b91505060408201518382036040850152611d928282611cde565b91505060608201518382036060850152611dac8282611cde565b915050608082015191508281036080840152611dc88183611cde565b9695505050505050565b6001600160a01b0391909116815260200190565b606080825284519082018190526000906020906080840190828801845b82811015611e1f57815184529284019290840190600101611e03565b50505083810382850152611e338187611d0a565b925050506119a86040830184611cbc565b600060208252611ab66020830184611cde565b60208082526026908201527f4f776e61626c653a206e6577206f776e657220697320746865207a65726f206160408201527f6464726573730000000000000000000000000000000000000000000000000000606082015260800190565b60208082526019908201527f4172656e6120686173206e6f7420737461727465642079657400000000000000604082015260600190565b60208082526024908201527f5573657220686173206e6f742061206368616d70696f6e20696e20746865206160408201527f72656e6100000000000000000000000000000000000000000000000000000000606082015260800190565b6020808252818101527f4f776e61626c653a2063616c6c6572206973206e6f7420746865206f776e6572604082015260600190565b60208082526025908201527f4368616d70696f6e20697320646561642c2063616e6e6f742061646420746f2060408201527f6172656e61000000000000000000000000000000000000000000000000000000606082015260800190565b6020808252601f908201527f4368616d70696f6e20697320646561642c2063616e6e6f742061747461636b00604082015260600190565b60208082526019908201527f4368616d70696f6e20616c726561647920696e206172656e6100000000000000604082015260600190565b90815260200190565b60008582526080602083015261206a6080830186611d0a565b90506120796040830185611cbc565b82606083015295945050505050565b918252602082015260400190565b604051601f8201601f1916810167ffffffffffffffff811182821017156120bf576120bf612173565b604052919050565b600082198211156120da576120da61215d565b500190565b6000828210156120f1576120f161215d565b500390565b60005b838110156121115781810151838201526020016120f9565b83811115610e385750506000910152565b60028104600182168061213657607f821691505b6020821081141561215757634e487b7160e01b600052602260045260246000fd5b50919050565b634e487b7160e01b600052601160045260246000fd5b634e487b7160e01b600052604160045260246000fdfea26469706673582212200c757676ba699c91d6d09bb9c283433a0f3e5d149878d71afc66c00fff9a5d0e64736f6c63430008010033",
  "linkReferences": {},
  "deployedLinkReferences": {}
}