{
  "_format": "hh-sol-artifact-1",
  "contractName": "MMOGame",
  "sourceName": "contracts/MMOGame.sol",
  "abi": [
    {
      "anonymous": false,
      "inputs": [
        {
          "indexed": true,
          "internalType": "address",
          "name": "owner",
          "type": "address"
        },
        {
          "indexed": true,
          "internalType": "address",
          "name": "approved",
          "type": "address"
        },
        {
          "indexed": true,
          "internalType": "uint256",
          "name": "tokenId",
          "type": "uint256"
        }
      ],
      "name": "Approval",
      "type": "event"
    },
    {
      "anonymous": false,
      "inputs": [
        {
          "indexed": true,
          "internalType": "address",
          "name": "owner",
          "type": "address"
        },
        {
          "indexed": true,
          "internalType": "address",
          "name": "operator",
          "type": "address"
        },
        {
          "indexed": false,
          "internalType": "bool",
          "name": "approved",
          "type": "bool"
        }
      ],
      "name": "ApprovalForAll",
      "type": "event"
    },
    {
      "anonymous": false,
      "inputs": [],
      "name": "ArenaFinished",
      "type": "event"
    },
    {
      "anonymous": false,
      "inputs": [
        {
          "indexed": false,
          "internalType": "uint256",
          "name": "tokenId",
          "type": "uint256"
        }
      ],
      "name": "ArenaNewChampion",
      "type": "event"
    },
    {
      "anonymous": false,
      "inputs": [
        {
          "indexed": false,
          "internalType": "uint256",
          "name": "bossIndex",
          "type": "uint256"
        }
      ],
      "name": "ArenaStarted",
      "type": "event"
    },
    {
      "anonymous": false,
      "inputs": [
        {
          "indexed": false,
          "internalType": "uint256",
          "name": "bossHealth",
          "type": "uint256"
        }
      ],
      "name": "AttackComplete",
      "type": "event"
    },
    {
      "anonymous": false,
      "inputs": [
        {
          "indexed": false,
          "internalType": "uint256",
          "name": "tokenId",
          "type": "uint256"
        },
        {
          "indexed": false,
          "internalType": "uint256",
          "name": "championHealth",
          "type": "uint256"
        }
      ],
      "name": "BossAttackComplete",
      "type": "event"
    },
    {
      "anonymous": false,
      "inputs": [
        {
          "indexed": false,
          "internalType": "address",
          "name": "userToNotify",
          "type": "address"
        },
        {
          "indexed": false,
          "internalType": "uint256",
          "name": "tokenId",
          "type": "uint256"
        },
        {
          "indexed": false,
          "internalType": "uint256",
          "name": "championIndex",
          "type": "uint256"
        }
      ],
      "name": "ChampionAddedToRoster",
      "type": "event"
    },
    {
      "anonymous": false,
      "inputs": [
        {
          "indexed": false,
          "internalType": "address",
          "name": "userToNotify",
          "type": "address"
        },
        {
          "indexed": false,
          "internalType": "uint256",
          "name": "tokenId",
          "type": "uint256"
        }
      ],
      "name": "ChampionSelected",
      "type": "event"
    },
    {
      "anonymous": false,
      "inputs": [
        {
          "indexed": false,
          "internalType": "uint256",
          "name": "championHealth",
          "type": "uint256"
        }
      ],
      "name": "HealComplete",
      "type": "event"
    },
    {
      "anonymous": false,
      "inputs": [
        {
          "indexed": true,
          "internalType": "address",
          "name": "previousOwner",
          "type": "address"
        },
        {
          "indexed": true,
          "internalType": "address",
          "name": "newOwner",
          "type": "address"
        }
      ],
      "name": "OwnershipTransferred",
      "type": "event"
    },
    {
      "anonymous": false,
      "inputs": [
        {
          "indexed": true,
          "internalType": "address",
          "name": "from",
          "type": "address"
        },
        {
          "indexed": true,
          "internalType": "address",
          "name": "to",
          "type": "address"
        },
        {
          "indexed": true,
          "internalType": "uint256",
          "name": "tokenId",
          "type": "uint256"
        }
      ],
      "name": "Transfer",
      "type": "event"
    },
    {
      "inputs": [],
      "name": "ActiveArena",
      "outputs": [
        {
          "internalType": "uint256",
          "name": "bossIndex",
          "type": "uint256"
        },
        {
          "internalType": "enum ArenaState",
          "name": "state",
          "type": "uint8"
        },
        {
          "internalType": "uint256",
          "name": "lastArenaFinishedOn",
          "type": "uint256"
        }
      ],
      "stateMutability": "view",
      "type": "function"
    },
    {
      "inputs": [
        {
          "internalType": "uint256",
          "name": "",
          "type": "uint256"
        }
      ],
      "name": "Bosses",
      "outputs": [
        {
          "internalType": "string",
          "name": "name",
          "type": "string"
        },
        {
          "internalType": "uint256",
          "name": "health",
          "type": "uint256"
        },
        {
          "internalType": "uint256",
          "name": "maxHealth",
          "type": "uint256"
        },
        {
          "internalType": "uint256",
          "name": "attackPower",
          "type": "uint256"
        },
        {
          "components": [
            {
              "internalType": "string",
              "name": "idle",
              "type": "string"
            },
            {
              "internalType": "string",
              "name": "attack",
              "type": "string"
            },
            {
              "internalType": "string",
              "name": "hurt",
              "type": "string"
            },
            {
              "internalType": "string",
              "name": "dying",
              "type": "string"
            },
            {
              "internalType": "string",
              "name": "dead",
              "type": "string"
            }
          ],
          "internalType": "struct GifStatus",
          "name": "gifUris",
          "type": "tuple"
        }
      ],
      "stateMutability": "view",
      "type": "function"
    },
    {
      "inputs": [
        {
          "internalType": "uint256",
          "name": "",
          "type": "uint256"
        }
      ],
      "name": "NftHolderChampion",
      "outputs": [
        {
          "internalType": "string",
          "name": "name",
          "type": "string"
        },
        {
          "internalType": "uint256",
          "name": "health",
          "type": "uint256"
        },
        {
          "internalType": "uint256",
          "name": "maxHealth",
          "type": "uint256"
        },
        {
          "internalType": "uint256",
          "name": "attackPower",
          "type": "uint256"
        },
        {
          "internalType": "uint256",
          "name": "healPower",
          "type": "uint256"
        },
        {
          "components": [
            {
              "internalType": "string",
              "name": "idle",
              "type": "string"
            },
            {
              "internalType": "string",
              "name": "attack",
              "type": "string"
            },
            {
              "internalType": "string",
              "name": "hurt",
              "type": "string"
            },
            {
              "internalType": "string",
              "name": "dying",
              "type": "string"
            },
            {
              "internalType": "string",
              "name": "dead",
              "type": "string"
            }
          ],
          "internalType": "struct GifStatus",
          "name": "gifUris",
          "type": "tuple"
        }
      ],
      "stateMutability": "view",
      "type": "function"
    },
    {
      "inputs": [
        {
          "internalType": "address",
          "name": "",
          "type": "address"
        }
      ],
      "name": "SelectedChampion",
      "outputs": [
        {
          "internalType": "uint256",
          "name": "",
          "type": "uint256"
        }
      ],
      "stateMutability": "view",
      "type": "function"
    },
    {
      "inputs": [
        {
          "internalType": "string",
          "name": "name",
          "type": "string"
        },
        {
          "internalType": "uint256",
          "name": "health",
          "type": "uint256"
        },
        {
          "internalType": "uint256",
          "name": "attackPower",
          "type": "uint256"
        },
        {
          "internalType": "string[]",
          "name": "gifUris",
          "type": "string[]"
        }
      ],
      "name": "addBoss",
      "outputs": [],
      "stateMutability": "nonpayable",
      "type": "function"
    },
    {
      "inputs": [
        {
          "internalType": "string",
          "name": "name",
          "type": "string"
        },
        {
          "internalType": "uint256",
          "name": "maxHealth",
          "type": "uint256"
        },
        {
          "internalType": "uint256",
          "name": "attackPower",
          "type": "uint256"
        },
        {
          "internalType": "uint256",
          "name": "healPower",
          "type": "uint256"
        },
        {
          "internalType": "string[]",
          "name": "gifUris",
          "type": "string[]"
        }
      ],
      "name": "addChampion",
      "outputs": [],
      "stateMutability": "nonpayable",
      "type": "function"
    },
    {
      "inputs": [],
      "name": "addChampionToArena",
      "outputs": [],
      "stateMutability": "nonpayable",
      "type": "function"
    },
    {
      "inputs": [
        {
          "internalType": "uint256",
          "name": "_championIndex",
          "type": "uint256"
        }
      ],
      "name": "addChampionToRoster",
      "outputs": [],
      "stateMutability": "nonpayable",
      "type": "function"
    },
    {
      "inputs": [
        {
          "internalType": "address",
          "name": "to",
          "type": "address"
        },
        {
          "internalType": "uint256",
          "name": "tokenId",
          "type": "uint256"
        }
      ],
      "name": "approve",
      "outputs": [],
      "stateMutability": "nonpayable",
      "type": "function"
    },
    {
      "inputs": [],
      "name": "attack",
      "outputs": [],
      "stateMutability": "nonpayable",
      "type": "function"
    },
    {
      "inputs": [
        {
          "internalType": "address",
          "name": "owner",
          "type": "address"
        }
      ],
      "name": "balanceOf",
      "outputs": [
        {
          "internalType": "uint256",
          "name": "",
          "type": "uint256"
        }
      ],
      "stateMutability": "view",
      "type": "function"
    },
    {
      "inputs": [
        {
          "internalType": "uint256",
          "name": "tokenId",
          "type": "uint256"
        }
      ],
      "name": "getApproved",
      "outputs": [
        {
          "internalType": "address",
          "name": "",
          "type": "address"
        }
      ],
      "stateMutability": "view",
      "type": "function"
    },
    {
      "inputs": [],
      "name": "getArenaBoss",
      "outputs": [
        {
          "components": [
            {
              "internalType": "string",
              "name": "name",
              "type": "string"
            },
            {
              "internalType": "uint256",
              "name": "health",
              "type": "uint256"
            },
            {
              "internalType": "uint256",
              "name": "maxHealth",
              "type": "uint256"
            },
            {
              "internalType": "uint256",
              "name": "attackPower",
              "type": "uint256"
            },
            {
              "components": [
                {
                  "internalType": "string",
                  "name": "idle",
                  "type": "string"
                },
                {
                  "internalType": "string",
                  "name": "attack",
                  "type": "string"
                },
                {
                  "internalType": "string",
                  "name": "hurt",
                  "type": "string"
                },
                {
                  "internalType": "string",
                  "name": "dying",
                  "type": "string"
                },
                {
                  "internalType": "string",
                  "name": "dead",
                  "type": "string"
                }
              ],
              "internalType": "struct GifStatus",
              "name": "gifUris",
              "type": "tuple"
            }
          ],
          "internalType": "struct Boss",
          "name": "",
          "type": "tuple"
        }
      ],
      "stateMutability": "view",
      "type": "function"
    },
    {
      "inputs": [],
      "name": "getArenaChampionList",
      "outputs": [
        {
          "internalType": "uint256[]",
          "name": "",
          "type": "uint256[]"
        }
      ],
      "stateMutability": "view",
      "type": "function"
    },
    {
      "inputs": [],
      "name": "getArenaState",
      "outputs": [
        {
          "internalType": "enum ArenaState",
          "name": "",
          "type": "uint8"
        }
      ],
      "stateMutability": "view",
      "type": "function"
    },
    {
      "inputs": [],
      "name": "getBossList",
      "outputs": [
        {
          "components": [
            {
              "internalType": "string",
              "name": "name",
              "type": "string"
            },
            {
              "internalType": "uint256",
              "name": "health",
              "type": "uint256"
            },
            {
              "internalType": "uint256",
              "name": "maxHealth",
              "type": "uint256"
            },
            {
              "internalType": "uint256",
              "name": "attackPower",
              "type": "uint256"
            },
            {
              "components": [
                {
                  "internalType": "string",
                  "name": "idle",
                  "type": "string"
                },
                {
                  "internalType": "string",
                  "name": "attack",
                  "type": "string"
                },
                {
                  "internalType": "string",
                  "name": "hurt",
                  "type": "string"
                },
                {
                  "internalType": "string",
                  "name": "dying",
                  "type": "string"
                },
                {
                  "internalType": "string",
                  "name": "dead",
                  "type": "string"
                }
              ],
              "internalType": "struct GifStatus",
              "name": "gifUris",
              "type": "tuple"
            }
          ],
          "internalType": "struct Boss[]",
          "name": "",
          "type": "tuple[]"
        }
      ],
      "stateMutability": "view",
      "type": "function"
    },
    {
      "inputs": [],
      "name": "getChampionList",
      "outputs": [
        {
          "components": [
            {
              "internalType": "string",
              "name": "name",
              "type": "string"
            },
            {
              "internalType": "uint256",
              "name": "health",
              "type": "uint256"
            },
            {
              "internalType": "uint256",
              "name": "maxHealth",
              "type": "uint256"
            },
            {
              "internalType": "uint256",
              "name": "attackPower",
              "type": "uint256"
            },
            {
              "internalType": "uint256",
              "name": "healPower",
              "type": "uint256"
            },
            {
              "components": [
                {
                  "internalType": "string",
                  "name": "idle",
                  "type": "string"
                },
                {
                  "internalType": "string",
                  "name": "attack",
                  "type": "string"
                },
                {
                  "internalType": "string",
                  "name": "hurt",
                  "type": "string"
                },
                {
                  "internalType": "string",
                  "name": "dying",
                  "type": "string"
                },
                {
                  "internalType": "string",
                  "name": "dead",
                  "type": "string"
                }
              ],
              "internalType": "struct GifStatus",
              "name": "gifUris",
              "type": "tuple"
            }
          ],
          "internalType": "struct Champion[]",
          "name": "",
          "type": "tuple[]"
        }
      ],
      "stateMutability": "view",
      "type": "function"
    },
    {
      "inputs": [
        {
          "internalType": "uint256",
          "name": "recordId",
          "type": "uint256"
        }
      ],
      "name": "getNFTChampion",
      "outputs": [
        {
          "components": [
            {
              "internalType": "string",
              "name": "name",
              "type": "string"
            },
            {
              "internalType": "uint256",
              "name": "health",
              "type": "uint256"
            },
            {
              "internalType": "uint256",
              "name": "maxHealth",
              "type": "uint256"
            },
            {
              "internalType": "uint256",
              "name": "attackPower",
              "type": "uint256"
            },
            {
              "internalType": "uint256",
              "name": "healPower",
              "type": "uint256"
            },
            {
              "components": [
                {
                  "internalType": "string",
                  "name": "idle",
                  "type": "string"
                },
                {
                  "internalType": "string",
                  "name": "attack",
                  "type": "string"
                },
                {
                  "internalType": "string",
                  "name": "hurt",
                  "type": "string"
                },
                {
                  "internalType": "string",
                  "name": "dying",
                  "type": "string"
                },
                {
                  "internalType": "string",
                  "name": "dead",
                  "type": "string"
                }
              ],
              "internalType": "struct GifStatus",
              "name": "gifUris",
              "type": "tuple"
            }
          ],
          "internalType": "struct Champion",
          "name": "",
          "type": "tuple"
        }
      ],
      "stateMutability": "view",
      "type": "function"
    },
    {
      "inputs": [],
      "name": "getSelectedChampion",
      "outputs": [
        {
          "internalType": "uint256",
          "name": "",
          "type": "uint256"
        }
      ],
      "stateMutability": "view",
      "type": "function"
    },
    {
      "inputs": [],
      "name": "getUserRoster",
      "outputs": [
        {
          "internalType": "uint256[]",
          "name": "",
          "type": "uint256[]"
        }
      ],
      "stateMutability": "view",
      "type": "function"
    },
    {
      "inputs": [],
      "name": "heal",
      "outputs": [],
      "stateMutability": "nonpayable",
      "type": "function"
    },
    {
      "inputs": [
        {
          "internalType": "address",
          "name": "owner",
          "type": "address"
        },
        {
          "internalType": "address",
          "name": "operator",
          "type": "address"
        }
      ],
      "name": "isApprovedForAll",
      "outputs": [
        {
          "internalType": "bool",
          "name": "",
          "type": "bool"
        }
      ],
      "stateMutability": "view",
      "type": "function"
    },
    {
      "inputs": [],
      "name": "name",
      "outputs": [
        {
          "internalType": "string",
          "name": "",
          "type": "string"
        }
      ],
      "stateMutability": "view",
      "type": "function"
    },
    {
      "inputs": [],
      "name": "owner",
      "outputs": [
        {
          "internalType": "address",
          "name": "",
          "type": "address"
        }
      ],
      "stateMutability": "view",
      "type": "function"
    },
    {
      "inputs": [
        {
          "internalType": "uint256",
          "name": "tokenId",
          "type": "uint256"
        }
      ],
      "name": "ownerOf",
      "outputs": [
        {
          "internalType": "address",
          "name": "",
          "type": "address"
        }
      ],
      "stateMutability": "view",
      "type": "function"
    },
    {
      "inputs": [],
      "name": "renounceOwnership",
      "outputs": [],
      "stateMutability": "nonpayable",
      "type": "function"
    },
    {
      "inputs": [
        {
          "internalType": "address",
          "name": "from",
          "type": "address"
        },
        {
          "internalType": "address",
          "name": "to",
          "type": "address"
        },
        {
          "internalType": "uint256",
          "name": "tokenId",
          "type": "uint256"
        }
      ],
      "name": "safeTransferFrom",
      "outputs": [],
      "stateMutability": "nonpayable",
      "type": "function"
    },
    {
      "inputs": [
        {
          "internalType": "address",
          "name": "from",
          "type": "address"
        },
        {
          "internalType": "address",
          "name": "to",
          "type": "address"
        },
        {
          "internalType": "uint256",
          "name": "tokenId",
          "type": "uint256"
        },
        {
          "internalType": "bytes",
          "name": "_data",
          "type": "bytes"
        }
      ],
      "name": "safeTransferFrom",
      "outputs": [],
      "stateMutability": "nonpayable",
      "type": "function"
    },
    {
      "inputs": [
        {
          "internalType": "address",
          "name": "operator",
          "type": "address"
        },
        {
          "internalType": "bool",
          "name": "approved",
          "type": "bool"
        }
      ],
      "name": "setApprovalForAll",
      "outputs": [],
      "stateMutability": "nonpayable",
      "type": "function"
    },
    {
      "inputs": [
        {
          "internalType": "uint256",
          "name": "_rosterIndex",
          "type": "uint256"
        }
      ],
      "name": "setSelectChampion",
      "outputs": [],
      "stateMutability": "nonpayable",
      "type": "function"
    },
    {
      "inputs": [
        {
          "internalType": "bytes4",
          "name": "interfaceId",
          "type": "bytes4"
        }
      ],
      "name": "supportsInterface",
      "outputs": [
        {
          "internalType": "bool",
          "name": "",
          "type": "bool"
        }
      ],
      "stateMutability": "view",
      "type": "function"
    },
    {
      "inputs": [],
      "name": "symbol",
      "outputs": [
        {
          "internalType": "string",
          "name": "",
          "type": "string"
        }
      ],
      "stateMutability": "view",
      "type": "function"
    },
    {
      "inputs": [
        {
          "internalType": "uint256",
          "name": "_tokenId",
          "type": "uint256"
        }
      ],
      "name": "tokenURI",
      "outputs": [
        {
          "internalType": "string",
          "name": "",
          "type": "string"
        }
      ],
      "stateMutability": "view",
      "type": "function"
    },
    {
      "inputs": [
        {
          "internalType": "address",
          "name": "from",
          "type": "address"
        },
        {
          "internalType": "address",
          "name": "to",
          "type": "address"
        },
        {
          "internalType": "uint256",
          "name": "tokenId",
          "type": "uint256"
        }
      ],
      "name": "transferFrom",
      "outputs": [],
      "stateMutability": "nonpayable",
      "type": "function"
    },
    {
      "inputs": [
        {
          "internalType": "address",
          "name": "newOwner",
          "type": "address"
        }
      ],
      "name": "transferOwnership",
      "outputs": [],
      "stateMutability": "nonpayable",
      "type": "function"
    },
    {
      "inputs": [],
      "name": "userHasRoster",
      "outputs": [
        {
          "internalType": "bool",
          "name": "",
          "type": "bool"
        }
      ],
      "stateMutability": "view",
      "type": "function"
    }
  ],
  "bytecode": "0x60806040523480156200001157600080fd5b50604080518082018252601181527026a6a79037b710313637b1b5b1b430b4b760791b60208083019182528351808501909452600384526226a6a160e91b90840152815191929162000066916000916200011f565b5080516200007c9060019060208401906200011f565b5050506200009962000093620000c060201b60201c565b620000c4565b620000b060096200011660201b62003d6b1760201c565b6010805460ff1916905562000202565b3390565b600680546001600160a01b038381166001600160a01b0319831681179093556040519116919082907f8be0079c531659141344cd1fd0a4f28419497f9722a3daafe3b4186f6b6457e090600090a35050565b80546001019055565b8280546200012d90620001c5565b90600052602060002090601f0160209004810192826200015157600085556200019c565b82601f106200016c57805160ff19168380011785556200019c565b828001600101855582156200019c579182015b828111156200019c5782518255916020019190600101906200017f565b50620001aa929150620001ae565b5090565b5b80821115620001aa5760008155600101620001af565b600281046001821680620001da57607f821691505b60208210811415620001fc57634e487b7160e01b600052602260045260246000fd5b50919050565b615b7880620002126000396000f3fe608060405234801561001057600080fd5b506004361061025c5760003560e01c8063715018a611610145578063a22cb465116100bd578063c87b56dd1161008c578063e985e9c511610071578063e985e9c5146104e3578063f2fde38b146104f6578063f866d86e146105095761025c565b8063c87b56dd146104ab578063d6ff4a2e146104be5761025c565b8063a22cb4651461046a578063b4010cd71461047d578063b88d4fde14610485578063ba56957a146104985761025c565b80638ac4eeb31161011457806395d89b41116100f957806395d89b41146104525780639e5faafc1461045a578063a05b6f3c146104625761025c565b80638ac4eeb3146104335780638da5cb5b1461044a5761025c565b8063715018a6146103fb5780637a3486fd146104035780637a70d6ce1461041657806384e859b31461041e5761025c565b806342842e0e116101d85780636484db81116101a75780636f5b9f4c1161018c5780636f5b9f4c146103be578063709ccf70146103d357806370a08231146103e85761025c565b80636484db8114610394578063671bab2e146103a95761025c565b806342842e0e1461033557806344a83b81146103485780635b4ecf251461036c5780636352211e146103815761025c565b8063081812fc1161022f57806323b872dd1161021457806323b872dd146102ef5780632cce898514610302578063301d2c66146103155761025c565b8063081812fc146102bc578063095ea7b3146102dc5761025c565b806301ffc9a7146102615780630434fe0b1461028a578063048925111461029457806306fdde03146102a7575b600080fd5b61027461026f366004614aad565b61051c565b604051610281919061519a565b60405180910390f35b610292610596565b005b6102926102a2366004614ae5565b610a6a565b6102af610cd4565b60405161028191906151b3565b6102cf6102ca366004614bcb565b610d66565b6040516102819190615019565b6102926102ea366004614a84565b610da9565b6102926102fd366004614996565b610e41565b610292610310366004614bcb565b610e79565b610328610323366004614bcb565b610f1b565b60405161028191906158fc565b610292610343366004614996565b6112e9565b61035b610356366004614bcb565b611304565b6040516102819594939291906151eb565b6103746116b6565b60405161028191906158e9565b6102cf61038f366004614bcb565b611aa0565b61039c611ad5565b604051610281919061590f565b6103b1611ae8565b60405161028191906151a5565b6103c6611af1565b60405161028191906150a3565b6103db611eee565b6040516102819190615156565b61039c6103f636600461494a565b611f48565b610292611f8c565b610292610411366004614b4d565b611fd7565b6103db612254565b6104266122b3565b6040516102819190615103565b61043b6126b1565b60405161028193929190615918565b6102cf6126c3565b6102af6126d2565b6102926126e1565b610292612c63565b610292610478366004614a4a565b612df2565b610274612e08565b6102926104933660046149d1565b612e1d565b61039c6104a636600461494a565b612e56565b6102af6104b9366004614bcb565b612e68565b6104d16104cc366004614bcb565b6132da565b6040516102819695949392919061522e565b6102746104f1366004614964565b61367a565b61029261050436600461494a565b6136aa565b610292610517366004614bcb565b61371b565b60006001600160e01b031982167f80ac58cd00000000000000000000000000000000000000000000000000000000148061057f57506001600160e01b031982167f5b5e139f00000000000000000000000000000000000000000000000000000000145b8061058e575061058e82613d74565b90505b919050565b336000908152600b6020526040902054806105cc5760405162461bcd60e51b81526004016105c390615629565b60405180910390fd5b6000818152600c60205260409020600101546105fa5760405162461bcd60e51b81526004016105c390615764565b600160105460ff16600281111561062157634e487b7160e01b600052602160045260246000fd5b1461063e5760405162461bcd60e51b81526004016105c3906153c6565b336000908152600b6020908152604080832054808452600c909252808320815160c0810190925280549293928290829061067790615a07565b80601f01602080910402602001604051908101604052809291908181526020018280546106a390615a07565b80156106f05780601f106106c5576101008083540402835291602001916106f0565b820191906000526020600020905b8154815290600101906020018083116106d357829003601f168201915b5050505050815260200160018201548152602001600282015481526020016003820154815260200160048201548152602001600582016040518060a001604052908160008201805461074190615a07565b80601f016020809104026020016040519081016040528092919081815260200182805461076d90615a07565b80156107ba5780601f1061078f576101008083540402835291602001916107ba565b820191906000526020600020905b81548152906001019060200180831161079d57829003601f168201915b505050505081526020016001820180546107d390615a07565b80601f01602080910402602001604051908101604052809291908181526020018280546107ff90615a07565b801561084c5780601f106108215761010080835404028352916020019161084c565b820191906000526020600020905b81548152906001019060200180831161082f57829003601f168201915b5050505050815260200160028201805461086590615a07565b80601f016020809104026020016040519081016040528092919081815260200182805461089190615a07565b80156108de5780601f106108b3576101008083540402835291602001916108de565b820191906000526020600020905b8154815290600101906020018083116108c157829003601f168201915b505050505081526020016003820180546108f790615a07565b80601f016020809104026020016040519081016040528092919081815260200182805461092390615a07565b80156109705780601f1061094557610100808354040283529160200191610970565b820191906000526020600020905b81548152906001019060200180831161095357829003601f168201915b5050505050815260200160048201805461098990615a07565b80601f01602080910402602001604051908101604052809291908181526020018280546109b590615a07565b8015610a025780601f106109d757610100808354040283529160200191610a02565b820191906000526020600020905b8154815290600101906020018083116109e557829003601f168201915b505050505081525050815250509050806080015181602001818151610a279190615979565b90525060208101516040517f2be60dd22e04e67ada7a097b4345d62e9ba630d7a7a9b3c3341da2650204d25691610a5d9161590f565b60405180910390a1505050565b610a72613da6565b6001600160a01b0316610a836126c3565b6001600160a01b031614610aa95760405162461bcd60e51b81526004016105c3906156d2565b610ab161470c565b84815260208101849052604081018490526060810183905281518290600090610aea57634e487b7160e01b600052603260045260246000fd5b602002602001015181608001516000018190525081600181518110610b1f57634e487b7160e01b600052603260045260246000fd5b602002602001015181608001516020018190525081600281518110610b5457634e487b7160e01b600052603260045260246000fd5b602002602001015181608001516040018190525081600381518110610b8957634e487b7160e01b600052603260045260246000fd5b602002602001015181608001516060018190525081600481518110610bbe57634e487b7160e01b600052603260045260246000fd5b60209081029190910181015160808084015101526007805460018101825560009190915282518051849360099093027fa66cc928b5edb82af9bd49922954155ab7b0942694bea4ce44661d9a8736c6880192610c1e928492910190614740565b506020828101516001830155604083015160028301556060830151600383015560808301518051805191926004850192610c5b9284920190614740565b506020828101518051610c749260018501920190614740565b5060408201518051610c90916002840191602090910190614740565b5060608201518051610cac916003840191602090910190614740565b5060808201518051610cc8916004840191602090910190614740565b50505050505050505050565b606060008054610ce390615a07565b80601f0160208091040260200160405190810160405280929190818152602001828054610d0f90615a07565b8015610d5c5780601f10610d3157610100808354040283529160200191610d5c565b820191906000526020600020905b815481529060010190602001808311610d3f57829003601f168201915b5050505050905090565b6000610d7182613daa565b610d8d5760405162461bcd60e51b81526004016105c390615686565b506000908152600460205260409020546001600160a01b031690565b6000610db482611aa0565b9050806001600160a01b0316836001600160a01b03161415610de85760405162461bcd60e51b81526004016105c3906157f8565b806001600160a01b0316610dfa613da6565b6001600160a01b03161480610e165750610e16816104f1613da6565b610e325760405162461bcd60e51b81526004016105c3906154dd565b610e3c8383613dc7565b505050565b610e52610e4c613da6565b82613e42565b610e6e5760405162461bcd60e51b81526004016105c390615855565b610e3c838383613ec7565b6000610e83612254565b9050805160001415610ea75760405162461bcd60e51b81526004016105c39061579b565b6000818381518110610ec957634e487b7160e01b600052603260045260246000fd5b602090810291909101810151336000818152600b90935260409283902082905591519092507f4ab331c7343bc62c19fcee84870baf1416412ec6d042360a819f31c0245d3bd491610a5d918490615069565b610f236147c4565b6000828152600c602052604090819020815160c08101909252805482908290610f4b90615a07565b80601f0160208091040260200160405190810160405280929190818152602001828054610f7790615a07565b8015610fc45780601f10610f9957610100808354040283529160200191610fc4565b820191906000526020600020905b815481529060010190602001808311610fa757829003601f168201915b5050505050815260200160018201548152602001600282015481526020016003820154815260200160048201548152602001600582016040518060a001604052908160008201805461101590615a07565b80601f016020809104026020016040519081016040528092919081815260200182805461104190615a07565b801561108e5780601f106110635761010080835404028352916020019161108e565b820191906000526020600020905b81548152906001019060200180831161107157829003601f168201915b505050505081526020016001820180546110a790615a07565b80601f01602080910402602001604051908101604052809291908181526020018280546110d390615a07565b80156111205780601f106110f557610100808354040283529160200191611120565b820191906000526020600020905b81548152906001019060200180831161110357829003601f168201915b5050505050815260200160028201805461113990615a07565b80601f016020809104026020016040519081016040528092919081815260200182805461116590615a07565b80156111b25780601f10611187576101008083540402835291602001916111b2565b820191906000526020600020905b81548152906001019060200180831161119557829003601f168201915b505050505081526020016003820180546111cb90615a07565b80601f01602080910402602001604051908101604052809291908181526020018280546111f790615a07565b80156112445780601f1061121957610100808354040283529160200191611244565b820191906000526020600020905b81548152906001019060200180831161122757829003601f168201915b5050505050815260200160048201805461125d90615a07565b80601f016020809104026020016040519081016040528092919081815260200182805461128990615a07565b80156112d65780601f106112ab576101008083540402835291602001916112d6565b820191906000526020600020905b8154815290600101906020018083116112b957829003601f168201915b5050509190925250505090525092915050565b610e3c83838360405180602001604052806000815250612e1d565b6007818154811061131457600080fd5b906000526020600020906009020160009150905080600001805461133790615a07565b80601f016020809104026020016040519081016040528092919081815260200182805461136390615a07565b80156113b05780601f10611385576101008083540402835291602001916113b0565b820191906000526020600020905b81548152906001019060200180831161139357829003601f168201915b505050505090806001015490806002015490806003015490806004016040518060a00160405290816000820180546113e790615a07565b80601f016020809104026020016040519081016040528092919081815260200182805461141390615a07565b80156114605780601f1061143557610100808354040283529160200191611460565b820191906000526020600020905b81548152906001019060200180831161144357829003601f168201915b5050505050815260200160018201805461147990615a07565b80601f01602080910402602001604051908101604052809291908181526020018280546114a590615a07565b80156114f25780601f106114c7576101008083540402835291602001916114f2565b820191906000526020600020905b8154815290600101906020018083116114d557829003601f168201915b5050505050815260200160028201805461150b90615a07565b80601f016020809104026020016040519081016040528092919081815260200182805461153790615a07565b80156115845780601f1061155957610100808354040283529160200191611584565b820191906000526020600020905b81548152906001019060200180831161156757829003601f168201915b5050505050815260200160038201805461159d90615a07565b80601f01602080910402602001604051908101604052809291908181526020018280546115c990615a07565b80156116165780601f106115eb57610100808354040283529160200191611616565b820191906000526020600020905b8154815290600101906020018083116115f957829003601f168201915b5050505050815260200160048201805461162f90615a07565b80601f016020809104026020016040519081016040528092919081815260200182805461165b90615a07565b80156116a85780601f1061167d576101008083540402835291602001916116a8565b820191906000526020600020905b81548152906001019060200180831161168b57829003601f168201915b505050505081525050905085565b6116be61470c565b6007600d60020154815481106116e457634e487b7160e01b600052603260045260246000fd5b90600052602060002090600902016040518060a001604052908160008201805461170d90615a07565b80601f016020809104026020016040519081016040528092919081815260200182805461173990615a07565b80156117865780601f1061175b57610100808354040283529160200191611786565b820191906000526020600020905b81548152906001019060200180831161176957829003601f168201915b50505050508152602001600182015481526020016002820154815260200160038201548152602001600482016040518060a00160405290816000820180546117cd90615a07565b80601f01602080910402602001604051908101604052809291908181526020018280546117f990615a07565b80156118465780601f1061181b57610100808354040283529160200191611846565b820191906000526020600020905b81548152906001019060200180831161182957829003601f168201915b5050505050815260200160018201805461185f90615a07565b80601f016020809104026020016040519081016040528092919081815260200182805461188b90615a07565b80156118d85780601f106118ad576101008083540402835291602001916118d8565b820191906000526020600020905b8154815290600101906020018083116118bb57829003601f168201915b505050505081526020016002820180546118f190615a07565b80601f016020809104026020016040519081016040528092919081815260200182805461191d90615a07565b801561196a5780601f1061193f5761010080835404028352916020019161196a565b820191906000526020600020905b81548152906001019060200180831161194d57829003601f168201915b5050505050815260200160038201805461198390615a07565b80601f01602080910402602001604051908101604052809291908181526020018280546119af90615a07565b80156119fc5780601f106119d1576101008083540402835291602001916119fc565b820191906000526020600020905b8154815290600101906020018083116119df57829003601f168201915b50505050508152602001600482018054611a1590615a07565b80601f0160208091040260200160405190810160405280929190818152602001828054611a4190615a07565b8015611a8e5780601f10611a6357610100808354040283529160200191611a8e565b820191906000526020600020905b815481529060010190602001808311611a7157829003601f168201915b50505050508152505081525050905090565b6000818152600260205260408120546001600160a01b03168061058e5760405162461bcd60e51b81526004016105c390615597565b336000908152600b602052604090205490565b60105460ff1690565b60606007805480602002602001604051908101604052809291908181526020016000905b82821015611ee557838290600052602060002090600902016040518060a0016040529081600082018054611b4890615a07565b80601f0160208091040260200160405190810160405280929190818152602001828054611b7490615a07565b8015611bc15780601f10611b9657610100808354040283529160200191611bc1565b820191906000526020600020905b815481529060010190602001808311611ba457829003601f168201915b50505050508152602001600182015481526020016002820154815260200160038201548152602001600482016040518060a0016040529081600082018054611c0890615a07565b80601f0160208091040260200160405190810160405280929190818152602001828054611c3490615a07565b8015611c815780601f10611c5657610100808354040283529160200191611c81565b820191906000526020600020905b815481529060010190602001808311611c6457829003601f168201915b50505050508152602001600182018054611c9a90615a07565b80601f0160208091040260200160405190810160405280929190818152602001828054611cc690615a07565b8015611d135780601f10611ce857610100808354040283529160200191611d13565b820191906000526020600020905b815481529060010190602001808311611cf657829003601f168201915b50505050508152602001600282018054611d2c90615a07565b80601f0160208091040260200160405190810160405280929190818152602001828054611d5890615a07565b8015611da55780601f10611d7a57610100808354040283529160200191611da5565b820191906000526020600020905b815481529060010190602001808311611d8857829003601f168201915b50505050508152602001600382018054611dbe90615a07565b80601f0160208091040260200160405190810160405280929190818152602001828054611dea90615a07565b8015611e375780601f10611e0c57610100808354040283529160200191611e37565b820191906000526020600020905b815481529060010190602001808311611e1a57829003601f168201915b50505050508152602001600482018054611e5090615a07565b80601f0160208091040260200160405190810160405280929190818152602001828054611e7c90615a07565b8015611ec95780601f10611e9e57610100808354040283529160200191611ec9565b820191906000526020600020905b815481529060010190602001808311611eac57829003601f168201915b5050505050815250508152505081526020019060010190611b15565b50505050905090565b6060600d600101805480602002602001604051908101604052809291908181526020018280548015610d5c57602002820191906000526020600020905b815481526020019060010190808311611f2b575050505050905090565b60006001600160a01b038216611f705760405162461bcd60e51b81526004016105c39061553a565b506001600160a01b031660009081526003602052604090205490565b611f94613da6565b6001600160a01b0316611fa56126c3565b6001600160a01b031614611fcb5760405162461bcd60e51b81526004016105c3906156d2565b611fd56000614007565b565b611fdf613da6565b6001600160a01b0316611ff06126c3565b6001600160a01b0316146120165760405162461bcd60e51b81526004016105c3906156d2565b61201e6147c4565b858152602081018590526040810185905260608101849052608081018390528151829060009061205e57634e487b7160e01b600052603260045260246000fd5b60200260200101518160a00151600001819052508160018151811061209357634e487b7160e01b600052603260045260246000fd5b60200260200101518160a0015160200181905250816002815181106120c857634e487b7160e01b600052603260045260246000fd5b60200260200101518160a0015160400181905250816003815181106120fd57634e487b7160e01b600052603260045260246000fd5b60200260200101518160a00151606001819052508160048151811061213257634e487b7160e01b600052603260045260246000fd5b60209081029190910181015160a08301516080015260088054600181018255600091909152825180518493600a9093027ff3f7a9fe364faab93b216da50a3214154f22a0a2b415b23a84c8169e8b636ee30192612193928492910190614740565b50602082810151600183015560408301516002830155606083015160038301556080830151600483015560a083015180518051919260058501926121da9284920190614740565b5060208281015180516121f39260018501920190614740565b506040820151805161220f916002840191602090910190614740565b506060820151805161222b916003840191602090910190614740565b5060808201518051612247916004840191602090910190614740565b5050505050505050505050565b336000908152600a6020908152604091829020805483518184028101840190945280845260609392830182828015610d5c5760200282019190600052602060002090815481526020019060010190808311611f2b575050505050905090565b60606008805480602002602001604051908101604052809291908181526020016000905b82821015611ee557838290600052602060002090600a02016040518060c001604052908160008201805461230a90615a07565b80601f016020809104026020016040519081016040528092919081815260200182805461233690615a07565b80156123835780601f1061235857610100808354040283529160200191612383565b820191906000526020600020905b81548152906001019060200180831161236657829003601f168201915b5050505050815260200160018201548152602001600282015481526020016003820154815260200160048201548152602001600582016040518060a00160405290816000820180546123d490615a07565b80601f016020809104026020016040519081016040528092919081815260200182805461240090615a07565b801561244d5780601f106124225761010080835404028352916020019161244d565b820191906000526020600020905b81548152906001019060200180831161243057829003601f168201915b5050505050815260200160018201805461246690615a07565b80601f016020809104026020016040519081016040528092919081815260200182805461249290615a07565b80156124df5780601f106124b4576101008083540402835291602001916124df565b820191906000526020600020905b8154815290600101906020018083116124c257829003601f168201915b505050505081526020016002820180546124f890615a07565b80601f016020809104026020016040519081016040528092919081815260200182805461252490615a07565b80156125715780601f1061254657610100808354040283529160200191612571565b820191906000526020600020905b81548152906001019060200180831161255457829003601f168201915b5050505050815260200160038201805461258a90615a07565b80601f01602080910402602001604051908101604052809291908181526020018280546125b690615a07565b80156126035780601f106125d857610100808354040283529160200191612603565b820191906000526020600020905b8154815290600101906020018083116125e657829003601f168201915b5050505050815260200160048201805461261c90615a07565b80601f016020809104026020016040519081016040528092919081815260200182805461264890615a07565b80156126955780601f1061266a57610100808354040283529160200191612695565b820191906000526020600020905b81548152906001019060200180831161267857829003601f168201915b50505050508152505081525050815260200190600101906122d7565b600f5460105460115460ff9091169083565b6006546001600160a01b031690565b606060018054610ce390615a07565b336000908152600b60205260409020548061270e5760405162461bcd60e51b81526004016105c390615629565b6000818152600c602052604090206001015461273c5760405162461bcd60e51b81526004016105c390615764565b600160105460ff16600281111561276357634e487b7160e01b600052602160045260246000fd5b146127805760405162461bcd60e51b81526004016105c3906153c6565b336000908152600b6020908152604080832054808452600c909252808320815160c081019092528054929392829082906127b990615a07565b80601f01602080910402602001604051908101604052809291908181526020018280546127e590615a07565b80156128325780601f1061280757610100808354040283529160200191612832565b820191906000526020600020905b81548152906001019060200180831161281557829003601f168201915b5050505050815260200160018201548152602001600282015481526020016003820154815260200160048201548152602001600582016040518060a001604052908160008201805461288390615a07565b80601f01602080910402602001604051908101604052809291908181526020018280546128af90615a07565b80156128fc5780601f106128d1576101008083540402835291602001916128fc565b820191906000526020600020905b8154815290600101906020018083116128df57829003601f168201915b5050505050815260200160018201805461291590615a07565b80601f016020809104026020016040519081016040528092919081815260200182805461294190615a07565b801561298e5780601f106129635761010080835404028352916020019161298e565b820191906000526020600020905b81548152906001019060200180831161297157829003601f168201915b505050505081526020016002820180546129a790615a07565b80601f01602080910402602001604051908101604052809291908181526020018280546129d390615a07565b8015612a205780601f106129f557610100808354040283529160200191612a20565b820191906000526020600020905b815481529060010190602001808311612a0357829003601f168201915b50505050508152602001600382018054612a3990615a07565b80601f0160208091040260200160405190810160405280929190818152602001828054612a6590615a07565b8015612ab25780601f10612a8757610100808354040283529160200191612ab2565b820191906000526020600020905b815481529060010190602001808311612a9557829003601f168201915b50505050508152602001600482018054612acb90615a07565b80601f0160208091040260200160405190810160405280929190818152602001828054612af790615a07565b8015612b445780601f10612b1957610100808354040283529160200191612b44565b820191906000526020600020905b815481529060010190602001808311612b2757829003601f168201915b5050505050815250508152505090506000612b5d6116b6565b9050816060015181602001511015612bb1576000602082018190526010805460ff191660021790556040517f269d9f015d2199a6ad46cb528cb72c6abb82051b8f9600c6c248f70bdb2280079190a1612c5d565b816060015181602001818151612bc791906159c4565b90525060208101516040517f9210d575f4de024306f860b201c73427d7a6b3e78d196ceb78b759e604748b0e91612bfd9161590f565b60405180910390a1806060015182602001818151612c1b91906159c4565b90525060208201516040517fbd6b16c457760fecc6c1d7b918e9d93314a50c6cb969949a655c76a1475e80b491612c549186919061593a565b60405180910390a15b50505050565b336000908152600b6020908152604080832054808452600c90925290912060010154612ca15760405162461bcd60e51b81526004016105c390615707565b336000908152600d602052604090205415612cce5760405162461bcd60e51b81526004016105c3906158b2565b600060105460ff166002811115612cf557634e487b7160e01b600052602160045260246000fd5b1415612d7557600f546000612d0b826001615979565b600754909150612d1d906001906159c4565b811115612d28575060005b600f8190556010805460ff191660011790556040517fbe09ad21ad3fc23ae505a4badead1958018bfcb0f57d0785de620f4bb265025f90612d6a90849061590f565b60405180910390a150505b600e8054600181019091557fbb7b4a454dc3493923482f07822329ed19e8244eff582cc204f8554c3620c3fd01819055336000908152600d602052604090819020829055517f2e432824193b39d9199593c5ad19c9019ba8b695dd248e8edbe4292c303efaaa90612de790839061590f565b60405180910390a150565b612e04612dfd613da6565b8383614066565b5050565b336000908152600a6020526040902054151590565b612e2e612e28613da6565b83613e42565b612e4a5760405162461bcd60e51b81526004016105c390615855565b612c5d84848484614109565b600b6020526000908152604090205481565b60606000600c60008481526020019081526020016000206040518060c0016040529081600082018054612e9a90615a07565b80601f0160208091040260200160405190810160405280929190818152602001828054612ec690615a07565b8015612f135780601f10612ee857610100808354040283529160200191612f13565b820191906000526020600020905b815481529060010190602001808311612ef657829003601f168201915b5050505050815260200160018201548152602001600282015481526020016003820154815260200160048201548152602001600582016040518060a0016040529081600082018054612f6490615a07565b80601f0160208091040260200160405190810160405280929190818152602001828054612f9090615a07565b8015612fdd5780601f10612fb257610100808354040283529160200191612fdd565b820191906000526020600020905b815481529060010190602001808311612fc057829003601f168201915b50505050508152602001600182018054612ff690615a07565b80601f016020809104026020016040519081016040528092919081815260200182805461302290615a07565b801561306f5780601f106130445761010080835404028352916020019161306f565b820191906000526020600020905b81548152906001019060200180831161305257829003601f168201915b5050505050815260200160028201805461308890615a07565b80601f01602080910402602001604051908101604052809291908181526020018280546130b490615a07565b80156131015780601f106130d657610100808354040283529160200191613101565b820191906000526020600020905b8154815290600101906020018083116130e457829003601f168201915b5050505050815260200160038201805461311a90615a07565b80601f016020809104026020016040519081016040528092919081815260200182805461314690615a07565b80156131935780601f1061316857610100808354040283529160200191613193565b820191906000526020600020905b81548152906001019060200180831161317657829003601f168201915b505050505081526020016004820180546131ac90615a07565b80601f01602080910402602001604051908101604052809291908181526020018280546131d890615a07565b80156132255780601f106131fa57610100808354040283529160200191613225565b820191906000526020600020905b81548152906001019060200180831161320857829003601f168201915b5050505050815250508152505090506000613243826020015161413c565b9050600061325160c861413c565b90506000613262846060015161413c565b905060006132a985600001516132778961413c565b60a08801515160405161329593929190899089908990602001614e60565b60405160208183030381529060405261428b565b90506000816040516020016132be9190614fd4565b60408051808303601f1901815291905298975050505050505050565b600c602052600090815260409020805481906132f590615a07565b80601f016020809104026020016040519081016040528092919081815260200182805461332190615a07565b801561336e5780601f106133435761010080835404028352916020019161336e565b820191906000526020600020905b81548152906001019060200180831161335157829003601f168201915b505050505090806001015490806002015490806003015490806004015490806005016040518060a00160405290816000820180546133ab90615a07565b80601f01602080910402602001604051908101604052809291908181526020018280546133d790615a07565b80156134245780601f106133f957610100808354040283529160200191613424565b820191906000526020600020905b81548152906001019060200180831161340757829003601f168201915b5050505050815260200160018201805461343d90615a07565b80601f016020809104026020016040519081016040528092919081815260200182805461346990615a07565b80156134b65780601f1061348b576101008083540402835291602001916134b6565b820191906000526020600020905b81548152906001019060200180831161349957829003601f168201915b505050505081526020016002820180546134cf90615a07565b80601f01602080910402602001604051908101604052809291908181526020018280546134fb90615a07565b80156135485780601f1061351d57610100808354040283529160200191613548565b820191906000526020600020905b81548152906001019060200180831161352b57829003601f168201915b5050505050815260200160038201805461356190615a07565b80601f016020809104026020016040519081016040528092919081815260200182805461358d90615a07565b80156135da5780601f106135af576101008083540402835291602001916135da565b820191906000526020600020905b8154815290600101906020018083116135bd57829003601f168201915b505050505081526020016004820180546135f390615a07565b80601f016020809104026020016040519081016040528092919081815260200182805461361f90615a07565b801561366c5780601f106136415761010080835404028352916020019161366c565b820191906000526020600020905b81548152906001019060200180831161364f57829003601f168201915b505050505081525050905086565b6001600160a01b0380831660009081526005602090815260408083209385168352929052205460ff165b92915050565b6136b2613da6565b6001600160a01b03166136c36126c3565b6001600160a01b0316146136e95760405162461bcd60e51b81526004016105c3906156d2565b6001600160a01b03811661370f5760405162461bcd60e51b81526004016105c3906152d5565b61371881614007565b50565b600061372760096143ee565b905061374c604051806060016040528060398152602001615b0a6039913983836143f2565b6137563382614467565b336000908152600a6020908152604080832080546001810182559084529190922001829055805160c0810190915260088054829190859081106137a957634e487b7160e01b600052603260045260246000fd5b90600052602060002090600a020160000180546137c590615a07565b80601f01602080910402602001604051908101604052809291908181526020018280546137f190615a07565b801561383e5780601f106138135761010080835404028352916020019161383e565b820191906000526020600020905b81548152906001019060200180831161382157829003601f168201915b505050505081526020016008848154811061386957634e487b7160e01b600052603260045260246000fd5b90600052602060002090600a0201600101548152602001600884815481106138a157634e487b7160e01b600052603260045260246000fd5b90600052602060002090600a0201600201548152602001600884815481106138d957634e487b7160e01b600052603260045260246000fd5b90600052602060002090600a02016003015481526020016008848154811061391157634e487b7160e01b600052603260045260246000fd5b90600052602060002090600a02016004015481526020016008848154811061394957634e487b7160e01b600052603260045260246000fd5b90600052602060002090600a02016005016040518060a001604052908160008201805461397590615a07565b80601f01602080910402602001604051908101604052809291908181526020018280546139a190615a07565b80156139ee5780601f106139c3576101008083540402835291602001916139ee565b820191906000526020600020905b8154815290600101906020018083116139d157829003601f168201915b50505050508152602001600182018054613a0790615a07565b80601f0160208091040260200160405190810160405280929190818152602001828054613a3390615a07565b8015613a805780601f10613a5557610100808354040283529160200191613a80565b820191906000526020600020905b815481529060010190602001808311613a6357829003601f168201915b50505050508152602001600282018054613a9990615a07565b80601f0160208091040260200160405190810160405280929190818152602001828054613ac590615a07565b8015613b125780601f10613ae757610100808354040283529160200191613b12565b820191906000526020600020905b815481529060010190602001808311613af557829003601f168201915b50505050508152602001600382018054613b2b90615a07565b80601f0160208091040260200160405190810160405280929190818152602001828054613b5790615a07565b8015613ba45780601f10613b7957610100808354040283529160200191613ba4565b820191906000526020600020905b815481529060010190602001808311613b8757829003601f168201915b50505050508152602001600482018054613bbd90615a07565b80601f0160208091040260200160405190810160405280929190818152602001828054613be990615a07565b8015613c365780601f10613c0b57610100808354040283529160200191613c36565b820191906000526020600020905b815481529060010190602001808311613c1957829003601f168201915b5050509190925250505090526000828152600c60209081526040909120825180519192613c6892849290910190614740565b50602082810151600183015560408301516002830155606083015160038301556080830151600483015560a08301518051805191926005850192613caf9284920190614740565b506020828101518051613cc89260018501920190614740565b5060408201518051613ce4916002840191602090910190614740565b5060608201518051613d00916003840191602090910190614740565b5060808201518051613d1c916004840191602090910190614740565b505050905050613d2c6009613d6b565b7fd9d05697e27265a7dde2215564d09b5fef132a05c9693b089ef90388285596ce338284604051613d5f93929190615082565b60405180910390a15050565b80546001019055565b6001600160e01b031981167f01ffc9a70000000000000000000000000000000000000000000000000000000014919050565b3390565b6000908152600260205260409020546001600160a01b0316151590565b6000818152600460205260409020805473ffffffffffffffffffffffffffffffffffffffff19166001600160a01b0384169081179091558190613e0982611aa0565b6001600160a01b03167f8c5be1e5ebec7d5bd14f71427d1e84f3dd0314c0f7b2291e5b200ac8c7c3b92560405160405180910390a45050565b6000613e4d82613daa565b613e695760405162461bcd60e51b81526004016105c390615491565b6000613e7483611aa0565b9050806001600160a01b0316846001600160a01b03161480613eaf5750836001600160a01b0316613ea484610d66565b6001600160a01b0316145b80613ebf5750613ebf818561367a565b949350505050565b826001600160a01b0316613eda82611aa0565b6001600160a01b031614613f005760405162461bcd60e51b81526004016105c390615332565b6001600160a01b038216613f265760405162461bcd60e51b81526004016105c3906153fd565b613f31838383610e3c565b613f3c600082613dc7565b6001600160a01b0383166000908152600360205260408120805460019290613f659084906159c4565b90915550506001600160a01b0382166000908152600360205260408120805460019290613f93908490615979565b9091555050600081815260026020526040808220805473ffffffffffffffffffffffffffffffffffffffff19166001600160a01b0386811691821790925591518493918716917fddf252ad1be2c89b69c2b068fc378daa952ba7f163c4a11628f55a4df523b3ef91a4610e3c838383610e3c565b600680546001600160a01b0383811673ffffffffffffffffffffffffffffffffffffffff19831681179093556040519116919082907f8be0079c531659141344cd1fd0a4f28419497f9722a3daafe3b4186f6b6457e090600090a35050565b816001600160a01b0316836001600160a01b031614156140985760405162461bcd60e51b81526004016105c39061545a565b6001600160a01b0383811660008181526005602090815260408083209487168084529490915290819020805460ff1916851515179055517f17307eab39ab6107e8899845ad3d59bd9653f200f220920489ca2b5937696c31906140fc90859061519a565b60405180910390a3505050565b614114848484613ec7565b61412084848484614481565b612c5d5760405162461bcd60e51b81526004016105c390615278565b60608161417d575060408051808201909152600181527f30000000000000000000000000000000000000000000000000000000000000006020820152610591565b8160005b81156141a7578061419181615a42565b91506141a09050600a83615991565b9150614181565b60008167ffffffffffffffff8111156141d057634e487b7160e01b600052604160045260246000fd5b6040519080825280601f01601f1916602001820160405280156141fa576020820181803683370190505b5090505b8415613ebf5761420f6001836159c4565b915061421c600a86615a5d565b614227906030615979565b60f81b81838151811061424a57634e487b7160e01b600052603260045260246000fd5b60200101907effffffffffffffffffffffffffffffffffffffffffffffffffffffffffffff1916908160001a905350614284600a86615991565b94506141fe565b60608151600014156142ac5750604080516020810190915260008152610591565b6000604051806060016040528060408152602001615aca60409139905060006003845160026142db9190615979565b6142e59190615991565b6142f09060046159a5565b67ffffffffffffffff81111561431657634e487b7160e01b600052604160045260246000fd5b6040519080825280601f01601f191660200182016040528015614340576020820181803683370190505b509050600182016020820185865187015b808210156143ac576003820191508151603f8160121c168501518453600184019350603f81600c1c168501518453600184019350603f8160061c168501518453600184019350603f8116850151845350600183019250614351565b50506003865106600181146143c857600281146143db576143e3565b603d6001830353603d60028303536143e3565b603d60018303535b509195945050505050565b5490565b610e3c83838360405160240161440a939291906151c6565b60408051601f198184030181529190526020810180517bffffffffffffffffffffffffffffffffffffffffffffffffffffffff167f969cdd03000000000000000000000000000000000000000000000000000000001790526145b5565b612e048282604051806020016040528060008152506145d6565b6000614495846001600160a01b0316614609565b156145aa57836001600160a01b031663150b7a026144b1613da6565b8786866040518563ffffffff1660e01b81526004016144d3949392919061502d565b602060405180830381600087803b1580156144ed57600080fd5b505af192505050801561451d575060408051601f3d908101601f1916820190925261451a91810190614ac9565b60015b614577573d80801561454b576040519150601f19603f3d011682016040523d82523d6000602084013e614550565b606091505b50805161456f5760405162461bcd60e51b81526004016105c390615278565b805181602001fd5b6001600160e01b0319167f150b7a0200000000000000000000000000000000000000000000000000000000149050613ebf565b506001949350505050565b80516a636f6e736f6c652e6c6f67602083016000808483855afa5050505050565b6145e08383614618565b6145ed6000848484614481565b610e3c5760405162461bcd60e51b81526004016105c390615278565b6001600160a01b03163b151590565b6001600160a01b03821661463e5760405162461bcd60e51b81526004016105c3906155f4565b61464781613daa565b156146645760405162461bcd60e51b81526004016105c39061538f565b61467060008383610e3c565b6001600160a01b0382166000908152600360205260408120805460019290614699908490615979565b9091555050600081815260026020526040808220805473ffffffffffffffffffffffffffffffffffffffff19166001600160a01b03861690811790915590518392907fddf252ad1be2c89b69c2b068fc378daa952ba7f163c4a11628f55a4df523b3ef908290a4612e0460008383610e3c565b6040518060a001604052806060815260200160008152602001600081526020016000815260200161473b6147f6565b905290565b82805461474c90615a07565b90600052602060002090601f01602090048101928261476e57600085556147b4565b82601f1061478757805160ff19168380011785556147b4565b828001600101855582156147b4579182015b828111156147b4578251825591602001919060010190614799565b506147c0929150614825565b5090565b6040518060c00160405280606081526020016000815260200160008152602001600081526020016000815260200161473b5b6040518060a0016040528060608152602001606081526020016060815260200160608152602001606081525090565b5b808211156147c05760008155600101614826565b600067ffffffffffffffff83111561485457614854615a9d565b614867601f8401601f1916602001615948565b905082815283838301111561487b57600080fd5b828260208301376000602084830101529392505050565b80356001600160a01b038116811461059157600080fd5b600082601f8301126148b9578081fd5b8135602067ffffffffffffffff8211156148d5576148d5615a9d565b6148e28182840201615948565b82815281810190858301855b8581101561491757614905898684358b0101614924565b845292840192908401906001016148ee565b5090979650505050505050565b600082601f830112614934578081fd5b6149438383356020850161483a565b9392505050565b60006020828403121561495b578081fd5b61494382614892565b60008060408385031215614976578081fd5b61497f83614892565b915061498d60208401614892565b90509250929050565b6000806000606084860312156149aa578081fd5b6149b384614892565b92506149c160208501614892565b9150604084013590509250925092565b600080600080608085870312156149e6578081fd5b6149ef85614892565b93506149fd60208601614892565b925060408501359150606085013567ffffffffffffffff811115614a1f578182fd5b8501601f81018713614a2f578182fd5b614a3e8782356020840161483a565b91505092959194509250565b60008060408385031215614a5c578182fd5b614a6583614892565b915060208301358015158114614a79578182fd5b809150509250929050565b60008060408385031215614a96578182fd5b614a9f83614892565b946020939093013593505050565b600060208284031215614abe578081fd5b813561494381615ab3565b600060208284031215614ada578081fd5b815161494381615ab3565b60008060008060808587031215614afa578384fd5b843567ffffffffffffffff80821115614b11578586fd5b614b1d88838901614924565b955060208701359450604087013593506060870135915080821115614b40578283fd5b50614a3e878288016148a9565b600080600080600060a08688031215614b64578081fd5b853567ffffffffffffffff80821115614b7b578283fd5b614b8789838a01614924565b96506020880135955060408801359450606088013593506080880135915080821115614bb1578283fd5b50614bbe888289016148a9565b9150509295509295909350565b600060208284031215614bdc578081fd5b5035919050565b60008151808452614bfb8160208601602086016159db565b601f01601f19169290920160200192915050565b60038110614c2d57634e487b7160e01b600052602160045260246000fd5b9052565b60008151614c438185602086016159db565b9290920192915050565b7f2c20226d61785f76616c7565223a0000000000000000000000000000000000008152600e0190565b7f7d205d7d00000000000000000000000000000000000000000000000000000000815260040190565b7f222c202261747472696275746573223a205b207b202274726169745f7479706581527f223a20224865616c746820506f696e7473222c202276616c7565223a200000006020820152603d0190565b7f7d2c207b202274726169745f74797065223a202241747461636b2044616d616781527f65222c202276616c7565223a20000000000000000000000000000000000000006020820152602d0190565b6000815160a08452614d5260a0850182614be3565b905060208301516020850152604083015160408501526060830151606085015260808301518482036080860152614d898282614de4565b95945050505050565b6000815160c08452614da760c0850182614be3565b90506020830151602085015260408301516040850152606083015160608501526080830151608085015260a083015184820360a0860152614d8982825b6000815160a08452614df960a0850182614be3565b905060208301518482036020860152614e128282614be3565b91505060408301518482036040860152614e2c8282614be3565b91505060608301518482036060860152614e468282614be3565b91505060808301518482036080860152614d898282614be3565b60007f7b226e616d65223a20220000000000000000000000000000000000000000000082528751614e9881600a850160208c016159db565b7f202d2d204e465420233a20000000000000000000000000000000000000000000600a918401918201528751614ed5816015840160208c016159db565b7f222c20226465736372697074696f6e223a20225468697320697320616e204e46601592909101918201527f542074686174206c6574732070656f706c6520706c617920696e20746865206760358201527f616d65204d657461766572736520536c6179657221222c2022696d616765223a60558201527f202200000000000000000000000000000000000000000000000000000000000060758201528651614f85816077840160208b016159db565b614fc6614fc1614fbb614fb6614fb0614fab614fa56077888a0101614c9f565b8d614c31565b614c4d565b8a614c31565b614cee565b87614c31565b614c76565b9a9950505050505050505050565b60007f646174613a6170706c69636174696f6e2f6a736f6e3b6261736536342c0000008252825161500c81601d8501602087016159db565b91909101601d0192915050565b6001600160a01b0391909116815260200190565b60006001600160a01b0380871683528086166020840152508360408301526080606083015261505f6080830184614be3565b9695505050505050565b6001600160a01b03929092168252602082015260400190565b6001600160a01b039390931683526020830191909152604082015260600190565b6000602080830181845280855180835260408601915060408482028701019250838701855b828110156150f657603f198886030184526150e4858351614d3d565b945092850192908501906001016150c8565b5092979650505050505050565b6000602080830181845280855180835260408601915060408482028701019250838701855b828110156150f657603f19888603018452615144858351614d92565b94509285019290850190600101615128565b6020808252825182820181905260009190848201906040850190845b8181101561518e57835183529284019291840191600101615172565b50909695505050505050565b901515815260200190565b602081016136a48284614c0f565b6000602082526149436020830184614be3565b6000606082526151d96060830186614be3565b60208301949094525060400152919050565b600060a082526151fe60a0830188614be3565b86602084015285604084015284606084015282810360808401526152228185614de4565b98975050505050505050565b600060c0825261524160c0830189614be3565b87602084015286604084015285606084015284608084015282810360a084015261526b8185614de4565b9998505050505050505050565b60208082526032908201527f4552433732313a207472616e7366657220746f206e6f6e20455243373231526560408201527f63656976657220696d706c656d656e7465720000000000000000000000000000606082015260800190565b60208082526026908201527f4f776e61626c653a206e6577206f776e657220697320746865207a65726f206160408201527f6464726573730000000000000000000000000000000000000000000000000000606082015260800190565b60208082526025908201527f4552433732313a207472616e736665722066726f6d20696e636f72726563742060408201527f6f776e6572000000000000000000000000000000000000000000000000000000606082015260800190565b6020808252601c908201527f4552433732313a20746f6b656e20616c7265616479206d696e74656400000000604082015260600190565b60208082526019908201527f4172656e6120686173206e6f7420737461727465642079657400000000000000604082015260600190565b60208082526024908201527f4552433732313a207472616e7366657220746f20746865207a65726f2061646460408201527f7265737300000000000000000000000000000000000000000000000000000000606082015260800190565b60208082526019908201527f4552433732313a20617070726f766520746f2063616c6c657200000000000000604082015260600190565b6020808252602c908201527f4552433732313a206f70657261746f7220717565727920666f72206e6f6e657860408201526b34b9ba32b73a103a37b5b2b760a11b606082015260800190565b60208082526038908201527f4552433732313a20617070726f76652063616c6c6572206973206e6f74206f7760408201527f6e6572206e6f7220617070726f76656420666f7220616c6c0000000000000000606082015260800190565b6020808252602a908201527f4552433732313a2062616c616e636520717565727920666f7220746865207a6560408201527f726f206164647265737300000000000000000000000000000000000000000000606082015260800190565b60208082526029908201527f4552433732313a206f776e657220717565727920666f72206e6f6e657869737460408201527f656e7420746f6b656e0000000000000000000000000000000000000000000000606082015260800190565b6020808252818101527f4552433732313a206d696e7420746f20746865207a65726f2061646472657373604082015260600190565b60208082526024908201527f5573657220686173206e6f742061206368616d70696f6e20696e20746865206160408201527f72656e6100000000000000000000000000000000000000000000000000000000606082015260800190565b6020808252602c908201527f4552433732313a20617070726f76656420717565727920666f72206e6f6e657860408201526b34b9ba32b73a103a37b5b2b760a11b606082015260800190565b6020808252818101527f4f776e61626c653a2063616c6c6572206973206e6f7420746865206f776e6572604082015260600190565b60208082526025908201527f4368616d70696f6e20697320646561642c2063616e6e6f742061646420746f2060408201527f6172656e61000000000000000000000000000000000000000000000000000000606082015260800190565b6020808252601f908201527f4368616d70696f6e20697320646561642c2063616e6e6f742061747461636b00604082015260600190565b6020808252602d908201527f55736572206d7573742068617665206120726f7374657220746f2073656c656360408201527f742061206368616d70696f6e2e00000000000000000000000000000000000000606082015260800190565b60208082526021908201527f4552433732313a20617070726f76616c20746f2063757272656e74206f776e6560408201527f7200000000000000000000000000000000000000000000000000000000000000606082015260800190565b60208082526031908201527f4552433732313a207472616e736665722063616c6c6572206973206e6f74206f60408201527f776e6572206e6f7220617070726f766564000000000000000000000000000000606082015260800190565b60208082526019908201527f4368616d70696f6e20616c726561647920696e206172656e6100000000000000604082015260600190565b6000602082526149436020830184614d3d565b6000602082526149436020830184614d92565b90815260200190565b8381526060810161592c6020830185614c0f565b826040830152949350505050565b918252602082015260400190565b604051601f8201601f1916810167ffffffffffffffff8111828210171561597157615971615a9d565b604052919050565b6000821982111561598c5761598c615a71565b500190565b6000826159a0576159a0615a87565b500490565b60008160001904831182151516156159bf576159bf615a71565b500290565b6000828210156159d6576159d6615a71565b500390565b60005b838110156159f65781810151838201526020016159de565b83811115612c5d5750506000910152565b600281046001821680615a1b57607f821691505b60208210811415615a3c57634e487b7160e01b600052602260045260246000fd5b50919050565b6000600019821415615a5657615a56615a71565b5060010190565b600082615a6c57615a6c615a87565b500690565b634e487b7160e01b600052601160045260246000fd5b634e487b7160e01b600052601260045260246000fd5b634e487b7160e01b600052604160045260246000fd5b6001600160e01b03198116811461371857600080fdfe4142434445464748494a4b4c4d4e4f505152535455565758595a6162636465666768696a6b6c6d6e6f707172737475767778797a303132333435363738392b2f5265676973746572696e67206368616d70696f6e6964202573206f6e2074686520636f6e7472616374207769746820746f6b656e4944202564a2646970667358221220729b2fbce5125983556a621a6962c91fa86d6d7f8795b065370ca5f5188c269f64736f6c63430008010033",
  "linkReferences": {},
  "deployedLinkReferences": {}
}