{
  "_format": "hh-sol-artifact-1",
  "contractName": "MMOGame",
  "sourceName": "contracts/MMOGame.sol",
  "abi": [
    {
      "anonymous": false,
      "inputs": [
        {
          "indexed": true,
          "internalType": "address",
          "name": "owner",
          "type": "address"
        },
        {
          "indexed": true,
          "internalType": "address",
          "name": "approved",
          "type": "address"
        },
        {
          "indexed": true,
          "internalType": "uint256",
          "name": "tokenId",
          "type": "uint256"
        }
      ],
      "name": "Approval",
      "type": "event"
    },
    {
      "anonymous": false,
      "inputs": [
        {
          "indexed": true,
          "internalType": "address",
          "name": "owner",
          "type": "address"
        },
        {
          "indexed": true,
          "internalType": "address",
          "name": "operator",
          "type": "address"
        },
        {
          "indexed": false,
          "internalType": "bool",
          "name": "approved",
          "type": "bool"
        }
      ],
      "name": "ApprovalForAll",
      "type": "event"
    },
    {
      "anonymous": false,
      "inputs": [],
      "name": "ArenaFinished",
      "type": "event"
    },
    {
      "anonymous": false,
      "inputs": [
        {
          "indexed": false,
          "internalType": "uint256",
          "name": "tokenId",
          "type": "uint256"
        }
      ],
      "name": "ArenaNewChampion",
      "type": "event"
    },
    {
      "anonymous": false,
      "inputs": [
        {
          "indexed": false,
          "internalType": "uint256",
          "name": "bossIndex",
          "type": "uint256"
        }
      ],
      "name": "ArenaStarted",
      "type": "event"
    },
    {
      "anonymous": false,
      "inputs": [
        {
          "indexed": false,
          "internalType": "uint256",
          "name": "bossHealth",
          "type": "uint256"
        }
      ],
      "name": "AttackComplete",
      "type": "event"
    },
    {
      "anonymous": false,
      "inputs": [
        {
          "indexed": false,
          "internalType": "uint256",
          "name": "tokenId",
          "type": "uint256"
        },
        {
          "indexed": false,
          "internalType": "uint256",
          "name": "championHealth",
          "type": "uint256"
        }
      ],
      "name": "BossAttackComplete",
      "type": "event"
    },
    {
      "anonymous": false,
      "inputs": [
        {
          "indexed": false,
          "internalType": "address",
          "name": "userToNotify",
          "type": "address"
        },
        {
          "indexed": false,
          "internalType": "uint256",
          "name": "tokenId",
          "type": "uint256"
        },
        {
          "indexed": false,
          "internalType": "uint256",
          "name": "championIndex",
          "type": "uint256"
        }
      ],
      "name": "ChampionAddedToRoster",
      "type": "event"
    },
    {
      "anonymous": false,
      "inputs": [
        {
          "indexed": false,
          "internalType": "address",
          "name": "userToNotify",
          "type": "address"
        },
        {
          "indexed": false,
          "internalType": "uint256",
          "name": "tokenId",
          "type": "uint256"
        }
      ],
      "name": "ChampionSelected",
      "type": "event"
    },
    {
      "anonymous": false,
      "inputs": [
        {
          "indexed": false,
          "internalType": "uint256",
          "name": "championHealth",
          "type": "uint256"
        }
      ],
      "name": "HealComplete",
      "type": "event"
    },
    {
      "anonymous": false,
      "inputs": [
        {
          "indexed": true,
          "internalType": "address",
          "name": "previousOwner",
          "type": "address"
        },
        {
          "indexed": true,
          "internalType": "address",
          "name": "newOwner",
          "type": "address"
        }
      ],
      "name": "OwnershipTransferred",
      "type": "event"
    },
    {
      "anonymous": false,
      "inputs": [
        {
          "indexed": true,
          "internalType": "address",
          "name": "from",
          "type": "address"
        },
        {
          "indexed": true,
          "internalType": "address",
          "name": "to",
          "type": "address"
        },
        {
          "indexed": true,
          "internalType": "uint256",
          "name": "tokenId",
          "type": "uint256"
        }
      ],
      "name": "Transfer",
      "type": "event"
    },
    {
      "inputs": [],
      "name": "ActiveArena",
      "outputs": [
        {
          "internalType": "uint256",
          "name": "bossIndex",
          "type": "uint256"
        },
        {
          "internalType": "enum ArenaState",
          "name": "state",
          "type": "uint8"
        },
        {
          "internalType": "uint256",
          "name": "lastArenaFinishedOn",
          "type": "uint256"
        }
      ],
      "stateMutability": "view",
      "type": "function"
    },
    {
      "inputs": [
        {
          "internalType": "uint256",
          "name": "",
          "type": "uint256"
        }
      ],
      "name": "Bosses",
      "outputs": [
        {
          "internalType": "string",
          "name": "name",
          "type": "string"
        },
        {
          "internalType": "uint256",
          "name": "health",
          "type": "uint256"
        },
        {
          "internalType": "uint256",
          "name": "attackPower",
          "type": "uint256"
        },
        {
          "components": [
            {
              "internalType": "string",
              "name": "idle",
              "type": "string"
            },
            {
              "internalType": "string",
              "name": "attack",
              "type": "string"
            },
            {
              "internalType": "string",
              "name": "hurt",
              "type": "string"
            },
            {
              "internalType": "string",
              "name": "dying",
              "type": "string"
            },
            {
              "internalType": "string",
              "name": "dead",
              "type": "string"
            }
          ],
          "internalType": "struct GifStatus",
          "name": "gifUris",
          "type": "tuple"
        }
      ],
      "stateMutability": "view",
      "type": "function"
    },
    {
      "inputs": [
        {
          "internalType": "uint256",
          "name": "",
          "type": "uint256"
        }
      ],
      "name": "Champions",
      "outputs": [
        {
          "internalType": "string",
          "name": "name",
          "type": "string"
        },
        {
          "internalType": "uint256",
          "name": "health",
          "type": "uint256"
        },
        {
          "internalType": "uint256",
          "name": "attackPower",
          "type": "uint256"
        },
        {
          "internalType": "uint256",
          "name": "healPower",
          "type": "uint256"
        },
        {
          "components": [
            {
              "internalType": "string",
              "name": "idle",
              "type": "string"
            },
            {
              "internalType": "string",
              "name": "attack",
              "type": "string"
            },
            {
              "internalType": "string",
              "name": "hurt",
              "type": "string"
            },
            {
              "internalType": "string",
              "name": "dying",
              "type": "string"
            },
            {
              "internalType": "string",
              "name": "dead",
              "type": "string"
            }
          ],
          "internalType": "struct GifStatus",
          "name": "gifUris",
          "type": "tuple"
        }
      ],
      "stateMutability": "view",
      "type": "function"
    },
    {
      "inputs": [
        {
          "internalType": "uint256",
          "name": "",
          "type": "uint256"
        }
      ],
      "name": "NftHolderChampion",
      "outputs": [
        {
          "internalType": "string",
          "name": "name",
          "type": "string"
        },
        {
          "internalType": "uint256",
          "name": "health",
          "type": "uint256"
        },
        {
          "internalType": "uint256",
          "name": "attackPower",
          "type": "uint256"
        },
        {
          "internalType": "uint256",
          "name": "healPower",
          "type": "uint256"
        },
        {
          "components": [
            {
              "internalType": "string",
              "name": "idle",
              "type": "string"
            },
            {
              "internalType": "string",
              "name": "attack",
              "type": "string"
            },
            {
              "internalType": "string",
              "name": "hurt",
              "type": "string"
            },
            {
              "internalType": "string",
              "name": "dying",
              "type": "string"
            },
            {
              "internalType": "string",
              "name": "dead",
              "type": "string"
            }
          ],
          "internalType": "struct GifStatus",
          "name": "gifUris",
          "type": "tuple"
        }
      ],
      "stateMutability": "view",
      "type": "function"
    },
    {
      "inputs": [
        {
          "internalType": "address",
          "name": "",
          "type": "address"
        }
      ],
      "name": "SelectedChampion",
      "outputs": [
        {
          "internalType": "uint256",
          "name": "",
          "type": "uint256"
        }
      ],
      "stateMutability": "view",
      "type": "function"
    },
    {
      "inputs": [
        {
          "internalType": "string",
          "name": "name",
          "type": "string"
        },
        {
          "internalType": "uint256",
          "name": "health",
          "type": "uint256"
        },
        {
          "internalType": "uint256",
          "name": "attackPower",
          "type": "uint256"
        },
        {
          "internalType": "string[]",
          "name": "gifUris",
          "type": "string[]"
        }
      ],
      "name": "addBoss",
      "outputs": [],
      "stateMutability": "nonpayable",
      "type": "function"
    },
    {
      "inputs": [
        {
          "internalType": "string",
          "name": "name",
          "type": "string"
        },
        {
          "internalType": "uint256",
          "name": "health",
          "type": "uint256"
        },
        {
          "internalType": "uint256",
          "name": "attackPower",
          "type": "uint256"
        },
        {
          "internalType": "uint256",
          "name": "healPower",
          "type": "uint256"
        },
        {
          "internalType": "string[]",
          "name": "gifUris",
          "type": "string[]"
        }
      ],
      "name": "addChampion",
      "outputs": [],
      "stateMutability": "nonpayable",
      "type": "function"
    },
    {
      "inputs": [],
      "name": "addChampionToArena",
      "outputs": [],
      "stateMutability": "nonpayable",
      "type": "function"
    },
    {
      "inputs": [
        {
          "internalType": "uint256",
          "name": "_championIndex",
          "type": "uint256"
        }
      ],
      "name": "addChampionToRoster",
      "outputs": [],
      "stateMutability": "nonpayable",
      "type": "function"
    },
    {
      "inputs": [
        {
          "internalType": "address",
          "name": "to",
          "type": "address"
        },
        {
          "internalType": "uint256",
          "name": "tokenId",
          "type": "uint256"
        }
      ],
      "name": "approve",
      "outputs": [],
      "stateMutability": "nonpayable",
      "type": "function"
    },
    {
      "inputs": [],
      "name": "attack",
      "outputs": [],
      "stateMutability": "nonpayable",
      "type": "function"
    },
    {
      "inputs": [
        {
          "internalType": "address",
          "name": "owner",
          "type": "address"
        }
      ],
      "name": "balanceOf",
      "outputs": [
        {
          "internalType": "uint256",
          "name": "",
          "type": "uint256"
        }
      ],
      "stateMutability": "view",
      "type": "function"
    },
    {
      "inputs": [
        {
          "internalType": "uint256",
          "name": "tokenId",
          "type": "uint256"
        }
      ],
      "name": "getApproved",
      "outputs": [
        {
          "internalType": "address",
          "name": "",
          "type": "address"
        }
      ],
      "stateMutability": "view",
      "type": "function"
    },
    {
      "inputs": [],
      "name": "getArenaBoss",
      "outputs": [
        {
          "components": [
            {
              "internalType": "string",
              "name": "name",
              "type": "string"
            },
            {
              "internalType": "uint256",
              "name": "health",
              "type": "uint256"
            },
            {
              "internalType": "uint256",
              "name": "attackPower",
              "type": "uint256"
            },
            {
              "components": [
                {
                  "internalType": "string",
                  "name": "idle",
                  "type": "string"
                },
                {
                  "internalType": "string",
                  "name": "attack",
                  "type": "string"
                },
                {
                  "internalType": "string",
                  "name": "hurt",
                  "type": "string"
                },
                {
                  "internalType": "string",
                  "name": "dying",
                  "type": "string"
                },
                {
                  "internalType": "string",
                  "name": "dead",
                  "type": "string"
                }
              ],
              "internalType": "struct GifStatus",
              "name": "gifUris",
              "type": "tuple"
            }
          ],
          "internalType": "struct Boss",
          "name": "",
          "type": "tuple"
        }
      ],
      "stateMutability": "view",
      "type": "function"
    },
    {
      "inputs": [],
      "name": "getArenaChampionList",
      "outputs": [
        {
          "internalType": "uint256[]",
          "name": "",
          "type": "uint256[]"
        }
      ],
      "stateMutability": "view",
      "type": "function"
    },
    {
      "inputs": [],
      "name": "getBossList",
      "outputs": [
        {
          "components": [
            {
              "internalType": "string",
              "name": "name",
              "type": "string"
            },
            {
              "internalType": "uint256",
              "name": "health",
              "type": "uint256"
            },
            {
              "internalType": "uint256",
              "name": "attackPower",
              "type": "uint256"
            },
            {
              "components": [
                {
                  "internalType": "string",
                  "name": "idle",
                  "type": "string"
                },
                {
                  "internalType": "string",
                  "name": "attack",
                  "type": "string"
                },
                {
                  "internalType": "string",
                  "name": "hurt",
                  "type": "string"
                },
                {
                  "internalType": "string",
                  "name": "dying",
                  "type": "string"
                },
                {
                  "internalType": "string",
                  "name": "dead",
                  "type": "string"
                }
              ],
              "internalType": "struct GifStatus",
              "name": "gifUris",
              "type": "tuple"
            }
          ],
          "internalType": "struct Boss[]",
          "name": "",
          "type": "tuple[]"
        }
      ],
      "stateMutability": "view",
      "type": "function"
    },
    {
      "inputs": [],
      "name": "getChampionList",
      "outputs": [
        {
          "components": [
            {
              "internalType": "string",
              "name": "name",
              "type": "string"
            },
            {
              "internalType": "uint256",
              "name": "health",
              "type": "uint256"
            },
            {
              "internalType": "uint256",
              "name": "attackPower",
              "type": "uint256"
            },
            {
              "internalType": "uint256",
              "name": "healPower",
              "type": "uint256"
            },
            {
              "components": [
                {
                  "internalType": "string",
                  "name": "idle",
                  "type": "string"
                },
                {
                  "internalType": "string",
                  "name": "attack",
                  "type": "string"
                },
                {
                  "internalType": "string",
                  "name": "hurt",
                  "type": "string"
                },
                {
                  "internalType": "string",
                  "name": "dying",
                  "type": "string"
                },
                {
                  "internalType": "string",
                  "name": "dead",
                  "type": "string"
                }
              ],
              "internalType": "struct GifStatus",
              "name": "gifUris",
              "type": "tuple"
            }
          ],
          "internalType": "struct Champion[]",
          "name": "",
          "type": "tuple[]"
        }
      ],
      "stateMutability": "view",
      "type": "function"
    },
    {
      "inputs": [],
      "name": "getSelectedChampion",
      "outputs": [
        {
          "internalType": "uint256",
          "name": "",
          "type": "uint256"
        }
      ],
      "stateMutability": "view",
      "type": "function"
    },
    {
      "inputs": [],
      "name": "getUserRoster",
      "outputs": [
        {
          "internalType": "uint256[]",
          "name": "",
          "type": "uint256[]"
        }
      ],
      "stateMutability": "view",
      "type": "function"
    },
    {
      "inputs": [],
      "name": "heal",
      "outputs": [],
      "stateMutability": "nonpayable",
      "type": "function"
    },
    {
      "inputs": [
        {
          "internalType": "address",
          "name": "owner",
          "type": "address"
        },
        {
          "internalType": "address",
          "name": "operator",
          "type": "address"
        }
      ],
      "name": "isApprovedForAll",
      "outputs": [
        {
          "internalType": "bool",
          "name": "",
          "type": "bool"
        }
      ],
      "stateMutability": "view",
      "type": "function"
    },
    {
      "inputs": [],
      "name": "name",
      "outputs": [
        {
          "internalType": "string",
          "name": "",
          "type": "string"
        }
      ],
      "stateMutability": "view",
      "type": "function"
    },
    {
      "inputs": [],
      "name": "owner",
      "outputs": [
        {
          "internalType": "address",
          "name": "",
          "type": "address"
        }
      ],
      "stateMutability": "view",
      "type": "function"
    },
    {
      "inputs": [
        {
          "internalType": "uint256",
          "name": "tokenId",
          "type": "uint256"
        }
      ],
      "name": "ownerOf",
      "outputs": [
        {
          "internalType": "address",
          "name": "",
          "type": "address"
        }
      ],
      "stateMutability": "view",
      "type": "function"
    },
    {
      "inputs": [],
      "name": "renounceOwnership",
      "outputs": [],
      "stateMutability": "nonpayable",
      "type": "function"
    },
    {
      "inputs": [
        {
          "internalType": "address",
          "name": "from",
          "type": "address"
        },
        {
          "internalType": "address",
          "name": "to",
          "type": "address"
        },
        {
          "internalType": "uint256",
          "name": "tokenId",
          "type": "uint256"
        }
      ],
      "name": "safeTransferFrom",
      "outputs": [],
      "stateMutability": "nonpayable",
      "type": "function"
    },
    {
      "inputs": [
        {
          "internalType": "address",
          "name": "from",
          "type": "address"
        },
        {
          "internalType": "address",
          "name": "to",
          "type": "address"
        },
        {
          "internalType": "uint256",
          "name": "tokenId",
          "type": "uint256"
        },
        {
          "internalType": "bytes",
          "name": "_data",
          "type": "bytes"
        }
      ],
      "name": "safeTransferFrom",
      "outputs": [],
      "stateMutability": "nonpayable",
      "type": "function"
    },
    {
      "inputs": [
        {
          "internalType": "address",
          "name": "operator",
          "type": "address"
        },
        {
          "internalType": "bool",
          "name": "approved",
          "type": "bool"
        }
      ],
      "name": "setApprovalForAll",
      "outputs": [],
      "stateMutability": "nonpayable",
      "type": "function"
    },
    {
      "inputs": [
        {
          "internalType": "uint256",
          "name": "_rosterIndex",
          "type": "uint256"
        }
      ],
      "name": "setSelectChampion",
      "outputs": [],
      "stateMutability": "nonpayable",
      "type": "function"
    },
    {
      "inputs": [
        {
          "internalType": "bytes4",
          "name": "interfaceId",
          "type": "bytes4"
        }
      ],
      "name": "supportsInterface",
      "outputs": [
        {
          "internalType": "bool",
          "name": "",
          "type": "bool"
        }
      ],
      "stateMutability": "view",
      "type": "function"
    },
    {
      "inputs": [],
      "name": "symbol",
      "outputs": [
        {
          "internalType": "string",
          "name": "",
          "type": "string"
        }
      ],
      "stateMutability": "view",
      "type": "function"
    },
    {
      "inputs": [
        {
          "internalType": "uint256",
          "name": "_tokenId",
          "type": "uint256"
        }
      ],
      "name": "tokenURI",
      "outputs": [
        {
          "internalType": "string",
          "name": "",
          "type": "string"
        }
      ],
      "stateMutability": "view",
      "type": "function"
    },
    {
      "inputs": [
        {
          "internalType": "address",
          "name": "from",
          "type": "address"
        },
        {
          "internalType": "address",
          "name": "to",
          "type": "address"
        },
        {
          "internalType": "uint256",
          "name": "tokenId",
          "type": "uint256"
        }
      ],
      "name": "transferFrom",
      "outputs": [],
      "stateMutability": "nonpayable",
      "type": "function"
    },
    {
      "inputs": [
        {
          "internalType": "address",
          "name": "newOwner",
          "type": "address"
        }
      ],
      "name": "transferOwnership",
      "outputs": [],
      "stateMutability": "nonpayable",
      "type": "function"
    },
    {
      "inputs": [],
      "name": "userHasRoster",
      "outputs": [
        {
          "internalType": "bool",
          "name": "",
          "type": "bool"
        }
      ],
      "stateMutability": "view",
      "type": "function"
    }
  ],
  "bytecode": "0x60806040523480156200001157600080fd5b50604080518082018252601181527026a6a79037b710313637b1b5b1b430b4b760791b60208083019182528351808501909452600384526226a6a160e91b90840152815191929162000066916000916200011f565b5080516200007c9060019060208401906200011f565b5050506200009962000093620000c060201b60201c565b620000c4565b620000b060096200011660201b620034a01760201c565b6010805460ff1916905562000202565b3390565b600680546001600160a01b038381166001600160a01b0319831681179093556040519116919082907f8be0079c531659141344cd1fd0a4f28419497f9722a3daafe3b4186f6b6457e090600090a35050565b80546001019055565b8280546200012d90620001c5565b90600052602060002090601f0160209004810192826200015157600085556200019c565b82601f106200016c57805160ff19168380011785556200019c565b828001600101855582156200019c579182015b828111156200019c5782518255916020019190600101906200017f565b50620001aa929150620001ae565b5090565b5b80821115620001aa5760008155600101620001af565b600281046001821680620001da57607f821691505b60208210811415620001fc57634e487b7160e01b600052602260045260246000fd5b50919050565b6152d680620002126000396000f3fe608060405234801561001057600080fd5b50600436106102415760003560e01c80637a3486fd11610145578063a22cb465116100bd578063c87b56dd1161008c578063e985e9c511610071578063e985e9c5146104a4578063f2fde38b146104b7578063f866d86e146104ca57610241565b8063c87b56dd1461047e578063d6ff4a2e1461049157610241565b8063a22cb4651461043d578063b4010cd714610450578063b88d4fde14610458578063ba56957a1461046b57610241565b80638da5cb5b116101145780639c182d52116100f95780639c182d52146104095780639e5faafc1461042d578063a05b6f3c1461043557610241565b80638da5cb5b146103f957806395d89b411461040157610241565b80637a3486fd146103b25780637a70d6ce146103c557806384e859b3146103cd5780638ac4eeb3146103e257610241565b806342842e0e116101d85780636484db81116101a7578063709ccf701161018c578063709ccf701461038257806370a0823114610397578063715018a6146103aa57610241565b80636484db81146103585780636f5b9f4c1461036d57610241565b806342842e0e146102fa57806344a83b811461030d5780635b4ecf25146103305780636352211e1461034557610241565b8063081812fc11610214578063081812fc146102a1578063095ea7b3146102c157806323b872dd146102d45780632cce8985146102e757610241565b806301ffc9a7146102465780630434fe0b1461026f578063048925111461027957806306fdde031461028c575b600080fd5b610259610254366004614253565b6104dd565b6040516102669190614913565b60405180910390f35b610277610557565b005b61027761028736600461428b565b610a21565b610294610c7b565b604051610266919061491e565b6102b46102af366004614371565b610d0d565b6040516102669190614741565b6102776102cf36600461422a565b610d50565b6102776102e236600461413c565b610de8565b6102776102f5366004614371565b610e20565b61027761030836600461413c565b610ec2565b61032061031b366004614371565b610edd565b6040516102669493929190614956565b610338611289565b6040516102669190615046565b6102b4610353366004614371565b611669565b61036061169e565b6040516102669190615059565b6103756116b1565b60405161026691906147cb565b61038a611aa4565b60405161026691906148cf565b6103606103a53660046140f0565b611afe565b610277611b42565b6102776103c03660046142f3565b611b8d565b61038a611df8565b6103d5611e57565b604051610266919061482b565b6103ea61224b565b60405161026693929190615062565b6102b461225d565b61029461226c565b61041c610417366004614371565b61227b565b604051610266959493929190614992565b61027761262d565b610277612ba5565b61027761044b3660046141f0565b612d34565b610259612d4a565b610277610466366004614177565b612d5f565b6103606104793660046140f0565b612d98565b61029461048c366004614371565b612daa565b61041c61049f366004614371565b613212565b6102596104b236600461410a565b61322d565b6102776104c53660046140f0565b61325b565b6102776104d8366004614371565b6132cc565b60006001600160e01b031982167f80ac58cd00000000000000000000000000000000000000000000000000000000148061054057506001600160e01b031982167f5b5e139f00000000000000000000000000000000000000000000000000000000145b8061054f575061054f826134a9565b90505b919050565b336000908152600b60205260409020548061058d5760405162461bcd60e51b815260040161058490614d86565b60405180910390fd5b6000818152600c60205260409020600101546105bb5760405162461bcd60e51b815260040161058490614ec1565b600160105460ff1660028111156105e257634e487b7160e01b600052602160045260246000fd5b146105ff5760405162461bcd60e51b815260040161058490614b23565b336000908152600b6020908152604080832054808452600c909252808320815160a0810190925280549293928290829061063890615165565b80601f016020809104026020016040519081016040528092919081815260200182805461066490615165565b80156106b15780601f10610686576101008083540402835291602001916106b1565b820191906000526020600020905b81548152906001019060200180831161069457829003601f168201915b50505050508152602001600182015481526020016002820154815260200160038201548152602001600482016040518060a00160405290816000820180546106f890615165565b80601f016020809104026020016040519081016040528092919081815260200182805461072490615165565b80156107715780601f1061074657610100808354040283529160200191610771565b820191906000526020600020905b81548152906001019060200180831161075457829003601f168201915b5050505050815260200160018201805461078a90615165565b80601f01602080910402602001604051908101604052809291908181526020018280546107b690615165565b80156108035780601f106107d857610100808354040283529160200191610803565b820191906000526020600020905b8154815290600101906020018083116107e657829003601f168201915b5050505050815260200160028201805461081c90615165565b80601f016020809104026020016040519081016040528092919081815260200182805461084890615165565b80156108955780601f1061086a57610100808354040283529160200191610895565b820191906000526020600020905b81548152906001019060200180831161087857829003601f168201915b505050505081526020016003820180546108ae90615165565b80601f01602080910402602001604051908101604052809291908181526020018280546108da90615165565b80156109275780601f106108fc57610100808354040283529160200191610927565b820191906000526020600020905b81548152906001019060200180831161090a57829003601f168201915b5050505050815260200160048201805461094090615165565b80601f016020809104026020016040519081016040528092919081815260200182805461096c90615165565b80156109b95780601f1061098e576101008083540402835291602001916109b9565b820191906000526020600020905b81548152906001019060200180831161099c57829003601f168201915b5050505050815250508152505090508060600151816020018181516109de91906150d7565b90525060208101516040517f2be60dd22e04e67ada7a097b4345d62e9ba630d7a7a9b3c3341da2650204d25691610a1491615059565b60405180910390a1505050565b610a296134db565b6001600160a01b0316610a3a61225d565b6001600160a01b031614610a605760405162461bcd60e51b815260040161058490614e2f565b610a68613e41565b848152602081018490526040810183905281518290600090610a9a57634e487b7160e01b600052603260045260246000fd5b602002602001015181606001516000018190525081600181518110610acf57634e487b7160e01b600052603260045260246000fd5b602002602001015181606001516020018190525081600281518110610b0457634e487b7160e01b600052603260045260246000fd5b602002602001015181606001516040018190525081600381518110610b3957634e487b7160e01b600052603260045260246000fd5b602002602001015181606001516060018190525081600481518110610b6e57634e487b7160e01b600052603260045260246000fd5b6020908102919091018101516060830151608001526007805460018101825560009190915282518051849360089093027fa66cc928b5edb82af9bd49922954155ab7b0942694bea4ce44661d9a8736c6880192610bcf928492910190613e6e565b5060208281015160018301556040830151600283015560608301518051805191926003850192610c029284920190613e6e565b506020828101518051610c1b9260018501920190613e6e565b5060408201518051610c37916002840191602090910190613e6e565b5060608201518051610c53916003840191602090910190613e6e565b5060808201518051610c6f916004840191602090910190613e6e565b50505050505050505050565b606060008054610c8a90615165565b80601f0160208091040260200160405190810160405280929190818152602001828054610cb690615165565b8015610d035780601f10610cd857610100808354040283529160200191610d03565b820191906000526020600020905b815481529060010190602001808311610ce657829003601f168201915b5050505050905090565b6000610d18826134df565b610d345760405162461bcd60e51b815260040161058490614de3565b506000908152600460205260409020546001600160a01b031690565b6000610d5b82611669565b9050806001600160a01b0316836001600160a01b03161415610d8f5760405162461bcd60e51b815260040161058490614f55565b806001600160a01b0316610da16134db565b6001600160a01b03161480610dbd5750610dbd816104b26134db565b610dd95760405162461bcd60e51b815260040161058490614c3a565b610de383836134fc565b505050565b610df9610df36134db565b82613577565b610e155760405162461bcd60e51b815260040161058490614fb2565b610de38383836135fc565b6000610e2a611df8565b9050805160001415610e4e5760405162461bcd60e51b815260040161058490614ef8565b6000818381518110610e7057634e487b7160e01b600052603260045260246000fd5b602090810291909101810151336000818152600b90935260409283902082905591519092507f4ab331c7343bc62c19fcee84870baf1416412ec6d042360a819f31c0245d3bd491610a14918490614791565b610de383838360405180602001604052806000815250612d5f565b60078181548110610eed57600080fd5b9060005260206000209060080201600091509050806000018054610f1090615165565b80601f0160208091040260200160405190810160405280929190818152602001828054610f3c90615165565b8015610f895780601f10610f5e57610100808354040283529160200191610f89565b820191906000526020600020905b815481529060010190602001808311610f6c57829003601f168201915b505050505090806001015490806002015490806003016040518060a0016040529081600082018054610fba90615165565b80601f0160208091040260200160405190810160405280929190818152602001828054610fe690615165565b80156110335780601f1061100857610100808354040283529160200191611033565b820191906000526020600020905b81548152906001019060200180831161101657829003601f168201915b5050505050815260200160018201805461104c90615165565b80601f016020809104026020016040519081016040528092919081815260200182805461107890615165565b80156110c55780601f1061109a576101008083540402835291602001916110c5565b820191906000526020600020905b8154815290600101906020018083116110a857829003601f168201915b505050505081526020016002820180546110de90615165565b80601f016020809104026020016040519081016040528092919081815260200182805461110a90615165565b80156111575780601f1061112c57610100808354040283529160200191611157565b820191906000526020600020905b81548152906001019060200180831161113a57829003601f168201915b5050505050815260200160038201805461117090615165565b80601f016020809104026020016040519081016040528092919081815260200182805461119c90615165565b80156111e95780601f106111be576101008083540402835291602001916111e9565b820191906000526020600020905b8154815290600101906020018083116111cc57829003601f168201915b5050505050815260200160048201805461120290615165565b80601f016020809104026020016040519081016040528092919081815260200182805461122e90615165565b801561127b5780601f106112505761010080835404028352916020019161127b565b820191906000526020600020905b81548152906001019060200180831161125e57829003601f168201915b505050505081525050905084565b611291613e41565b6007600d60020154815481106112b757634e487b7160e01b600052603260045260246000fd5b90600052602060002090600802016040518060800160405290816000820180546112e090615165565b80601f016020809104026020016040519081016040528092919081815260200182805461130c90615165565b80156113595780601f1061132e57610100808354040283529160200191611359565b820191906000526020600020905b81548152906001019060200180831161133c57829003601f168201915b505050505081526020016001820154815260200160028201548152602001600382016040518060a001604052908160008201805461139690615165565b80601f01602080910402602001604051908101604052809291908181526020018280546113c290615165565b801561140f5780601f106113e45761010080835404028352916020019161140f565b820191906000526020600020905b8154815290600101906020018083116113f257829003601f168201915b5050505050815260200160018201805461142890615165565b80601f016020809104026020016040519081016040528092919081815260200182805461145490615165565b80156114a15780601f10611476576101008083540402835291602001916114a1565b820191906000526020600020905b81548152906001019060200180831161148457829003601f168201915b505050505081526020016002820180546114ba90615165565b80601f01602080910402602001604051908101604052809291908181526020018280546114e690615165565b80156115335780601f1061150857610100808354040283529160200191611533565b820191906000526020600020905b81548152906001019060200180831161151657829003601f168201915b5050505050815260200160038201805461154c90615165565b80601f016020809104026020016040519081016040528092919081815260200182805461157890615165565b80156115c55780601f1061159a576101008083540402835291602001916115c5565b820191906000526020600020905b8154815290600101906020018083116115a857829003601f168201915b505050505081526020016004820180546115de90615165565b80601f016020809104026020016040519081016040528092919081815260200182805461160a90615165565b80156116575780601f1061162c57610100808354040283529160200191611657565b820191906000526020600020905b81548152906001019060200180831161163a57829003601f168201915b50505050508152505081525050905090565b6000818152600260205260408120546001600160a01b03168061054f5760405162461bcd60e51b815260040161058490614cf4565b336000908152600b602052604090205490565b60606007805480602002602001604051908101604052809291908181526020016000905b82821015611a9b578382906000526020600020906008020160405180608001604052908160008201805461170890615165565b80601f016020809104026020016040519081016040528092919081815260200182805461173490615165565b80156117815780601f1061175657610100808354040283529160200191611781565b820191906000526020600020905b81548152906001019060200180831161176457829003601f168201915b505050505081526020016001820154815260200160028201548152602001600382016040518060a00160405290816000820180546117be90615165565b80601f01602080910402602001604051908101604052809291908181526020018280546117ea90615165565b80156118375780601f1061180c57610100808354040283529160200191611837565b820191906000526020600020905b81548152906001019060200180831161181a57829003601f168201915b5050505050815260200160018201805461185090615165565b80601f016020809104026020016040519081016040528092919081815260200182805461187c90615165565b80156118c95780601f1061189e576101008083540402835291602001916118c9565b820191906000526020600020905b8154815290600101906020018083116118ac57829003601f168201915b505050505081526020016002820180546118e290615165565b80601f016020809104026020016040519081016040528092919081815260200182805461190e90615165565b801561195b5780601f106119305761010080835404028352916020019161195b565b820191906000526020600020905b81548152906001019060200180831161193e57829003601f168201915b5050505050815260200160038201805461197490615165565b80601f01602080910402602001604051908101604052809291908181526020018280546119a090615165565b80156119ed5780601f106119c2576101008083540402835291602001916119ed565b820191906000526020600020905b8154815290600101906020018083116119d057829003601f168201915b50505050508152602001600482018054611a0690615165565b80601f0160208091040260200160405190810160405280929190818152602001828054611a3290615165565b8015611a7f5780601f10611a5457610100808354040283529160200191611a7f565b820191906000526020600020905b815481529060010190602001808311611a6257829003601f168201915b50505050508152505081525050815260200190600101906116d5565b50505050905090565b6060600d600101805480602002602001604051908101604052809291908181526020018280548015610d0357602002820191906000526020600020905b815481526020019060010190808311611ae1575050505050905090565b60006001600160a01b038216611b265760405162461bcd60e51b815260040161058490614c97565b506001600160a01b031660009081526003602052604090205490565b611b4a6134db565b6001600160a01b0316611b5b61225d565b6001600160a01b031614611b815760405162461bcd60e51b815260040161058490614e2f565b611b8b600061373c565b565b611b956134db565b6001600160a01b0316611ba661225d565b6001600160a01b031614611bcc5760405162461bcd60e51b815260040161058490614e2f565b611bd4613ef2565b85815260208101859052604081018490526060810183905281518290600090611c0d57634e487b7160e01b600052603260045260246000fd5b602002602001015181608001516000018190525081600181518110611c4257634e487b7160e01b600052603260045260246000fd5b602002602001015181608001516020018190525081600281518110611c7757634e487b7160e01b600052603260045260246000fd5b602002602001015181608001516040018190525081600381518110611cac57634e487b7160e01b600052603260045260246000fd5b602002602001015181608001516060018190525081600481518110611ce157634e487b7160e01b600052603260045260246000fd5b60209081029190910181015160808084015101526008805460018101825560009190915282518051849360099093027ff3f7a9fe364faab93b216da50a3214154f22a0a2b415b23a84c8169e8b636ee30192611d41928492910190613e6e565b506020828101516001830155604083015160028301556060830151600383015560808301518051805191926004850192611d7e9284920190613e6e565b506020828101518051611d979260018501920190613e6e565b5060408201518051611db3916002840191602090910190613e6e565b5060608201518051611dcf916003840191602090910190613e6e565b5060808201518051611deb916004840191602090910190613e6e565b5050505050505050505050565b336000908152600a6020908152604091829020805483518184028101840190945280845260609392830182828015610d035760200282019190600052602060002090815481526020019060010190808311611ae1575050505050905090565b60606008805480602002602001604051908101604052809291908181526020016000905b82821015611a9b57838290600052602060002090600902016040518060a0016040529081600082018054611eae90615165565b80601f0160208091040260200160405190810160405280929190818152602001828054611eda90615165565b8015611f275780601f10611efc57610100808354040283529160200191611f27565b820191906000526020600020905b815481529060010190602001808311611f0a57829003601f168201915b50505050508152602001600182015481526020016002820154815260200160038201548152602001600482016040518060a0016040529081600082018054611f6e90615165565b80601f0160208091040260200160405190810160405280929190818152602001828054611f9a90615165565b8015611fe75780601f10611fbc57610100808354040283529160200191611fe7565b820191906000526020600020905b815481529060010190602001808311611fca57829003601f168201915b5050505050815260200160018201805461200090615165565b80601f016020809104026020016040519081016040528092919081815260200182805461202c90615165565b80156120795780601f1061204e57610100808354040283529160200191612079565b820191906000526020600020905b81548152906001019060200180831161205c57829003601f168201915b5050505050815260200160028201805461209290615165565b80601f01602080910402602001604051908101604052809291908181526020018280546120be90615165565b801561210b5780601f106120e05761010080835404028352916020019161210b565b820191906000526020600020905b8154815290600101906020018083116120ee57829003601f168201915b5050505050815260200160038201805461212490615165565b80601f016020809104026020016040519081016040528092919081815260200182805461215090615165565b801561219d5780601f106121725761010080835404028352916020019161219d565b820191906000526020600020905b81548152906001019060200180831161218057829003601f168201915b505050505081526020016004820180546121b690615165565b80601f01602080910402602001604051908101604052809291908181526020018280546121e290615165565b801561222f5780601f106122045761010080835404028352916020019161222f565b820191906000526020600020905b81548152906001019060200180831161221257829003601f168201915b5050505050815250508152505081526020019060010190611e7b565b600f5460105460115460ff9091169083565b6006546001600160a01b031690565b606060018054610c8a90615165565b6008818154811061228b57600080fd5b90600052602060002090600902016000915090508060000180546122ae90615165565b80601f01602080910402602001604051908101604052809291908181526020018280546122da90615165565b80156123275780601f106122fc57610100808354040283529160200191612327565b820191906000526020600020905b81548152906001019060200180831161230a57829003601f168201915b505050505090806001015490806002015490806003015490806004016040518060a001604052908160008201805461235e90615165565b80601f016020809104026020016040519081016040528092919081815260200182805461238a90615165565b80156123d75780601f106123ac576101008083540402835291602001916123d7565b820191906000526020600020905b8154815290600101906020018083116123ba57829003601f168201915b505050505081526020016001820180546123f090615165565b80601f016020809104026020016040519081016040528092919081815260200182805461241c90615165565b80156124695780601f1061243e57610100808354040283529160200191612469565b820191906000526020600020905b81548152906001019060200180831161244c57829003601f168201915b5050505050815260200160028201805461248290615165565b80601f01602080910402602001604051908101604052809291908181526020018280546124ae90615165565b80156124fb5780601f106124d0576101008083540402835291602001916124fb565b820191906000526020600020905b8154815290600101906020018083116124de57829003601f168201915b5050505050815260200160038201805461251490615165565b80601f016020809104026020016040519081016040528092919081815260200182805461254090615165565b801561258d5780601f106125625761010080835404028352916020019161258d565b820191906000526020600020905b81548152906001019060200180831161257057829003601f168201915b505050505081526020016004820180546125a690615165565b80601f01602080910402602001604051908101604052809291908181526020018280546125d290615165565b801561261f5780601f106125f45761010080835404028352916020019161261f565b820191906000526020600020905b81548152906001019060200180831161260257829003601f168201915b505050505081525050905085565b336000908152600b60205260409020548061265a5760405162461bcd60e51b815260040161058490614d86565b6000818152600c60205260409020600101546126885760405162461bcd60e51b815260040161058490614ec1565b600160105460ff1660028111156126af57634e487b7160e01b600052602160045260246000fd5b146126cc5760405162461bcd60e51b815260040161058490614b23565b336000908152600b6020908152604080832054808452600c909252808320815160a0810190925280549293928290829061270590615165565b80601f016020809104026020016040519081016040528092919081815260200182805461273190615165565b801561277e5780601f106127535761010080835404028352916020019161277e565b820191906000526020600020905b81548152906001019060200180831161276157829003601f168201915b50505050508152602001600182015481526020016002820154815260200160038201548152602001600482016040518060a00160405290816000820180546127c590615165565b80601f01602080910402602001604051908101604052809291908181526020018280546127f190615165565b801561283e5780601f106128135761010080835404028352916020019161283e565b820191906000526020600020905b81548152906001019060200180831161282157829003601f168201915b5050505050815260200160018201805461285790615165565b80601f016020809104026020016040519081016040528092919081815260200182805461288390615165565b80156128d05780601f106128a5576101008083540402835291602001916128d0565b820191906000526020600020905b8154815290600101906020018083116128b357829003601f168201915b505050505081526020016002820180546128e990615165565b80601f016020809104026020016040519081016040528092919081815260200182805461291590615165565b80156129625780601f1061293757610100808354040283529160200191612962565b820191906000526020600020905b81548152906001019060200180831161294557829003601f168201915b5050505050815260200160038201805461297b90615165565b80601f01602080910402602001604051908101604052809291908181526020018280546129a790615165565b80156129f45780601f106129c9576101008083540402835291602001916129f4565b820191906000526020600020905b8154815290600101906020018083116129d757829003601f168201915b50505050508152602001600482018054612a0d90615165565b80601f0160208091040260200160405190810160405280929190818152602001828054612a3990615165565b8015612a865780601f10612a5b57610100808354040283529160200191612a86565b820191906000526020600020905b815481529060010190602001808311612a6957829003601f168201915b5050505050815250508152505090506000612a9f611289565b9050816040015181602001511015612af3576000602082018190526010805460ff191660021790556040517f269d9f015d2199a6ad46cb528cb72c6abb82051b8f9600c6c248f70bdb2280079190a1612b9f565b816040015181602001818151612b099190615122565b90525060208101516040517f9210d575f4de024306f860b201c73427d7a6b3e78d196ceb78b759e604748b0e91612b3f91615059565b60405180910390a1806040015182602001818151612b5d9190615122565b90525060208201516040517fbd6b16c457760fecc6c1d7b918e9d93314a50c6cb969949a655c76a1475e80b491612b9691869190615098565b60405180910390a15b50505050565b336000908152600b6020908152604080832054808452600c90925290912060010154612be35760405162461bcd60e51b815260040161058490614e64565b336000908152600d602052604090205415612c105760405162461bcd60e51b81526004016105849061500f565b600060105460ff166002811115612c3757634e487b7160e01b600052602160045260246000fd5b1415612cb757600f546000612c4d8260016150d7565b600754909150612c5f90600190615122565b811115612c6a575060005b600f8190556010805460ff191660011790556040517fbe09ad21ad3fc23ae505a4badead1958018bfcb0f57d0785de620f4bb265025f90612cac908490615059565b60405180910390a150505b600e8054600181019091557fbb7b4a454dc3493923482f07822329ed19e8244eff582cc204f8554c3620c3fd01819055336000908152600d602052604090819020829055517f2e432824193b39d9199593c5ad19c9019ba8b695dd248e8edbe4292c303efaaa90612d29908390615059565b60405180910390a150565b612d46612d3f6134db565b838361379b565b5050565b336000908152600a6020526040902054151590565b612d70612d6a6134db565b83613577565b612d8c5760405162461bcd60e51b815260040161058490614fb2565b612b9f8484848461383e565b600b6020526000908152604090205481565b60606000600c60008481526020019081526020016000206040518060a0016040529081600082018054612ddc90615165565b80601f0160208091040260200160405190810160405280929190818152602001828054612e0890615165565b8015612e555780601f10612e2a57610100808354040283529160200191612e55565b820191906000526020600020905b815481529060010190602001808311612e3857829003601f168201915b50505050508152602001600182015481526020016002820154815260200160038201548152602001600482016040518060a0016040529081600082018054612e9c90615165565b80601f0160208091040260200160405190810160405280929190818152602001828054612ec890615165565b8015612f155780601f10612eea57610100808354040283529160200191612f15565b820191906000526020600020905b815481529060010190602001808311612ef857829003601f168201915b50505050508152602001600182018054612f2e90615165565b80601f0160208091040260200160405190810160405280929190818152602001828054612f5a90615165565b8015612fa75780601f10612f7c57610100808354040283529160200191612fa7565b820191906000526020600020905b815481529060010190602001808311612f8a57829003601f168201915b50505050508152602001600282018054612fc090615165565b80601f0160208091040260200160405190810160405280929190818152602001828054612fec90615165565b80156130395780601f1061300e57610100808354040283529160200191613039565b820191906000526020600020905b81548152906001019060200180831161301c57829003601f168201915b5050505050815260200160038201805461305290615165565b80601f016020809104026020016040519081016040528092919081815260200182805461307e90615165565b80156130cb5780601f106130a0576101008083540402835291602001916130cb565b820191906000526020600020905b8154815290600101906020018083116130ae57829003601f168201915b505050505081526020016004820180546130e490615165565b80601f016020809104026020016040519081016040528092919081815260200182805461311090615165565b801561315d5780601f106131325761010080835404028352916020019161315d565b820191906000526020600020905b81548152906001019060200180831161314057829003601f168201915b505050505081525050815250509050600061317b8260200151613871565b9050600061318960c8613871565b9050600061319a8460400151613871565b905060006131e185600001516131af89613871565b6080880151516040516131cd93929190899089908990602001614588565b6040516020818303038152906040526139c0565b90506000816040516020016131f691906146fc565b60408051808303601f1901815291905298975050505050505050565b600c602052600090815260409020805481906122ae90615165565b6001600160a01b03918216600090815260056020908152604080832093909416825291909152205460ff1690565b6132636134db565b6001600160a01b031661327461225d565b6001600160a01b03161461329a5760405162461bcd60e51b815260040161058490614e2f565b6001600160a01b0381166132c05760405162461bcd60e51b815260040161058490614a32565b6132c98161373c565b50565b60006132d86009613b23565b90506132fd604051806060016040528060398152602001615268603991398383613b27565b6133073382613b9c565b336000908152600a6020908152604082208054600181018255908352912001819055600880548390811061334b57634e487b7160e01b600052603260045260246000fd5b9060005260206000209060090201600c6000838152602001908152602001600020600082018160000190805461338090615165565b61338b929190613f21565b50600182015481600101556002820154816002015560038201548160030155600482018160040160008201816000019080546133c690615165565b6133d1929190613f21565b5060018201816001019080546133e690615165565b6133f1929190613f21565b50600282018160020190805461340690615165565b613411929190613f21565b50600382018160030190805461342690615165565b613431929190613f21565b50600482018160040190805461344690615165565b613451929190613f21565b50505090505061346160096134a0565b7fd9d05697e27265a7dde2215564d09b5fef132a05c9693b089ef90388285596ce338284604051613494939291906147aa565b60405180910390a15050565b80546001019055565b6001600160e01b031981167f01ffc9a70000000000000000000000000000000000000000000000000000000014919050565b3390565b6000908152600260205260409020546001600160a01b0316151590565b6000818152600460205260409020805473ffffffffffffffffffffffffffffffffffffffff19166001600160a01b038416908117909155819061353e82611669565b6001600160a01b03167f8c5be1e5ebec7d5bd14f71427d1e84f3dd0314c0f7b2291e5b200ac8c7c3b92560405160405180910390a45050565b6000613582826134df565b61359e5760405162461bcd60e51b815260040161058490614bee565b60006135a983611669565b9050806001600160a01b0316846001600160a01b031614806135e45750836001600160a01b03166135d984610d0d565b6001600160a01b0316145b806135f457506135f4818561322d565b949350505050565b826001600160a01b031661360f82611669565b6001600160a01b0316146136355760405162461bcd60e51b815260040161058490614a8f565b6001600160a01b03821661365b5760405162461bcd60e51b815260040161058490614b5a565b613666838383610de3565b6136716000826134fc565b6001600160a01b038316600090815260036020526040812080546001929061369a908490615122565b90915550506001600160a01b03821660009081526003602052604081208054600192906136c89084906150d7565b9091555050600081815260026020526040808220805473ffffffffffffffffffffffffffffffffffffffff19166001600160a01b0386811691821790925591518493918716917fddf252ad1be2c89b69c2b068fc378daa952ba7f163c4a11628f55a4df523b3ef91a4610de3838383610de3565b600680546001600160a01b0383811673ffffffffffffffffffffffffffffffffffffffff19831681179093556040519116919082907f8be0079c531659141344cd1fd0a4f28419497f9722a3daafe3b4186f6b6457e090600090a35050565b816001600160a01b0316836001600160a01b031614156137cd5760405162461bcd60e51b815260040161058490614bb7565b6001600160a01b0383811660008181526005602090815260408083209487168084529490915290819020805460ff1916851515179055517f17307eab39ab6107e8899845ad3d59bd9653f200f220920489ca2b5937696c3190613831908590614913565b60405180910390a3505050565b6138498484846135fc565b61385584848484613bb6565b612b9f5760405162461bcd60e51b8152600401610584906149d5565b6060816138b2575060408051808201909152600181527f30000000000000000000000000000000000000000000000000000000000000006020820152610552565b8160005b81156138dc57806138c6816151a0565b91506138d59050600a836150ef565b91506138b6565b60008167ffffffffffffffff81111561390557634e487b7160e01b600052604160045260246000fd5b6040519080825280601f01601f19166020018201604052801561392f576020820181803683370190505b5090505b84156135f457613944600183615122565b9150613951600a866151bb565b61395c9060306150d7565b60f81b81838151811061397f57634e487b7160e01b600052603260045260246000fd5b60200101907effffffffffffffffffffffffffffffffffffffffffffffffffffffffffffff1916908160001a9053506139b9600a866150ef565b9450613933565b60608151600014156139e15750604080516020810190915260008152610552565b60006040518060600160405280604081526020016152286040913990506000600384516002613a1091906150d7565b613a1a91906150ef565b613a25906004615103565b67ffffffffffffffff811115613a4b57634e487b7160e01b600052604160045260246000fd5b6040519080825280601f01601f191660200182016040528015613a75576020820181803683370190505b509050600182016020820185865187015b80821015613ae1576003820191508151603f8160121c168501518453600184019350603f81600c1c168501518453600184019350603f8160061c168501518453600184019350603f8116850151845350600183019250613a86565b5050600386510660018114613afd5760028114613b1057613b18565b603d6001830353603d6002830353613b18565b603d60018303535b509195945050505050565b5490565b610de3838383604051602401613b3f93929190614931565b60408051601f198184030181529190526020810180517bffffffffffffffffffffffffffffffffffffffffffffffffffffffff167f969cdd0300000000000000000000000000000000000000000000000000000000179052613cea565b612d46828260405180602001604052806000815250613d0b565b6000613bca846001600160a01b0316613d3e565b15613cdf57836001600160a01b031663150b7a02613be66134db565b8786866040518563ffffffff1660e01b8152600401613c089493929190614755565b602060405180830381600087803b158015613c2257600080fd5b505af1925050508015613c52575060408051601f3d908101601f19168201909252613c4f9181019061426f565b60015b613cac573d808015613c80576040519150601f19603f3d011682016040523d82523d6000602084013e613c85565b606091505b508051613ca45760405162461bcd60e51b8152600401610584906149d5565b805181602001fd5b6001600160e01b0319167f150b7a02000000000000000000000000000000000000000000000000000000001490506135f4565b506001949350505050565b80516a636f6e736f6c652e6c6f67602083016000808483855afa5050505050565b613d158383613d4d565b613d226000848484613bb6565b610de35760405162461bcd60e51b8152600401610584906149d5565b6001600160a01b03163b151590565b6001600160a01b038216613d735760405162461bcd60e51b815260040161058490614d51565b613d7c816134df565b15613d995760405162461bcd60e51b815260040161058490614aec565b613da560008383610de3565b6001600160a01b0382166000908152600360205260408120805460019290613dce9084906150d7565b9091555050600081815260026020526040808220805473ffffffffffffffffffffffffffffffffffffffff19166001600160a01b03861690811790915590518392907fddf252ad1be2c89b69c2b068fc378daa952ba7f163c4a11628f55a4df523b3ef908290a4612d4660008383610de3565b6040518060800160405280606081526020016000815260200160008152602001613e69613f9c565b905290565b828054613e7a90615165565b90600052602060002090601f016020900481019282613e9c5760008555613ee2565b82601f10613eb557805160ff1916838001178555613ee2565b82800160010185558215613ee2579182015b82811115613ee2578251825591602001919060010190613ec7565b50613eee929150613fcb565b5090565b6040518060a0016040528060608152602001600081526020016000815260200160008152602001613e69613f9c565b828054613f2d90615165565b90600052602060002090601f016020900481019282613f4f5760008555613ee2565b82601f10613f605780548555613ee2565b82800160010185558215613ee257600052602060002091601f016020900482015b82811115613ee2578254825591600101919060010190613f81565b6040518060a0016040528060608152602001606081526020016060815260200160608152602001606081525090565b5b80821115613eee5760008155600101613fcc565b600067ffffffffffffffff831115613ffa57613ffa6151fb565b61400d601f8401601f19166020016150a6565b905082815283838301111561402157600080fd5b828260208301376000602084830101529392505050565b80356001600160a01b038116811461055257600080fd5b600082601f83011261405f578081fd5b8135602067ffffffffffffffff82111561407b5761407b6151fb565b61408881828402016150a6565b82815281810190858301855b858110156140bd576140ab898684358b01016140ca565b84529284019290840190600101614094565b5090979650505050505050565b600082601f8301126140da578081fd5b6140e983833560208501613fe0565b9392505050565b600060208284031215614101578081fd5b6140e982614038565b6000806040838503121561411c578081fd5b61412583614038565b915061413360208401614038565b90509250929050565b600080600060608486031215614150578081fd5b61415984614038565b925061416760208501614038565b9150604084013590509250925092565b6000806000806080858703121561418c578081fd5b61419585614038565b93506141a360208601614038565b925060408501359150606085013567ffffffffffffffff8111156141c5578182fd5b8501601f810187136141d5578182fd5b6141e487823560208401613fe0565b91505092959194509250565b60008060408385031215614202578182fd5b61420b83614038565b91506020830135801515811461421f578182fd5b809150509250929050565b6000806040838503121561423c578182fd5b61424583614038565b946020939093013593505050565b600060208284031215614264578081fd5b81356140e981615211565b600060208284031215614280578081fd5b81516140e981615211565b600080600080608085870312156142a0578384fd5b843567ffffffffffffffff808211156142b7578586fd5b6142c3888389016140ca565b9550602087013594506040870135935060608701359150808211156142e6578283fd5b506141e48782880161404f565b600080600080600060a0868803121561430a578081fd5b853567ffffffffffffffff80821115614321578283fd5b61432d89838a016140ca565b96506020880135955060408801359450606088013593506080880135915080821115614357578283fd5b506143648882890161404f565b9150509295509295909350565b600060208284031215614382578081fd5b5035919050565b600081518084526143a1816020860160208601615139565b601f01601f19169290920160200192915050565b600081516143c7818560208601615139565b9290920192915050565b7f2c20226d61785f76616c7565223a0000000000000000000000000000000000008152600e0190565b7f7d205d7d00000000000000000000000000000000000000000000000000000000815260040190565b7f222c202261747472696275746573223a205b207b202274726169745f7479706581527f223a20224865616c746820506f696e7473222c202276616c7565223a200000006020820152603d0190565b7f7d2c207b202274726169745f74797065223a202241747461636b2044616d616781527f65222c202276616c7565223a20000000000000000000000000000000000000006020820152602d0190565b60008151608084526144d66080850182614389565b9050602083015160208501526040830151604085015260608301518482036060860152614503828261450c565b95945050505050565b6000815160a0845261452160a0850182614389565b90506020830151848203602086015261453a8282614389565b915050604083015184820360408601526145548282614389565b9150506060830151848203606086015261456e8282614389565b915050608083015184820360808601526145038282614389565b60007f7b226e616d65223a202200000000000000000000000000000000000000000000825287516145c081600a850160208c01615139565b7f202d2d204e465420233a20000000000000000000000000000000000000000000600a9184019182015287516145fd816015840160208c01615139565b7f222c20226465736372697074696f6e223a20225468697320697320616e204e46601592909101918201527f542074686174206c6574732070656f706c6520706c617920696e20746865206760358201527f616d65204d657461766572736520536c6179657221222c2022696d616765223a60558201527f2022000000000000000000000000000000000000000000000000000000000000607582015286516146ad816077840160208b01615139565b6146ee6146e96146e36146de6146d86146d36146cd6077888a0101614423565b8d6143b5565b6143d1565b8a6143b5565b614472565b876143b5565b6143fa565b9a9950505050505050505050565b60007f646174613a6170706c69636174696f6e2f6a736f6e3b6261736536342c0000008252825161473481601d850160208701615139565b91909101601d0192915050565b6001600160a01b0391909116815260200190565b60006001600160a01b038087168352808616602084015250836040830152608060608301526147876080830184614389565b9695505050505050565b6001600160a01b03929092168252602082015260400190565b6001600160a01b039390931683526020830191909152604082015260600190565b6000602080830181845280855180835260408601915060408482028701019250838701855b8281101561481e57603f1988860301845261480c8583516144c1565b945092850192908501906001016147f0565b5092979650505050505050565b60208082528251828201819052600091906040908185019080840286018301878501865b838110156148c157603f19898403018552815160a0815181865261487582870182614389565b915050888201518986015287820151888601526060808301518187015250608080830151925085820381870152506148ad818361450c565b96890196945050509086019060010161484f565b509098975050505050505050565b6020808252825182820181905260009190848201906040850190845b81811015614907578351835292840192918401916001016148eb565b50909695505050505050565b901515815260200190565b6000602082526140e96020830184614389565b6000606082526149446060830186614389565b60208301949094525060400152919050565b6000608082526149696080830187614389565b8560208401528460408401528281036060840152614987818561450c565b979650505050505050565b600060a082526149a560a0830188614389565b86602084015285604084015284606084015282810360808401526149c9818561450c565b98975050505050505050565b60208082526032908201527f4552433732313a207472616e7366657220746f206e6f6e20455243373231526560408201527f63656976657220696d706c656d656e7465720000000000000000000000000000606082015260800190565b60208082526026908201527f4f776e61626c653a206e6577206f776e657220697320746865207a65726f206160408201527f6464726573730000000000000000000000000000000000000000000000000000606082015260800190565b60208082526025908201527f4552433732313a207472616e736665722066726f6d20696e636f72726563742060408201527f6f776e6572000000000000000000000000000000000000000000000000000000606082015260800190565b6020808252601c908201527f4552433732313a20746f6b656e20616c7265616479206d696e74656400000000604082015260600190565b60208082526019908201527f4172656e6120686173206e6f7420737461727465642079657400000000000000604082015260600190565b60208082526024908201527f4552433732313a207472616e7366657220746f20746865207a65726f2061646460408201527f7265737300000000000000000000000000000000000000000000000000000000606082015260800190565b60208082526019908201527f4552433732313a20617070726f766520746f2063616c6c657200000000000000604082015260600190565b6020808252602c908201527f4552433732313a206f70657261746f7220717565727920666f72206e6f6e657860408201526b34b9ba32b73a103a37b5b2b760a11b606082015260800190565b60208082526038908201527f4552433732313a20617070726f76652063616c6c6572206973206e6f74206f7760408201527f6e6572206e6f7220617070726f76656420666f7220616c6c0000000000000000606082015260800190565b6020808252602a908201527f4552433732313a2062616c616e636520717565727920666f7220746865207a6560408201527f726f206164647265737300000000000000000000000000000000000000000000606082015260800190565b60208082526029908201527f4552433732313a206f776e657220717565727920666f72206e6f6e657869737460408201527f656e7420746f6b656e0000000000000000000000000000000000000000000000606082015260800190565b6020808252818101527f4552433732313a206d696e7420746f20746865207a65726f2061646472657373604082015260600190565b60208082526024908201527f5573657220686173206e6f742061206368616d70696f6e20696e20746865206160408201527f72656e6100000000000000000000000000000000000000000000000000000000606082015260800190565b6020808252602c908201527f4552433732313a20617070726f76656420717565727920666f72206e6f6e657860408201526b34b9ba32b73a103a37b5b2b760a11b606082015260800190565b6020808252818101527f4f776e61626c653a2063616c6c6572206973206e6f7420746865206f776e6572604082015260600190565b60208082526025908201527f4368616d70696f6e20697320646561642c2063616e6e6f742061646420746f2060408201527f6172656e61000000000000000000000000000000000000000000000000000000606082015260800190565b6020808252601f908201527f4368616d70696f6e20697320646561642c2063616e6e6f742061747461636b00604082015260600190565b6020808252602d908201527f55736572206d7573742068617665206120726f7374657220746f2073656c656360408201527f742061206368616d70696f6e2e00000000000000000000000000000000000000606082015260800190565b60208082526021908201527f4552433732313a20617070726f76616c20746f2063757272656e74206f776e6560408201527f7200000000000000000000000000000000000000000000000000000000000000606082015260800190565b60208082526031908201527f4552433732313a207472616e736665722063616c6c6572206973206e6f74206f60408201527f776e6572206e6f7220617070726f766564000000000000000000000000000000606082015260800190565b60208082526019908201527f4368616d70696f6e20616c726561647920696e206172656e6100000000000000604082015260600190565b6000602082526140e960208301846144c1565b90815260200190565b838152606081016003841061508757634e487b7160e01b600052602160045260246000fd5b602082019390935260400152919050565b918252602082015260400190565b604051601f8201601f1916810167ffffffffffffffff811182821017156150cf576150cf6151fb565b604052919050565b600082198211156150ea576150ea6151cf565b500190565b6000826150fe576150fe6151e5565b500490565b600081600019048311821515161561511d5761511d6151cf565b500290565b600082821015615134576151346151cf565b500390565b60005b8381101561515457818101518382015260200161513c565b83811115612b9f5750506000910152565b60028104600182168061517957607f821691505b6020821081141561519a57634e487b7160e01b600052602260045260246000fd5b50919050565b60006000198214156151b4576151b46151cf565b5060010190565b6000826151ca576151ca6151e5565b500690565b634e487b7160e01b600052601160045260246000fd5b634e487b7160e01b600052601260045260246000fd5b634e487b7160e01b600052604160045260246000fd5b6001600160e01b0319811681146132c957600080fdfe4142434445464748494a4b4c4d4e4f505152535455565758595a6162636465666768696a6b6c6d6e6f707172737475767778797a303132333435363738392b2f5265676973746572696e67206368616d70696f6e6964202573206f6e2074686520636f6e7472616374207769746820746f6b656e4944202564a2646970667358221220b9a6ffabb1f0d7e324790cc7c978fda2855cda887c3da932bb7a1cf6c207b65364736f6c63430008010033",
  "linkReferences": {},
  "deployedLinkReferences": {}
}