{
  "_format": "hh-sol-artifact-1",
  "contractName": "MMOGame",
  "sourceName": "contracts/MMOGame.sol",
  "abi": [
    {
      "anonymous": false,
      "inputs": [
        {
          "indexed": true,
          "internalType": "address",
          "name": "owner",
          "type": "address"
        },
        {
          "indexed": true,
          "internalType": "address",
          "name": "approved",
          "type": "address"
        },
        {
          "indexed": true,
          "internalType": "uint256",
          "name": "tokenId",
          "type": "uint256"
        }
      ],
      "name": "Approval",
      "type": "event"
    },
    {
      "anonymous": false,
      "inputs": [
        {
          "indexed": true,
          "internalType": "address",
          "name": "owner",
          "type": "address"
        },
        {
          "indexed": true,
          "internalType": "address",
          "name": "operator",
          "type": "address"
        },
        {
          "indexed": false,
          "internalType": "bool",
          "name": "approved",
          "type": "bool"
        }
      ],
      "name": "ApprovalForAll",
      "type": "event"
    },
    {
      "anonymous": false,
      "inputs": [],
      "name": "ArenaFinished",
      "type": "event"
    },
    {
      "anonymous": false,
      "inputs": [
        {
          "indexed": false,
          "internalType": "uint256",
          "name": "tokenId",
          "type": "uint256"
        }
      ],
      "name": "ArenaNewChampion",
      "type": "event"
    },
    {
      "anonymous": false,
      "inputs": [
        {
          "indexed": false,
          "internalType": "uint256",
          "name": "bossIndex",
          "type": "uint256"
        }
      ],
      "name": "ArenaStarted",
      "type": "event"
    },
    {
      "anonymous": false,
      "inputs": [
        {
          "indexed": false,
          "internalType": "uint256",
          "name": "bossHealth",
          "type": "uint256"
        }
      ],
      "name": "AttackComplete",
      "type": "event"
    },
    {
      "anonymous": false,
      "inputs": [
        {
          "indexed": false,
          "internalType": "uint256",
          "name": "tokenId",
          "type": "uint256"
        },
        {
          "indexed": false,
          "internalType": "uint256",
          "name": "championHealth",
          "type": "uint256"
        }
      ],
      "name": "BossAttackComplete",
      "type": "event"
    },
    {
      "anonymous": false,
      "inputs": [
        {
          "indexed": false,
          "internalType": "address",
          "name": "userToNotify",
          "type": "address"
        },
        {
          "indexed": false,
          "internalType": "uint256",
          "name": "tokenId",
          "type": "uint256"
        },
        {
          "indexed": false,
          "internalType": "uint256",
          "name": "championIndex",
          "type": "uint256"
        }
      ],
      "name": "ChampionAddedToRoster",
      "type": "event"
    },
    {
      "anonymous": false,
      "inputs": [
        {
          "indexed": false,
          "internalType": "address",
          "name": "userToNotify",
          "type": "address"
        },
        {
          "indexed": false,
          "internalType": "uint256",
          "name": "tokenId",
          "type": "uint256"
        }
      ],
      "name": "ChampionSelected",
      "type": "event"
    },
    {
      "anonymous": false,
      "inputs": [
        {
          "indexed": false,
          "internalType": "uint256",
          "name": "championHealth",
          "type": "uint256"
        }
      ],
      "name": "HealComplete",
      "type": "event"
    },
    {
      "anonymous": false,
      "inputs": [
        {
          "indexed": true,
          "internalType": "address",
          "name": "previousOwner",
          "type": "address"
        },
        {
          "indexed": true,
          "internalType": "address",
          "name": "newOwner",
          "type": "address"
        }
      ],
      "name": "OwnershipTransferred",
      "type": "event"
    },
    {
      "anonymous": false,
      "inputs": [
        {
          "indexed": true,
          "internalType": "address",
          "name": "from",
          "type": "address"
        },
        {
          "indexed": true,
          "internalType": "address",
          "name": "to",
          "type": "address"
        },
        {
          "indexed": true,
          "internalType": "uint256",
          "name": "tokenId",
          "type": "uint256"
        }
      ],
      "name": "Transfer",
      "type": "event"
    },
    {
      "inputs": [],
      "name": "ActiveArena",
      "outputs": [
        {
          "internalType": "uint256",
          "name": "bossIndex",
          "type": "uint256"
        },
        {
          "internalType": "enum ArenaState",
          "name": "state",
          "type": "uint8"
        },
        {
          "internalType": "uint256",
          "name": "lastArenaFinishedOn",
          "type": "uint256"
        }
      ],
      "stateMutability": "view",
      "type": "function"
    },
    {
      "inputs": [
        {
          "internalType": "uint256",
          "name": "",
          "type": "uint256"
        }
      ],
      "name": "Bosses",
      "outputs": [
        {
          "internalType": "string",
          "name": "name",
          "type": "string"
        },
        {
          "internalType": "uint256",
          "name": "health",
          "type": "uint256"
        },
        {
          "internalType": "uint256",
          "name": "attackPower",
          "type": "uint256"
        },
        {
          "components": [
            {
              "internalType": "string",
              "name": "idle",
              "type": "string"
            },
            {
              "internalType": "string",
              "name": "attack",
              "type": "string"
            },
            {
              "internalType": "string",
              "name": "hurt",
              "type": "string"
            },
            {
              "internalType": "string",
              "name": "dying",
              "type": "string"
            },
            {
              "internalType": "string",
              "name": "dead",
              "type": "string"
            }
          ],
          "internalType": "struct GifStatus",
          "name": "gifUris",
          "type": "tuple"
        }
      ],
      "stateMutability": "view",
      "type": "function"
    },
    {
      "inputs": [
        {
          "internalType": "uint256",
          "name": "",
          "type": "uint256"
        }
      ],
      "name": "NftHolderChampion",
      "outputs": [
        {
          "internalType": "string",
          "name": "name",
          "type": "string"
        },
        {
          "internalType": "uint256",
          "name": "health",
          "type": "uint256"
        },
        {
          "internalType": "uint256",
          "name": "maxHealth",
          "type": "uint256"
        },
        {
          "internalType": "uint256",
          "name": "attackPower",
          "type": "uint256"
        },
        {
          "internalType": "uint256",
          "name": "healPower",
          "type": "uint256"
        },
        {
          "components": [
            {
              "internalType": "string",
              "name": "idle",
              "type": "string"
            },
            {
              "internalType": "string",
              "name": "attack",
              "type": "string"
            },
            {
              "internalType": "string",
              "name": "hurt",
              "type": "string"
            },
            {
              "internalType": "string",
              "name": "dying",
              "type": "string"
            },
            {
              "internalType": "string",
              "name": "dead",
              "type": "string"
            }
          ],
          "internalType": "struct GifStatus",
          "name": "gifUris",
          "type": "tuple"
        }
      ],
      "stateMutability": "view",
      "type": "function"
    },
    {
      "inputs": [
        {
          "internalType": "address",
          "name": "",
          "type": "address"
        }
      ],
      "name": "SelectedChampion",
      "outputs": [
        {
          "internalType": "uint256",
          "name": "",
          "type": "uint256"
        }
      ],
      "stateMutability": "view",
      "type": "function"
    },
    {
      "inputs": [
        {
          "internalType": "string",
          "name": "name",
          "type": "string"
        },
        {
          "internalType": "uint256",
          "name": "health",
          "type": "uint256"
        },
        {
          "internalType": "uint256",
          "name": "attackPower",
          "type": "uint256"
        },
        {
          "internalType": "string[]",
          "name": "gifUris",
          "type": "string[]"
        }
      ],
      "name": "addBoss",
      "outputs": [],
      "stateMutability": "nonpayable",
      "type": "function"
    },
    {
      "inputs": [
        {
          "internalType": "string",
          "name": "name",
          "type": "string"
        },
        {
          "internalType": "uint256",
          "name": "maxHealth",
          "type": "uint256"
        },
        {
          "internalType": "uint256",
          "name": "attackPower",
          "type": "uint256"
        },
        {
          "internalType": "uint256",
          "name": "healPower",
          "type": "uint256"
        },
        {
          "internalType": "string[]",
          "name": "gifUris",
          "type": "string[]"
        }
      ],
      "name": "addChampion",
      "outputs": [],
      "stateMutability": "nonpayable",
      "type": "function"
    },
    {
      "inputs": [],
      "name": "addChampionToArena",
      "outputs": [],
      "stateMutability": "nonpayable",
      "type": "function"
    },
    {
      "inputs": [
        {
          "internalType": "uint256",
          "name": "_championIndex",
          "type": "uint256"
        }
      ],
      "name": "addChampionToRoster",
      "outputs": [],
      "stateMutability": "nonpayable",
      "type": "function"
    },
    {
      "inputs": [
        {
          "internalType": "address",
          "name": "to",
          "type": "address"
        },
        {
          "internalType": "uint256",
          "name": "tokenId",
          "type": "uint256"
        }
      ],
      "name": "approve",
      "outputs": [],
      "stateMutability": "nonpayable",
      "type": "function"
    },
    {
      "inputs": [],
      "name": "attack",
      "outputs": [],
      "stateMutability": "nonpayable",
      "type": "function"
    },
    {
      "inputs": [
        {
          "internalType": "address",
          "name": "owner",
          "type": "address"
        }
      ],
      "name": "balanceOf",
      "outputs": [
        {
          "internalType": "uint256",
          "name": "",
          "type": "uint256"
        }
      ],
      "stateMutability": "view",
      "type": "function"
    },
    {
      "inputs": [
        {
          "internalType": "uint256",
          "name": "tokenId",
          "type": "uint256"
        }
      ],
      "name": "getApproved",
      "outputs": [
        {
          "internalType": "address",
          "name": "",
          "type": "address"
        }
      ],
      "stateMutability": "view",
      "type": "function"
    },
    {
      "inputs": [],
      "name": "getArenaBoss",
      "outputs": [
        {
          "components": [
            {
              "internalType": "string",
              "name": "name",
              "type": "string"
            },
            {
              "internalType": "uint256",
              "name": "health",
              "type": "uint256"
            },
            {
              "internalType": "uint256",
              "name": "attackPower",
              "type": "uint256"
            },
            {
              "components": [
                {
                  "internalType": "string",
                  "name": "idle",
                  "type": "string"
                },
                {
                  "internalType": "string",
                  "name": "attack",
                  "type": "string"
                },
                {
                  "internalType": "string",
                  "name": "hurt",
                  "type": "string"
                },
                {
                  "internalType": "string",
                  "name": "dying",
                  "type": "string"
                },
                {
                  "internalType": "string",
                  "name": "dead",
                  "type": "string"
                }
              ],
              "internalType": "struct GifStatus",
              "name": "gifUris",
              "type": "tuple"
            }
          ],
          "internalType": "struct Boss",
          "name": "",
          "type": "tuple"
        }
      ],
      "stateMutability": "view",
      "type": "function"
    },
    {
      "inputs": [],
      "name": "getArenaChampionList",
      "outputs": [
        {
          "internalType": "uint256[]",
          "name": "",
          "type": "uint256[]"
        }
      ],
      "stateMutability": "view",
      "type": "function"
    },
    {
      "inputs": [],
      "name": "getBossList",
      "outputs": [
        {
          "components": [
            {
              "internalType": "string",
              "name": "name",
              "type": "string"
            },
            {
              "internalType": "uint256",
              "name": "health",
              "type": "uint256"
            },
            {
              "internalType": "uint256",
              "name": "attackPower",
              "type": "uint256"
            },
            {
              "components": [
                {
                  "internalType": "string",
                  "name": "idle",
                  "type": "string"
                },
                {
                  "internalType": "string",
                  "name": "attack",
                  "type": "string"
                },
                {
                  "internalType": "string",
                  "name": "hurt",
                  "type": "string"
                },
                {
                  "internalType": "string",
                  "name": "dying",
                  "type": "string"
                },
                {
                  "internalType": "string",
                  "name": "dead",
                  "type": "string"
                }
              ],
              "internalType": "struct GifStatus",
              "name": "gifUris",
              "type": "tuple"
            }
          ],
          "internalType": "struct Boss[]",
          "name": "",
          "type": "tuple[]"
        }
      ],
      "stateMutability": "view",
      "type": "function"
    },
    {
      "inputs": [],
      "name": "getChampionList",
      "outputs": [
        {
          "components": [
            {
              "internalType": "string",
              "name": "name",
              "type": "string"
            },
            {
              "internalType": "uint256",
              "name": "health",
              "type": "uint256"
            },
            {
              "internalType": "uint256",
              "name": "maxHealth",
              "type": "uint256"
            },
            {
              "internalType": "uint256",
              "name": "attackPower",
              "type": "uint256"
            },
            {
              "internalType": "uint256",
              "name": "healPower",
              "type": "uint256"
            },
            {
              "components": [
                {
                  "internalType": "string",
                  "name": "idle",
                  "type": "string"
                },
                {
                  "internalType": "string",
                  "name": "attack",
                  "type": "string"
                },
                {
                  "internalType": "string",
                  "name": "hurt",
                  "type": "string"
                },
                {
                  "internalType": "string",
                  "name": "dying",
                  "type": "string"
                },
                {
                  "internalType": "string",
                  "name": "dead",
                  "type": "string"
                }
              ],
              "internalType": "struct GifStatus",
              "name": "gifUris",
              "type": "tuple"
            }
          ],
          "internalType": "struct Champion[]",
          "name": "",
          "type": "tuple[]"
        }
      ],
      "stateMutability": "view",
      "type": "function"
    },
    {
      "inputs": [
        {
          "internalType": "uint256",
          "name": "recordId",
          "type": "uint256"
        }
      ],
      "name": "getNFTChampion",
      "outputs": [
        {
          "components": [
            {
              "internalType": "string",
              "name": "name",
              "type": "string"
            },
            {
              "internalType": "uint256",
              "name": "health",
              "type": "uint256"
            },
            {
              "internalType": "uint256",
              "name": "maxHealth",
              "type": "uint256"
            },
            {
              "internalType": "uint256",
              "name": "attackPower",
              "type": "uint256"
            },
            {
              "internalType": "uint256",
              "name": "healPower",
              "type": "uint256"
            },
            {
              "components": [
                {
                  "internalType": "string",
                  "name": "idle",
                  "type": "string"
                },
                {
                  "internalType": "string",
                  "name": "attack",
                  "type": "string"
                },
                {
                  "internalType": "string",
                  "name": "hurt",
                  "type": "string"
                },
                {
                  "internalType": "string",
                  "name": "dying",
                  "type": "string"
                },
                {
                  "internalType": "string",
                  "name": "dead",
                  "type": "string"
                }
              ],
              "internalType": "struct GifStatus",
              "name": "gifUris",
              "type": "tuple"
            }
          ],
          "internalType": "struct Champion",
          "name": "",
          "type": "tuple"
        }
      ],
      "stateMutability": "view",
      "type": "function"
    },
    {
      "inputs": [],
      "name": "getSelectedChampion",
      "outputs": [
        {
          "internalType": "uint256",
          "name": "",
          "type": "uint256"
        }
      ],
      "stateMutability": "view",
      "type": "function"
    },
    {
      "inputs": [],
      "name": "getUserRoster",
      "outputs": [
        {
          "internalType": "uint256[]",
          "name": "",
          "type": "uint256[]"
        }
      ],
      "stateMutability": "view",
      "type": "function"
    },
    {
      "inputs": [],
      "name": "heal",
      "outputs": [],
      "stateMutability": "nonpayable",
      "type": "function"
    },
    {
      "inputs": [
        {
          "internalType": "address",
          "name": "owner",
          "type": "address"
        },
        {
          "internalType": "address",
          "name": "operator",
          "type": "address"
        }
      ],
      "name": "isApprovedForAll",
      "outputs": [
        {
          "internalType": "bool",
          "name": "",
          "type": "bool"
        }
      ],
      "stateMutability": "view",
      "type": "function"
    },
    {
      "inputs": [],
      "name": "name",
      "outputs": [
        {
          "internalType": "string",
          "name": "",
          "type": "string"
        }
      ],
      "stateMutability": "view",
      "type": "function"
    },
    {
      "inputs": [],
      "name": "owner",
      "outputs": [
        {
          "internalType": "address",
          "name": "",
          "type": "address"
        }
      ],
      "stateMutability": "view",
      "type": "function"
    },
    {
      "inputs": [
        {
          "internalType": "uint256",
          "name": "tokenId",
          "type": "uint256"
        }
      ],
      "name": "ownerOf",
      "outputs": [
        {
          "internalType": "address",
          "name": "",
          "type": "address"
        }
      ],
      "stateMutability": "view",
      "type": "function"
    },
    {
      "inputs": [],
      "name": "renounceOwnership",
      "outputs": [],
      "stateMutability": "nonpayable",
      "type": "function"
    },
    {
      "inputs": [
        {
          "internalType": "address",
          "name": "from",
          "type": "address"
        },
        {
          "internalType": "address",
          "name": "to",
          "type": "address"
        },
        {
          "internalType": "uint256",
          "name": "tokenId",
          "type": "uint256"
        }
      ],
      "name": "safeTransferFrom",
      "outputs": [],
      "stateMutability": "nonpayable",
      "type": "function"
    },
    {
      "inputs": [
        {
          "internalType": "address",
          "name": "from",
          "type": "address"
        },
        {
          "internalType": "address",
          "name": "to",
          "type": "address"
        },
        {
          "internalType": "uint256",
          "name": "tokenId",
          "type": "uint256"
        },
        {
          "internalType": "bytes",
          "name": "_data",
          "type": "bytes"
        }
      ],
      "name": "safeTransferFrom",
      "outputs": [],
      "stateMutability": "nonpayable",
      "type": "function"
    },
    {
      "inputs": [
        {
          "internalType": "address",
          "name": "operator",
          "type": "address"
        },
        {
          "internalType": "bool",
          "name": "approved",
          "type": "bool"
        }
      ],
      "name": "setApprovalForAll",
      "outputs": [],
      "stateMutability": "nonpayable",
      "type": "function"
    },
    {
      "inputs": [
        {
          "internalType": "uint256",
          "name": "_rosterIndex",
          "type": "uint256"
        }
      ],
      "name": "setSelectChampion",
      "outputs": [],
      "stateMutability": "nonpayable",
      "type": "function"
    },
    {
      "inputs": [
        {
          "internalType": "bytes4",
          "name": "interfaceId",
          "type": "bytes4"
        }
      ],
      "name": "supportsInterface",
      "outputs": [
        {
          "internalType": "bool",
          "name": "",
          "type": "bool"
        }
      ],
      "stateMutability": "view",
      "type": "function"
    },
    {
      "inputs": [],
      "name": "symbol",
      "outputs": [
        {
          "internalType": "string",
          "name": "",
          "type": "string"
        }
      ],
      "stateMutability": "view",
      "type": "function"
    },
    {
      "inputs": [
        {
          "internalType": "uint256",
          "name": "_tokenId",
          "type": "uint256"
        }
      ],
      "name": "tokenURI",
      "outputs": [
        {
          "internalType": "string",
          "name": "",
          "type": "string"
        }
      ],
      "stateMutability": "view",
      "type": "function"
    },
    {
      "inputs": [
        {
          "internalType": "address",
          "name": "from",
          "type": "address"
        },
        {
          "internalType": "address",
          "name": "to",
          "type": "address"
        },
        {
          "internalType": "uint256",
          "name": "tokenId",
          "type": "uint256"
        }
      ],
      "name": "transferFrom",
      "outputs": [],
      "stateMutability": "nonpayable",
      "type": "function"
    },
    {
      "inputs": [
        {
          "internalType": "address",
          "name": "newOwner",
          "type": "address"
        }
      ],
      "name": "transferOwnership",
      "outputs": [],
      "stateMutability": "nonpayable",
      "type": "function"
    },
    {
      "inputs": [],
      "name": "userHasRoster",
      "outputs": [
        {
          "internalType": "bool",
          "name": "",
          "type": "bool"
        }
      ],
      "stateMutability": "view",
      "type": "function"
    }
  ],
  "bytecode": "0x60806040523480156200001157600080fd5b50604080518082018252601181527026a6a79037b710313637b1b5b1b430b4b760791b60208083019182528351808501909452600384526226a6a160e91b90840152815191929162000066916000916200011f565b5080516200007c9060019060208401906200011f565b5050506200009962000093620000c060201b60201c565b620000c4565b620000b060096200011660201b62003d051760201c565b6010805460ff1916905562000202565b3390565b600680546001600160a01b038381166001600160a01b0319831681179093556040519116919082907f8be0079c531659141344cd1fd0a4f28419497f9722a3daafe3b4186f6b6457e090600090a35050565b80546001019055565b8280546200012d90620001c5565b90600052602060002090601f0160209004810192826200015157600085556200019c565b82601f106200016c57805160ff19168380011785556200019c565b828001600101855582156200019c579182015b828111156200019c5782518255916020019190600101906200017f565b50620001aa929150620001ae565b5090565b5b80821115620001aa5760008155600101620001af565b600281046001821680620001da57607f821691505b60208210811415620001fc57634e487b7160e01b600052602260045260246000fd5b50919050565b615ade80620002126000396000f3fe608060405234801561001057600080fd5b50600436106102415760003560e01c8063715018a611610145578063a22cb465116100bd578063c87b56dd1161008c578063e985e9c511610071578063e985e9c5146104b2578063f2fde38b146104c5578063f866d86e146104d857610241565b8063c87b56dd1461047a578063d6ff4a2e1461048d57610241565b8063a22cb46514610439578063b4010cd71461044c578063b88d4fde14610454578063ba56957a1461046757610241565b80638ac4eeb31161011457806395d89b41116100f957806395d89b41146104215780639e5faafc14610429578063a05b6f3c1461043157610241565b80638ac4eeb3146104025780638da5cb5b1461041957610241565b8063715018a6146103ca5780637a3486fd146103d25780637a70d6ce146103e557806384e859b3146103ed57610241565b8063301d2c66116101d85780636352211e116101a75780636f5b9f4c1161018c5780636f5b9f4c1461038d578063709ccf70146103a257806370a08231146103b757610241565b80636352211e146103655780636484db811461037857610241565b8063301d2c66146102fa57806342842e0e1461031a57806344a83b811461032d5780635b4ecf251461035057610241565b8063081812fc11610214578063081812fc146102a1578063095ea7b3146102c157806323b872dd146102d45780632cce8985146102e757610241565b806301ffc9a7146102465780630434fe0b1461026f578063048925111461027957806306fdde031461028c575b600080fd5b610259610254366004614a40565b6104eb565b6040516102669190615101565b60405180910390f35b610277610565565b005b610277610287366004614a78565b610a39565b610294610c93565b604051610266919061510c565b6102b46102af366004614b5e565b610d25565b6040516102669190614f80565b6102776102cf366004614a17565b610d68565b6102776102e2366004614929565b610e00565b6102776102f5366004614b5e565b610e38565b61030d610308366004614b5e565b610eda565b604051610266919061584e565b610277610328366004614929565b6112a8565b61034061033b366004614b5e565b6112c3565b6040516102669493929190615144565b61035861166f565b604051610266919061583b565b6102b4610373366004614b5e565b611a4f565b610380611a84565b6040516102669190615861565b610395611a97565b604051610266919061500a565b6103aa611e8a565b60405161026691906150bd565b6103806103c53660046148dd565b611ee4565b610277611f28565b6102776103e0366004614ae0565b611f73565b6103aa6121f0565b6103f561224f565b604051610266919061506a565b61040a61264d565b6040516102669392919061586a565b6102b461265f565b61029461266e565b61027761267d565b610277612bff565b6102776104473660046149dd565b612d8e565b610259612da4565b610277610462366004614964565b612db9565b6103806104753660046148dd565b612df2565b610294610488366004614b5e565b612e04565b6104a061049b366004614b5e565b613276565b60405161026696959493929190615180565b6102596104c03660046148f7565b613616565b6102776104d33660046148dd565b613644565b6102776104e6366004614b5e565b6136b5565b60006001600160e01b031982167f80ac58cd00000000000000000000000000000000000000000000000000000000148061054e57506001600160e01b031982167f5b5e139f00000000000000000000000000000000000000000000000000000000145b8061055d575061055d82613d0e565b90505b919050565b336000908152600b60205260409020548061059b5760405162461bcd60e51b81526004016105929061557b565b60405180910390fd5b6000818152600c60205260409020600101546105c95760405162461bcd60e51b8152600401610592906156b6565b600160105460ff1660028111156105f057634e487b7160e01b600052602160045260246000fd5b1461060d5760405162461bcd60e51b815260040161059290615318565b336000908152600b6020908152604080832054808452600c909252808320815160c081019092528054929392829082906106469061596d565b80601f01602080910402602001604051908101604052809291908181526020018280546106729061596d565b80156106bf5780601f10610694576101008083540402835291602001916106bf565b820191906000526020600020905b8154815290600101906020018083116106a257829003601f168201915b5050505050815260200160018201548152602001600282015481526020016003820154815260200160048201548152602001600582016040518060a00160405290816000820180546107109061596d565b80601f016020809104026020016040519081016040528092919081815260200182805461073c9061596d565b80156107895780601f1061075e57610100808354040283529160200191610789565b820191906000526020600020905b81548152906001019060200180831161076c57829003601f168201915b505050505081526020016001820180546107a29061596d565b80601f01602080910402602001604051908101604052809291908181526020018280546107ce9061596d565b801561081b5780601f106107f05761010080835404028352916020019161081b565b820191906000526020600020905b8154815290600101906020018083116107fe57829003601f168201915b505050505081526020016002820180546108349061596d565b80601f01602080910402602001604051908101604052809291908181526020018280546108609061596d565b80156108ad5780601f10610882576101008083540402835291602001916108ad565b820191906000526020600020905b81548152906001019060200180831161089057829003601f168201915b505050505081526020016003820180546108c69061596d565b80601f01602080910402602001604051908101604052809291908181526020018280546108f29061596d565b801561093f5780601f106109145761010080835404028352916020019161093f565b820191906000526020600020905b81548152906001019060200180831161092257829003601f168201915b505050505081526020016004820180546109589061596d565b80601f01602080910402602001604051908101604052809291908181526020018280546109849061596d565b80156109d15780601f106109a6576101008083540402835291602001916109d1565b820191906000526020600020905b8154815290600101906020018083116109b457829003601f168201915b5050505050815250508152505090508060800151816020018181516109f691906158df565b90525060208101516040517f2be60dd22e04e67ada7a097b4345d62e9ba630d7a7a9b3c3341da2650204d25691610a2c91615861565b60405180910390a1505050565b610a41613d40565b6001600160a01b0316610a5261265f565b6001600160a01b031614610a785760405162461bcd60e51b815260040161059290615624565b610a806146a6565b848152602081018490526040810183905281518290600090610ab257634e487b7160e01b600052603260045260246000fd5b602002602001015181606001516000018190525081600181518110610ae757634e487b7160e01b600052603260045260246000fd5b602002602001015181606001516020018190525081600281518110610b1c57634e487b7160e01b600052603260045260246000fd5b602002602001015181606001516040018190525081600381518110610b5157634e487b7160e01b600052603260045260246000fd5b602002602001015181606001516060018190525081600481518110610b8657634e487b7160e01b600052603260045260246000fd5b6020908102919091018101516060830151608001526007805460018101825560009190915282518051849360089093027fa66cc928b5edb82af9bd49922954155ab7b0942694bea4ce44661d9a8736c6880192610be79284929101906146d3565b5060208281015160018301556040830151600283015560608301518051805191926003850192610c1a92849201906146d3565b506020828101518051610c3392600185019201906146d3565b5060408201518051610c4f9160028401916020909101906146d3565b5060608201518051610c6b9160038401916020909101906146d3565b5060808201518051610c879160048401916020909101906146d3565b50505050505050505050565b606060008054610ca29061596d565b80601f0160208091040260200160405190810160405280929190818152602001828054610cce9061596d565b8015610d1b5780601f10610cf057610100808354040283529160200191610d1b565b820191906000526020600020905b815481529060010190602001808311610cfe57829003601f168201915b5050505050905090565b6000610d3082613d44565b610d4c5760405162461bcd60e51b8152600401610592906155d8565b506000908152600460205260409020546001600160a01b031690565b6000610d7382611a4f565b9050806001600160a01b0316836001600160a01b03161415610da75760405162461bcd60e51b81526004016105929061574a565b806001600160a01b0316610db9613d40565b6001600160a01b03161480610dd55750610dd5816104c0613d40565b610df15760405162461bcd60e51b81526004016105929061542f565b610dfb8383613d61565b505050565b610e11610e0b613d40565b82613ddc565b610e2d5760405162461bcd60e51b8152600401610592906157a7565b610dfb838383613e61565b6000610e426121f0565b9050805160001415610e665760405162461bcd60e51b8152600401610592906156ed565b6000818381518110610e8857634e487b7160e01b600052603260045260246000fd5b602090810291909101810151336000818152600b90935260409283902082905591519092507f4ab331c7343bc62c19fcee84870baf1416412ec6d042360a819f31c0245d3bd491610a2c918490614fd0565b610ee2614757565b6000828152600c602052604090819020815160c08101909252805482908290610f0a9061596d565b80601f0160208091040260200160405190810160405280929190818152602001828054610f369061596d565b8015610f835780601f10610f5857610100808354040283529160200191610f83565b820191906000526020600020905b815481529060010190602001808311610f6657829003601f168201915b5050505050815260200160018201548152602001600282015481526020016003820154815260200160048201548152602001600582016040518060a0016040529081600082018054610fd49061596d565b80601f01602080910402602001604051908101604052809291908181526020018280546110009061596d565b801561104d5780601f106110225761010080835404028352916020019161104d565b820191906000526020600020905b81548152906001019060200180831161103057829003601f168201915b505050505081526020016001820180546110669061596d565b80601f01602080910402602001604051908101604052809291908181526020018280546110929061596d565b80156110df5780601f106110b4576101008083540402835291602001916110df565b820191906000526020600020905b8154815290600101906020018083116110c257829003601f168201915b505050505081526020016002820180546110f89061596d565b80601f01602080910402602001604051908101604052809291908181526020018280546111249061596d565b80156111715780601f1061114657610100808354040283529160200191611171565b820191906000526020600020905b81548152906001019060200180831161115457829003601f168201915b5050505050815260200160038201805461118a9061596d565b80601f01602080910402602001604051908101604052809291908181526020018280546111b69061596d565b80156112035780601f106111d857610100808354040283529160200191611203565b820191906000526020600020905b8154815290600101906020018083116111e657829003601f168201915b5050505050815260200160048201805461121c9061596d565b80601f01602080910402602001604051908101604052809291908181526020018280546112489061596d565b80156112955780601f1061126a57610100808354040283529160200191611295565b820191906000526020600020905b81548152906001019060200180831161127857829003601f168201915b5050509190925250505090525092915050565b610dfb83838360405180602001604052806000815250612db9565b600781815481106112d357600080fd5b90600052602060002090600802016000915090508060000180546112f69061596d565b80601f01602080910402602001604051908101604052809291908181526020018280546113229061596d565b801561136f5780601f106113445761010080835404028352916020019161136f565b820191906000526020600020905b81548152906001019060200180831161135257829003601f168201915b505050505090806001015490806002015490806003016040518060a00160405290816000820180546113a09061596d565b80601f01602080910402602001604051908101604052809291908181526020018280546113cc9061596d565b80156114195780601f106113ee57610100808354040283529160200191611419565b820191906000526020600020905b8154815290600101906020018083116113fc57829003601f168201915b505050505081526020016001820180546114329061596d565b80601f016020809104026020016040519081016040528092919081815260200182805461145e9061596d565b80156114ab5780601f10611480576101008083540402835291602001916114ab565b820191906000526020600020905b81548152906001019060200180831161148e57829003601f168201915b505050505081526020016002820180546114c49061596d565b80601f01602080910402602001604051908101604052809291908181526020018280546114f09061596d565b801561153d5780601f106115125761010080835404028352916020019161153d565b820191906000526020600020905b81548152906001019060200180831161152057829003601f168201915b505050505081526020016003820180546115569061596d565b80601f01602080910402602001604051908101604052809291908181526020018280546115829061596d565b80156115cf5780601f106115a4576101008083540402835291602001916115cf565b820191906000526020600020905b8154815290600101906020018083116115b257829003601f168201915b505050505081526020016004820180546115e89061596d565b80601f01602080910402602001604051908101604052809291908181526020018280546116149061596d565b80156116615780601f1061163657610100808354040283529160200191611661565b820191906000526020600020905b81548152906001019060200180831161164457829003601f168201915b505050505081525050905084565b6116776146a6565b6007600d600201548154811061169d57634e487b7160e01b600052603260045260246000fd5b90600052602060002090600802016040518060800160405290816000820180546116c69061596d565b80601f01602080910402602001604051908101604052809291908181526020018280546116f29061596d565b801561173f5780601f106117145761010080835404028352916020019161173f565b820191906000526020600020905b81548152906001019060200180831161172257829003601f168201915b505050505081526020016001820154815260200160028201548152602001600382016040518060a001604052908160008201805461177c9061596d565b80601f01602080910402602001604051908101604052809291908181526020018280546117a89061596d565b80156117f55780601f106117ca576101008083540402835291602001916117f5565b820191906000526020600020905b8154815290600101906020018083116117d857829003601f168201915b5050505050815260200160018201805461180e9061596d565b80601f016020809104026020016040519081016040528092919081815260200182805461183a9061596d565b80156118875780601f1061185c57610100808354040283529160200191611887565b820191906000526020600020905b81548152906001019060200180831161186a57829003601f168201915b505050505081526020016002820180546118a09061596d565b80601f01602080910402602001604051908101604052809291908181526020018280546118cc9061596d565b80156119195780601f106118ee57610100808354040283529160200191611919565b820191906000526020600020905b8154815290600101906020018083116118fc57829003601f168201915b505050505081526020016003820180546119329061596d565b80601f016020809104026020016040519081016040528092919081815260200182805461195e9061596d565b80156119ab5780601f10611980576101008083540402835291602001916119ab565b820191906000526020600020905b81548152906001019060200180831161198e57829003601f168201915b505050505081526020016004820180546119c49061596d565b80601f01602080910402602001604051908101604052809291908181526020018280546119f09061596d565b8015611a3d5780601f10611a1257610100808354040283529160200191611a3d565b820191906000526020600020905b815481529060010190602001808311611a2057829003601f168201915b50505050508152505081525050905090565b6000818152600260205260408120546001600160a01b03168061055d5760405162461bcd60e51b8152600401610592906154e9565b336000908152600b602052604090205490565b60606007805480602002602001604051908101604052809291908181526020016000905b82821015611e815783829060005260206000209060080201604051806080016040529081600082018054611aee9061596d565b80601f0160208091040260200160405190810160405280929190818152602001828054611b1a9061596d565b8015611b675780601f10611b3c57610100808354040283529160200191611b67565b820191906000526020600020905b815481529060010190602001808311611b4a57829003601f168201915b505050505081526020016001820154815260200160028201548152602001600382016040518060a0016040529081600082018054611ba49061596d565b80601f0160208091040260200160405190810160405280929190818152602001828054611bd09061596d565b8015611c1d5780601f10611bf257610100808354040283529160200191611c1d565b820191906000526020600020905b815481529060010190602001808311611c0057829003601f168201915b50505050508152602001600182018054611c369061596d565b80601f0160208091040260200160405190810160405280929190818152602001828054611c629061596d565b8015611caf5780601f10611c8457610100808354040283529160200191611caf565b820191906000526020600020905b815481529060010190602001808311611c9257829003601f168201915b50505050508152602001600282018054611cc89061596d565b80601f0160208091040260200160405190810160405280929190818152602001828054611cf49061596d565b8015611d415780601f10611d1657610100808354040283529160200191611d41565b820191906000526020600020905b815481529060010190602001808311611d2457829003601f168201915b50505050508152602001600382018054611d5a9061596d565b80601f0160208091040260200160405190810160405280929190818152602001828054611d869061596d565b8015611dd35780601f10611da857610100808354040283529160200191611dd3565b820191906000526020600020905b815481529060010190602001808311611db657829003601f168201915b50505050508152602001600482018054611dec9061596d565b80601f0160208091040260200160405190810160405280929190818152602001828054611e189061596d565b8015611e655780601f10611e3a57610100808354040283529160200191611e65565b820191906000526020600020905b815481529060010190602001808311611e4857829003601f168201915b5050505050815250508152505081526020019060010190611abb565b50505050905090565b6060600d600101805480602002602001604051908101604052809291908181526020018280548015610d1b57602002820191906000526020600020905b815481526020019060010190808311611ec7575050505050905090565b60006001600160a01b038216611f0c5760405162461bcd60e51b81526004016105929061548c565b506001600160a01b031660009081526003602052604090205490565b611f30613d40565b6001600160a01b0316611f4161265f565b6001600160a01b031614611f675760405162461bcd60e51b815260040161059290615624565b611f716000613fa1565b565b611f7b613d40565b6001600160a01b0316611f8c61265f565b6001600160a01b031614611fb25760405162461bcd60e51b815260040161059290615624565b611fba614757565b8581526020810185905260408101859052606081018490526080810183905281518290600090611ffa57634e487b7160e01b600052603260045260246000fd5b60200260200101518160a00151600001819052508160018151811061202f57634e487b7160e01b600052603260045260246000fd5b60200260200101518160a00151602001819052508160028151811061206457634e487b7160e01b600052603260045260246000fd5b60200260200101518160a00151604001819052508160038151811061209957634e487b7160e01b600052603260045260246000fd5b60200260200101518160a0015160600181905250816004815181106120ce57634e487b7160e01b600052603260045260246000fd5b60209081029190910181015160a08301516080015260088054600181018255600091909152825180518493600a9093027ff3f7a9fe364faab93b216da50a3214154f22a0a2b415b23a84c8169e8b636ee3019261212f9284929101906146d3565b50602082810151600183015560408301516002830155606083015160038301556080830151600483015560a0830151805180519192600585019261217692849201906146d3565b50602082810151805161218f92600185019201906146d3565b50604082015180516121ab9160028401916020909101906146d3565b50606082015180516121c79160038401916020909101906146d3565b50608082015180516121e39160048401916020909101906146d3565b5050505050505050505050565b336000908152600a6020908152604091829020805483518184028101840190945280845260609392830182828015610d1b5760200282019190600052602060002090815481526020019060010190808311611ec7575050505050905090565b60606008805480602002602001604051908101604052809291908181526020016000905b82821015611e8157838290600052602060002090600a02016040518060c00160405290816000820180546122a69061596d565b80601f01602080910402602001604051908101604052809291908181526020018280546122d29061596d565b801561231f5780601f106122f45761010080835404028352916020019161231f565b820191906000526020600020905b81548152906001019060200180831161230257829003601f168201915b5050505050815260200160018201548152602001600282015481526020016003820154815260200160048201548152602001600582016040518060a00160405290816000820180546123709061596d565b80601f016020809104026020016040519081016040528092919081815260200182805461239c9061596d565b80156123e95780601f106123be576101008083540402835291602001916123e9565b820191906000526020600020905b8154815290600101906020018083116123cc57829003601f168201915b505050505081526020016001820180546124029061596d565b80601f016020809104026020016040519081016040528092919081815260200182805461242e9061596d565b801561247b5780601f106124505761010080835404028352916020019161247b565b820191906000526020600020905b81548152906001019060200180831161245e57829003601f168201915b505050505081526020016002820180546124949061596d565b80601f01602080910402602001604051908101604052809291908181526020018280546124c09061596d565b801561250d5780601f106124e25761010080835404028352916020019161250d565b820191906000526020600020905b8154815290600101906020018083116124f057829003601f168201915b505050505081526020016003820180546125269061596d565b80601f01602080910402602001604051908101604052809291908181526020018280546125529061596d565b801561259f5780601f106125745761010080835404028352916020019161259f565b820191906000526020600020905b81548152906001019060200180831161258257829003601f168201915b505050505081526020016004820180546125b89061596d565b80601f01602080910402602001604051908101604052809291908181526020018280546125e49061596d565b80156126315780601f1061260657610100808354040283529160200191612631565b820191906000526020600020905b81548152906001019060200180831161261457829003601f168201915b5050505050815250508152505081526020019060010190612273565b600f5460105460115460ff9091169083565b6006546001600160a01b031690565b606060018054610ca29061596d565b336000908152600b6020526040902054806126aa5760405162461bcd60e51b81526004016105929061557b565b6000818152600c60205260409020600101546126d85760405162461bcd60e51b8152600401610592906156b6565b600160105460ff1660028111156126ff57634e487b7160e01b600052602160045260246000fd5b1461271c5760405162461bcd60e51b815260040161059290615318565b336000908152600b6020908152604080832054808452600c909252808320815160c081019092528054929392829082906127559061596d565b80601f01602080910402602001604051908101604052809291908181526020018280546127819061596d565b80156127ce5780601f106127a3576101008083540402835291602001916127ce565b820191906000526020600020905b8154815290600101906020018083116127b157829003601f168201915b5050505050815260200160018201548152602001600282015481526020016003820154815260200160048201548152602001600582016040518060a001604052908160008201805461281f9061596d565b80601f016020809104026020016040519081016040528092919081815260200182805461284b9061596d565b80156128985780601f1061286d57610100808354040283529160200191612898565b820191906000526020600020905b81548152906001019060200180831161287b57829003601f168201915b505050505081526020016001820180546128b19061596d565b80601f01602080910402602001604051908101604052809291908181526020018280546128dd9061596d565b801561292a5780601f106128ff5761010080835404028352916020019161292a565b820191906000526020600020905b81548152906001019060200180831161290d57829003601f168201915b505050505081526020016002820180546129439061596d565b80601f016020809104026020016040519081016040528092919081815260200182805461296f9061596d565b80156129bc5780601f10612991576101008083540402835291602001916129bc565b820191906000526020600020905b81548152906001019060200180831161299f57829003601f168201915b505050505081526020016003820180546129d59061596d565b80601f0160208091040260200160405190810160405280929190818152602001828054612a019061596d565b8015612a4e5780601f10612a2357610100808354040283529160200191612a4e565b820191906000526020600020905b815481529060010190602001808311612a3157829003601f168201915b50505050508152602001600482018054612a679061596d565b80601f0160208091040260200160405190810160405280929190818152602001828054612a939061596d565b8015612ae05780601f10612ab557610100808354040283529160200191612ae0565b820191906000526020600020905b815481529060010190602001808311612ac357829003601f168201915b5050505050815250508152505090506000612af961166f565b9050816060015181602001511015612b4d576000602082018190526010805460ff191660021790556040517f269d9f015d2199a6ad46cb528cb72c6abb82051b8f9600c6c248f70bdb2280079190a1612bf9565b816060015181602001818151612b63919061592a565b90525060208101516040517f9210d575f4de024306f860b201c73427d7a6b3e78d196ceb78b759e604748b0e91612b9991615861565b60405180910390a1806040015182602001818151612bb7919061592a565b90525060208201516040517fbd6b16c457760fecc6c1d7b918e9d93314a50c6cb969949a655c76a1475e80b491612bf0918691906158a0565b60405180910390a15b50505050565b336000908152600b6020908152604080832054808452600c90925290912060010154612c3d5760405162461bcd60e51b815260040161059290615659565b336000908152600d602052604090205415612c6a5760405162461bcd60e51b815260040161059290615804565b600060105460ff166002811115612c9157634e487b7160e01b600052602160045260246000fd5b1415612d1157600f546000612ca78260016158df565b600754909150612cb99060019061592a565b811115612cc4575060005b600f8190556010805460ff191660011790556040517fbe09ad21ad3fc23ae505a4badead1958018bfcb0f57d0785de620f4bb265025f90612d06908490615861565b60405180910390a150505b600e8054600181019091557fbb7b4a454dc3493923482f07822329ed19e8244eff582cc204f8554c3620c3fd01819055336000908152600d602052604090819020829055517f2e432824193b39d9199593c5ad19c9019ba8b695dd248e8edbe4292c303efaaa90612d83908390615861565b60405180910390a150565b612da0612d99613d40565b8383614000565b5050565b336000908152600a6020526040902054151590565b612dca612dc4613d40565b83613ddc565b612de65760405162461bcd60e51b8152600401610592906157a7565b612bf9848484846140a3565b600b6020526000908152604090205481565b60606000600c60008481526020019081526020016000206040518060c0016040529081600082018054612e369061596d565b80601f0160208091040260200160405190810160405280929190818152602001828054612e629061596d565b8015612eaf5780601f10612e8457610100808354040283529160200191612eaf565b820191906000526020600020905b815481529060010190602001808311612e9257829003601f168201915b5050505050815260200160018201548152602001600282015481526020016003820154815260200160048201548152602001600582016040518060a0016040529081600082018054612f009061596d565b80601f0160208091040260200160405190810160405280929190818152602001828054612f2c9061596d565b8015612f795780601f10612f4e57610100808354040283529160200191612f79565b820191906000526020600020905b815481529060010190602001808311612f5c57829003601f168201915b50505050508152602001600182018054612f929061596d565b80601f0160208091040260200160405190810160405280929190818152602001828054612fbe9061596d565b801561300b5780601f10612fe05761010080835404028352916020019161300b565b820191906000526020600020905b815481529060010190602001808311612fee57829003601f168201915b505050505081526020016002820180546130249061596d565b80601f01602080910402602001604051908101604052809291908181526020018280546130509061596d565b801561309d5780601f106130725761010080835404028352916020019161309d565b820191906000526020600020905b81548152906001019060200180831161308057829003601f168201915b505050505081526020016003820180546130b69061596d565b80601f01602080910402602001604051908101604052809291908181526020018280546130e29061596d565b801561312f5780601f106131045761010080835404028352916020019161312f565b820191906000526020600020905b81548152906001019060200180831161311257829003601f168201915b505050505081526020016004820180546131489061596d565b80601f01602080910402602001604051908101604052809291908181526020018280546131749061596d565b80156131c15780601f10613196576101008083540402835291602001916131c1565b820191906000526020600020905b8154815290600101906020018083116131a457829003601f168201915b50505050508152505081525050905060006131df82602001516140d6565b905060006131ed60c86140d6565b905060006131fe84606001516140d6565b905060006132458560000151613213896140d6565b60a08801515160405161323193929190899089908990602001614dc7565b604051602081830303815290604052614225565b905060008160405160200161325a9190614f3b565b60408051808303601f1901815291905298975050505050505050565b600c602052600090815260409020805481906132919061596d565b80601f01602080910402602001604051908101604052809291908181526020018280546132bd9061596d565b801561330a5780601f106132df5761010080835404028352916020019161330a565b820191906000526020600020905b8154815290600101906020018083116132ed57829003601f168201915b505050505090806001015490806002015490806003015490806004015490806005016040518060a00160405290816000820180546133479061596d565b80601f01602080910402602001604051908101604052809291908181526020018280546133739061596d565b80156133c05780601f10613395576101008083540402835291602001916133c0565b820191906000526020600020905b8154815290600101906020018083116133a357829003601f168201915b505050505081526020016001820180546133d99061596d565b80601f01602080910402602001604051908101604052809291908181526020018280546134059061596d565b80156134525780601f1061342757610100808354040283529160200191613452565b820191906000526020600020905b81548152906001019060200180831161343557829003601f168201915b5050505050815260200160028201805461346b9061596d565b80601f01602080910402602001604051908101604052809291908181526020018280546134979061596d565b80156134e45780601f106134b9576101008083540402835291602001916134e4565b820191906000526020600020905b8154815290600101906020018083116134c757829003601f168201915b505050505081526020016003820180546134fd9061596d565b80601f01602080910402602001604051908101604052809291908181526020018280546135299061596d565b80156135765780601f1061354b57610100808354040283529160200191613576565b820191906000526020600020905b81548152906001019060200180831161355957829003601f168201915b5050505050815260200160048201805461358f9061596d565b80601f01602080910402602001604051908101604052809291908181526020018280546135bb9061596d565b80156136085780601f106135dd57610100808354040283529160200191613608565b820191906000526020600020905b8154815290600101906020018083116135eb57829003601f168201915b505050505081525050905086565b6001600160a01b03918216600090815260056020908152604080832093909416825291909152205460ff1690565b61364c613d40565b6001600160a01b031661365d61265f565b6001600160a01b0316146136835760405162461bcd60e51b815260040161059290615624565b6001600160a01b0381166136a95760405162461bcd60e51b815260040161059290615227565b6136b281613fa1565b50565b60006136c16009614388565b90506136e6604051806060016040528060398152602001615a7060399139838361438c565b6136f03382614401565b336000908152600a6020908152604080832080546001810182559084529190922001829055805160c08101909152600880548291908590811061374357634e487b7160e01b600052603260045260246000fd5b90600052602060002090600a0201600001805461375f9061596d565b80601f016020809104026020016040519081016040528092919081815260200182805461378b9061596d565b80156137d85780601f106137ad576101008083540402835291602001916137d8565b820191906000526020600020905b8154815290600101906020018083116137bb57829003601f168201915b505050505081526020016008848154811061380357634e487b7160e01b600052603260045260246000fd5b90600052602060002090600a02016001015481526020016008848154811061383b57634e487b7160e01b600052603260045260246000fd5b90600052602060002090600a02016002015481526020016008848154811061387357634e487b7160e01b600052603260045260246000fd5b90600052602060002090600a0201600301548152602001600884815481106138ab57634e487b7160e01b600052603260045260246000fd5b90600052602060002090600a0201600401548152602001600884815481106138e357634e487b7160e01b600052603260045260246000fd5b90600052602060002090600a02016005016040518060a001604052908160008201805461390f9061596d565b80601f016020809104026020016040519081016040528092919081815260200182805461393b9061596d565b80156139885780601f1061395d57610100808354040283529160200191613988565b820191906000526020600020905b81548152906001019060200180831161396b57829003601f168201915b505050505081526020016001820180546139a19061596d565b80601f01602080910402602001604051908101604052809291908181526020018280546139cd9061596d565b8015613a1a5780601f106139ef57610100808354040283529160200191613a1a565b820191906000526020600020905b8154815290600101906020018083116139fd57829003601f168201915b50505050508152602001600282018054613a339061596d565b80601f0160208091040260200160405190810160405280929190818152602001828054613a5f9061596d565b8015613aac5780601f10613a8157610100808354040283529160200191613aac565b820191906000526020600020905b815481529060010190602001808311613a8f57829003601f168201915b50505050508152602001600382018054613ac59061596d565b80601f0160208091040260200160405190810160405280929190818152602001828054613af19061596d565b8015613b3e5780601f10613b1357610100808354040283529160200191613b3e565b820191906000526020600020905b815481529060010190602001808311613b2157829003601f168201915b50505050508152602001600482018054613b579061596d565b80601f0160208091040260200160405190810160405280929190818152602001828054613b839061596d565b8015613bd05780601f10613ba557610100808354040283529160200191613bd0565b820191906000526020600020905b815481529060010190602001808311613bb357829003601f168201915b5050509190925250505090526000828152600c60209081526040909120825180519192613c02928492909101906146d3565b50602082810151600183015560408301516002830155606083015160038301556080830151600483015560a08301518051805191926005850192613c4992849201906146d3565b506020828101518051613c6292600185019201906146d3565b5060408201518051613c7e9160028401916020909101906146d3565b5060608201518051613c9a9160038401916020909101906146d3565b5060808201518051613cb69160048401916020909101906146d3565b505050905050613cc66009613d05565b7fd9d05697e27265a7dde2215564d09b5fef132a05c9693b089ef90388285596ce338284604051613cf993929190614fe9565b60405180910390a15050565b80546001019055565b6001600160e01b031981167f01ffc9a70000000000000000000000000000000000000000000000000000000014919050565b3390565b6000908152600260205260409020546001600160a01b0316151590565b6000818152600460205260409020805473ffffffffffffffffffffffffffffffffffffffff19166001600160a01b0384169081179091558190613da382611a4f565b6001600160a01b03167f8c5be1e5ebec7d5bd14f71427d1e84f3dd0314c0f7b2291e5b200ac8c7c3b92560405160405180910390a45050565b6000613de782613d44565b613e035760405162461bcd60e51b8152600401610592906153e3565b6000613e0e83611a4f565b9050806001600160a01b0316846001600160a01b03161480613e495750836001600160a01b0316613e3e84610d25565b6001600160a01b0316145b80613e595750613e598185613616565b949350505050565b826001600160a01b0316613e7482611a4f565b6001600160a01b031614613e9a5760405162461bcd60e51b815260040161059290615284565b6001600160a01b038216613ec05760405162461bcd60e51b81526004016105929061534f565b613ecb838383610dfb565b613ed6600082613d61565b6001600160a01b0383166000908152600360205260408120805460019290613eff90849061592a565b90915550506001600160a01b0382166000908152600360205260408120805460019290613f2d9084906158df565b9091555050600081815260026020526040808220805473ffffffffffffffffffffffffffffffffffffffff19166001600160a01b0386811691821790925591518493918716917fddf252ad1be2c89b69c2b068fc378daa952ba7f163c4a11628f55a4df523b3ef91a4610dfb838383610dfb565b600680546001600160a01b0383811673ffffffffffffffffffffffffffffffffffffffff19831681179093556040519116919082907f8be0079c531659141344cd1fd0a4f28419497f9722a3daafe3b4186f6b6457e090600090a35050565b816001600160a01b0316836001600160a01b031614156140325760405162461bcd60e51b8152600401610592906153ac565b6001600160a01b0383811660008181526005602090815260408083209487168084529490915290819020805460ff1916851515179055517f17307eab39ab6107e8899845ad3d59bd9653f200f220920489ca2b5937696c3190614096908590615101565b60405180910390a3505050565b6140ae848484613e61565b6140ba8484848461441b565b612bf95760405162461bcd60e51b8152600401610592906151ca565b606081614117575060408051808201909152600181527f30000000000000000000000000000000000000000000000000000000000000006020820152610560565b8160005b8115614141578061412b816159a8565b915061413a9050600a836158f7565b915061411b565b60008167ffffffffffffffff81111561416a57634e487b7160e01b600052604160045260246000fd5b6040519080825280601f01601f191660200182016040528015614194576020820181803683370190505b5090505b8415613e59576141a960018361592a565b91506141b6600a866159c3565b6141c19060306158df565b60f81b8183815181106141e457634e487b7160e01b600052603260045260246000fd5b60200101907effffffffffffffffffffffffffffffffffffffffffffffffffffffffffffff1916908160001a90535061421e600a866158f7565b9450614198565b60608151600014156142465750604080516020810190915260008152610560565b6000604051806060016040528060408152602001615a30604091399050600060038451600261427591906158df565b61427f91906158f7565b61428a90600461590b565b67ffffffffffffffff8111156142b057634e487b7160e01b600052604160045260246000fd5b6040519080825280601f01601f1916602001820160405280156142da576020820181803683370190505b509050600182016020820185865187015b80821015614346576003820191508151603f8160121c168501518453600184019350603f81600c1c168501518453600184019350603f8160061c168501518453600184019350603f81168501518453506001830192506142eb565b505060038651066001811461436257600281146143755761437d565b603d6001830353603d600283035361437d565b603d60018303535b509195945050505050565b5490565b610dfb8383836040516024016143a49392919061511f565b60408051601f198184030181529190526020810180517bffffffffffffffffffffffffffffffffffffffffffffffffffffffff167f969cdd030000000000000000000000000000000000000000000000000000000017905261454f565b612da0828260405180602001604052806000815250614570565b600061442f846001600160a01b03166145a3565b1561454457836001600160a01b031663150b7a0261444b613d40565b8786866040518563ffffffff1660e01b815260040161446d9493929190614f94565b602060405180830381600087803b15801561448757600080fd5b505af19250505080156144b7575060408051601f3d908101601f191682019092526144b491810190614a5c565b60015b614511573d8080156144e5576040519150601f19603f3d011682016040523d82523d6000602084013e6144ea565b606091505b5080516145095760405162461bcd60e51b8152600401610592906151ca565b805181602001fd5b6001600160e01b0319167f150b7a0200000000000000000000000000000000000000000000000000000000149050613e59565b506001949350505050565b80516a636f6e736f6c652e6c6f67602083016000808483855afa5050505050565b61457a83836145b2565b614587600084848461441b565b610dfb5760405162461bcd60e51b8152600401610592906151ca565b6001600160a01b03163b151590565b6001600160a01b0382166145d85760405162461bcd60e51b815260040161059290615546565b6145e181613d44565b156145fe5760405162461bcd60e51b8152600401610592906152e1565b61460a60008383610dfb565b6001600160a01b03821660009081526003602052604081208054600192906146339084906158df565b9091555050600081815260026020526040808220805473ffffffffffffffffffffffffffffffffffffffff19166001600160a01b03861690811790915590518392907fddf252ad1be2c89b69c2b068fc378daa952ba7f163c4a11628f55a4df523b3ef908290a4612da060008383610dfb565b60405180608001604052806060815260200160008152602001600081526020016146ce614789565b905290565b8280546146df9061596d565b90600052602060002090601f0160209004810192826147015760008555614747565b82601f1061471a57805160ff1916838001178555614747565b82800160010185558215614747579182015b8281111561474757825182559160200191906001019061472c565b506147539291506147b8565b5090565b6040518060c0016040528060608152602001600081526020016000815260200160008152602001600081526020016146ce5b6040518060a0016040528060608152602001606081526020016060815260200160608152602001606081525090565b5b8082111561475357600081556001016147b9565b600067ffffffffffffffff8311156147e7576147e7615a03565b6147fa601f8401601f19166020016158ae565b905082815283838301111561480e57600080fd5b828260208301376000602084830101529392505050565b80356001600160a01b038116811461056057600080fd5b600082601f83011261484c578081fd5b8135602067ffffffffffffffff82111561486857614868615a03565b61487581828402016158ae565b82815281810190858301855b858110156148aa57614898898684358b01016148b7565b84529284019290840190600101614881565b5090979650505050505050565b600082601f8301126148c7578081fd5b6148d6838335602085016147cd565b9392505050565b6000602082840312156148ee578081fd5b6148d682614825565b60008060408385031215614909578081fd5b61491283614825565b915061492060208401614825565b90509250929050565b60008060006060848603121561493d578081fd5b61494684614825565b925061495460208501614825565b9150604084013590509250925092565b60008060008060808587031215614979578081fd5b61498285614825565b935061499060208601614825565b925060408501359150606085013567ffffffffffffffff8111156149b2578182fd5b8501601f810187136149c2578182fd5b6149d1878235602084016147cd565b91505092959194509250565b600080604083850312156149ef578182fd5b6149f883614825565b915060208301358015158114614a0c578182fd5b809150509250929050565b60008060408385031215614a29578182fd5b614a3283614825565b946020939093013593505050565b600060208284031215614a51578081fd5b81356148d681615a19565b600060208284031215614a6d578081fd5b81516148d681615a19565b60008060008060808587031215614a8d578384fd5b843567ffffffffffffffff80821115614aa4578586fd5b614ab0888389016148b7565b955060208701359450604087013593506060870135915080821115614ad3578283fd5b506149d18782880161483c565b600080600080600060a08688031215614af7578081fd5b853567ffffffffffffffff80821115614b0e578283fd5b614b1a89838a016148b7565b96506020880135955060408801359450606088013593506080880135915080821115614b44578283fd5b50614b518882890161483c565b9150509295509295909350565b600060208284031215614b6f578081fd5b5035919050565b60008151808452614b8e816020860160208601615941565b601f01601f19169290920160200192915050565b60008151614bb4818560208601615941565b9290920192915050565b7f2c20226d61785f76616c7565223a0000000000000000000000000000000000008152600e0190565b7f7d205d7d00000000000000000000000000000000000000000000000000000000815260040190565b7f222c202261747472696275746573223a205b207b202274726169745f7479706581527f223a20224865616c746820506f696e7473222c202276616c7565223a200000006020820152603d0190565b7f7d2c207b202274726169745f74797065223a202241747461636b2044616d616781527f65222c202276616c7565223a20000000000000000000000000000000000000006020820152602d0190565b6000815160808452614cc36080850182614b76565b9050602083015160208501526040830151604085015260608301518482036060860152614cf08282614d4b565b95945050505050565b6000815160c08452614d0e60c0850182614b76565b90506020830151602085015260408301516040850152606083015160608501526080830151608085015260a083015184820360a0860152614cf082825b6000815160a08452614d6060a0850182614b76565b905060208301518482036020860152614d798282614b76565b91505060408301518482036040860152614d938282614b76565b91505060608301518482036060860152614dad8282614b76565b91505060808301518482036080860152614cf08282614b76565b60007f7b226e616d65223a20220000000000000000000000000000000000000000000082528751614dff81600a850160208c01615941565b7f202d2d204e465420233a20000000000000000000000000000000000000000000600a918401918201528751614e3c816015840160208c01615941565b7f222c20226465736372697074696f6e223a20225468697320697320616e204e46601592909101918201527f542074686174206c6574732070656f706c6520706c617920696e20746865206760358201527f616d65204d657461766572736520536c6179657221222c2022696d616765223a60558201527f202200000000000000000000000000000000000000000000000000000000000060758201528651614eec816077840160208b01615941565b614f2d614f28614f22614f1d614f17614f12614f0c6077888a0101614c10565b8d614ba2565b614bbe565b8a614ba2565b614c5f565b87614ba2565b614be7565b9a9950505050505050505050565b60007f646174613a6170706c69636174696f6e2f6a736f6e3b6261736536342c00000082528251614f7381601d850160208701615941565b91909101601d0192915050565b6001600160a01b0391909116815260200190565b60006001600160a01b03808716835280861660208401525083604083015260806060830152614fc66080830184614b76565b9695505050505050565b6001600160a01b03929092168252602082015260400190565b6001600160a01b039390931683526020830191909152604082015260600190565b6000602080830181845280855180835260408601915060408482028701019250838701855b8281101561505d57603f1988860301845261504b858351614cae565b9450928501929085019060010161502f565b5092979650505050505050565b6000602080830181845280855180835260408601915060408482028701019250838701855b8281101561505d57603f198886030184526150ab858351614cf9565b9450928501929085019060010161508f565b6020808252825182820181905260009190848201906040850190845b818110156150f5578351835292840192918401916001016150d9565b50909695505050505050565b901515815260200190565b6000602082526148d66020830184614b76565b6000606082526151326060830186614b76565b60208301949094525060400152919050565b6000608082526151576080830187614b76565b85602084015284604084015282810360608401526151758185614d4b565b979650505050505050565b600060c0825261519360c0830189614b76565b87602084015286604084015285606084015284608084015282810360a08401526151bd8185614d4b565b9998505050505050505050565b60208082526032908201527f4552433732313a207472616e7366657220746f206e6f6e20455243373231526560408201527f63656976657220696d706c656d656e7465720000000000000000000000000000606082015260800190565b60208082526026908201527f4f776e61626c653a206e6577206f776e657220697320746865207a65726f206160408201527f6464726573730000000000000000000000000000000000000000000000000000606082015260800190565b60208082526025908201527f4552433732313a207472616e736665722066726f6d20696e636f72726563742060408201527f6f776e6572000000000000000000000000000000000000000000000000000000606082015260800190565b6020808252601c908201527f4552433732313a20746f6b656e20616c7265616479206d696e74656400000000604082015260600190565b60208082526019908201527f4172656e6120686173206e6f7420737461727465642079657400000000000000604082015260600190565b60208082526024908201527f4552433732313a207472616e7366657220746f20746865207a65726f2061646460408201527f7265737300000000000000000000000000000000000000000000000000000000606082015260800190565b60208082526019908201527f4552433732313a20617070726f766520746f2063616c6c657200000000000000604082015260600190565b6020808252602c908201527f4552433732313a206f70657261746f7220717565727920666f72206e6f6e657860408201526b34b9ba32b73a103a37b5b2b760a11b606082015260800190565b60208082526038908201527f4552433732313a20617070726f76652063616c6c6572206973206e6f74206f7760408201527f6e6572206e6f7220617070726f76656420666f7220616c6c0000000000000000606082015260800190565b6020808252602a908201527f4552433732313a2062616c616e636520717565727920666f7220746865207a6560408201527f726f206164647265737300000000000000000000000000000000000000000000606082015260800190565b60208082526029908201527f4552433732313a206f776e657220717565727920666f72206e6f6e657869737460408201527f656e7420746f6b656e0000000000000000000000000000000000000000000000606082015260800190565b6020808252818101527f4552433732313a206d696e7420746f20746865207a65726f2061646472657373604082015260600190565b60208082526024908201527f5573657220686173206e6f742061206368616d70696f6e20696e20746865206160408201527f72656e6100000000000000000000000000000000000000000000000000000000606082015260800190565b6020808252602c908201527f4552433732313a20617070726f76656420717565727920666f72206e6f6e657860408201526b34b9ba32b73a103a37b5b2b760a11b606082015260800190565b6020808252818101527f4f776e61626c653a2063616c6c6572206973206e6f7420746865206f776e6572604082015260600190565b60208082526025908201527f4368616d70696f6e20697320646561642c2063616e6e6f742061646420746f2060408201527f6172656e61000000000000000000000000000000000000000000000000000000606082015260800190565b6020808252601f908201527f4368616d70696f6e20697320646561642c2063616e6e6f742061747461636b00604082015260600190565b6020808252602d908201527f55736572206d7573742068617665206120726f7374657220746f2073656c656360408201527f742061206368616d70696f6e2e00000000000000000000000000000000000000606082015260800190565b60208082526021908201527f4552433732313a20617070726f76616c20746f2063757272656e74206f776e6560408201527f7200000000000000000000000000000000000000000000000000000000000000606082015260800190565b60208082526031908201527f4552433732313a207472616e736665722063616c6c6572206973206e6f74206f60408201527f776e6572206e6f7220617070726f766564000000000000000000000000000000606082015260800190565b60208082526019908201527f4368616d70696f6e20616c726561647920696e206172656e6100000000000000604082015260600190565b6000602082526148d66020830184614cae565b6000602082526148d66020830184614cf9565b90815260200190565b838152606081016003841061588f57634e487b7160e01b600052602160045260246000fd5b602082019390935260400152919050565b918252602082015260400190565b604051601f8201601f1916810167ffffffffffffffff811182821017156158d7576158d7615a03565b604052919050565b600082198211156158f2576158f26159d7565b500190565b600082615906576159066159ed565b500490565b6000816000190483118215151615615925576159256159d7565b500290565b60008282101561593c5761593c6159d7565b500390565b60005b8381101561595c578181015183820152602001615944565b83811115612bf95750506000910152565b60028104600182168061598157607f821691505b602082108114156159a257634e487b7160e01b600052602260045260246000fd5b50919050565b60006000198214156159bc576159bc6159d7565b5060010190565b6000826159d2576159d26159ed565b500690565b634e487b7160e01b600052601160045260246000fd5b634e487b7160e01b600052601260045260246000fd5b634e487b7160e01b600052604160045260246000fd5b6001600160e01b0319811681146136b257600080fdfe4142434445464748494a4b4c4d4e4f505152535455565758595a6162636465666768696a6b6c6d6e6f707172737475767778797a303132333435363738392b2f5265676973746572696e67206368616d70696f6e6964202573206f6e2074686520636f6e7472616374207769746820746f6b656e4944202564a26469706673582212200df5b699f7e4c7283939d7dc55ea079acdc4e9c4a3e089fae55d4ac95a03ddc964736f6c63430008010033",
  "linkReferences": {},
  "deployedLinkReferences": {}
}