{
  "_format": "hh-sol-artifact-1",
  "contractName": "Roster",
  "sourceName": "contracts/Roster.sol",
  "abi": [
    {
      "inputs": [],
      "stateMutability": "nonpayable",
      "type": "constructor"
    },
    {
      "anonymous": false,
      "inputs": [
        {
          "indexed": true,
          "internalType": "address",
          "name": "owner",
          "type": "address"
        },
        {
          "indexed": true,
          "internalType": "address",
          "name": "approved",
          "type": "address"
        },
        {
          "indexed": true,
          "internalType": "uint256",
          "name": "tokenId",
          "type": "uint256"
        }
      ],
      "name": "Approval",
      "type": "event"
    },
    {
      "anonymous": false,
      "inputs": [
        {
          "indexed": true,
          "internalType": "address",
          "name": "owner",
          "type": "address"
        },
        {
          "indexed": true,
          "internalType": "address",
          "name": "operator",
          "type": "address"
        },
        {
          "indexed": false,
          "internalType": "bool",
          "name": "approved",
          "type": "bool"
        }
      ],
      "name": "ApprovalForAll",
      "type": "event"
    },
    {
      "anonymous": false,
      "inputs": [
        {
          "indexed": false,
          "internalType": "address",
          "name": "userToNotify",
          "type": "address"
        },
        {
          "indexed": false,
          "internalType": "uint256",
          "name": "tokenId",
          "type": "uint256"
        },
        {
          "indexed": false,
          "internalType": "uint256",
          "name": "championIndex",
          "type": "uint256"
        }
      ],
      "name": "ChampionAddedToRoster",
      "type": "event"
    },
    {
      "anonymous": false,
      "inputs": [
        {
          "indexed": false,
          "internalType": "address",
          "name": "userToNotify",
          "type": "address"
        },
        {
          "indexed": false,
          "internalType": "uint256",
          "name": "tokenId",
          "type": "uint256"
        }
      ],
      "name": "ChampionSelected",
      "type": "event"
    },
    {
      "anonymous": false,
      "inputs": [
        {
          "indexed": true,
          "internalType": "address",
          "name": "previousOwner",
          "type": "address"
        },
        {
          "indexed": true,
          "internalType": "address",
          "name": "newOwner",
          "type": "address"
        }
      ],
      "name": "OwnershipTransferred",
      "type": "event"
    },
    {
      "anonymous": false,
      "inputs": [
        {
          "indexed": true,
          "internalType": "address",
          "name": "from",
          "type": "address"
        },
        {
          "indexed": true,
          "internalType": "address",
          "name": "to",
          "type": "address"
        },
        {
          "indexed": true,
          "internalType": "uint256",
          "name": "tokenId",
          "type": "uint256"
        }
      ],
      "name": "Transfer",
      "type": "event"
    },
    {
      "inputs": [
        {
          "internalType": "uint256",
          "name": "",
          "type": "uint256"
        }
      ],
      "name": "NftHolderChampion",
      "outputs": [
        {
          "internalType": "string",
          "name": "name",
          "type": "string"
        },
        {
          "internalType": "uint256",
          "name": "health",
          "type": "uint256"
        },
        {
          "internalType": "uint256",
          "name": "maxHealth",
          "type": "uint256"
        },
        {
          "internalType": "uint256",
          "name": "attackPower",
          "type": "uint256"
        },
        {
          "internalType": "uint256",
          "name": "healPower",
          "type": "uint256"
        },
        {
          "components": [
            {
              "internalType": "string",
              "name": "idle",
              "type": "string"
            },
            {
              "internalType": "string",
              "name": "attack",
              "type": "string"
            },
            {
              "internalType": "string",
              "name": "hurt",
              "type": "string"
            },
            {
              "internalType": "string",
              "name": "dying",
              "type": "string"
            },
            {
              "internalType": "string",
              "name": "dead",
              "type": "string"
            }
          ],
          "internalType": "struct GifStatus",
          "name": "gifUris",
          "type": "tuple"
        }
      ],
      "stateMutability": "view",
      "type": "function"
    },
    {
      "inputs": [
        {
          "internalType": "address",
          "name": "",
          "type": "address"
        }
      ],
      "name": "SelectedChampion",
      "outputs": [
        {
          "internalType": "uint256",
          "name": "",
          "type": "uint256"
        }
      ],
      "stateMutability": "view",
      "type": "function"
    },
    {
      "inputs": [
        {
          "internalType": "uint256",
          "name": "_championIndex",
          "type": "uint256"
        }
      ],
      "name": "addChampionToRoster",
      "outputs": [],
      "stateMutability": "nonpayable",
      "type": "function"
    },
    {
      "inputs": [
        {
          "internalType": "address",
          "name": "to",
          "type": "address"
        },
        {
          "internalType": "uint256",
          "name": "tokenId",
          "type": "uint256"
        }
      ],
      "name": "approve",
      "outputs": [],
      "stateMutability": "nonpayable",
      "type": "function"
    },
    {
      "inputs": [
        {
          "internalType": "address",
          "name": "owner",
          "type": "address"
        }
      ],
      "name": "balanceOf",
      "outputs": [
        {
          "internalType": "uint256",
          "name": "",
          "type": "uint256"
        }
      ],
      "stateMutability": "view",
      "type": "function"
    },
    {
      "inputs": [
        {
          "internalType": "uint256",
          "name": "tokenId",
          "type": "uint256"
        }
      ],
      "name": "getApproved",
      "outputs": [
        {
          "internalType": "address",
          "name": "",
          "type": "address"
        }
      ],
      "stateMutability": "view",
      "type": "function"
    },
    {
      "inputs": [
        {
          "internalType": "uint256",
          "name": "recordId",
          "type": "uint256"
        }
      ],
      "name": "getNFTChampion",
      "outputs": [
        {
          "components": [
            {
              "internalType": "string",
              "name": "name",
              "type": "string"
            },
            {
              "internalType": "uint256",
              "name": "health",
              "type": "uint256"
            },
            {
              "internalType": "uint256",
              "name": "maxHealth",
              "type": "uint256"
            },
            {
              "internalType": "uint256",
              "name": "attackPower",
              "type": "uint256"
            },
            {
              "internalType": "uint256",
              "name": "healPower",
              "type": "uint256"
            },
            {
              "components": [
                {
                  "internalType": "string",
                  "name": "idle",
                  "type": "string"
                },
                {
                  "internalType": "string",
                  "name": "attack",
                  "type": "string"
                },
                {
                  "internalType": "string",
                  "name": "hurt",
                  "type": "string"
                },
                {
                  "internalType": "string",
                  "name": "dying",
                  "type": "string"
                },
                {
                  "internalType": "string",
                  "name": "dead",
                  "type": "string"
                }
              ],
              "internalType": "struct GifStatus",
              "name": "gifUris",
              "type": "tuple"
            }
          ],
          "internalType": "struct Champion",
          "name": "",
          "type": "tuple"
        }
      ],
      "stateMutability": "view",
      "type": "function"
    },
    {
      "inputs": [],
      "name": "getSelectedChampion",
      "outputs": [
        {
          "internalType": "uint256",
          "name": "",
          "type": "uint256"
        }
      ],
      "stateMutability": "view",
      "type": "function"
    },
    {
      "inputs": [],
      "name": "getUserRoster",
      "outputs": [
        {
          "internalType": "uint256[]",
          "name": "",
          "type": "uint256[]"
        }
      ],
      "stateMutability": "view",
      "type": "function"
    },
    {
      "inputs": [
        {
          "internalType": "address",
          "name": "owner",
          "type": "address"
        },
        {
          "internalType": "address",
          "name": "operator",
          "type": "address"
        }
      ],
      "name": "isApprovedForAll",
      "outputs": [
        {
          "internalType": "bool",
          "name": "",
          "type": "bool"
        }
      ],
      "stateMutability": "view",
      "type": "function"
    },
    {
      "inputs": [],
      "name": "name",
      "outputs": [
        {
          "internalType": "string",
          "name": "",
          "type": "string"
        }
      ],
      "stateMutability": "view",
      "type": "function"
    },
    {
      "inputs": [],
      "name": "owner",
      "outputs": [
        {
          "internalType": "address",
          "name": "",
          "type": "address"
        }
      ],
      "stateMutability": "view",
      "type": "function"
    },
    {
      "inputs": [
        {
          "internalType": "uint256",
          "name": "tokenId",
          "type": "uint256"
        }
      ],
      "name": "ownerOf",
      "outputs": [
        {
          "internalType": "address",
          "name": "",
          "type": "address"
        }
      ],
      "stateMutability": "view",
      "type": "function"
    },
    {
      "inputs": [],
      "name": "renounceOwnership",
      "outputs": [],
      "stateMutability": "nonpayable",
      "type": "function"
    },
    {
      "inputs": [
        {
          "internalType": "address",
          "name": "from",
          "type": "address"
        },
        {
          "internalType": "address",
          "name": "to",
          "type": "address"
        },
        {
          "internalType": "uint256",
          "name": "tokenId",
          "type": "uint256"
        }
      ],
      "name": "safeTransferFrom",
      "outputs": [],
      "stateMutability": "nonpayable",
      "type": "function"
    },
    {
      "inputs": [
        {
          "internalType": "address",
          "name": "from",
          "type": "address"
        },
        {
          "internalType": "address",
          "name": "to",
          "type": "address"
        },
        {
          "internalType": "uint256",
          "name": "tokenId",
          "type": "uint256"
        },
        {
          "internalType": "bytes",
          "name": "_data",
          "type": "bytes"
        }
      ],
      "name": "safeTransferFrom",
      "outputs": [],
      "stateMutability": "nonpayable",
      "type": "function"
    },
    {
      "inputs": [
        {
          "internalType": "address",
          "name": "operator",
          "type": "address"
        },
        {
          "internalType": "bool",
          "name": "approved",
          "type": "bool"
        }
      ],
      "name": "setApprovalForAll",
      "outputs": [],
      "stateMutability": "nonpayable",
      "type": "function"
    },
    {
      "inputs": [
        {
          "internalType": "address",
          "name": "championFactoryAddress",
          "type": "address"
        }
      ],
      "name": "setChampionFactory",
      "outputs": [],
      "stateMutability": "nonpayable",
      "type": "function"
    },
    {
      "inputs": [
        {
          "internalType": "uint256",
          "name": "_rosterIndex",
          "type": "uint256"
        }
      ],
      "name": "setSelectChampion",
      "outputs": [],
      "stateMutability": "nonpayable",
      "type": "function"
    },
    {
      "inputs": [
        {
          "internalType": "bytes4",
          "name": "interfaceId",
          "type": "bytes4"
        }
      ],
      "name": "supportsInterface",
      "outputs": [
        {
          "internalType": "bool",
          "name": "",
          "type": "bool"
        }
      ],
      "stateMutability": "view",
      "type": "function"
    },
    {
      "inputs": [],
      "name": "symbol",
      "outputs": [
        {
          "internalType": "string",
          "name": "",
          "type": "string"
        }
      ],
      "stateMutability": "view",
      "type": "function"
    },
    {
      "inputs": [
        {
          "internalType": "uint256",
          "name": "_tokenId",
          "type": "uint256"
        }
      ],
      "name": "tokenURI",
      "outputs": [
        {
          "internalType": "string",
          "name": "",
          "type": "string"
        }
      ],
      "stateMutability": "view",
      "type": "function"
    },
    {
      "inputs": [
        {
          "internalType": "address",
          "name": "from",
          "type": "address"
        },
        {
          "internalType": "address",
          "name": "to",
          "type": "address"
        },
        {
          "internalType": "uint256",
          "name": "tokenId",
          "type": "uint256"
        }
      ],
      "name": "transferFrom",
      "outputs": [],
      "stateMutability": "nonpayable",
      "type": "function"
    },
    {
      "inputs": [
        {
          "internalType": "address",
          "name": "newOwner",
          "type": "address"
        }
      ],
      "name": "transferOwnership",
      "outputs": [],
      "stateMutability": "nonpayable",
      "type": "function"
    },
    {
      "inputs": [],
      "name": "userHasRoster",
      "outputs": [
        {
          "internalType": "bool",
          "name": "",
          "type": "bool"
        }
      ],
      "stateMutability": "view",
      "type": "function"
    }
  ],
  "bytecode": "0x60806040523480156200001157600080fd5b50604080518082018252601181527026a6a79037b710313637b1b5b1b430b4b760791b60208083019182528351808501909452600384526226a6a160e91b908401528151919291620000669160009162000115565b5080516200007c90600190602084019062000115565b5050506200009962000093620000b660201b60201c565b620000ba565b620000b060086200010c60201b620014cb1760201c565b620001f8565b3390565b600680546001600160a01b038381166001600160a01b0319831681179093556040519116919082907f8be0079c531659141344cd1fd0a4f28419497f9722a3daafe3b4186f6b6457e090600090a35050565b80546001019055565b8280546200012390620001bb565b90600052602060002090601f01602090048101928262000147576000855562000192565b82601f106200016257805160ff191683800117855562000192565b8280016001018555821562000192579182015b828111156200019257825182559160200191906001019062000175565b50620001a0929150620001a4565b5090565b5b80821115620001a05760008155600101620001a5565b600281046001821680620001d057607f821691505b60208210811415620001f257634e487b7160e01b600052602260045260246000fd5b50919050565b6130ae80620002086000396000f3fe608060405234801561001057600080fd5b50600436106101a35760003560e01c80637a70d6ce116100ee578063ba56957a11610097578063d6ff4a2e11610071578063d6ff4a2e14610343578063e985e9c514610368578063f2fde38b1461037b578063f866d86e1461038e576101a3565b8063ba56957a1461030a578063c87b56dd1461031d578063cb22f50414610330576101a3565b8063a22cb465116100c8578063a22cb465146102dc578063b4010cd7146102ef578063b88d4fde146102f7576101a3565b80637a70d6ce146102b75780638da5cb5b146102cc57806395d89b41146102d4576101a3565b8063301d2c66116101505780636484db811161012a5780636484db811461028757806370a082311461029c578063715018a6146102af576101a3565b8063301d2c661461024157806342842e0e146102615780636352211e14610274576101a3565b8063095ea7b311610181578063095ea7b31461020657806323b872dd1461021b5780632cce89851461022e576101a3565b806301ffc9a7146101a857806306fdde03146101d1578063081812fc146101e6575b600080fd5b6101bb6101b636600461232a565b6103a1565b6040516101c89190612841565b60405180910390f35b6101d961041b565b6040516101c8919061284c565b6101f96101f4366004612362565b6104ad565b6040516101c89190612773565b6102196102143660046121df565b6104f9565b005b6102196102293660046120cc565b610591565b61021961023c366004612362565b6105c9565b61025461024f366004612362565b610678565b6040516101c89190612de0565b61021961026f3660046120cc565b610a46565b6101f9610282366004612362565b610a61565b61028f610a96565b6040516101c89190612e41565b61028f6102aa366004612079565b610aa9565b610219610aed565b6102bf610b38565b6040516101c891906127fd565b6101f9610b98565b6101d9610ba7565b6102196102ea3660046121a5565b610bb6565b6101bb610bcc565b610219610305366004612107565b610be1565b61028f610318366004612079565b610c20565b6101d961032b366004612362565b610c32565b61021961033e366004612079565b610ce6565b610356610351366004612362565b610d47565b6040516101c896959493929190612884565b6101bb61037636600461209a565b6110e7565b610219610389366004612079565b611115565b61021961039c366004612362565b611186565b60006001600160e01b031982167f80ac58cd00000000000000000000000000000000000000000000000000000000148061040457506001600160e01b031982167f5b5e139f00000000000000000000000000000000000000000000000000000000145b806104135750610413826114d4565b90505b919050565b60606000805461042a90612f3d565b80601f016020809104026020016040519081016040528092919081815260200182805461045690612f3d565b80156104a35780601f10610478576101008083540402835291602001916104a3565b820191906000526020600020905b81548152906001019060200180831161048657829003601f168201915b5050505050905090565b60006104b882611506565b6104dd5760405162461bcd60e51b81526004016104d490612c48565b60405180910390fd5b506000908152600460205260409020546001600160a01b031690565b600061050482610a61565b9050806001600160a01b0316836001600160a01b031614156105385760405162461bcd60e51b81526004016104d490612d26565b806001600160a01b031661054a611523565b6001600160a01b03161480610566575061056681610376611523565b6105825760405162461bcd60e51b81526004016104d490612afc565b61058c8383611527565b505050565b6105a261059c611523565b82611595565b6105be5760405162461bcd60e51b81526004016104d490612d83565b61058c83838361161a565b60006105d3610b38565b90508051600014156105f75760405162461bcd60e51b81526004016104d490612cc9565b600081838151811061061957634e487b7160e01b600052603260045260246000fd5b602090810291909101810151336000818152600a90935260409283902082905591519092507f4ab331c7343bc62c19fcee84870baf1416412ec6d042360a819f31c0245d3bd49161066b9184906127c3565b60405180910390a1505050565b610680611e38565b6000828152600b602052604090819020815160c081019092528054829082906106a890612f3d565b80601f01602080910402602001604051908101604052809291908181526020018280546106d490612f3d565b80156107215780601f106106f657610100808354040283529160200191610721565b820191906000526020600020905b81548152906001019060200180831161070457829003601f168201915b5050505050815260200160018201548152602001600282015481526020016003820154815260200160048201548152602001600582016040518060a001604052908160008201805461077290612f3d565b80601f016020809104026020016040519081016040528092919081815260200182805461079e90612f3d565b80156107eb5780601f106107c0576101008083540402835291602001916107eb565b820191906000526020600020905b8154815290600101906020018083116107ce57829003601f168201915b5050505050815260200160018201805461080490612f3d565b80601f016020809104026020016040519081016040528092919081815260200182805461083090612f3d565b801561087d5780601f106108525761010080835404028352916020019161087d565b820191906000526020600020905b81548152906001019060200180831161086057829003601f168201915b5050505050815260200160028201805461089690612f3d565b80601f01602080910402602001604051908101604052809291908181526020018280546108c290612f3d565b801561090f5780601f106108e45761010080835404028352916020019161090f565b820191906000526020600020905b8154815290600101906020018083116108f257829003601f168201915b5050505050815260200160038201805461092890612f3d565b80601f016020809104026020016040519081016040528092919081815260200182805461095490612f3d565b80156109a15780601f10610976576101008083540402835291602001916109a1565b820191906000526020600020905b81548152906001019060200180831161098457829003601f168201915b505050505081526020016004820180546109ba90612f3d565b80601f01602080910402602001604051908101604052809291908181526020018280546109e690612f3d565b8015610a335780601f10610a0857610100808354040283529160200191610a33565b820191906000526020600020905b815481529060010190602001808311610a1657829003601f168201915b5050509190925250505090525092915050565b61058c83838360405180602001604052806000815250610be1565b6000818152600260205260408120546001600160a01b0316806104135760405162461bcd60e51b81526004016104d490612bb6565b336000908152600a602052604090205490565b60006001600160a01b038216610ad15760405162461bcd60e51b81526004016104d490612b59565b506001600160a01b031660009081526003602052604090205490565b610af5611523565b6001600160a01b0316610b06610b98565b6001600160a01b031614610b2c5760405162461bcd60e51b81526004016104d490612c94565b610b36600061174d565b565b336000908152600960209081526040918290208054835181840281018401909452808452606093928301828280156104a357602002820191906000526020600020905b815481526020019060010190808311610b7b575050505050905090565b6006546001600160a01b031690565b60606001805461042a90612f3d565b610bc8610bc1611523565b838361179f565b5050565b33600090815260096020526040902054151590565b610bf2610bec611523565b83611595565b610c0e5760405162461bcd60e51b81526004016104d490612d83565b610c1a84848484611842565b50505050565b600a6020526000908152604090205481565b6000818152600b60205260408120600181015460609290610c5290611875565b90506000610c638360020154611875565b90506000610c748460030154611875565b90506000610cb585610c8589611875565b604051610ca192919060058a0190899089908990602001612580565b6040516020818303038152906040526119c4565b9050600081604051602001610cca919061272e565b60408051808303601f1901815291905298975050505050505050565b610cee611523565b6001600160a01b0316610cff610b98565b6001600160a01b031614610d255760405162461bcd60e51b81526004016104d490612c94565b600780546001600160a01b0319166001600160a01b0392909216919091179055565b600b60205260009081526040902080548190610d6290612f3d565b80601f0160208091040260200160405190810160405280929190818152602001828054610d8e90612f3d565b8015610ddb5780601f10610db057610100808354040283529160200191610ddb565b820191906000526020600020905b815481529060010190602001808311610dbe57829003601f168201915b505050505090806001015490806002015490806003015490806004015490806005016040518060a0016040529081600082018054610e1890612f3d565b80601f0160208091040260200160405190810160405280929190818152602001828054610e4490612f3d565b8015610e915780601f10610e6657610100808354040283529160200191610e91565b820191906000526020600020905b815481529060010190602001808311610e7457829003601f168201915b50505050508152602001600182018054610eaa90612f3d565b80601f0160208091040260200160405190810160405280929190818152602001828054610ed690612f3d565b8015610f235780601f10610ef857610100808354040283529160200191610f23565b820191906000526020600020905b815481529060010190602001808311610f0657829003601f168201915b50505050508152602001600282018054610f3c90612f3d565b80601f0160208091040260200160405190810160405280929190818152602001828054610f6890612f3d565b8015610fb55780601f10610f8a57610100808354040283529160200191610fb5565b820191906000526020600020905b815481529060010190602001808311610f9857829003601f168201915b50505050508152602001600382018054610fce90612f3d565b80601f0160208091040260200160405190810160405280929190818152602001828054610ffa90612f3d565b80156110475780601f1061101c57610100808354040283529160200191611047565b820191906000526020600020905b81548152906001019060200180831161102a57829003601f168201915b5050505050815260200160048201805461106090612f3d565b80601f016020809104026020016040519081016040528092919081815260200182805461108c90612f3d565b80156110d95780601f106110ae576101008083540402835291602001916110d9565b820191906000526020600020905b8154815290600101906020018083116110bc57829003601f168201915b505050505081525050905086565b6001600160a01b03918216600090815260056020908152604080832093909416825291909152205460ff1690565b61111d611523565b6001600160a01b031661112e610b98565b6001600160a01b0316146111545760405162461bcd60e51b81526004016104d490612c94565b6001600160a01b03811661117a5760405162461bcd60e51b81526004016104d49061292b565b6111838161174d565b50565b60006111926008611b27565b90506111b7604051806060016040528060398152602001613040603991398383611b2b565b6111c13382611ba0565b336000908152600960209081526040808320805460018101825590845291832090910183905560075481517f84e859b300000000000000000000000000000000000000000000000000000000815291516001600160a01b03909116916384e859b39160048083019286929190829003018186803b15801561124157600080fd5b505afa158015611255573d6000803e3d6000fd5b505050506040513d6000823e601f3d908101601f1916820160405261127d9190810190612208565b90506040518060c001604052808285815181106112aa57634e487b7160e01b600052603260045260246000fd5b60200260200101516000015181526020018285815181106112db57634e487b7160e01b600052603260045260246000fd5b602002602001015160200151815260200182858151811061130c57634e487b7160e01b600052603260045260246000fd5b602002602001015160400151815260200182858151811061133d57634e487b7160e01b600052603260045260246000fd5b602002602001015160600151815260200182858151811061136e57634e487b7160e01b600052603260045260246000fd5b602002602001015160800151815260200182858151811061139f57634e487b7160e01b600052603260045260246000fd5b60209081029190910181015160a001519091526000848152600b8252604090208251805191926113d492849290910190611e73565b50602082810151600183015560408301516002830155606083015160038301556080830151600483015560a0830151805180519192600585019261141b9284920190611e73565b5060208281015180516114349260018501920190611e73565b5060408201518051611450916002840191602090910190611e73565b506060820151805161146c916003840191602090910190611e73565b5060808201518051611488916004840191602090910190611e73565b50505090505061149860086114cb565b7fd9d05697e27265a7dde2215564d09b5fef132a05c9693b089ef90388285596ce33838560405161066b939291906127dc565b80546001019055565b6001600160e01b031981167f01ffc9a70000000000000000000000000000000000000000000000000000000014919050565b6000908152600260205260409020546001600160a01b0316151590565b3390565b600081815260046020526040902080546001600160a01b0319166001600160a01b038416908117909155819061155c82610a61565b6001600160a01b03167f8c5be1e5ebec7d5bd14f71427d1e84f3dd0314c0f7b2291e5b200ac8c7c3b92560405160405180910390a45050565b60006115a082611506565b6115bc5760405162461bcd60e51b81526004016104d490612ab0565b60006115c783610a61565b9050806001600160a01b0316846001600160a01b031614806116025750836001600160a01b03166115f7846104ad565b6001600160a01b0316145b80611612575061161281856110e7565b949350505050565b826001600160a01b031661162d82610a61565b6001600160a01b0316146116535760405162461bcd60e51b81526004016104d490612988565b6001600160a01b0382166116795760405162461bcd60e51b81526004016104d490612a1c565b61168483838361058c565b61168f600082611527565b6001600160a01b03831660009081526003602052604081208054600192906116b8908490612efa565b90915550506001600160a01b03821660009081526003602052604081208054600192906116e6908490612eaf565b909155505060008181526002602052604080822080546001600160a01b0319166001600160a01b0386811691821790925591518493918716917fddf252ad1be2c89b69c2b068fc378daa952ba7f163c4a11628f55a4df523b3ef91a461058c83838361058c565b600680546001600160a01b038381166001600160a01b0319831681179093556040519116919082907f8be0079c531659141344cd1fd0a4f28419497f9722a3daafe3b4186f6b6457e090600090a35050565b816001600160a01b0316836001600160a01b031614156117d15760405162461bcd60e51b81526004016104d490612a79565b6001600160a01b0383811660008181526005602090815260408083209487168084529490915290819020805460ff1916851515179055517f17307eab39ab6107e8899845ad3d59bd9653f200f220920489ca2b5937696c3190611835908590612841565b60405180910390a3505050565b61184d84848461161a565b61185984848484611bba565b610c1a5760405162461bcd60e51b81526004016104d4906128ce565b6060816118b6575060408051808201909152600181527f30000000000000000000000000000000000000000000000000000000000000006020820152610416565b8160005b81156118e057806118ca81612f78565b91506118d99050600a83612ec7565b91506118ba565b60008167ffffffffffffffff81111561190957634e487b7160e01b600052604160045260246000fd5b6040519080825280601f01601f191660200182016040528015611933576020820181803683370190505b5090505b841561161257611948600183612efa565b9150611955600a86612f93565b611960906030612eaf565b60f81b81838151811061198357634e487b7160e01b600052603260045260246000fd5b60200101907effffffffffffffffffffffffffffffffffffffffffffffffffffffffffffff1916908160001a9053506119bd600a86612ec7565b9450611937565b60608151600014156119e55750604080516020810190915260008152610416565b60006040518060600160405280604081526020016130006040913990506000600384516002611a149190612eaf565b611a1e9190612ec7565b611a29906004612edb565b67ffffffffffffffff811115611a4f57634e487b7160e01b600052604160045260246000fd5b6040519080825280601f01601f191660200182016040528015611a79576020820181803683370190505b509050600182016020820185865187015b80821015611ae5576003820191508151603f8160121c168501518453600184019350603f81600c1c168501518453600184019350603f8160061c168501518453600184019350603f8116850151845350600183019250611a8a565b5050600386510660018114611b015760028114611b1457611b1c565b603d6001830353603d6002830353611b1c565b603d60018303535b509195945050505050565b5490565b61058c838383604051602401611b439392919061285f565b60408051601f198184030181529190526020810180517bffffffffffffffffffffffffffffffffffffffffffffffffffffffff167f969cdd0300000000000000000000000000000000000000000000000000000000179052611cee565b610bc8828260405180602001604052806000815250611d0f565b6000611bce846001600160a01b0316611d42565b15611ce357836001600160a01b031663150b7a02611bea611523565b8786866040518563ffffffff1660e01b8152600401611c0c9493929190612787565b602060405180830381600087803b158015611c2657600080fd5b505af1925050508015611c56575060408051601f3d908101601f19168201909252611c5391810190612346565b60015b611cb0573d808015611c84576040519150601f19603f3d011682016040523d82523d6000602084013e611c89565b606091505b508051611ca85760405162461bcd60e51b81526004016104d4906128ce565b805181602001fd5b6001600160e01b0319167f150b7a0200000000000000000000000000000000000000000000000000000000149050611612565b506001949350505050565b80516a636f6e736f6c652e6c6f67602083016000808483855afa5050505050565b611d198383611d51565b611d266000848484611bba565b61058c5760405162461bcd60e51b81526004016104d4906128ce565b6001600160a01b03163b151590565b6001600160a01b038216611d775760405162461bcd60e51b81526004016104d490612c13565b611d8081611506565b15611d9d5760405162461bcd60e51b81526004016104d4906129e5565b611da96000838361058c565b6001600160a01b0382166000908152600360205260408120805460019290611dd2908490612eaf565b909155505060008181526002602052604080822080546001600160a01b0319166001600160a01b03861690811790915590518392907fddf252ad1be2c89b69c2b068fc378daa952ba7f163c4a11628f55a4df523b3ef908290a4610bc86000838361058c565b6040518060c001604052806060815260200160008152602001600081526020016000815260200160008152602001611e6e611ef7565b905290565b828054611e7f90612f3d565b90600052602060002090601f016020900481019282611ea15760008555611ee7565b82601f10611eba57805160ff1916838001178555611ee7565b82800160010185558215611ee7579182015b82811115611ee7578251825591602001919060010190611ecc565b50611ef3929150611f26565b5090565b6040518060a0016040528060608152602001606081526020016060815260200160608152602001606081525090565b5b80821115611ef35760008155600101611f27565b80356001600160a01b038116811461041657600080fd5b600082601f830112611f62578081fd5b8151611f75611f7082612e7b565b612e4a565b818152846020838601011115611f89578283fd5b611612826020830160208701612f11565b600060a08284031215611fab578081fd5b611fb560a0612e4a565b9050815167ffffffffffffffff80821115611fcf57600080fd5b611fdb85838601611f52565b83526020840151915080821115611ff157600080fd5b611ffd85838601611f52565b6020840152604084015191508082111561201657600080fd5b61202285838601611f52565b6040840152606084015191508082111561203b57600080fd5b61204785838601611f52565b6060840152608084015191508082111561206057600080fd5b5061206d84828501611f52565b60808301525092915050565b60006020828403121561208a578081fd5b61209382611f3b565b9392505050565b600080604083850312156120ac578081fd5b6120b583611f3b565b91506120c360208401611f3b565b90509250929050565b6000806000606084860312156120e0578081fd5b6120e984611f3b565b92506120f760208501611f3b565b9150604084013590509250925092565b6000806000806080858703121561211c578081fd5b61212585611f3b565b935061213360208601611f3b565b925060408501359150606085013567ffffffffffffffff811115612155578182fd5b8501601f81018713612165578182fd5b8035612173611f7082612e7b565b818152886020838501011115612187578384fd5b81602084016020830137908101602001929092525092959194509250565b600080604083850312156121b7578182fd5b6121c083611f3b565b9150602083013580151581146121d4578182fd5b809150509250929050565b600080604083850312156121f1578182fd5b6121fa83611f3b565b946020939093013593505050565b6000602080838503121561221a578182fd5b825167ffffffffffffffff80821115612231578384fd5b818501915085601f830112612244578384fd5b81518181111561225657612256612fd3565b6122638485830201612e4a565b81815284810190848601875b8481101561231b578151870160c080601f19838f0301121561228f578a8bfd5b61229881612e4a565b8a830151898111156122a8578c8dfd5b6122b68f8d83870101611f52565b8252506040808401518c83015260608085015182840152608085015181840152505060a0808401516080830152828401519250898311156122f5578c8dfd5b6123038f8d85870101611f9a565b9082015286525050928701929087019060010161226f565b50909998505050505050505050565b60006020828403121561233b578081fd5b813561209381612fe9565b600060208284031215612357578081fd5b815161209381612fe9565b600060208284031215612373578081fd5b5035919050565b60008151808452612392816020860160208601612f11565b601f01601f19169290920160200192915050565b600081516123b8818560208601612f11565b9290920192915050565b8054600090600281046001808316806123dc57607f831692505b60208084108214156123fc57634e487b7160e01b86526022600452602486fd5b81801561241057600181146124215761244e565b60ff1986168952848901965061244e565b61242a88612ea3565b60005b868110156124465781548b82015290850190830161242d565b505084890196505b50505050505092915050565b7f2c20226d61785f76616c7565223a0000000000000000000000000000000000008152600e0190565b7f7d205d7d00000000000000000000000000000000000000000000000000000000815260040190565b7f7d2c207b202274726169745f74797065223a202241747461636b2044616d616781527f65222c202276616c7565223a20000000000000000000000000000000000000006020820152602d0190565b6000815160a0845261251060a085018261237a565b905060208301518482036020860152612529828261237a565b91505060408301518482036040860152612543828261237a565b9150506060830151848203606086015261255d828261237a565b91505060808301518482036080860152612577828261237a565b95945050505050565b60007f7b226e616d65223a20220000000000000000000000000000000000000000000082526125b2600a8301896123c2565b7f202d2d204e465420233a20000000000000000000000000000000000000000000815287516125e881600b840160208c01612f11565b7f222c20226465736372697074696f6e223a20225468697320697320616e204e46600b92909101918201527f542074686174206c6574732070656f706c6520706c617920696e207468652067602b8201527f616d65204d657461766572736520536c6179657221222c2022696d616765223a604b8201527f2022000000000000000000000000000000000000000000000000000000000000606b820152612692606d8201886123c2565b90507f222c202261747472696275746573223a205b207b202274726169745f7479706581527f223a20224865616c746820506f696e7473222c202276616c7565223a20000000602082015285516126f081603d840160208a01612f11565b61272061271b61271561271061270a603d8688010161245a565b8a6123a6565b6124ac565b876123a6565b612483565b9a9950505050505050505050565b60007f646174613a6170706c69636174696f6e2f6a736f6e3b6261736536342c0000008252825161276681601d850160208701612f11565b91909101601d0192915050565b6001600160a01b0391909116815260200190565b60006001600160a01b038087168352808616602084015250836040830152608060608301526127b9608083018461237a565b9695505050505050565b6001600160a01b03929092168252602082015260400190565b6001600160a01b039390931683526020830191909152604082015260600190565b6020808252825182820181905260009190848201906040850190845b8181101561283557835183529284019291840191600101612819565b50909695505050505050565b901515815260200190565b600060208252612093602083018461237a565b600060608252612872606083018661237a565b60208301949094525060400152919050565b600060c0825261289760c083018961237a565b87602084015286604084015285606084015284608084015282810360a08401526128c181856124fb565b9998505050505050505050565b60208082526032908201527f4552433732313a207472616e7366657220746f206e6f6e20455243373231526560408201527f63656976657220696d706c656d656e7465720000000000000000000000000000606082015260800190565b60208082526026908201527f4f776e61626c653a206e6577206f776e657220697320746865207a65726f206160408201527f6464726573730000000000000000000000000000000000000000000000000000606082015260800190565b60208082526025908201527f4552433732313a207472616e736665722066726f6d20696e636f72726563742060408201527f6f776e6572000000000000000000000000000000000000000000000000000000606082015260800190565b6020808252601c908201527f4552433732313a20746f6b656e20616c7265616479206d696e74656400000000604082015260600190565b60208082526024908201527f4552433732313a207472616e7366657220746f20746865207a65726f2061646460408201527f7265737300000000000000000000000000000000000000000000000000000000606082015260800190565b60208082526019908201527f4552433732313a20617070726f766520746f2063616c6c657200000000000000604082015260600190565b6020808252602c908201527f4552433732313a206f70657261746f7220717565727920666f72206e6f6e657860408201526b34b9ba32b73a103a37b5b2b760a11b606082015260800190565b60208082526038908201527f4552433732313a20617070726f76652063616c6c6572206973206e6f74206f7760408201527f6e6572206e6f7220617070726f76656420666f7220616c6c0000000000000000606082015260800190565b6020808252602a908201527f4552433732313a2062616c616e636520717565727920666f7220746865207a6560408201527f726f206164647265737300000000000000000000000000000000000000000000606082015260800190565b60208082526029908201527f4552433732313a206f776e657220717565727920666f72206e6f6e657869737460408201527f656e7420746f6b656e0000000000000000000000000000000000000000000000606082015260800190565b6020808252818101527f4552433732313a206d696e7420746f20746865207a65726f2061646472657373604082015260600190565b6020808252602c908201527f4552433732313a20617070726f76656420717565727920666f72206e6f6e657860408201526b34b9ba32b73a103a37b5b2b760a11b606082015260800190565b6020808252818101527f4f776e61626c653a2063616c6c6572206973206e6f7420746865206f776e6572604082015260600190565b6020808252602d908201527f55736572206d7573742068617665206120726f7374657220746f2073656c656360408201527f742061206368616d70696f6e2e00000000000000000000000000000000000000606082015260800190565b60208082526021908201527f4552433732313a20617070726f76616c20746f2063757272656e74206f776e6560408201527f7200000000000000000000000000000000000000000000000000000000000000606082015260800190565b60208082526031908201527f4552433732313a207472616e736665722063616c6c6572206973206e6f74206f60408201527f776e6572206e6f7220617070726f766564000000000000000000000000000000606082015260800190565b600060208252825160c06020840152612dfc60e084018261237a565b9050602084015160408401526040840151606084015260608401516080840152608084015160a084015260a0840151601f198483030160c085015261257782826124fb565b90815260200190565b604051601f8201601f1916810167ffffffffffffffff81118282101715612e7357612e73612fd3565b604052919050565b600067ffffffffffffffff821115612e9557612e95612fd3565b50601f01601f191660200190565b60009081526020902090565b60008219821115612ec257612ec2612fa7565b500190565b600082612ed657612ed6612fbd565b500490565b6000816000190483118215151615612ef557612ef5612fa7565b500290565b600082821015612f0c57612f0c612fa7565b500390565b60005b83811015612f2c578181015183820152602001612f14565b83811115610c1a5750506000910152565b600281046001821680612f5157607f821691505b60208210811415612f7257634e487b7160e01b600052602260045260246000fd5b50919050565b6000600019821415612f8c57612f8c612fa7565b5060010190565b600082612fa257612fa2612fbd565b500690565b634e487b7160e01b600052601160045260246000fd5b634e487b7160e01b600052601260045260246000fd5b634e487b7160e01b600052604160045260246000fd5b6001600160e01b03198116811461118357600080fdfe4142434445464748494a4b4c4d4e4f505152535455565758595a6162636465666768696a6b6c6d6e6f707172737475767778797a303132333435363738392b2f5265676973746572696e67206368616d70696f6e6964202573206f6e2074686520636f6e7472616374207769746820746f6b656e4944202564a2646970667358221220d4ec3e404f49c74c3412141064b9c6558c315534ba6a1866a8d1d957d9b7bb4564736f6c63430008010033",
  "linkReferences": {},
  "deployedLinkReferences": {}
}